:020000040800F2
:10000000A8320020FD240308DD230308DF230308B2
:10001000E1230308E3230308E523030800000000AD
:10002000000000000000000000000000E7230308BB
:10003000E923030800000000EB230308ED23030875
:10004000272503082B2503082F250308332503083C
:10005000372503083B2503083F250308032403082D
:1000600043250308472503084B2503084F250308AC
:1000700053250308572503085B2503085F2503085C
:1000800063250308672503086B2503086F2503080C
:1000900073250308772503087B2503087F250308BC
:1000A00083250308872503088B2503088F2503086C
:1000B00093250308972503089B2503089F2503081C
:1000C000A3250308A7250308AB250308AF250308CC
:1000D000B3250308B7250308BB250308BF2503087C
:1000E000FB230308C3250308C7250308CB25030802
:1000F000CF250308D3250308D7250308DB250308EC
:10010000DF250308E3250308E7250308FD19020896
:10011000EB250308EF250308F3250308F72503085B
:10012000FB250308FF250308032603080726030809
:100130000B2603080F2603081326030817260308B7
:100140001B2603081F260308232603082726030867
:100150002B2603082F260308332603083726030817
:100160003B2603083F2603084326030847260308C7
:100170004B2603084F260308000000000000000083
:10018000532603085726030800281CBF00680028D0
:1001900001D10020704790F901007047816B002960
:1001A0001CBFD1F83C11002901D0086870470068D5
:1001B000816C0029F9D10020704702E0002200F88C
:1001C000012B0A46511E002AF8D170477CB504461F
:1001D0000D46206D80B10FF22406DFF8E82A019564
:1001E0000096522301F09EFAE06C236D2A46A9087E
:1001F00002B0BDE87040184773BD00007365745FBE
:1002000074696D657220746F202564206D73000021
:100210002DE9F84FB4B004468A4617461D46684695
:1002200003F083FD204603F067FD040008BFDFF8FC
:10023000880D6DD0DDF8FC80039503F09DFE05462A
:10024000039803F0A1FE40194044802888BFDFF8DE
:100250006C0D5DD83E9E039803F096FE834614A86D
:1002600000EB050903995A46484603F0BBFE424697
:10027000314609EB0B0003F0B5FE0122214668462A
:1002800003F074FD0028D84442D1419E409C3A4678
:100290005146684603F0B9FD4246494600F040F831
:1002A00000F039F8B6FBF5FA002705FB1A6AA844F6
:1002B00009E004AB00EB070C1B5C04F80C30401C9D
:1002C0008842F6D31746B742684616D203F028FE96
:1002D000424600F024F804A900F01EF8684603F036
:1002E0001FFE2A4600F01BF800F015F8EA199642A6
:1002F00034BF514629460020E2E703F01CFD80216F
:1003000014A8FFF75AFF402104A8FFF756FF00206A
:1003100035B0BDE8F08F14A9684603F0D7BD14A925
:10032000684603F0C2BD7FB500F00AF8062003E07E
:100330007FB500F005F80720FFF76AFF04B070BD35
:1003400000931346089C099D0A9E03960A4601469F
:100350000295019470472DE9F84F0646E4B0706BA2
:10036000DFF86089DFF8544C059040F2F513B76C64
:10037000B06B049042460FF28C40009002F0BBF844
:10038000386890F9080003F08FFE5FEA000B3868C8
:1003900008D190F908000FF27C410190009140F2E1
:1003A000FB130EE090F9090003F0A6FC079068B972
:1003B00039680FF2804291F909000190009240F2F1
:1003C00003234246012102F097F805E27069DFF845
:1003D000E89BDFF8ECAB032810D10499386801F5ED
:1003E000277590F9091007290DD1DFF8400EA86094
:1003F0000FF2BD502860DFF8380E0CE0CDF800A0F9
:1004000040F23223ABE1DFF82C0EA8600FF235503A
:100410002860DFF8240E6860049800F52B710391C2
:100420000499D1F8300300286CD104980FF22842C7
:1004300000F53B71069140F24323E968069802916A
:100440000190009200F073FAB06BD0F844130129C8
:100450003CD10FF21840009040F24B2300F06CFAB0
:10046000B26BD2F89C3208A93046984770690328CD
:1004700008D1B16C086890F90920072A14BF20241C
:10048000302400E0242408A80FF2004101900091DC
:1004900002944FF4187342460321304604F00AF8E0
:1004A0000599302001F12C02029001920094E96834
:1004B0000698AC680FF2E43208ABA04704001CD0E9
:1004C000CFA0019400904FF41A7383E13020029082
:1004D00040200599039B009001F12C020192E968EC
:1004E0000698AC680FF21042A047040005D0C4A0E3
:1004F0000194009040F275236CE106984221FFF7C9
:100500005CFE06E00FF2AC3000904FF41F7300F079
:1005100013FA0399402254A803F074FD0398202293
:100520005CA903F06FFD0498202254A900F53370F4
:1005300003F068FD402154A8FFF73FFE4FF48070A0
:10054000029014A940220191009230210598039B4A
:10055000AC680FF280322C30A047040005D0A8A070
:100560000194009040F2962334E10598006804F06D
:1005700075FA0FF270310190009140F29B2300F068
:10058000DBF9302002904FF4277305990FF26830A1
:10059000009001F12C02019200F0C9F903990FF2C9
:1005A0006832019140200290009240F29D23424621
:1005B0000421304603F07EFF4FF4807014A90FF23F
:1005C000583202900191009240F29E2302F020F9ED
:1005D00003984021FFF7F1FDDBF80400C0087860C4
:1005E0009BF90100062818BF082834D10020786143
:1005F0000C20F860042038613868017F88074CBF00
:1006000010201820B86078690FF20041049040F281
:10061000FF23F86803904246B8680290786801901A
:1006200000913046032103F0EDFE306890F874101D
:10063000C80700F18B80786914A901EB400202928F
:100640007968541814AA104400903869002814BF1F
:100650000546FD683CE00799012207F1380003F0E8
:1006600085FB040007D10799012207F1440003F03C
:100670007DFB040006D00FF2C4300194009040F2DC
:10068000BB23A7E0079803F077FC78610598416FDA
:10069000012904BF0A207861DBF80C007969F86051
:1006A0009BF90120072A08BFB960ACD0DBF8142001
:1006B000B1FBF2F102FB0121B9607269022A14BF99
:1006C000032A40189ED0CDF800A040F2F72346E060
:1006D0002A46214407F1180003F084FC786820447E
:1006E00041192A4607F1280003F07CFC70690028B4
:1006F00031DD7A6914A907F1380003F086FB7A69C5
:10070000009907F1440003F080FB3068D0F83CC04A
:10071000BCF1000F08D0019514AA796800910599E1
:100720007B69006C2C31E047594607F1500003F01B
:10073000F5FC05000FF2183A16D00195CDF800A08F
:1007400040F26D3300F0EEF8284654E0CDF800A0FA
:1007500040F22D3303E0CDF800A040F24933424689
:10076000012101F0C9FE10E007F18805594628462D
:1007700003F0D4FC5FEA000909D0CDF80490CDF86D
:1007800000A04FF45D7300F0CDF8484633E0DBF88D
:1007900004200299012307F1500003F0D4FC070064
:1007A0000FF2C42908D00197CDF800904FF45F7381
:1007B00000F0B8F838461EE0DBF80420002321469C
:1007C000284603F0C0FC040008D00194CDF8009046
:1007D0004FF4617300F0A6F820460CE04FF48071EE
:1007E00014A8FFF7EAFC0FF29820009040F2BD3306
:1007F00001F080FE002065B0BDE8F08F0000000031
:10080000707266003D3E20646572697665206B6596
:100810007973000063697068657220696E666F2085
:10082000666F72202564206E6F7420666F756E642B
:10083000000000006D626564746C735F6D64206914
:100840006E666F20666F72202564206E6F7420665E
:100850006F756E64000000007072656D6173746581
:100860007220736563726574000000007573696EB1
:100870006720657874656E646564206D6173746566
:100880007220736563726574000000007365737392
:10089000696F6E2068617368000000006578746598
:1008A0006E646564206D6173746572207365637234
:1008B000657400006E6F207072656D61737465728F
:1008C000202873657373696F6E20726573756D652B
:1008D000642900006B657920657870616E73696FBB
:1008E0006E000000636970686572737569746520D5
:1008F0003D202573000000006D61737465722073E4
:10090000656372657400000072616E646F6D2062D1
:1009100079746573000000006B657920626C6F6309
:100920006B00000042460121304603F096BD0321D2
:100930004246304603F0BEBD42460321304603F036
:1009400061BD000070B59EB004460D4603A804F0DA
:10095000DDFA0FF23C11DFF86C66009140F21643AD
:1009600002F0A9FCA06B00F5A87103A804F0DCFA62
:10097000294603A804F06BFF20200290019540F265
:100980001B4300F00CF80FF25410009040F21C438F
:1009900002F091FC03A804F0BCFA1EB070BD0FF287
:1009A0000810009032460321204603F083BD00006A
:1009B00070B5BAB004460D4604A805F0B1F80FF2C0
:1009C0000411DFF80066009140F22B4302F073FC43
:1009D000A06B00F5E07104A805F0B0F8294604A862
:1009E00005F063FD3020029001954FF48663FFF718
:1009F000D6FF0FF2E800009040F2314302F05BFCBA
:100A000004A805F090F83AB070BD00006B65796CF1
:100A1000656E3A2025642C206D696E6C656E3A20F7
:100A200025642C2069766C656E3A2025642C206D37
:100A300061636C656E3A2025640000006D62656438
:100A4000746C735F6D645F73657475700000000093
:100A50006D626564746C735F6369706865725F73FF
:100A600065747570000000006D626564746C735F7E
:100A70006369706865725F7365746B657900000007
:100A80003C3D20646572697665206B657973000072
:100A90003D3E2063616C63207665726966792073E0
:100AA000686132353600000063616C63756C617497
:100AB00065642076657269667920726573756C74F9
:100AC000000000003D3E2063616C63207665726922
:100AD0006679207368613338340000003C3D206340
:100AE000616C632076657269667900002DE9F04FCC
:100AF0008DB005460FF2D010DFF8C881DFF8B8944A
:100B0000DFF8BC64009040F2EA43424602F033F959
:100B1000E86A00281CBF286C002803D1009640F228
:100B2000EE43C6E05030FFF72FFB05F19007044677
:100B3000B8690FF2A411029040F2F54338690190B0
:100B40000091424600F01AF9062C18BF082C40F01C
:100B5000AD8009AC286C01680A7F09A99007386844
:100B600002680A604CBF4FF0080A4FF0100A426852
:100B70004A600DF12D037869207200F049FD02F002
:100B800033FFB8690FF2A442000A8DF82F0009A9BB
:100B9000B869207301910D200290009240F25B53DE
:100BA00042460421284603F085FC286C0169C2688E
:100BB000521A082A03D0009640F2635379E03A684B
:100BC0000844116840F8181F40F26C5351684160A6
:100BD0003868F96802680A6042684A604246286CD0
:100BE000C1680069091A0291F8680FF2604101902A
:100BF00000912846042103F05DFC3C69B969079126
:100C00004FF4AF632A6CD06841181069091AB961B2
:100C100000200290019142460FF2DC00009001F0AA
:100C200052FF08A9079804EB000B286C0491CDF83B
:100C300018A0CDF814B00394019409AB0799029160
:100C40000D21009100F11801C268503003F042FB01
:100C500004000AD00FF2DC000090019440F28553AA
:100C6000424600F0A8FF204628E0089807998842ED
:100C700003D0009640F28B531BE0B8695044B86132
:100C8000CDF808A0CDF804B040F292530FF2C000A6
:100C90000090424600F072F80FF2C80000904FF446
:100CA000C363424602F067F8002007E0009640F276
:100CB0000D634246012102F05FF848460DB0BDE8E1
:100CC000F08F0000243A00083D3E20656E63727983
:100CD00070742062756600006265666F72652065DB
:100CE0006E63727970743A206F75747075742070C9
:100CF00061796C6F616400006265666F7265206582
:100D00006E63727970743A206D73676C656E203D06
:100D10002025642C20696E636C7564696E672025DC
:100D200064206279746573206F6620706164646901
:100D30006E6700006D626564746C735F63697068F0
:100D400065725F617574685F656E63727970740057
:100D5000616674657220656E63727970743A20748E
:100D6000616700003C3D20656E637279707420629B
:100D700075660000E86E0190009132460421284615
:100D800003F098BB2DE9F84F8EB004460FF23820DF
:100D9000DFF830A2DFF820B2DFF8248200904FF4B1
:100DA000C563524602F088FAA06A00281CBFE06BB7
:100DB000002804D1CDF8008040F22C63CBE08830CD
:100DC000FFF7E2F9E16BA66F8A68DFF8549D96425F
:100DD00006D20292019640F235630FF2FC1017E042
:100DE000062818BF082840F0B2800868027F9007E4
:100DF000CA6808694CBF08251025101A29188E42A8
:100E000008D203950290019640F265630FF2E81054
:100E1000009096E0361AE06E0790761B0990A66760
:100E20000AA9E06D02680A600AAF42684A600DF1E3
:100E30003103606F38722068416F2069C1F340024E
:100E4000616902F0D1FDA06F0FF2E012000A8DF887
:100E500033000AA9A06F387301910D20029000920F
:100E600040F2766352460421204603F023FBE06BF8
:100E70000369C268A16E1844D21A283003F0B2F890
:100E8000E06BC168029128300FF2C011019000910F
:100E900040F27D6352460421FFF786FD07980295D4
:100EA0008719019740F27E630FF2A8100090524616
:100EB0000421FFF779FDE06B0695059708A9099ACB
:100EC0000491039202960D2207990092019100F17C
:100ED0002801C2680AAB883003F036FA05000DD04D
:100EE0000FF27C100090019540F28B63524602F0A5
:100EF0000AFB15F5C64F28D028464BE00898B042AB
:100F000004D0CDF8008040F2966324E0A06F0FF289
:100F10006C1102904FF4EF63E06E01900091524625
:100F20000421FFF741FDA06FD8B9D4F88400401C1C
:100F30000428C4F8840017DB0FF25C1000904FF413
:100F4000FD635246012102F0B8F9484622E0CDF88F
:100F5000008040F273735246012102F0AEF9584608
:100F600018E00020C4F884000821E06D401E425CB7
:100F7000521C4254E36D581E405C70B9491EF4D1B6
:100F80000DE040F603030FF250100090524602F0BD
:100F900093F900200FB0BDE8F08F0029F1D10FF2D6
:100FA0004810009040F2FE735246012102F085F98C
:100FB000DFF8A40DEEE700000094FFFF008FFFFFB5
:100FC000803A0008243A00083D3E20646563727947
:100FD0007074206275660000696E5F6D73676C6582
:100FE0006E2028256429203C206D696E6C656E207A
:100FF00028256429000000006D73676C656E202849
:10100000256429203C206578706C696369745F6988
:10101000765F6C656E2028256429202B207461671B
:101020006C656E20282564290000000061646469F5
:1010300074696F6E616C206461746120757365649E
:1010400020666F72204145414400000049562075DA
:1010500073656400544147207573656400000000A7
:101060006D626564746C735F6369706865725F61FB
:101070007574685F6465637279707400726177205B
:101080006275666665722061667465722064656368
:1010900072797074696F6E007265636569766564F4
:1010A00020666F757220636F6E7365637574697601
:1010B0006520656D707479206D6573736167657304
:1010C0002C20706F737369626C6520446F532061CC
:1010D000747461636B0000003C3D20646563727949
:1010E0007074206275660000696E636F6D696E676B
:1010F000206D65737361676520636F756E746572CB
:1011000020776F756C642077726170002DE9FE4F57
:1011100004460FF22810DFF8449CDFF8445C00908E
:101120000E464FF40A634A4602F0C6F8E169002908
:1011300004BF206A002805D10FF27C21009140F6FF
:10114000A5030CE0206E41F29D71091AA06D4118B3
:10115000B1420AD20FF2F400009040F6AB034A46C7
:10116000012102F0AAF828465DE0029640F63E13FF
:10117000E06F0FF2F805DFF88CBD0FF20C1801904C
:1011800000954A4602F098F840F6561A03E03DD41E
:10119000E06F3F18E767E76FB74239D2616DF71B21
:1011A00059B1E06C8847022807D1CDF80080602350
:1011B0004A4600F0B7FA5F4611E0206EE16FD4F8BE
:1011C00020C00144606ABCF1000F04D02268136E95
:1011D0003A46E04702E0E3693A46984707460296F6
:1011E0005346E06F019000954A4602F065F80FF211
:1011F000A8000197009040F657134A46022102F0DA
:1012000083F9002FC3D1DFF8000D0CE038460AE067
:101210000FF29C010091204640F663134A460221DA
:1012200003F0F0F80020BDE8FE8F00003103000855
:101230001B280008270300084B2700083D3E2066B6
:101240006574636820696E707574000072657175ED
:10125000657374696E67206D6F7265206461746177
:10126000207468616E20666974730000696E5F6C3B
:101270006566743A2025642C206E625F77616E7417
:101280003A2025640000000074696D65722065785D
:10129000706972656400000073736C2D3E665F7246
:1012A000656376285F74696D656F75742900000049
:1012B0003C3D20666574636820696E70757400003B
:1012C0002DE9FF4104460FF2E000DFF8908A00901C
:1012D0004FF41763424601F0EFFFA06958B90FF2CF
:1012E000D801009140F675134246012101F0E5FF57
:1012F000DFF86C0A55E004F190060FF2F807F06988
:1013000030B9009740F67C1347E0F069451BF56162
:10131000F069A0B3029040F68313B0690FF2E401C4
:101320000091401D0190424601F0C6FFF0697168CE
:10133000B3690246194440420844411D606AA369EA
:1013400098470546019540F689130FF2DC0000909E
:101350004246022102F0D8F8002DD6DC284620E0D3
:10136000491EC9B261B90FF2CC00009040F6981343
:101370004246012101F0A1FFDFF8DC0911E008215C
:101380003068401E425C521C42543368581E405C18
:101390000028E5D0009740F69C13424601F08CFFF0
:1013A000002004B0BDE8F0813D3E20666C75736896
:1013B000206F757470757400426164207573616785
:1013C00065206F66206D626564746C735F73736C07
:1013D0005F7365745F62696F2829206F72206D6288
:1013E0006564746C735F73736C5F7365745F62695B
:1013F0006F2829003C3D20666C757368206F7574FA
:10140000707574006D657373616765206C656E67D8
:1014100074683A2025642C206F75745F6C6566745F
:101420003A2025640000000073736C2D3E665F73E4
:10143000656E64006F7574676F696E67206D6573A4
:101440007361676520636F756E74657220776F7561
:101450006C64207772617000F0B5054605F1940761
:1014600085B07C690FF21C1001F0C2FB40F68D23A1
:1014700001F080FC3869162821D1FA68107868B12B
:10148000A96B59B9DFF8840A009040F69F233246D1
:10149000012101F071FCDFF8780A71E0211F0B0CCB
:1014A0005370090AFA689170211FFA68D17030B13F
:1014B000AB6BF968D3F898C222462846E0473968F2
:1014C000386908703868431C00F0A2F802F08CFA02
:1014D0007968200A087079684C70286C88B12846B1
:1014E000FFF704FB040006D00FF2A800019400905F
:1014F00040F6083338E078697A68010A1170796833
:10150000487040F6163378693968401DB8617868CC
:101510000278407840EA02200490324688780390AE
:101520004878029008780FF27C01019000912846DB
:10153000032102F067FF78690FF2A402401D0290B8
:1015400040F6193339680191009204213246FFF7C1
:1015500016FC2846FFF7B4FE040009D0DFF8B409F2
:101560000194009040F61E3300F024FB204607E073
:101570000FF28C00009040F6223301F0FBFB0020BC
:1015800005B0F0BD3D3E20777269746520726563D9
:101590006F72640073736C5F656E63727970745FF1
:1015A000627566006F7574707574207265636F7212
:1015B000643A206D736774797065203D2025642C32
:1015C0002076657273696F6E203D205B25643A2535
:1015D000645D2C206D73676C656E203D2025640072
:1015E0006F7574707574207265636F7264207365B3
:1015F0006E7420746F206E6574776F726B000000DC
:101600003C3D207772697465207265636F72640077
:101610002868416F2869C1F340026969704738B58D
:10162000044684B0A16FDFF8345704290CD20FF2BE
:1016300070000191009040F606432A46012101F016
:101640003CFEDFF80C0D28E0E26E937850781B0228
:1016500043EA0043D07803431B1DC4F88030039352
:1016600040F6114312780FF2580002920191009057
:101670002A4600F057F8A06FD4F8801088420BD2A9
:101680000FF27400009040F64F432A46012101F00A
:1016900014FEDFF8C00C00E0002005B030BD0000F3
:1016A00068616E647368616B65206D6573736167F3
:1016B0006520746F6F2073686F72743A2025640020
:1016C00068616E647368616B65206D6573736167D3
:1016D000653A206D73676C656E203D2025642C2073
:1016E00074797065203D2025642C2068736C656ECC
:1016F000203D202564000000544C532068616E6436
:101700007368616B6520667261676D656E74617484
:10171000696F6E206E6F7420737570706F72746570
:10172000640000000321204602F06CBE41681029CD
:101730001CBF836B002B05D0D0F88020C16ED3F87E
:1017400098321847704778B587B004460520029054
:1017500040F69653206E0FF224120190009204215D
:10176000DFF8F8552A46FFF71FF9206EDFF8E06B27
:1017700001786167431C616E0A78497841EA022169
:10178000A1672068416FC1F3400205A906A802F0D5
:101790002EF9A06F05990490039140F69F53069887
:1017A0000FF2EC0102902A46606F019000912046F2
:1017B000032102F027FE606F162818BF152812D0EB
:1017C000142818BF17280ED00FF20010009040F612
:1017D000A7532A46012101F070FD0A22022120466A
:1017E00000F07AFA45E006982169884205D00FF2A8
:1017F000F00000904FF45B6337E0206890F87110C0
:101800000598814205DA0FF2F000009040F6B653D9
:101810002BE0E06EA16F0FF2883241F29D731B1A2C
:10182000A06DC3188B4203D2009240F6BE531CE059
:10183000E06B40B919B141F2717081421BD3009243
:1018400040F6C85311E08068814203D200924FF401
:101850005D630AE06369002B0DDD00F5C050703058
:10186000884208D2009240F6E5532A46012101F051
:1018700024FD304600E0002008B070BD696E707530
:1018800074207265636F72642068656164657200BC
:10189000696E707574207265636F72643A206D733F
:1018A0006774797065203D2025642C2076657273FD
:1018B000696F6E203D205B25643A25645D2C206DA8
:1018C00073676C656E203D2025640000756E6B6E3D
:1018D0006F776E207265636F726420747970650033
:1018E0006D616A6F722076657273696F6E206D69C3
:1018F000736D6174636800006D696E6F7220766548
:101900007273696F6E206D69736D61746368000036
:10191000FEB505460FF27C0001F06AF940F68963D6
:1019200001F028FA05F17407786910BB284600F029
:1019300063F804000ED1284600F041F9044614F57E
:10194000CD4FF3D074B10FF25C000194009040F6DB
:101950009B6305E00FF24C000194009040F6916308
:1019600001F055B9386816280CD12846FFF7DEFE7D
:1019700008E00FF25001009140F6A66301F0FAF979
:101980000020786140F6AA630FF25C00009001F03D
:1019900045B900003D3E2072656164207265636F49
:1019A000726400006D626564746C735F73736C5F66
:1019B000726561645F7265636F72645F6C617965A3
:1019C000720000003C3D2072657573652070726581
:1019D00076696F75736C792072656164206D6573CB
:1019E00073616765000000003C3D20726561642002
:1019F0007265636F72640000FEB50546286FD5F806
:101A00008010D64E31B358B1DFF80005009040F693
:101A1000D8633246012101F0AFF9DFF8F404FEBDCE
:101A2000AA6F91420ED2521AE86EAA67014405F0DD
:101A30006FF8A86F0FF2EC01029040F6F863FFF721
:101A400099F900E0A8670020C5F88000A86F20B1D0
:101A50000020FEBD0028FBD1A86705212846FFF71E
:101A600055FB04000FF2D80707D00194009740F609
:101A7000237300F09FF82046FEBD2846FFF763FE63
:101A80000028E6D1A96F491D2846FFF73FFB040057
:101A900004D00194009740F64D73EAE70020E86710
:101AA00040F64263A86F401D02903246296E0FF245
:101AB000A80001910090FFF761F9E86B0028C7D0FA
:101AC0002846FFF75FF9040010D00FF2A80000903D
:101AD000019440F6586300F06DF814F5E34FCAD155
:101AE00014220221284600F0F7F8C4E7A86F0FF28D
:101AF0009401029040F65D63FFF73CF9A86F41F254
:101B000071718842A4D30FF29801DFF84448009124
:101B100040F661633246012101F02EF9ABE7000087
:101B2000808EFFFF72656D61696E696E6720636FFD
:101B30006E74656E7420696E207265636F726400E6
:101B40006D626564746C735F73736C5F66657463F8
:101B5000685F696E70757400696E70757420726567
:101B6000636F72642066726F6D206E6574776F723A
:101B70006B00000073736C5F646563727970745FEF
:101B800062756600696E707574207061796C6F6142
:101B90006420616674657220646563727970740094
:101BA000626164206D657373616765206C656E6743
:101BB0007468000032460121284602F04EBC3EB552
:101BC0000446606F162804D12046FFF728FD002840
:101BD00044D1606F152840D1E06E604D417802918C
:101BE00040F6D57300780FF27801019000912A46F3
:101BF00001F062FBE16E0A78022A0DD148780FF2FB
:101C000084010190009140F6DD732A46012101F024
:101C100054FBDFF8980C3EBD012A04BF4878002829
:101C20000AD10FF28401009140F6E4732A4601F0D4
:101C300043FBDFF87C0C3EBD012A04BF48786428D2
:101C400008D10FF28001009140F6EC732A4601F0B2
:101C500033FB02E0DFF8DC0D3EBD00203EBD00009E
:101C6000676F7420616E20616C657274206D65739E
:101C7000736167652C20747970653A205B25643A3E
:101C800025645D006973206120666174616C206168
:101C90006C657274206D65737361676520286D7360
:101CA00067202564290000006973206120636C6F40
:101CB0007365206E6F74696679206D6573736167F3
:101CC00065000000697320612053534C7633206E09
:101CD0006F5F636572740000FEB504001CBF20686E
:101CE00000280D46174601D11D48FEBD0FF27400B5
:101CF00000F07EFF41F21C0301F0DDFA0FF27C00E0
:101D000000900297019541F21D033246FFF70AFD4C
:101D100004F1A000152141600221816001680D706D
:101D2000006847702046FFF797FB050009D0DFF8F1
:101D3000080D0090019541F2260301F0E3FB2846CF
:101D4000FEBD0FF25800009041F2290332460221F5
:101D5000204600F066BF00008094FFFF243A000890
:101D6000008FFFFF3D3E2073656E6420616C6572DD
:101D700074206D65737361676500000073656E6440
:101D800020616C657274206C6576656C3D257520EC
:101D90006D6573736167653D257500003C3D20737B
:101DA000656E6420616C657274206D657373616724
:101DB000650000002DE9FF4706460FF25C12B06C8B
:101DC000DFF8789C0468009241F26B034A4600F009
:101DD00092FB94F90A000FF25811052818BF062843
:101DE00003D0082818BF0B2803D1009141F27203D9
:101DF0000BE0306890F87420D00706F1A0050BD4F2
:101E0000286948B9009141F27C034A4600F073FB0F
:101E10007068401C70604DE03046FEF7BFF90190DD
:101E200041F29F030FF2241000904A4603213046EE
:101E300002F02DFD3046FEF7B1F90727804641F24A
:101E40006D7A14E02968200CC855200A2968C91940
:101E5000224648702868C019FF1C84702868D8F88A
:101E60000810C01902F0BEF8D8F83081E719B8F1AF
:101E7000000F23D0D8F80440AAEB0700A042E1D21B
:101E800041F27070E7190290FF1C019741F2B30311
:101E90000FF2C80000904A46012100F02DFBDFF848
:101EA000580D08E00FF2D400009041F2D3034A46E7
:101EB00000F021FB002004B0BDE8F0872A68F81F7D
:101EC000010C1171000A29684871F81F2A68907185
:101ED000AF60162068600B20296808707068401C8D
:101EE00070603046FFF7B8FA0400DBD000F048FB22
:101EF00041F2CF034A460121304602F0AEFA2046B5
:101F0000D9E700000098FFFF808DFFFF803A0008AE
:101F10000094FFFF943A00083D3E20777269746593
:101F2000206365727469666963617465000000000E
:101F30003C3D20736B69702077726974652063651E
:101F40007274696669636174650000006F776E2062
:101F50006365727469666963617465006365727450
:101F60006966696361746520746F6F206C61726764
:101F7000652C202564203E20256400003C3D207710
:101F800072697465206365727469666963617465FA
:101F9000000000002DE9F84F054684B0A86CDFF87A
:101FA0009CBAD0F800A02868416F0FF2AC300090C6
:101FB000C1F381094FF487535A4600F0DCFE9AF9C9
:101FC0000A00052818BF062803D0082818BF0B28C8
:101FD0000BD10FF29C30009041F2E7035A4600F01B
:101FE000CAFE00F001FE002065E12846FFF790FCE4
:101FF000064650B1019641F20813DFF8340D009007
:102000005A46FFF7D8FD304655E168680FF27C3438
:10201000401C6860686F16280BD0009441F245138D
:102020005A46012100F0A8FE00F04EFBDFF89C0D9F
:1020300041E1E96EDFF8988D08780B2803D1D5F8D7
:1020400080200A2A03D2009441F24E1367E10879F6
:1020500030B94B79887940EA0320C01D824203D011
:10206000009441F25E135AE1686BC06D38B106F01E
:1020700013FB686BDFF85C1DC06D0A689047DFF8E2
:10208000582D13684FF49A7101209847696BC86501
:1020900088B94FF49A70DFF8441D0190009141F225
:1020A0006F135A46012100F067FE502200F00DFB2D
:1020B000DFF82C0DFFE006F0EBFA072300201EE00E
:1020C0005078927842EA0022DB1C802A24BFD6187E
:1020D000B142C0F02181686BC06DF91805F087F836
:1020E00001000BD0DFF8CC2D811A16D040F252221D
:1020F000891A03D0AE3900F01A811BE13346D5F8B6
:1021000080108B4280F0DA80EF6EFA181078002889
:10211000D6D0009441F27D1301E1044650220BE138
:10212000716BC96D42684B689A4204D189688068B6
:1021300006F02EFB28B10FF26C20009041F2C41380
:10214000DFE0B9F1000F00F0AD80B06B00F5A471D5
:102150000868002819BF05464A68FD6C3A6D706B27
:10216000B96B0391796B029100F160010191D6F88E
:10217000B41000917B6CC06D294606F0A9F90400EB
:102180000AD00FF24C200090019441F2EB135A4612
:102190000121304602F061F9706BC16D01F1BC079D
:1021A0000221384606F069FBB0B1786890F900105A
:1021B000304601F0BFFB78B1706B016E41F48031A5
:1021C000016641F2FC130FF21C2000905A460121D7
:1021D00000F092F904B944463168706B4A6F00F11F
:1021E000600382F00102C06D02F00102514601F06D
:1021F000C2FB50B10FF20C20009041F208235A4666
:10220000012100F079F904B94446B9F1010F0DD16B
:1022100014F51C5F01D1002432E04445FBD07CB3AF
:10222000706B006EC10512D5312225E0002D08BF6C
:10223000B9F1020FF3D10FF2F010DFF85C4D00900E
:1022400041F21C235A46012100F056F9E8E7410704
:1022500048BF2A2210D410F4DC3F18BF2B220BD128
:10226000C10748BF2D2207D4810748BF2C2203D4C1
:1022700000074CBF30222E2202213046FFF72CFDF2
:10228000706B006E30B1019041F243230FF2A81041
:10229000009004E00FF2C410009041F247235A4628
:1022A000FEF74BFB0FF2DC10009041F24C235A4634
:1022B00000F021F9204605B0BDE8F08F2E46044617
:1022C000706B0FF2D812C16D0191009241F2AC1304
:1022D0005A460321304602F0DAFA376897F874005C
:1022E000C1073FF52EAFB06801287FF42AAF316BEC
:1022F000C86D00287FF414AF0FF2B410009041F2C3
:10230000B8135A46012100F0F7F831220221304675
:10231000FFF7E2FC4046CEE7009441F289135A46AB
:10232000012100F029FD322202212846F0E704466F
:102330002B2201E004462A2200F0C7F90FF2981080
:102340000090019441F2A5135A46FFF734FCB1E71F
:10235000008EFFFF808FFFFF3D3E2070617273652E
:1023600020636572746966696361746500000000CA
:102370003C3D20736B6970207061727365206365EA
:10238000727469666963617465000000626164204B
:102390006365727469666963617465206D657373E2
:1023A000616765007365727665722063657274207B
:1023B0006368616E67656420647572696E67207218
:1023C000656E65676F74696174696F6E0000000007
:1023D000783530395F7665726966795F63657274E6
:1023E000000000006261642063657274696669635D
:1023F00061746520284543206B657920637572768A
:1024000065290000626164206365727469666963AE
:102410006174652028757361676520657874656EE1
:1024200073696F6E73290000676F74206E6F2043AD
:102430004120636861696E0021204365727469669A
:102440006963617465207665726966696361746940
:102450006F6E20666C616773202578004365727427
:10246000696669636174652076657269666963612E
:1024700074696F6E20666C61677320636C6561724E
:10248000000000003C3D207061727365206365723E
:102490007469666963617465000000007065657247
:1024A0002063657274696669636174650000000089
:1024B0006E6577207365727665722063657274202D
:1024C000647572696E672072656E65676F746961A5
:1024D00074696F6E00000000206D626564746C7337
:1024E0005F783530395F6372745F70617273655FF6
:1024F0006465720042460221304601F083BF7CB51C
:1025000005460FF2440000F073FB41F25C2300F03B
:1025100031FC05F1A00014214160012181600068B7
:10252000017000F061FB2846FEF796FF040004D01E
:1025300000F026F841F26623CBE00FF2280000906D
:1025400041F26A23CCE000003D3E20777269746559
:10255000206368616E6765206369706865722073C7
:10256000706563003C3D2077726974652063686123
:102570006E676520636970686572207370656300BB
:10258000DFF8B4040090019470477CB505460FF263
:10259000AC0000F02DFB41F2732300F0EBFB28466A
:1025A000FFF7B6F9040006D0DFF884070090019425
:1025B00041F277238DE0696F0FF29C0014290BD054
:1025C000009041F27D233246012100F0D5FB00F05E
:1025D0007BF8DFF8F80776BDA96F012902BFEA6E24
:1025E000117801290CD0009041F285233246012157
:1025F00000F0C2FB322200F068F8DFF8080B76BD6D
:102600000FF27400009041F28F2300F05BFAA86C87
:10261000E8630821686BA862E86D06F03FFA696913
:10262000A86E00F0EBFAE86641F2C12368680FF289
:102630007C01401C6860009152E000003D3E20702B
:1026400061727365206368616E6765206369706895
:102650006572207370656300626164206368616EF7
:102660006765206369706865722073706563206DAB
:102670006573736167650000737769746368696E79
:102680006720746F206E6577207472616E73666F59
:10269000726D207370656320666F7220696E626F61
:1026A000756E642064617461000000003C3D207020
:1026B00061727365206368616E6765206369706825
:1026C00065722073706563000A2202212846FFF7B5
:1026D00003BB32460121284601F0BFFE204676BDED
:1026E00032460221284601F08DFE002076BD81B0E1
:1026F00091F90910806B072907BF0FF24502C0F856
:1027000098220FF23101C0F8981201B0704770B5ED
:1027100004460D46A36B164603F5A87003F05EF859
:1027200032462946A36BBDE8704003F5E07003F024
:102730007ABE0000806B00F5A87003F04FB800006F
:10274000806B00F5E07003F06EBE2DE9F0410646A7
:10275000A6B000F0E5F80BA802F0D8FB0FF27C0160
:10276000DFF8D882009141F2C233FFF7C3FEB06BAD
:1027700000F5A8710BA802F0D7FB20200DA90FF2DD
:102780007C0202900191009241F2CE3300F040F8B9
:10279000002D0CBF0FF254150FF2601503A90BA802
:1027A00003F055F800F0C2F8202000F0D7F800F050
:1027B000BDF841F2DA3300F0BDF80BA802F0A9FB36
:1027C000202103A8FDF7F9FC0FF2401000904FF410
:1027D0009F53FFF78FFE26B0BDE8F0813D3E20639A
:1027E000616C63202066696E697368656420746C2F
:1027F00073207368613235360000000066696E69C7
:102800007368656420736861322073746174650055
:1028100042460421304601F04DBE2DE9F041064606
:10282000C6B000F07DF810A803F07AF90FF2840129
:10283000DFF80882009141F2F333FFF75BFEB06BE3
:1028400000F5E07110A803F079F9402014A90FF207
:10285000840202900191009241F2FF33FFF7D8FF0A
:10286000002D0CBF0FF284050FF2900503A910A8EC
:1028700003F01BFE00F05AF8302000F06FF800F073
:1028800055F841F20B4300F055F810A803F04BF94E
:10289000302103A8FDF791FC0FF27000009041F287
:1028A0001143FFF727FE46B0BDE8F0818088FFFFA7
:1028B0008087FFFF3D3E2063616C63202066696E68
:1028C000697368656420746C73207368613338348D
:1028D0000000000066696E69736865642073686152
:1028E000353132207374617465000000636C696572
:1028F0006E742066696E69736865640073657276CC
:1029000065722066696E6973686564003C3D20638A
:10291000616C63202066696E6973686564000000FD
:10292000746B0F46154604B9346B70470C20029047
:10293000019770470FF20C00009042460321304689
:1029400001F0B8BD63616C632066696E6973686588
:102950006420726573756C740000000000902A4654
:1029600004F12C00B46BD4F8A45203AB30212847F7
:10297000F8B50546314EA86BD0F830430FF2C000D1
:10298000009041F2334300F09DF8A868012803D17C
:1029900002210020A960E860286BDFF8387420B1BC
:1029A00000F0A0FE286B39688847696B2963002016
:1029B00068632B685A6A002A1CBF886800280CD0FC
:1029C0005CB9986A904740B10FF28800009041F2DC
:1029D00056433246012100F0CFF90FF294000090E7
:1029E00041F2184300F06EF8A86B00F056FEA86B99
:1029F000396888470020A863686C20B100F033FE76
:102A0000686C39688847A86C686441F22C430020E0
:102A1000A86432460FF27800009000F054F868681D
:102A20000FF28C01401C6860009141F26A4300F093
:102A300049F8F1BD8099FFFFB03A0008243A000838
:102A40003D3E2068616E647368616B6520777261DA
:102A500070757000636163686520646964206E6FDF
:102A6000742073746F72652073657373696F6E0081
:102A70003D3E2068616E647368616B6520777261AA
:102A80007075703A2066696E616C206672656500CB
:102A90003C3D2068616E647368616B65207772618C
:102AA0007075703A2066696E616C206672656500AB
:102AB0003C3D2068616E647368616B65207772616C
:102AC0007075700032460321284601F09BBCFEB5AC
:102AD00005460FF2B80000F08BF841F2714300F0A8
:102AE00049F905F190046969E06800F087F8206110
:102AF0002868AB6B90F874202069D3F8A072011D90
:102B000002F001022846B8476869002820690CBF16
:102B100024270C27011D27633A4605F1C40001F064
:102B200061FA162060613F1D2169A76114200870B9
:102B3000A96BD1F8300338B1296891F87400C10746
:102B400004D40F21696001E000F04EF841F2A74380
:102B50000FF24C010091FFF7B5FF2068082105F046
:102B60009DFFA86C2864686BE8622846FEF774FC39
:102B7000040004D0FFF704FD41F2DA4347E00FF20E
:102B80005400009041F2DE4348E000003D3E2077D3
:102B9000726974652066696E697368656400000017
:102BA000737769746368696E6720746F206E6577E8
:102BB000207472616E73666F726D2073706563202E
:102BC000666F72206F7574626F756E6420646174D5
:102BD000610000003C3D2077726974652066696E73
:102BE00069736865640000006868401C686070472D
:102BF000DFF8046A00907047008BFFFF012905DDB4
:102C0000A96CCA68096910444942084470473246B1
:102C10000121284601F021FC2046FEBD324602215A
:102C2000284601F0EFFB0020FEBDF0B585B005465B
:102C30000FF20010FFF7DCFF41F2EF4300F09AF8CB
:102C40002868AB6B90F87420D3F8A04202F0010220
:102C500082F0010202A92846A0472846FEF758FE46
:102C6000040007D032480090019441F2F543FEF78A
:102C7000A1FF38E0696F0FF2D00016290AD000904A
:102C800041F2FB433246012100F076F8FFF71CFDCC
:102C90004E484AE0E96EDFF8484A0A78142A04BF31
:102CA000D5F88030102B03D0009041F20C5313E084
:102CB000091D0022002302AF11F803C017F803E03A
:102CC0005B1C8EEA0C0C0C2B4CEA0202F4D3D2B241
:102CD0005AB1009041F215533246012100F04CF8F0
:102CE0003222FFF7F2FC20461FE00C20C5F8C0009E
:102CF00005F1D00102A890E81C0081E81C00A96B36
:102D0000D1F8300338B1296891F87400C10704D4B0
:102D10000A21696001E0FFF767FF41F233530FF2C8
:102D20004001009100F026F8002005B0F0BD000041
:102D3000CC3A00083D3E2070617273652066696E72
:102D400069736865640000006261642066696E6989
:102D500073686564206D65737361676500000000CA
:102D60003C3D2070617273652066696E69736865A9
:102D70006400000032460221284601F043BB38B50A
:102D800004464FF4527105F091FE04F5A8752846EB
:102D900002F0BCF80021284602F0C9F804F5E075FD
:102DA000284602F0BDFE0121284602F0CAFEDFF8E7
:102DB0001C0AC4F89802002020706070201D05F0E5
:102DC000ADFE0320C4F8400131BD00000089FFFFC3
:102DD0000086FFFF2C07002028070020802F000816
:102DE0000081FFFF38B50446A06C08B100F03BFC41
:102DF000606B08B100F076FCA06B08B100F04DFCF0
:102E0000A06CDFF8CC5920B92A68C0210120904776
:102E1000A064606B20B92A68782101209047606324
:102E2000A06B28B92A684FF4527101209047A06323
:102E3000A16B00291CBFA06C002801D0606BD8B921
:102E40000FF27400DFF8B027DFF8585A009041F213
:102E50009A53012100F031FAA06B29688847A06CD1
:102E600029688847606B296888470020A063A064B0
:102E70006063DFF8340A32BD782105F017FEA56CD7
:102E8000C021284605F012FE05F1500001F030F98E
:102E900005F1880001F02CF905F1380000F045FF3C
:102EA00005F1440000F041FFA06BFFF768FF002030
:102EB00032BD000080D7FFFF616C6C6F6328292052
:102EC0006F662073736C207375622D636F6E74650B
:102ED000787473206661696C656400007CB5044693
:102EE000DFF8EC58216041F29D762A6831460120D6
:102EF0009047A06538B12A6831460120904704F117
:102F00008C010860A0B90FF27800DFF8EC26009081
:102F1000019641F2F353012100F0CFF9DFF8841953
:102F2000A06D0A6890470020A065DFF87C0976BD97
:102F30004860086800F108028A600A6802F10B0024
:102F4000C860086800F10D020A610A6802F10D000C
:102F50004861A06DE065A06D00F108012166A06DDB
:102F600000F10B016166A06D00F10D01A166A06D7D
:102F700000F10D01E1662046BDE8764032E7000031
:102F8000616C6C6F632825642062797465732920F5
:102F90006661696C656400008089FFFF426F61F3C0
:102FA000000242677047426F61F341024267704717
:102FB000426F61F3830242677047416382637047E7
:102FC0008161C261704701614261704710B5029C26
:102FD000046241628261C36110BD01667047416451
:102FE000704770B51646DFF8E82704460D461368AB
:102FF0000C2101209847010000D134E00D60002031
:103000004E608860226812B9216070BD02469068E7
:103010000028FBD1916070BD4830E2E7C1640265D1
:10302000704770B50C00064608D0204600F0ACFF93
:103030000546691C02D0B5F5807F02D3DFF8B809D8
:1030400070BDDFF88C27136801209847C6F8B400DC
:1030500000B908E02A46214600F0C4FFD6F8B410B3
:103060000020485570BDDFF8400870BD81B0016B8D
:1030700009B1086E05E0406B002814BF006E4FF0E8
:10308000FF3001B0704738B505462C6C0CB90520EF
:1030900032BD04F15000FDF777F8801E05D0001F07
:1030A00002280CD8A068401D32BD14F150001DBF8D
:1030B000206D00284169002160690818F3E70FF6C8
:1030C000C0100FF66012009041F646130121FFF781
:1030D00053FEDFF82C0932BD014681B00868DFF8E5
:1030E0001C29436FC96AC3F3821052F8200031B122
:1030F00091F8701052F82110814238BF084601B093
:10310000704700000082FFFF80B500281CBF0268E6
:10311000002ADFF8F01802D1DFF8DC0802BD92F8CF
:103120007420D30702D408F079F90146084602BD9D
:103130007CB505460024002D1CBF2868002800D15E
:1031400087E00FF23000FFF753FD41F69D13FFF7C4
:1031500011FE6868102804D02846FFF7D5FF040048
:10316000F7D00FF22000009041F6A713FFF702FE00
:10317000204676BD3D3E2068616E647368616B6574
:10318000000000003C3D2068616E647368616B65FF
:10319000000000007CB505460FF24400FFF728FD53
:1031A00041F6D413FFF7E6FD2846FFF71BFEB0B942
:1031B00068600120A8602846FFF7BAFF040006D027
:1031C00000F09CF9019441F6EB13FFF782BA0FF27D
:1031D0002000009041F6EF13FFF7CCFD002076BDF4
:1031E0003D3E2072656E65676F74696174650000AD
:1031F0003C3D2072656E65676F746961746500009F
:103200007CB505001CBF2868002807D0A8680FF609
:10321000140601280FD06968102900D019E028464B
:10322000FFF7B8FF040012D00FF6D0000090019411
:1032300041F61C2309E02846FFF77AFF040006D078
:1032400000F05CF9019441F62423FEF7B3FC20461C
:1032500076BDDFF8A40776BD7CB50446606810280B
:1032600014D1A16803291FBF2568686FC0F38020AF
:1032700000280BD0E06D00F019F80646D4F8900055
:1032800000F014F8002ED8BF002801DC002076BD25
:103290000FF680000FF28C72009041F64723012157
:1032A00000F00BF82046BDE87640A9E7082205F1BA
:1032B000680105F06DBA32460221204601F0A2B83D
:1032C0002DE9FE4F04001ABF20680028DFF8280708
:1032D000894692465BD00FF668000FF2487800905E
:1032E00041F657234246FFF7E7FF2046FFF7B4FFBA
:1032F000054615F5D64F18BF002D06D00FF648002D
:103300000090019541F67923A1E0606810280ED065
:103310002046FFF70DFF054615F5D64F18BF002DC7
:1033200005D000F0EBF8019541F684238FE0206F83
:10333000002804F1880640F0C380616D49B1E06C5B
:10334000884710F1010F04D12068016E2046FCF778
:103350003DFF2046FEF7DCFA05000FF27077DFF83C
:10336000A8B606D05D4511D00195009741F6BA2365
:103370006DE0A06F002804BF616F17290DD12046B2
:10338000FEF7C6FA050008D05D4501D10020B3E084
:103390000195009741F6C92359E0606FDFF86C761C
:1033A000DFF86C56162856D10FF2B870009041F62F
:1033B000D12342460121FFF780FF21684A6FD007E1
:1033C0000DD4E36E1878002804BFD4F88030042BA5
:1033D00005D00FF2AC70009041F6DE2361E0C2F33D
:1033E000802030B1706B002804BFC2F301100028A8
:1033F0001ED10FF2B470009041F603334246FEF73F
:1034000091F96069002807DD642201212046FEF75A
:1034100063FC00283CD06FE00FF26460009041F63E
:103420001F3342460121FFF748FFDFF8D40563E070
:103430002046FFF7AFFE054615F5D64F18BF002D05
:1034400026D00FF2B8600090019541F63533424620
:1034500000F059F829E0A16803290FD121684A6ECC
:10346000002A0BD4E268521CE260496E914205DAF0
:103470000FF25C70009041F6433312E0152809D139
:103480000FF28070009041F64D334246FFF714FF73
:10349000384631E017280AD00FF29070009041F6BC
:1034A000533342460121FFF708FF284624E0E06E2F
:1034B00020676068102803D100212046FCF786FEB3
:1034C000A16F8A4588BF8A46216F4846524600F060
:1034D00089FDA06FB0EB0A00A06741F6823307BFF9
:1034E00000213160206F5044206742460FF25C702B
:1034F0000090FFF7E1FE5046BDE8FE8F0FF2E4506A
:103500000090704732460121204600F0A6BFFEB56C
:1035100005460C461746FFF7DFFD064605F1A003FA
:10352000BE4288BF3E46D8680FF2F84758B12846D9
:10353000FDF7C6FE04001CD00FF258500194009015
:1035400041F6A63312E0172058609E603246186894
:10355000214600F047FD2846FDF77EFF040008D015
:103560000FF24C500194009041F6B2333A46FFF707
:103570004FBB3046FEBD2DE9FC4104460FF2D4603E
:10358000FFF736FB0F46904641F6E733FFF793FE11
:10359000002C1ABF20680028DFF85C0429D02046E0
:1035A000FFF75AFE050006D00FF29C5000900195DF
:1035B00041F6EF330CE0606810280CD02046FFF78E
:1035C000B7FD050007D0FFF799FF019541F6F833E5
:1035D000FFF798FF0CE0424639462046FFF797FF79
:1035E00005460FF27C60009041F60343FFF763FE4F
:1035F0002846BDE8F6810000243A00087CB50400A6
:103600001CBF2068002800D123E60FF26060FFF79E
:10361000EFFA41F61243FFF74EFED4F8AC0020B1AA
:103620002046BDE87640FDF74BBE6068102810D1FB
:10363000002201212046FEF74FFB050009D00FF2C2
:1036400044600090019541F61D43FFF75BFF28465B
:1036500076BD0FF25060009041F6224332460221BF
:103660002046FFF740B810B5040015D004F1500013
:1036700000F041FD04F1880000F03DFD04F1380048
:1036800000F059FB04F1440000F055FB2046BDE872
:103690001040C021FCF791BD10BD70B504001ED0D4
:1036A00004F5A87001F035FC04F5E07002F03BFA77
:1036B000201D05F037FA04F59C757A4E28683168AC
:1036C0008847E86820B18568316888472800FAD1C2
:1036D0002046BDE870404FF45271FCF76EBD70BDDE
:1036E0008081FFFF38B504000ED0E06D6D4D20B134
:1036F00004F0D2FFE06D29688847606E296888472A
:103700002046BDE83440C9E031BD2DE9FC4104004C
:103710005AD00FF2A8500FF20C38DFF8F872009070
:1037200041F6B0434246FFF7C7FD04F18C0641F273
:103730009D75306828B12946FCF73FFD306839682F
:103740008847A06D28B12946FCF737FDA06D396880
:103750008847606C20B1FFF786FF606C3968884746
:10376000A06B80B1FFF799FFA06CFFF77CFF606B47
:10377000FFF7B8FFA06B39688847A06C39688847A5
:10378000606B39688847206B20B1FFF7ABFF206B77
:1037900039688847B56A4DB1284600F0F5FB014607
:1037A0002846FCF70AFDB06A396888470FF21450C2
:1037B000009041F6F1434246FFF77EFD2046BDE80A
:1037C000FC41DC21FCF7F9BCBDE8F3810F270008C0
:1037D0002807002000BF782105F068B9F8B5054634
:1037E0000C4617461E46FFF7D9FB39462846FFF719
:1037F000DAFB05F170073CB9786820F00C0040F462
:10380000805040F00800786010217868824C40F4C5
:1038100000707860696605F16800022105F046F9DC
:10382000FF22062105F16A0008F000F9022E12D1EC
:103830000320B870F8703870787004F11400E860F4
:10384000A860686028607548686404F120006865B5
:1038500004F12C0011E00320B8700120F87003205F
:103860003870787001F0CCF8E860A8606860286073
:103870006C656B48686408F00DF9A8650020F2BD1E
:1038800070B50446074DA06C002803E086682968DF
:1038900088473000FAD12046BDE870407821FCF717
:1038A0008CBC00002C0700200081FFFF10B50446EF
:1038B000012104F0E2FF08B1012010BD04212046DF
:1038C00004F0DBFF00B1032010BD012804D0032861
:1038D00001D104207047002070470000401E0528D9
:1038E00010D8DFE800F0030507090B0D032070472F
:1038F0000420704705207047062070470720704756
:103900000820704700207047C01E052810D8DFE847
:1039100000F0030507090B0D0120704702207047D6
:103920000320704704207047052070470620704729
:103930000020704781B00068826D42B192F90000AA
:1039400028B112F9013B8B42F8D1002001E04FF081
:10395000FF3001B0704781B00068426D3AB1106825
:1039600028B152F8043B8B42F9D1002001E04FF01E
:10397000FF3001B070472DE9F0410446174600269C
:103980000020012F1D460FD191F90A10491E09D0C0
:10399000491E022908D9491F04D0891E012998BF50
:1039A000082002E0202000E080200146204604F0AC
:1039B00019FA4FF0FF3820B1286840F40060286001
:1039C0004646012F0CBF0FF204310FF20C310822D2
:1039D000204604F021FA20B1286840F48050286085
:1039E00046463046BDE8F0811870597070471A7825
:1039F0000260587808607047008FFFFFB80600200B
:103A00000094FFFF808FFFFF808DFFFF0097FFFF77
:103A10000089FFFF2C07002088060020EC0903081E
:103A200080870008433A5C47505F53746F72655C4F
:103A3000496F545C582D435542452D4157535F31D2
:103A40002E322E785C4669726D776172655C4D69C5
:103A500064646C6577617265735C54686972645FF5
:103A600050617274795C6D626564544C535C6C692E
:103A700062726172795C73736C5F746C732E630035
:103A800073686F756C64206E65766572206861700E
:103A900070656E006D626564746C735F73736C5FE8
:103AA000666C7573685F6F757470757400000000E4
:103AB0006D626564746C735F73736C5F7772697445
:103AC000655F7265636F7264000000006D6265641B
:103AD000746C735F73736C5F726561645F7265634E
:103AE0006F7264006D626564746C735F73736C5F96
:103AF00068616E647368616B6500000073736C5F6E
:103B000073746172745F72656E65676F74696174F6
:103B1000696F6E007265636F726420636F756E7497
:103B20006572206C696D6974207265616368656493
:103B30003A2072656E65676F746961746500000094
:103B40003D3E20726561640073736C5F63686563FA
:103B50006B5F6374725F72656E65676F74696174C1
:103B60006500000072656365697665642068616E52
:103B7000647368616B65206D6573736167650000D0
:103B800068616E647368616B6520726563656976F0
:103B9000656420286E6F742048656C6C6F52657187
:103BA00075657374290000007265667573696E67C8
:103BB0002072656E65676F74696174696F6E2C2021
:103BC00073656E64696E6720616C657274000000D5
:103BD00072656E65676F74696174696F6E20726576
:103BE000717565737465642C20627574206E6F74D2
:103BF00020686F6E6F72656420627920636C6965FE
:103C00006E74000069676E6F72696E67206E6F6E0A
:103C10002D666174616C206E6F6E2D636C6F7375B1
:103C2000726520616C65727400000000626164203E
:103C30006170706C69636174696F6E206461746136
:103C4000206D657373616765000000003C3D207264
:103C5000656164003D3E2077726974650000000074
:103C60003C3D207772697465000000003D3E20777E
:103C70007269746520636C6F7365206E6F7469661A
:103C8000790000006D626564746C735F73736C5FC0
:103C900073656E645F616C6572745F6D657373618B
:103CA000676500003C3D20777269746520636C6F26
:103CB0007365206E6F746966790000003D3E206672
:103CC000726565003C3D2066726565002B06010546
:103CD00005070301000000002B060105050703028C
:103CE0000000000002E0002200F8012B0A46511EED
:103CF000002AF8D170470000C01E062813D8DFE85C
:103D000000F004080A0C0E10060090487047904816
:103D10007047904870479048704790487047904867
:103D20007047904870470020704700210022002310
:103D300080E80E00704710B504001CBF2168002900
:103D400013D0606808B1496A8847A06840B121680B
:103D5000C9684900FFF7C6FF8349A0680A68904711
:103D60002046BDE810400C21BCE710BDF8B5054663
:103D70000C0018BF002D164601D17C48F2BD206A08
:103D80007B4F8047686050B15EB17A4AE168136842
:103D900002209847A86020B96868616A8847384659
:103DA000F2BD2C600020F2BD80B500281CBF016868
:103DB000002900D104E0406809698847002002BD5D
:103DC0006A4802BD80B500281CBF0368002B00D1E3
:103DD000F6E740685B699847002002BD80B500287F
:103DE0001CBF0268002A00D1EAE740689269904748
:103DF000002002BD10B50400084611461A4600D145
:103E000061E0E3699847002010BD2DE9F04190B0D2
:103E100004000D461CBF21680029904601D0A0680F
:103E200008B952483EE0C868404511D26068096947
:103E300088472368606829465D694246A84722682A
:103E400060689369694698472068D0F808806D4695
:103E50002068A768C1687E183622384607F0E6FD5C
:103E60002068C1685C22304607F0E0FD002008E0D1
:103E7000395C2A5C514039542A5C315C51403154E0
:103E8000401C4045F4D340216846FFF72BFF2168D2
:103E900060680A6990472368DA6860685B69394638
:103EA0009847002010B0BDE8F08110B500281CBF75
:103EB0000368002B01D0846804B904E040685B69A2
:103EC0009847002010BD294810BD000070B590B083
:103ED00004001CBF2268002A0D4601D0A06808B962
:103EE00022481BE0D168926946186068694690478D
:103EF000216860680A6990472368DA6860685B69CE
:103F00003146984723689A6860685B6969469847B4
:103F100022686068936929469847002010B070BDF8
:103F200038B505001CBF2968002901D0AC680CB960
:103F30000E4832BD6868096988472B68DA68686886
:103F40005B6921469847002032BD0000E81A03084B
:103F5000181B0308481B0308781B0308A81B030849
:103F6000D81B0308081C03082C07002000AFFFFF24
:103F700080AEFFFF2807002008B18068C0B27047FC
:103F800000B140687047000000F10103810704D0D0
:103F900010F8011B89B18107FAD10268B2F1013131
:103FA000914311F0803F04BF50F8042FF6E710F85A
:103FB000011B11B110F8011BFBE7C01A7047B1F5E6
:103FC000807F02D34FF0FF307047017001207047AF
:103FD0000A780260087800E00078401E8041C04303
:103FE000C00F704762B38B0708D0521E11F8013B17
:103FF00000F8013B00F024808B07F6D1830740F0E6
:10400000208000BF103A07D330B4B1E83810103A1E
:10401000A0E83810F9D230BC530724BFB1E808102B
:10402000A0E8081044BF51F8043B40F8043BD20715
:1040300024BF31F8022B20F8022B44BF0B78037009
:104040007047121F17D35B0009D151F8043B20F8C9
:10405000023B1B0C121F20F8023BF6D20BE051F87A
:10406000043B00F8013B1B0A20F8023B1B0C121F0B
:1040700000F8013BF3D238BF121D521E24BF11F8C5
:10408000013B00F8013BF8D8704703681AB95A1E83
:10409000026008467047197811B94FF0FF30704739
:1040A0005A1C02601878704710B5DFF818230446D0
:1040B00000E00832506800281CBF92F90030A3428B
:1040C000F7D110BD70B5DFF8FC4200E0083463683A
:1040D00063B19D6995F90060864201BF5E688E42BA
:1040E00093F901309342F1D1606870BD002070BD3A
:1040F000382104F0DBBC10B504000ED0606B18B1A1
:1041000021688A6951698847382102E0002004F853
:10411000010B0846411E0028F8D110BD38B50546F0
:104120000C0018BF002D00D14CE0382104F0BEFC7B
:10413000A06901698847686310B9DFF88C0232BD55
:104140002C60002032BDF8B51D4604001CBF23685A
:10415000002BDFF878021AD01E7CB70702D45E6805
:10416000964214D162602572012D1EBF93F9012081
:10417000032A052A05D19B696268606B9C68A04789
:10418000F2BD25B99B696268606BDC68A047F2BD2F
:1041900038B504001CBF2068002813D091B1112A43
:1041A00001D38B4832BD037CDD0708D515462A466E
:1041B00004F12000FFF716FF2563002032BDC5681B
:1041C000AA42F4D2814832BD00281CBF01680029F0
:1041D00001D17E4870470022C26100207047F8B5C7
:1041E00000280D461CBF0468002C11462DD0069EE9
:1041F0005EB30022326094F901706269012F0CD124
:10420000914201D07348F2BD31602A46A46990F909
:104210000810406B6568A847F2BD062F07D13160D2
:104220002A46406B01B0BDE8F04009F044BD0AB930
:104230006948F2BD9D420AD1C069002802BFB1FBA6
:10424000F2F002FB1011002901D06048F2BD604875
:10425000F2BD81B000281CBF0168002900D00AB956
:104260005A4814E00023136091F90110032918BF84
:10427000052903D0062918BF072901D1002006E02F
:10428000012903D1C06910B1524800E0504801B083
:104290007047FEB504461D46FFF77AFFC8B92046B1
:1042A000FFF792FFA8B90A9E099F089A00963B461D
:1042B00029462046FFF793FF58B93068391801AAFC
:1042C0002046FFF7C6FF20B93168019841183160D8
:1042D0000020FEBD2DE9F04387B0D0F8009099F999
:1042E00001900E9D0F9EDDF84080119FDDF848C0C3
:1042F000DDF84CE0149CB9F1060F10D1CCF8008029
:10430000CDF818E005940193049703960295009266
:104310000B46406B4246012109F0B6FD11E0B9F1B0
:10432000080F0DD1CCF8008005940093CDF810E073
:1043300003970296019500F054F809F0A0FF00E001
:10434000234807B0BDE8F0832DE9F04786B0D0F8E8
:10435000009099F901A00E9E0F9FDDF84080DDF8D6
:1043600044C0DDF848E0139C149DDFF87090BAF16A
:10437000060F0ED1CEF80080CDF814C00497039537
:104380000294009300F02CF809F09AFD10F1120F3E
:1043900010E0BAF1080F10D1CEF800800595049412
:1043A0000093CDF80CC0029700F01AF809F081FFD5
:1043B00010F10F0F02D1484600E0054806B0BDE8F5
:1043C000F0870000900F0308809EFFFF009FFFFF13
:1043D000809FFFFF809DFFFF809CFFFF009DFFFFF0
:1043E000019613460A46406B41467047DFF83C157C
:1043F0000860704738B5049C0568009468692C69AA
:10440000A04731BDF0B5ADF5017D04001CBF2068AB
:1044100000280F4615461E461CD00069D0B1DFF8B3
:104420000C150A68BA4215DB869A87AB4FF4007107
:1044300001A809F06FFF40F2FF12904206D201AAD4
:104440000A21115401AB18440022427001A80090C7
:1044500000F02BF80DF5017DF0BDF8B50446ADF583
:10446000027D206800281CBF006900280F46154601
:104470001E4617D0DFF8B4140A68BA4212DB8998D6
:1044800010F5D24F0ED04142019100904FF40071CF
:10449000889B0FF2A84202A809F05AFF02AA0092D4
:1044A00000F003F80DF5037DF0BD33462A4639468A
:1044B00020469FE72DE9F84F0746ADF5067D3868A1
:1044C000002400281CBF0069002867D08A46DFF856
:1044D0005C140D68554561DB9098929D919E0FF29A
:1044E000944800959946934603460FF26C424FF468
:1044F000007106A809F02CFF06AA00924B465A4606
:1045000051463846FFF776FF112101A804F0CEFA94
:1045100091960026AE4238BFB6F5805F42D216F0C3
:104520000F0F13D15EB106A801AB424600F03EF872
:1045300000F041F8112101A804F0B8FA002406A8FF
:104540000FF23842334600F031F8041991980FF217
:104550003442835D06A800F029F804199198805D23
:10456000A0F120015F2901A906F00F022CBF2E2027
:1045700040B28854761CCDE77FA209F0E9FE041909
:104580006D1C06A815F00F0F2044C4F50071F3D17F
:1045900001AB424609F0DCFE00F00DF80DF5077D99
:1045A000BDE8F08F002DF9D03546EAE7C4F500717B
:1045B000204409F0CDBE06A800904B465A4651460D
:1045C000384617E72DE9F8430446ADF5027D20682B
:1045D00000281CBF006900288946154698461BD054
:1045E000D2490A684A4517DB8A9E8B9F0FF29C329C
:1045F000334600F01AF8019702AA009200F010F872
:1046000033460FF2903200F010F807F10C0002A9C7
:104610000190009100F004F80DF5037DBDE8F083F2
:1046200043462A464946204604E04FF4007102A85A
:1046300009F08EBE2DE9F84F0646ADF5047D3068D1
:10464000012400281FBF006900288F9F002F4FF012
:10465000000B64D00291B5480168029881425EDB8C
:104660007968BD68491E00295DD055F821000028F1
:1046700008BF491EF7D056E034B1B86800EB890195
:1046800051F8040C00283DD003960326F0008DF865
:1046900004004CB1B86800EB890050F8041C9DF888
:1046A0000400C14009062AD0E91005EB117000246E
:1046B0000011B5EB00100CD1002D0ADD00F054F80C
:1046C00004A800905346029903984246FFF792FED1
:1046D000A346B8680FF2AC2200EB89000DF1100C74
:1046E00050F8043C9DF80400C34003F0FF03CBF5F1
:1046F00000710CEB0B0009F02BFE83446D1C761E41
:10470000C4D5039EB9F10109B6D124B104A884A28D
:1047100000F02CF8834400F027F800F02FF80DF596
:10472000057DBDE8F08F4FF01F0C894655F8290034
:1047300020FA0CF0C00702D4BCF1010CF6D58E981B
:104740000CEB4911491C9A460091904603460FF222
:104750004C224FF4007104A809F0FAFD00F00EF8A5
:1047600019F101095D46CFE704A86EA2CBF50071EF
:10477000584409F0EDBD00002020200004A800905E
:10478000534602994246304634E62DE9F04F8FB049
:1047900082468B46199C90469946242106A804F02F
:1047A00085F906A9204604F03CF920B10FF20C204F
:1047B00000F03AF82CE018980FF214241890002614
:1047C00002AD0C2106A87143471897F90000F8B113
:1047D0007968189B00912246102102A809F0B8FDC3
:1047E0000020E8733856012804D100F014F8FFF7D0
:1047F00021FF0AE0022804D100F00DF8FFF7E2FEE5
:1048000003E00FF2D41000F00FF8761C032ED8D37B
:104810000FB0BDE8F08FB968019102A800904B4637
:10482000424659465046704700904B4642465946CC
:104830005046DFE52DE9F04FADF5017D8B468A99B5
:104840008246904699460E4640F2FF1401AD16E0AE
:104850000A2813D1771A7F1CA74288BF27463A46F9
:1048600001A8FFF7BFFB0020E8554B4601A80090C8
:10487000424659465046FFF7BDFD711C761C96F91D
:1048800000000028E4D10DF5017DBDE8F08F2DE991
:10489000F047ADF5C16D04680025002C1FBF2469E9
:1048A000002CDDF82C46002C36D0204E3768DDF881
:1048B00028A68F4230DB06460F46904699466D1C6F
:1048C000009553460FF224124FF400710DF58160EC
:1048D00009F03EFD0DF58162009200F029F8FFF726
:1048E00089FD234610A240F2FF3102A802F0E0FE4B
:1048F00002A8009000F01CF8FFF79CFF04F1BC0038
:104900000FF2F4010190009100F012F8FFF73DFF63
:10491000D4F83041002CD2D10DF5C16DBDE8F0873F
:10492000203030000A00000000000000701200205B
:104930004B464246394630467047000025732829C9
:104940002072657475726E656420256420282D3090
:104950007825303478290A0064756D70696E672097
:104960002725732720282575206279746573290A05
:1049700000000000202025730A0000002530347854
:104980003A20000020253032780000002573285896
:1049900029000000257328592900000076616C75F4
:1049A00065206F66202725732720282564206269EB
:1049B0007473292069733A0A00000000696E7661F9
:1049C0006C696420504B20636F6E746578740A00C4
:1049D000257325730000000073686F756C64206E8A
:1049E0006F742068617070656E0A00002573202363
:1049F00025643A0A000000006372742D3E00000036
:104A0000F8B50F4C2068C0B90FF29405261D04F1CB
:104A10003C07286868B1BE420BD200F013F80028AA
:104A20001FBF90F908002A28296846F8041B2D1D8D
:104A3000EFE70020306001202060201DF2BD000063
:104A40005011002002460FF2E42000E020300168FF
:104A500011B19142FAD170470020704780B5FFF73D
:104A6000F1FF10B90FF2300002BD406802BD90F9AD
:104A70000A00401E022807D9C01E07D0C01E03D05E
:104A8000801E012804D905E00120704704207047EA
:104A90000220704700207047756E6B6E6F776E0056
:104AA0002CC0000030C000009F000000ADC000001E
:104AB0009FC0000024C0000028C000006B00000060
:104AC0000AC0000014C0000039000000AFC00000A0
:104AD000A3C0000087C000008BC000007DC00000A4
:104AE00073C0000077C00000C40000008800000010
:104AF0002BC000002FC000009E000000ACC00000D2
:104B00009EC0000023C0000027C000006700000016
:104B100009C0000013C0000033000000AEC0000058
:104B2000A2C0000086C000008AC000007CC0000057
:104B300072C0000076C00000BE000000450000000A
:104B400008C0000012C0000016000000AB0000000A
:104B5000A7C0000038C00000B300000036C000004D
:104B60009100000091C000009BC0000097C00000B1
:104B7000ABC00000AA000000A6C0000037C00000C3
:104B8000B200000035C000009000000090C000009E
:104B900096C000009AC00000AAC0000034C0000007
:104BA0008F000000FFC000009D0000009DC00000BD
:104BB0003D0000003500000032C000002AC00000A7
:104BC0000FC000002EC0000026C0000005C000007D
:104BD000A1C000007BC00000C000000084000000F5
:104BE0008DC0000079C0000089C0000075C00000C1
:104BF0009C0000009CC000003C0000002F00000052
:104C000031C0000029C000000EC000002DC000000F
:104C100025C0000004C00000A0C000007AC0000051
:104C2000BA000000410000008CC0000078C0000005
:104C300088C0000074C000000A0000000DC0000021
:104C400003C00000AD000000B700000095000000A8
:104C500093C0000099C00000AC000000B600000046
:104C60009400000092C0000098C000009300000073
:104C7000A9000000A5C00000AF0000008D000000EA
:104C80008FC0000095C00000A9C00000A80000006F
:104C9000A4C00000AE0000008C0000008EC0000028
:104CA00094C00000A8C000008B00000007C00000F6
:104CB00011C0000033C000008E000000050000009D
:104CC000040000000CC0000002C0000092000000C0
:104CD0008A000000150000000900000006C0000066
:104CE00010C000003BC000003AC0000039C0000006
:104CF000B5000000B40000002D0000003B000000E3
:104D000002000000010000000BC0000001C0000014
:104D1000B9000000B80000002E000000B100000043
:104D2000B00000002C000000000000002BC00000BC
:104D3000041703080E06040003000000030000002F
:104D40000300000003000000000000002CC0000071
:104D50002C170308100704000300000003000000E4
:104D6000030000000300000000000000ADC00000D0
:104D7000541703082D060400030000000300000080
:104D8000030000000300000000000000AFC00000AE
:104D9000781703082D06040003000000030000003C
:104DA000030000000300000002000000ACC000008F
:104DB0009C1703082B0604000300000003000000FA
:104DC000030000000300000000000000AEC000006F
:104DD000C01703082B0604000300000003000000B6
:104DE0000300000003000000020000002FC00000CC
:104DF000E41703080E060300030000000300000090
:104E000003000000030000000000000030C00000AC
:104E10000C18030810070300030000000300000043
:104E20000300000003000000000000009D000000DF
:104E300034180308100701000300000003000000FD
:104E40000300000003000000000000009C000000C0
:104E5000541803080E0601000300000003000000C0
:104E60000300000003000000000000009DC00000DF
:104E7000741803082D060100030000000300000061
:104E8000030000000300000000000000A1C00000BB
:104E9000901803082D060100030000000300000025
:104EA0000300000003000000020000009CC000009E
:104EB000AC1803082B0601000300000003000000EB
:104EC000030000000300000000000000A0C000007C
:104ED000C81803082B0601000300000003000000AF
:104EE00003000000030000000200000000000000BA
:104EF000E4180308000000000000000000000000AB
:104F00000000000000000000000000006C2103F021
:104F1000CDBD40B16C2202E0002100F8011B11461A
:104F20004A1E0029F8D170476C22FFF76BB80022A7
:104F300002604260B9B9DFF8682A8260DFF8642A4B
:104F4000C260DFF8642A0261DFF8602A4261DFF89C
:104F5000602A8261DFF85C2AC261DFF85C2A0262A3
:104F6000DFF8582A16E0DFF8582A8260DFF8542A62
:104F7000C260DFF8542A0261DFF8502A4261DFF88C
:104F8000502A8261DFF84C2AC261DFF84C2A0262A3
:104F9000DFF8482A4262816670472DE9F04FCCB0B5
:104FA00000220B900B9800F1080302A853F822305E
:104FB00040F82230521C082AF4D3002001EB800272
:104FC00054781378240444EA03649378D27844EA4A
:104FD00003231A430CAB43F82020401C1028EDD3C8
:104FE0004FF0000A0DF10809D9F81010D9F81CE0AB
:104FF000D9F81440D9F818000FF6E415029FD9F833
:105000000480D9F80CC04FEAF12282EAB11282EA98
:105010007162964480EA04020A4005EB8A0B424022
:1050200096440CABDBF8002053F82A3096449E449B
:10503000029BD9F808201E464FEA763686EAB30668
:1050400086EAB35648EA070708EA030317403B43DA
:105050009E19F4444FEAFC2383EABC1383EA7C6381
:10506000181884EA010303EA0C03B6446340C9F844
:105070000CC0C9F81CE01818DBF80430029F0CAE15
:1050800006EB8A0618187368029E18184FEA7E33DA
:1050900047EA0E0783EABE0306EA0E0607EA080798
:1050A00083EABE533E43F31882181B184FEAF220DE
:1050B00080EAB21080EA7260041981EA0C001040A4
:1050C0004840041905F10800C9F80820C9F818304B
:1050D0000EAD50F82A00029E041955F82A00041952
:1050E0004FEA73354EEA030785EAB3050EEA03007B
:1050F0003E4085EAB3553043451904EB080005EB03
:1051000004084FEAF02484EAB01484EA7064611859
:105110008CEA0204044084EA0C04C9F80400C9F8CB
:1051200014806118DBF80C400CAD05EB8A056118A2
:10513000EC6861184FEA783543EA080685EAB80555
:1051400003EA080406EA0E0685EAB8553443029ECF
:1051500065198E1902966918C9F8101082EA0005BF
:10516000029C26464FEAF62686EAB41686EA74665C
:105170002C40B4445440A444DBF810400CAD05EB83
:105180008A05A4442C69A4444FEA713448EA010614
:1051900084EAB10408EA01051E4084EAB1543543AB
:1051A0002C19E644A4444FEAFE2484EABE1484EA9F
:1051B0007E64C9F81CE0C9F80CC0A218029C4440E7
:1051C00004EA0E044440A218DBF814400CAD05EBD1
:1051D0008A05A2186C69A2184FEA7C3441EA0C06D1
:1051E00084EABC0401EA0C0506EA080684EABC5419
:1051F00035432C19D318A2184FEAF32484EAB314C8
:1052000084EA7364C9F81830C9F808202018029C91
:1052100084EA0E051D406C402018DBF818400CADE8
:1052200005EB8A052018AC6920184FEA72344CEA65
:10523000020684EAB2040CEA02050E4084EAB25483
:1052400035432C1980442018C9F81480C9F804008B
:105250004FEAF825029C85EAB8158EEA030385EA31
:10526000786503EA08032C1983EA0E031C44DBF873
:105270001C301C190CAB03EB8A050AF1080AEB6918
:105280001C194FEA703383EAB00302EA000583EA8F
:10529000B053024302EA0C00284303446118C9F8E2
:1052A00010101C19BAF1100F0294FFF49DAE1020DB
:1052B0000CA901EB8001A1F140020CA901EB8001D6
:1052C000D2F804B0A1F140039A6B4FEAF24181EAAF
:1052D000724181EA92215A6A11444FEABB4282EA42
:1052E000FB1282EADB0251180CAA02EB800252F890
:1052F000403C59180CAB43F820100FF2E46303EB69
:1053000080020A9202AAD2F81080D2F81C90D2F839
:1053100018C0029FD2F808E04FEAF82A8AEAB814C7
:1053200084EA7864A1445469D2F80CA08CEA04049D
:1053300004EA080484EA0C04A1440A9C24683E465A
:105340004FEA763585EAB70585EAB755A144546832
:105350002643274006EA0E063E4389443544CA44A4
:10536000A9440CAD05EB8005A5F140060CAD05EB9D
:105370008007A7F14005C2F80CA0C2F81C90B668DF
:10538000ED6B00950CAD05EB8005403DEF6B4FEAF2
:10539000F745009F85EA77450CAF07EB8007403F54
:1053A000FF6B85EA97250CAF07EB8007403FBF6A8C
:1053B0007D194FEAB64787EAF61787EAD6077D19BF
:1053C000AB440CAD05EB8005C5F804B04FEAFA25F7
:1053D00085EABA1585EA7A65AC44556985EA080715
:1053E00007EA0A077D40AC440A9D6F684FEA7935A9
:1053F00085EAB90585EAB9550095BC44029D029F2E
:1054000045EA090507EA090725403D43009FDC44BA
:10541000ED19E644AC444FEAF14585EA71450CAF1D
:10542000C2F808E0C2F818C085EA912507EB8007AA
:10543000403F0833FF6A7D1901950CAD05EB8005EF
:10544000403DED6800950CAD05EB8005403DEF68F3
:10545000009D4FEAB74787EAF5170CAD05EB8005CD
:10546000403DED6887EAD507019D7F19F6190CAD1F
:1054700005EB8007BE604FEAFE27556987EABE1735
:1054800087EA7E677D1988EA0A0707EA0E0787EA36
:1054900008077D1953F820707B194FEA7C3585EA9F
:1054A000BC0585EABC550195F31809EA0C05009581
:1054B00049EA0C05029F3D40009F3D43019FEF19C3
:1054C0001C195460FB180CAF0CAC04EB8004A4F165
:1054D00040054FEAFB4484EA7B4484EA9B2407EBC3
:1054E000800BABF140075361D7F830B02D69FF68EE
:1054F0005C444FEAB54B8BEAF51B8BEAD50B5C4459
:105500003C440CAF07EB8007FC60CDF80080D2F87C
:10551000048047464FEAF72B8BEAB81B8BEA776883
:10552000DDF800B0D844BB468AEA0E0707EA0B074D
:10553000DDF828B087EA0A07B844DBF80C704FEAB8
:10554000733BB8448BEAB30787EAB35700974CEA3A
:10555000030B0CEA03070BEA090B4BEA070B009F4E
:10556000BB44029FA04447440297D8440CAF07EBCA
:10557000800BABF14007C2F81080D7F814B04FEAA7
:10558000F64787EA764787EA96270CAE06EB800651
:10559000403E766BF7194FEABB4686EAFB1686EA71
:1055A000DB06F719ED190CAE06EB80063561CDF878
:1055B00000A0DDF808A057464FEAF72686EABA169B
:1055C00086EA776A009EB2443E4657688EEA07072D
:1055D0003E4086EA0E06B2440A9E37694FEA7836A4
:1055E00086EAB80686EAB8560096BA4443EA080640
:1055F00003EA080706EA0C063E43009FAA44F61990
:10560000D144B2440CAE06EB8006A6F14007C2F8C6
:105610001C90C2F80CA0BE694FEAF44787EA7447B1
:1056200087EA94270CAC04EB8004403CA46BE71998
:105630004FEAB64484EAF61484EAD604E7190CACBF
:1056400004EB8004BB44C4F814B04FEAF92484EAA4
:10565000B91484EA796474440094D2F804E0029F97
:105660008EEA070404EA090484EA0E04DDF800E087
:10567000A6440A9C67694FEA7A3484EABA0484EA49
:10568000BA540094BE4448EA0A0408EA0A071C40D7
:105690003C43009FDE44E419F444A6440CAC04EB04
:1056A0008004A4F14007C2F818C0C2F808E0FC6901
:1056B0004FEAF54787EA754787EA95270CAD05EB72
:1056C0008005403DED6BEF194FEAB44585EAF415CE
:1056D00085EAD405EF19F6190CAD05EB8007BE611C
:1056E0004FEAFC27556887EABC1787EA7C677D1973
:1056F0000095029F87EA090505EA0C057D40009F99
:10570000ED190A9FBF697D1975194FEA7E3686EA41
:10571000BE0686EABE5600960AEA0E074AEA0E065A
:1057200006EA08063E43009FF619EB185361751907
:105730000CAE06EB8006A6F1400755603E6A4FEAC4
:10574000FB4787EA7B4787EA9B27C9194FEAB64B95
:105750008BEAF61787EAD606314464180CA901EBE8
:1057600080014FEAF32BCC618BEAB316029986EAEB
:105770007366314489EA0C06334083EA090319440D
:105780000A9BDB6919444FEA7533611883EAB50354
:1057900083EAB5530EEA05044EEA050505EA0A0553
:1057A0002C4323440830884459184028C2F81080FC
:1057B0000291FFF47DAD0B98002100F1080352F82F
:1057C000214053F82130234400F1080444F82130EB
:1057D000491C0829F1D34CB0BDE8F08F2DE9F04108
:1057E000140006460F4630D0306800F03F05201800
:1057F000A042C5F14008306002D27068401C706061
:10580000BDB1444515D306F1280042462844FEF7B1
:10581000E9FB06F128013046FFF7BFFB4744A4EB44
:105820000804002505E039463046FFF7B6FB40374F
:10583000403C402CF7D244B106F1280022463946BC
:105840002844BDE8F041FEF7CDBBBDE8F0813EB590
:1058500004460D4661682068C90041EA50718DF820
:105860000310C0000B0C8DF801300A0E8DF80020DB
:105870000B0A010E8DF804108DF80230010C8DF822
:1058800005108DF80700010A8DF8061020462278D1
:105890000FF24C2102F03F02382A34BFC2F1380225
:1058A000C2F17802FFF79AFF082269462046FFF707
:1058B00095FFA068000E2870A168090C6970A068A7
:1058C000000AA870A068E870E068000E2871E0681F
:1058D000000C6871E068000AA871E068E87120694E
:1058E000000E28722069000C68722069000AA872F4
:1058F0002069E8726069000E28736069000C6873A3
:105900006069000AA8736069E873A069000E2874D2
:10591000A069000C6874A069000AA874A069E87402
:10592000E069000E2875E069000C6875E069000AFE
:10593000A875E069E875206A000E2876206A000CD8
:105940006876206A000AA876206AE876A06E50B9C8
:10595000616A090E2977606A000C6877606A000A3C
:10596000A877606AE87737BDF0B59BB004460D466E
:1059700016461F466846FFF7C9FA39466846FFF7DC
:10598000D6FA2A4621466846FFF728FF3146684680
:10599000FFF75DFF6846FFF7BCFA1BB0F0BD0000E3
:1059A00067E6096A85AE67BB72F36E3C3AF54FA5B0
:1059B0007F520E518C68059BABD9831F19CDE05BDC
:1059C000D89E05C107D57C3617DD703039590EF7E2
:1059D000310BC0FF11155868A78FF964A44FFABEA8
:1059E000982F8A4291443771CFFBC0B5A5DBB5E94A
:1059F0005BC25639F111F159A4823F92D55E1CABBE
:105A000098AA07D8015B8312BE853124C37D0C554B
:105A1000745DBE72FEB1DE80A706DC9B74F19BC193
:105A2000C1699BE48647BEEFC69DC10FCCA10C2483
:105A30006F2CE92DAA84744ADCA9B05CDA88F97667
:105A400052513E986DC631A8C82703B0C77F59BFD1
:105A5000F30BE0C64791A7D55163CA0667292914FD
:105A6000850AB72738211B2EFC6D2C4D130D38539A
:105A700054730A65BB0A6A762EC9C281852C72925C
:105A8000A1E8BFA24B661AA8708B4BC2A3516CC78A
:105A900019E892D1240699D685350EF470A06A10C3
:105AA00016C1A419086C371E4C774827B5BCB03412
:105AB000B30C1C394AAAD84E4FCA9C5BF36F2E68B0
:105AC000EE828F746F63A5781478C8840802C78C3F
:105AD000FAFFBE90EB6C50A4F7A3F9BEF27871C642
