:020000040800F2
:10000000681F0520219804084197040843970408B5
:100010004597040847970408499704080000000022
:10002000000000000000000000000000CD280308D0
:100030004B97040800000000712803084D9704083E
:1000400063980408679804086B9804086F9804087C
:1000500073980408779804085D9704087B9804084F
:100060007F98040883980408879804088B980408EC
:100070008F98040893980408979804089B9804089C
:100080009F980408A3980408A7980408AB9804084C
:10009000AF980408B3980408B7980408BB980408FC
:1000A000BF980408C3980408C7980408CB980408AC
:1000B000CF980408D3980408D7980408DB9804085C
:1000C000DF980408E3980408E7980408EB9804080C
:1000D000EF980408F3980408F7980408FB980408BC
:1000E000FF98040803990408079904080B99040869
:1000F0000F99040813990408179904081B99040818
:100100001F99040823990408279904082B990408C7
:100110002F99040833990408CF4403083799040839
:100120003B9904083F990408439904084799040837
:100130004B990408519704084F99040853990408EF
:10014000579904085B9904085F99040863990408A7
:10015000679904086B9904086F9904087399040857
:10016000779904087B9904087F9904088399040807
:10017000879904088B9904088F99040800000000EF
:1001800093990408979904089B9904089F99040877
:10019000A3990408A7990408AB990408AF99040827
:1001A000B3990408B7990408BB990408BF990408D7
:1001B000C3990408C7990408CB990408CF99040887
:1001C000D3990408D7990408DB990408DF99040837
:1001D000E3990408E7990408EB990408EF990408E7
:1001E000F3990408F7990408FB990408FF99040897
:1001F000039A0408079A0408003CFD00024F666653
:100200008100DE0013010400008018032081180320
:10021000208018032080180320FC0003801803208E
:10022000FC0007801803206C180320E00013020470
:100230000101EC0B05203C0C0520EC0B0520EC0B20
:100240000520FC0003EC0B0520FC0007C818032068
:10025000B4180320E000046098040801FD000314B2
:10026000190320FC00032B580208FC000325580248
:1002700008FC000B4158020829580208555802088A
:10028000F8000C653E01085D3E01084B3E01080187
:10029000F9001B5C9804085C9804085C9804085CEE
:1002A0009804085C9804085C9804085C980408F8B2
:1002B000FF0B5E9804085C9804085C980408FAFF39
:1002C00002000008FD000007FD000006FD0000051B
:1002D000F900052BC000002CC0FA000006FD00004C
:1002E00007F900010304E600056E1900007017FD10
:1002F000000002FD000004FD000008FD000010FDEC
:10030000000320000020FC000624024000240240DC
:10031000FC000301031C06F800FCAAFC000001F924
:10032000000010FD0004C911000001FD0004931A33
:10033000000001FD0004D103000001FD00099DA49F
:100340000308E1A4030800C0F6000001FD0000015D
:10035000FC000C800008000002400024F40000C0F3
:020000040801F1
:1000000000281CBF0068002801D10020704790F92B
:1000100001007047816B00291CBFD1F83C110029F9
:1000200001D0086870470068816C0029F9D1002070
:10003000704702E0002200F8012B0A46511E002AF8
:10004000F8D170477CB504460D46206D80B10FF2A3
:100050002406019500965223DFF8B42D01F0E4FD4B
:10006000E06C236D2A46A90802B0BDE8704018472D
:1000700073BD00007365745F74696D657220746F81
:10008000202564206D7300002DE9F84FB4B00446BC
:100090008A4617461D46684603F08DFD204603F04C
:1000A00071FD040008BFDFF86C0D77D0DDF8FC802F
:1000B000039503F0A7FE0546039803F0ABFE401935
:1000C0004044802888BFDFF8500D67D803983E9ED3
:1000D00003F0A0FE834614A8039900EB05095A46D5
:1000E000484603F0C5FE4246314609EB0B00D844B2
:1000F00003F0BEFE01222146684603F07DFD002884
:100100004CD1419E3A46409C51466846002703F038
:10011000C2FD424649466846A84403F00CFE14A9B5
:100120006846B6FBF5FA03F017FE05FB1A6A09E00C
:1001300004AB00EB070C1B5C401C04F80C3088423D
:10014000F6D31746B74268461DD203F02FFE42464B
:1001500014A9684603F0EFFD04A9684603F0FCFD0E
:10016000684603F023FE2A4614A9684603F0E3FD1F
:1001700014A9684603F0F0FDEA19964234BF5146CF
:1001800029460020DBE703F01CFD802114A8FFF7BF
:1001900050FF402104A8FFF74CFF002035B0BDE818
:1001A000F08F7FB500F00BF8062003E07FB500F07C
:1001B00006F807200194FFF767FF04B070BD0093B5
:1001C00013460A46089C099D0A9E0146039602951D
:1001D00070472DE9F84FE4B00646706BDFF8308CBD
:1001E0000590B76CB06B40F2F51304900FF28840A5
:1001F00002F0C2F83968DFF8204C91F9080003F0EA
:1002000099FE5FEA000B38680BD190F908000FF2F5
:100210007841009140F2FB130190424601213046A3
:1002200011E090F9090003F0ADFC079070B939684E
:100230000FF27443304691F90920009340F20323F2
:1002400001210192424604F02DF801E27069DFF8C5
:10025000C49BDFF8C8AB032811D13A68049992F91E
:100260000900072801F527750ED1DFF82C1EA960BB
:100270000FF2A1512960DFF8241E69600DE0CDF86E
:1002800000A040F23223A8E1DFF8140EA8600FF2BC
:1002900021502860DFF80C0E6860049800F52B717F
:1002A00003910499D1F8300300286CD1049940F2ED
:1002B000432301F53B720FF214410692E868069A57
:1002C000029001924246009102F0E9F9B06BD0F839
:1002D000441301293BD10FF2084240F24B23009214
:1002E00000F061FAB26B08A93046D2F89C32984708
:1002F0007069032808D1B16C0A6892F909000728CF
:1003000014BF2024302400E0242408A90FF2F03088
:1003100001914FF418730090424602940321304635
:1003200004F01AF805980094302208AB02920FF2FC
:10033000E03200F12C0106980191E968AC68A04711
:1003400004001BD0CBA001944FF41A7314E005985D
:100350003021402302910093039B00F12C02069868
:100360000192E968AC680FF20442A047040005D08E
:10037000C0A0019440F27523009067E106984221E5
:10038000FFF757FE06E00FF2A0304FF41F73009006
:1003900000F009FA0399402254A803F079FD03986C
:1003A00020225CA903F074FD0498202254A900F5D2
:1003B000337003F06DFD402154A8FFF73AFE14A8F6
:1003C0004FF480710190059840220291039B0092A6
:1003D000AC680FF2743230212C30A047040005D0F5
:1003E000A4A1019440F2962300912FE105980068A2
:1003F00004F090FA0FF260310190009140F29B23DB
:1004000000F0D1F9059930200FF26033029000938B
:100410004FF4277301F12C0203210192424630462A
:1004200003F09AFF402003990FF25032029001919D
:1004300040F29D23009242460421304603F08CFF97
:100440004FF4807014A90FF244320290019140F2EF
:100450009E2302F01DF903984021FFF7EAFDDBF827
:100460000400C00878609BF90100062818BF08281E
:1004700031D1002078610C20F860042038613868A0
:10048000017F8A074CBF10201820B86078690FF2EE
:10049000DC310490F8680390B868029078680190A5
:1004A00040F2FF23009100F07EF9326892F8740068
:1004B000C10700F18980786914A901EB400202921A
:1004C0007968541814AA104400903869002814BFA1
:1004D0000546FD683CE00799012207F1380003F06A
:1004E0008BFB040007D10799012207F1440003F0B8
:1004F00083FB040006D00FF2A4300194009040F278
:10050000BB23A3E0079803F07DFC78610598416F59
:10051000012904BF0A227A61DBF80C007969F860CE
:100520009BF90120072A08BFB960AFD0DBF814207F
:10053000B1FBF2F102FB0121B9607269022A14BF1A
:10054000032A4018A1D0CDF800A040F2F72344E0E0
:100550002A46214407F1180003F08AFC78682A46ED
:100560002044411907F1280003F082FC706900283B
:100570002FDD7A6914A907F1380003F08CFB7A6942
:10058000009907F1440003F086FB3068D0F83CC0C6
:10059000BCF1000F08D001957968009105997B693D
:1005A000006C14AA2C31E047594607F1500003F0C3
:1005B000FBFC05000FF2F82A14D0019540F26D33D0
:1005C00000F0EAF8284651E0CDF800A040F22D33C3
:1005D00003E0CDF800A040F249334246012101F08A
:1005E000CEFE0EE007F188055946284603F0DCFCF4
:1005F0005FEA000907D0CDF804904FF45D7300F076
:10060000CBF8484632E0DBF804200299012307F1D9
:1006100050000FF2B42903F0DCFC070008D001976A
:100620004FF45F73CDF8009000F0B8F838461DE045
:10063000DBF8042000232146284603F0CAFC04000E
:1006400008D001944FF46173CDF8009000F0A6F843
:1006500020460BE04FF4807114A8FFF7EAFC0FF27C
:10066000802040F2BD3301F087FE002065B0BDE878
:10067000F08F0000707266003D3E206465726976FE
:1006800065206B6579730000636970686572206925
:100690006E666F20666F72202564206E6F74206610
:1006A0006F756E64000000006D626564746C735F4A
:1006B0006D6420696E666F20666F72202564206EFF
:1006C0006F7420666F756E64000000007072656D57
:1006D0006173746572207365637265740000000055
:1006E0007573696E6720657874656E646564206DE6
:1006F0006173746572207365637265740000000035
:1007000073657373696F6E20686173680000000021
:10071000657874656E646564206D617374657220BC
:1007200073656372657400006E6F207072656D6131
:1007300073746572202873657373696F6E207265B8
:1007400073756D65642900006B657920657870614B
:100750006E73696F6E00000063697068657273750F
:10076000697465203D202573000000006D6173747D
:1007700065722073656372657400000072616E6457
:100780006F6D206279746573000000006B657920DD
:10079000626C6F636B000000CDF800A0424601213F
:1007A000304603F0ADBD42460321304603F07ABD2A
:1007B00070B59EB004460D4603A804F003FB0FF28B
:1007C0003011DFF84C66009140F2164302F0DAFD7A
:1007D000A06B00F5A87103A804F002FB294603A84A
:1007E00004F098FF202000F0A3F840F21B4300F033
:1007F0000BF80FF22C1140F21C4302F0C2FD03A8CB
:1008000004F0E3FA1EB070BD32460321204603F027
:10081000A3BD000070B5BAB004460D4604A805F0AB
:10082000EBF80FF2E401DFF8E865009140F22B43AA
:1008300002F0A8FDA06B00F5E07104A805F0EAF84D
:10084000294604A805F0BFFE302000F071F84FF4EF
:100850008663FFF7D9FF0FF2C80140F2314302F07F
:1008600090FD04A805F0CBF83AB070BD6B65796CCB
:10087000656E3A2025642C206D696E6C656E3A2099
:1008800025642C2069766C656E3A2025642C206DD9
:1008900061636C656E3A2025640000006D626564DA
:1008A000746C735F6D645F73657475700000000035
:1008B0006D626564746C735F6369706865725F73A1
:1008C00065747570000000006D626564746C735F20
:1008D0006369706865725F7365746B6579000000A9
:1008E0003C3D20646572697665206B657973000014
:1008F0003D3E2063616C6320766572696679207382
:1009000068613235360000003D3E2063616C632033
:100910007665726966792073686133383400000047
:100920003C3D2063616C63207665726966790000E6
:10093000019502900FF204000090704763616C63B0
:10094000756C61746564207665726966792072657C
:1009500073756C74000000002DE9F04F05460FF22E
:10096000CC108DB0DFF8A884009040F2EA434246F4
:1009700002212846DFF89C9403F094FCE86ADFF833
:100980009C6400281CBF286C002803D1009640F20C
:10099000EE43C3E0503005F19007FFF731FB04460A
:1009A000B869029038690FF294110190009140F2F9
:1009B000F543424601F032F8062C18BF082C40F0EF
:1009C000AA80286C09AC016838680A7F09A99307D6
:1009D0000DF12D0300F0C6FA7969217228684CBF29
:1009E0004FF0080A4FF0100A416F2869C1F3400226
:1009F000696902F04BFFB8690FF2884240F25B531D
:100A0000000A8DF82F00B96921730D2009A900F0A3
:100A1000E3F84246284603F09FFC286C0169C2684F
:100A2000521A082A03D0009640F2635376E03A68DF
:100A3000084440F26C53116840F8181F5168416037
:100A40003868F96800F08EFA286C4246C16800697F
:100A5000091A0291F8680FF24C410190009100F0E0
:100A6000DDFF3C69B96907912A6C4FF4AF63D06828
:100A7000411810694246091A0020B96102900FF22C
:100A8000DC00019101F05EFF0799286CCDF818A0F9
:100A900009AB039404EB010B08A904910799029197
:100AA0000D21CDF814B001940091C26800F1180135
:100AB000503003F055FB04000AD00FF2DC00019423
:100AC000009040F28553424600F0ADFF20462AE0F8
:100AD00008990798814203D0009640F28B531DE09D
:100AE000B86940F29253424604215044B8610FF273
:100AF000C40000902846CDF808A0CDF804B003F05B
:100B00002BFC0FF2C4014FF4C3630091424602F084
:100B100073F8002007E0009640F20D634246012181
:100B200002F06BF848460DB0BDE8F08F3D3E206501
:100B30006E63727970742062756600006265666F1C
:100B4000726520656E63727970743A206F75747087
:100B50007574207061796C6F616400006265666F06
:100B6000726520656E63727970743A206D73676C7C
:100B7000656E203D2025642C20696E636C75646968
:100B80006E67202564206279746573206F6620701B
:100B9000616464696E6700006D626564746C735FA4
:100BA0006369706865725F617574685F656E6372B2
:100BB00079707400616674657220656E6372797015
:100BC000743A2074616700003C3D20656E63727961
:100BD00070742062756600000290019104210092F9
:100BE00070472DE9F84F04460FF234208EB0DFF83D
:100BF00020A200904FF4C563524602212046DFF840
:100C000014B203F04FFBA06ADFF8108200281CBF6B
:100C1000E06B002804D1CDF8008040F22C63C7E0DF
:100C20008830DFF8609DFFF7EBF9E16BA66F8A680B
:100C3000964206D202920FF2F810019640F2356306
:100C4000ABE0062818BF082840F0AE800868027F95
:100C500008699307CA684CBF08251025101A29187F
:100C60008E4207D2039540F2656302900FF2E010C6
:100C7000019692E0361AE06E761B079009900AA959
:100C8000A667E06D0AAF0DF1310300F06BF9616FFB
:100C900039722068416F2069C1F34002616902F036
:100CA000F5FDA06F0FF2DC1240F27663000A8DF8BA
:100CB0003300A16F39730D200AA9FFF78DFF52464B
:100CC000204603F049FBE06BA16E0369C26818443B
:100CD0002830D21A03F0CCF8E06B40F27D63524624
:100CE000C168283002910FF2BC110190204600919A
:100CF000042103F031FB0798029540F27E635246CF
:100D0000042187190FF2A41001970090FFF77EFDD0
:100D1000E06B0695059708A9099A049103920D23A3
:100D20000296079A019200F128010093C2680AAB6B
:100D3000883003F04EFA05000DD00FF27C100195BB
:100D4000009040F28B63524602F017FB15F5C64F38
:100D500028D028464BE00898B04204D0CDF8008057
:100D600040F2966324E0A06F0FF268110290E06EEB
:100D700001904FF4EF63009152460421FFF746FDC6
:100D8000A06FD8B9D4F88400401C0428C4F88400AB
:100D900017DB0FF25C104FF4FD6300905246012107
:100DA00002F0F2FA484622E0CDF8008040F2737378
:100DB0005246012102F0E8FA584618E00020C4F833
:100DC00084000821E06D401E425C521C4254E36DD9
:100DD000581E405C70B9491EF4D10DE00FF250115D
:100DE00040F603030091524602F0CDFA00200FB006
:100DF000BDE8F08F0029F1D10FF2441040F2FE73EC
:100E000000905246012102F0BFFADFF8C00DEEE774
:100E1000C83801080094FFFF008FFFFF2439010844
:100E20003D3E2064656372797074206275660000CF
:100E3000696E5F6D73676C656E2028256429203CA0
:100E4000206D696E6C656E20282564290000000005
:100E50006D73676C656E2028256429203C206578B9
:100E6000706C696369745F69765F6C656E202825B4
:100E70006429202B207461676C656E202825642905
:100E8000000000006164646974696F6E616C2064C5
:100E9000617461207573656420666F7220414541FD
:100EA0004400000049562075736564005441472092
:100EB00075736564000000006D626564746C735F37
:100EC0006369706865725F617574685F6465637299
:100ED0007970740072617720627566666572206150
:100EE000667465722064656372797074696F6E00F0
:100EF000726563656976656420666F757220636FDD
:100F00006E736563757469766520656D707479209C
:100F10006D657373616765732C20706F737369629D
:100F20006C6520446F532061747461636B00000032
:100F30003C3D2064656372797074206275660000C0
:100F4000696E636F6D696E67206D65737361676548
:100F500020636F756E74657220776F756C6420778F
:100F60007261700002680A6042684A6070472DE949
:100F7000FE4F04460FF230100E46DFF8549C0090EE
:100F80004FF40A634A4602212046DFF8485C03F02A
:100F900089F9E169002904BF206A002805D10FF210
:100FA000882240F6A50300920CE0206E41F29D716C
:100FB000091AA06D4118B1420AD20FF2FC0040F6A6
:100FC000AB0300904A46012102F0DEF9284660E0BA
:100FD0000296E06F0FF200150190009540F63E1367
:100FE0004A460221204640F6561A03F05BF9DFF824
:100FF00094BD0FF2001803E03FD4E06F3F18E7679D
:10100000E76FB7423BD2616DF71B69B1E06C88476F
:10101000022809D1CDF8008060234A4603212046EA
:101020005F4603F03FF911E0D4F820C0206EE16F75
:10103000BCF1000F0144606A04D02268136E3A4686
:10104000E04702E0E3693A46984707460296E06FB8
:101050000190534600954A4602F095F90FF2A4001C
:101060000197009040F657134A46022102F086F994
:10107000002FC1D1DFF8100D0BE0384609E00FF268
:101080009C012046009140F663134A4600F05CFD47
:101090000020BDE8FE8F0000AD010108A726010871
:1010A000A3010108CF2501083D3E206665746368F1
:1010B00020696E707574000072657175657374696E
:1010C0006E67206D6F726520646174612074686161
:1010D0006E20666974730000696E5F6C6566743AB1
:1010E0002025642C206E625F77616E743A2025643F
:1010F0000000000074696D65722065787069726522
:101100006400000073736C2D3E665F726563762821
:101110005F74696D656F7574290000003C3D206641
:101120006574636820696E70757400002DE9FF4175
:101130000FF2E402DFF8988A009204464FF4176336
:10114000424600F001FDA06958B90FF2DC0140F6FB
:10115000751300914246012102F016F9DFF8740A76
:1011600056E004F190060FF2FC07F06930B90097E1
:1011700040F67C1348E0F069451BF561F069A8B3BF
:101180000290B0690FF2EC0140F6831300914246E1
:10119000401D0221019002F0F7F8F0697168B3690F
:1011A0000246404219440844411D606AA3699847B9
:1011B00005460FF2E400019540F68913009042467F
:1011C000022102F0DBF8002DD5DC284620E0491E84
:1011D000C9B261B90FF2CC0040F6981300904246B4
:1011E000012102F0D1F8DFF8E40911E008213068AC
:1011F000401E425C521C425433685A1E505C002808
:10120000E5D0009740F69C13424602F0BCF800205F
:1012100004B0BDE8F08100003D3E20666C75736847
:10122000206F757470757400426164207573616716
:1012300065206F66206D626564746C735F73736C98
:101240005F7365745F62696F2829206F72206D6219
:101250006564746C735F73736C5F7365745F6269EC
:101260006F2829003C3D20666C757368206F75748B
:10127000707574006D657373616765206C656E676A
:1012800074683A2025642C206F75745F6C656674F1
:101290003A2025640000000073736C2D3E665F7376
:1012A000656E64006F7574676F696E67206D657336
:1012B0007361676520636F756E74657220776F75F3
:1012C0006C64207772617000F0B5054685B005F159
:1012D00094070FF224107C6901F03EF940F68D234B
:1012E00001F089FC3969162921D1FA68107868B1B2
:1012F000A96B59B9DFF8940A40F69F230090324653
:10130000012101F07AFCDFF8880A73E0211F0B0C41
:101310005370FA68090A9170FB68211FD97030B1C7
:10132000AB6BF96822462846D3F898C2E047396883
:101330003869087038682968431C486F6969C0F3C8
:101340004002286902F0A2FA7968200A08707968D8
:101350004C70286C88B12846FFF7FEFA040006D0CE
:101360000FF2A4010194009140F6083337E0786948
:101370007A68010A1170796848707869396840F6AE
:101380001633401DB86178680278407840EA022040
:1013900032460490887803904878029008780FF2DB
:1013A0007801019028460091032102F07BFF7869C3
:1013B0000FF2A00240F61933401D02903968FFF782
:1013C0000CFC324600F02BFB2846FFF7AFFE040072
:1013D00009D0DFF8C0090194009040F61E3300F0F8
:1013E00021FB204606E00FF28C0140F6223301F08B
:1013F00001FC002005B0F0BD3D3E207772697465A8
:10140000207265636F72640073736C5F656E6372E4
:101410007970745F627566006F7574707574207290
:1014200065636F72643A206D736774797065203DEF
:101430002025642C2076657273696F6E203D205BD9
:1014400025643A25645D2C206D73676C656E203DC4
:10145000202564006F7574707574207265636F72F7
:10146000642073656E7420746F206E6574776F727C
:101470006B0000003C3D20777269746520726563E3
:101480006F72640038B584B00446A16FDFF840572E
:1014900004290CD20FF270000191009040F606432F
:1014A0002A46012101F070FFDFF8280D2AE0E26EE4
:1014B000937850781B0243EA0043D07803431B1D06
:1014C000C4F8803020460393127801910FF258013E
:1014D000029240F6114300912A46032102F0E2FEF7
:1014E000A06FD4F8801088420BD20FF2740040F63F
:1014F0004F4300902A46012101F046FFDFF8D80C47
:1015000000E0002005B030BD68616E647368616BF7
:1015100065206D65737361676520746F6F207368F4
:101520006F72743A2025640068616E647368616B41
:1015300065206D6573736167653A206D73676C65CF
:101540006E203D2025642C2074797065203D202577
:10155000642C2068736C656E203D202564000000BB
:10156000544C532068616E647368616B65206672C9
:1015700061676D656E746174696F6E206E6F742043
:10158000737570706F727465640000004168102993
:101590001CBF836B002B05D0D0F88020C16ED3F820
:1015A00098321847704778B5044687B005200FF287
:1015B0002C120290206EDFF818560190009240F62F
:1015C00096532A4604212046DFF8086C02F0C4FE38
:1015D000206E01786167616E431C0A78497841EAA0
:1015E0000221A1672068416F06A8C1F3400205A946
:1015F00002F04FF9A06F0599069A0490039140F606
:101600009F530292606F0FF2E802019000922A4607
:1016100000F00AFB606F162818BF152812D0142896
:1016200018BF17280ED00FF2041040F6A7530090F1
:101630002A46012101F0A8FE0A220221204600F0DC
:1016400086FA45E006982169884205D00FF2F0003D
:101650004FF45B63009037E02168059A91F87100C0
:10166000904205DA0FF2F00240F6B65300922BE0FA
:10167000E06E41F29D73A16F0FF288321B1AA06DCC
:10168000C3188B4203D2009240F6BE531CE0E06BBD
:1016900040B919B141F2717081421BD3009240F6FA
:1016A000C85311E08068814203D200924FF45D6319
:1016B0000AE06369002B0DDD00F5C05070308842F0
:1016C00008D2009240F6E5532A46012101F05CFE63
:1016D000304600E0002008B070BD0000696E7075F3
:1016E00074207265636F726420686561646572005E
:1016F000696E707574207265636F72643A206D73E1
:101700006774797065203D2025642C20766572739E
:10171000696F6E203D205B25643A25645D2C206D49
:1017200073676C656E203D2025640000756E6B6EDE
:101730006F776E207265636F7264207479706500D4
:101740006D616A6F722076657273696F6E206D6964
:10175000736D6174636800006D696E6F72207665E9
:101760007273696F6E206D69736D617463680000D8
:10177000FEB505460FF2780000F0EEFE40F68963F4
:1017800001F039FA05F17407786910BB284600F0BA
:1017900061F804000ED1284600F049F9044614F51A
:1017A000CD4FF3D074B10FF258000194009040F681
:1017B0009B6305E00FF248010194009140F69163AC
:1017C00001F067B9386816280BD12846FFF7DEFE0E
:1017D00007E00FF24C0140F6A66301F00BFA00207F
:1017E00078610FF2600040F6AA63009001F058B9EA
:1017F0003D3E2072656164207265636F7264000013
:101800006D626564746C735F73736C5F7265616441
:101810005F7265636F72645F6C617965720000006E
:101820003C3D2072657573652070726576696F75D1
:10183000736C792072656164206D6573736167658F
:10184000000000003C3D2072656164207265636F9A
:1018500072640000FEB50546DD4ED5F88010286F95
:1018600049B358B1DFF8240540F6D86300903246FA
:10187000012101F0C2F9DFF81805FEBDAA6F9142FF
:1018800010D2E86E521AAA67014405F091F9A86FC8
:101890000FF2F4010290E86E019040F6F86300F058
:1018A000BBF801E00022AA670020C5F88000A86FFD
:1018B00020B10020FEBD0028FBD1A96705212846E4
:1018C000FFF755FB04000FF2DC0707D0019440F648
:1018D0002373009700F0A6F82046FEBD2846FFF7C8
:1018E00062FE0028E6D1A96F2846491DFFF73FFB9D
:1018F000040003D0019440F64D73EAE700200FF294
:10190000BC02E867A86F40F64263401D0290296E52
:10191000FFF763F9324600F082F8E86B0028C8D080
:101920002846FFF75EF9040010D00FF2AC010194D5
:10193000009140F6586300F075F814F5E34FCBD1F1
:1019400014220221284600F002F9C5E7A86F0FF221
:1019500098010290E86E019040F65D6300F05CF83B
:10196000A86F41F271718842A3D30FF2980140F63B
:10197000616300913246012101F03FF9DFF85448DC
:10198000AAE70000808EFFFF72656D61696E696E67
:101990006720636F6E74656E7420696E2072656374
:1019A0006F7264006D626564746C735F73736C5FF7
:1019B00066657463685F696E70757400696E7075D2
:1019C00074207265636F72642066726F6D206E653D
:1019D00074776F726B00000073736C5F6465637281
:1019E0007970745F62756600696E707574207061DD
:1019F000796C6F61642061667465722064656372DE
:101A000079707400626164206D657373616765202D
:101A10006C656E67746800000091324604212846A8
:101A200002F09ABC32460121284602F069BC3EB55C
:101A30000446606F162804D12046FFF723FD0028D6
:101A400045D1616F152941D1E06E614D40F6D573E6
:101A50002A464178029100780FF2740101902046E5
:101A6000009100F071F8E16E0A78022A0DD14878F1
:101A70000FF28001009140F6DD7301902A460121AA
:101A800001F082FCDFF8AC0C3EBD012A04BF4878AF
:101A900000280AD10FF2800140F6E47300912A4633
:101AA00001F071FCDFF8900C3EBD012A04BF4878BC
:101AB000642808D10FF27C0140F6EC7300912A46AD
:101AC00001F061FC02E0DFF8F00D3EBD00203EBDFC
:101AD000676F7420616E20616C657274206D657330
:101AE000736167652C20747970653A205B25643AD0
:101AF00025645D006973206120666174616C2061FA
:101B00006C657274206D65737361676520286D73F1
:101B100067202564290000006973206120636C6FD1
:101B20007365206E6F74696679206D657373616784
:101B300065000000697320612053534C7633206E9A
:101B40006F5F636572740000022102F0ABBBFEB5EB
:101B500004000D4617461CBF2068002801D11D480F
:101B6000FEBD0FF2740201F095FC41F21C0301F07E
:101B700009FC0FF27C000297009041F21D030195D1
:101B8000324600F051F804F1A00015214160022115
:101B9000816001680D70006847702046FFF794FB74
:101BA000050009D0DFF8141D0195009141F22603CC
:101BB00001F0E2FB2846FEBD0FF2540041F229037A
:101BC000009032460221204600F06DBF8094FFFF56
:101BD000C8380108008FFFFF3D3E2073656E64200A
:101BE000616C657274206D657373616765000000D8
:101BF00073656E6420616C657274206C6576656CCB
:101C00003D2575206D6573736167653D2575000021
:101C10003C3D2073656E6420616C657274206D6557
:101C200073736167650000000321204602F03ABB30
:101C30002DE9FF4706460FF26012B06CDFF8D09D29
:101C400041F26B030221046800924A4600F097FBC0
:101C500094F90A000FF25811052818BF062803D07E
:101C6000082818BF0B2803D1009141F272030BE042
:101C7000326806F1A00592F87430D8070BD42869B1
:101C800048B9009141F27C034A4600F077FB706846
:101C9000401C70604DE030460727FEF7BBF90FF29D
:101CA0002C110190009141F29F034A4603213046D6
:101CB00041F26D7A02F047FD3046FEF7ABF98046FF
:101CC00014E02968200C2246C8552968200AC91941
:101CD00048702868C019FF1C84702868D8F808105C
:101CE000C019E71902F0C4F8D8F83081B8F1000F34
:101CF00023D0D8F80440AAEB0700A042E1D241F279
:101D00007070E7190290FF1C01970FF2D00000904D
:101D100041F2B3034A46012100F031FBDFF8F40C35
:101D200008E00FF2D80141F2D30300914A4600F0D7
:101D300025FB002004B0BDE8F0872A68F81F010CDD
:101D4000000A1171296848712A68F81F90711620DD
:101D5000AF60686029680B2008707068401C706074
:101D60003046FFF7B1FA0400DBD0DFF8501B0194D6
:101D7000009141F2CF034A460121304602F0C0FAF9
:101D80002046D7E70098FFFF808DFFFF2439010828
:101D90000094FFFF383901083D3E20777269746571
:101DA0002063657274696669636174650000000090
:101DB0003C3D20736B6970207772697465206365A0
:101DC0007274696669636174650000006F776E20E4
:101DD00063657274696669636174650063657274D2
:101DE0006966696361746520746F6F206C617267E6
:101DF000652C202564203E20256400003C3D207792
:101E0000726974652063657274696669636174657B
:101E1000000000002DE9F84F84B00546A86C296841
:101E2000DFF8ECBB4FF487535A46D0F800A0486F58
:101E30000221C0F381090FF2A430009000F0DDFE12
:101E40009AF90A00052818BF062803D0082818BFE9
:101E50000B280CD10FF29C3041F2E70300905A4658
:101E600000F0CAFE69680020491C696065E12846E7
:101E7000FFF77EFC064650B10196DFF8340D009066
:101E800041F208135A46FFF7CEFD304655E1696826
:101E90000FF27C34491C6960686F16280BD00094DF
:101EA00041F245135A46012100F0A7FE00F058FB0D
:101EB000DFF8980D41E1E96EDFF8948D08780B2882
:101EC00003D1D5F880200A2A03D2009441F24E13A0
:101ED00067E1087930B988794B7940EA0320C01D61
:101EE000824203D0009441F25E135AE1686BC06DE8
:101EF00038B106F015FC686BDFF8581D0A68C06D34
:101F00009047DFF8542D4FF49A71136801209847D9
:101F1000696BC86588B94FF49A70DFF8402D01905D
:101F200041F26F1300925A46012100F066FE5022E2
:101F300000F017FBDFF8280DFFE006F0EDFB0723AC
:101F400000201EE050789278DB1C42EA0022802AB2
:101F500024BFD618B142C0F02181686BF918C06D5A
:101F600005F08FF901000BD0DFF8C02D811A16D0D3
:101F700040F25222891A03D0AE3900F01A811BE1D7
:101F80003346D5F880108B4280F0DA80EF6EFA1875
:101F900010780028D6D0009441F27D1301E1044668
:101FA00050220BE1716B4268C96D4B689A4204D1B3
:101FB0008968806806F030FC28B10FF26C2041F28D
:101FC000C4130090DFE0B9F1000F00F0AD80B06BFA
:101FD00000F5A4710868002819BF05464A68FD6C21
:101FE0003A6D706BB96B0391796B029100F16001EE
:101FF0000191D6F8B41000917B6CC06D294606F0B3
:10200000AFFA04000AD00FF24C200194009041F284
:10201000EB135A460121304602F072F9716BC86D1C
:10202000022100F1BC07384606F06BFCB0B17868BD
:1020300090F90010304601F0CFFB78B1706B41F29F
:10204000FC135A46016E41F4803101660FF21820EC
:102050000090012100F093F904B944463168706B97
:102060004A6F514600F16003C06D82F0010202F038
:10207000010201F0D2FB50B10FF20C2041F2082313
:1020800000905A46012100F07AF904B94446B9F1AA
:10209000010F0DD114F51C5F01D1002432E044453D
:1020A000FBD07CB3706B006EC10512D5312225E0E8
:1020B000002D08BFB9F1020FF3D10FF2F01041F279
:1020C0001C2300905A46012100F059F9DFF8484DD1
:1020D000E8E7410748BF2A2210D410F4DC3F18BFBC
:1020E0002B220BD1C10748BF2D2207D4810748BF3F
:1020F0002C2203D400074CBF30222E22022130466E
:10210000FFF725FD706B006E30B10FF2B01101903A
:10211000009141F2432304E00FF2C41041F247233F
:1021200000905A46FEF740FB0FF2DC1141F24C23BF
:1021300000915A4600F022F9204605B0BDE8F08F24
:102140002E460446706B0FF2D81241F2AC13C16DEB
:10215000009201915A460321304602F0F4FA3768A2
:1021600097F87400C1073FF52EAFB16801297FF4DD
:102170002AAF306BC06D00287FF414AF0FF2B4119A
:1021800041F2B81300915A46012100F0F8F83122CB
:1021900002213046FFF7DBFC4046CEE7009441F2D7
:1021A00089135A46012100F028FD322202212846D7
:1021B000F0E704462B2201E004462A2200F0D1F980
:1021C0000FF298100194009041F2A5135A46FFF7C0
:1021D0002AFCB1E7008EFFFF808FFFFF3D3E20709D
:1021E00061727365206365727469666963617465A1
:1021F000000000003C3D20736B69702070617273B9
:1022000065206365727469666963617465000000C6
:1022100062616420636572746966696361746520D4
:102220006D657373616765007365727665722063AF
:10223000657274206368616E676564206475726995
:102240006E672072656E65676F74696174696F6E21
:1022500000000000783530395F7665726966795F15
:1022600063657274000000006261642063657274CB
:102270006966696361746520284543206B65792030
:10228000637572766529000062616420636572740B
:102290006966696361746520287573616765206587
:1022A0007874656E73696F6E73290000676F7420B0
:1022B0006E6F20434120636861696E002120436591
:1022C00072746966696361746520766572696669AE
:1022D000636174696F6E20666C6167732025780096
:1022E00043657274696669636174652076657269B5
:1022F0006669636174696F6E20666C6167732063E1
:102300006C656172000000003C3D20706172736575
:10231000206365727469666963617465000000001A
:10232000706565722063657274696669636174655E
:10233000000000006E657720736572766572206319
:1023400065727420647572696E672072656E656768
:102350006F74696174696F6E00000000206D6265C2
:1023600064746C735F783530395F6372745F706169
:102370007273655F646572000090424602213046C8
:1023800001F090BF7CB505460FF24C0000F0E4F878
:1023900041F25C2300F02FFC05F1A0001421416004
:1023A00001218160006801706868401C68602846EF
:1023B000FEF78AFF040006D0DFF8001501940091B3
:1023C00041F26623D1E00FF22C0041F26A23009023
:1023D00032460221284674E03D3E207772697465DA
:1023E000206368616E676520636970686572207339
:1023F000706563003C3D2077726974652063686195
:102400006E6765206369706865722073706563002C
:102410007CB505460FF2B40000F09EF841F273233C
:1024200000F0E9FB2846FFF7A3F9040006D0DFF827
:1024300080070194009041F2772396E0696F0FF2D4
:10244000A80014290BD0009041F27D2332460121CF
:1024500000F0D3FB00F084F8DFF8F00776BDA96F39
:10246000012902BFEA6E1378012B0CD0009041F2D3
:1024700085233246012100F0C0FB322200F071F8C2
:10248000DFF8000B76BD0FF2800041F28F2300F0E1
:10249000FAFA686BA96CA862E86DE963082106F096
:1024A00041FB6969A86E00F0E5FAE86668680FF21A
:1024B0008C0141F2C1233246401C686028460091DD
:1024C000022101F0EFFE002076BD00003D3E2070AD
:1024D00061727365206368616E6765206369706807
:1024E0006572207370656300626164206368616E69
:1024F0006765206369706865722073706563206D1D
:102500006573736167650000737769746368696EEA
:102510006720746F206E6577207472616E73666FCA
:10252000726D207370656320666F7220696E626FD2
:10253000756E642064617461000000003C3D207091
:1025400061727365206368616E6765206369706896
:102550006572207370656300DFF8B46400907047A3
:102560000A2202212846FFF7F2BA32460121284604
:1025700001F0C6FE204676BD81B091F90910806B4E
:1025800007290CBF0FF23D020FF22D02C0F898226E
:1025900001B0704770B504460D46A36B164603F5AF
:1025A000A87003F07EF8A46B3246294604F5E0706B
:1025B000BDE8704003F0C5BF806B00F5A87003F064
:1025C00070B80000806B00F5E07003F0BABF2DE931
:1025D000F041A6B000F0FCF80BA8DFF8348402F05C
:1025E000F1FB0FF2780141F2C2330091FFF7C5FE13
:1025F000B06B00F5A8710BA802F0F2FB20210DA82A
:102600000FF278020291019041F2CE3300F040F8CF
:10261000002D03A90BA80CBF0FF258150FF264157B
:1026200003F078F80C2001970290202000F0D7F8F2
:1026300000F0BAF841F2DA3300F030F80BA802F0FB
:10264000C4FB202103A8FDF7F4FC0FF248104FF45F
:102650009F53FFF791FE26B0BDE8F0813D3E206319
:10266000616C63202066696E697368656420746CB0
:1026700073207368613235360000000066696E6948
:1026800073686564207368613220737461746500D7
:10269000009242460421304601F05EBE42460321CC
:1026A000304601F059BE2DE9F041C6B000F090F877
:1026B00010A8DFF8288A03F09FF90FF2800141F299
:1026C000F3330091FFF759FEB06B00F5E07110A8ED
:1026D00003F0A0F9402114A80FF2800202910190AA
:1026E00041F2FF33FFF7D4FF002D03A910A80CBF60
:1026F0000FF280050FF28C0503F065FF0C200197A7
:102700000290302000F06BF800F04EF841F20B43DD
:10271000FFF7C4FF10A803F072F9302103A8FDF7FA
:1027200088FC0FF2700041F21143FFF725FE46B01E
:10273000BDE8F0818088FFFF8087FFFF3D3E20637A
:10274000616C63202066696E697368656420746CCF
:1027500073207368613338340000000066696E6965
:1027600073686564207368613531322073746174F5
:1027700065000000636C69656E742066696E69733C
:10278000686564007365727665722066696E697348
:10279000686564003C3D2063616C63202066696E5F
:1027A00069736865640000000C20019702900FF2C5
:1027B000080000907047000063616C632066696EDA
:1027C000697368656420726573756C74000000003D
:1027D0000646746B0F46154604B9346B704700907B
:1027E00004F12C00B46B2A4603AB3021D4F8A45278
:1027F0002847F8B505460FF2C802A86B844E41F28F
:1028000033430321D0F830430092324600F0F5F90B
:10281000A868012803D10221A9600021E960286B82
:10282000DFF8307420B100F0ABFE286B39688847C0
:10283000696B0020296368632B685A6A002A1CBFF1
:10284000886800280CD05CB9986A904740B10FF2B4
:10285000840041F2564300903246012100F0CDF948
:102860000FF28C0141F21843009100F00DF9A86BB2
:1028700000F063FEA86B396888470020A863686C85
:1028800020B100F040FE686C39688847A86C41F2BE
:102890002C4368640020A8640FF2740000F0F3F881
:1028A00069680FF28C0041F26A433246491C696044
:1028B00000F048F8F1BD00008099FFFF543901088D
:1028C0003D3E2068616E647368616B65207772615C
:1028D00070757000636163686520646964206E6F61
:1028E000742073746F72652073657373696F6E0003
:1028F0003D3E2068616E647368616B65207772612C
:102900007075703A2066696E616C2066726565004C
:102910003C3D2068616E647368616B65207772610D
:102920007075703A2066696E616C2066726565002C
:102930003C3D2068616E647368616B6520777261ED
:102940007075700003210090284601F0ABBCFEB505
:1029500005460FF2C400FFF7FFFD41F2714300F09E
:102960004AF9696905F19004E06800F083F8206194
:102970002868AB6B216990F874202846D3F8A072C0
:10298000091D02F00102B8476869002820690CBFE0
:1029900024270C2727633A46011D05F1C40001F0E6
:1029A00067FA16213F1D61612169A7611420087033
:1029B000A96BD1F8300330B12A6892F87410C807B7
:1029C00004D40F2001E06868401C68600FF25C01CD
:1029D00041F2A743009100F057F82068082106F063
:1029E000A1F8A86C2864686BE8622846FEF76CFCC6
:1029F000040006D0DFF87C090194009041F2DA432C
:102A000047E00FF25C0141F2DE43009148E0000034
:102A1000C8380108008BFFFF3D3E2077726974655E
:102A20002066696E69736865640000007377697475
:102A30006368696E6720746F206E657720747261B9
:102A40006E73666F726D207370656320666F72209F
:102A50006F7574626F756E6420646174610000004C
:102A60003C3D2077726974652066696E697368659C
:102A700064000000012905DDA96CCA6809691044D9
:102A8000494208447047009032460321284601F02D
:102A900009BC32460121284601F032FC2046FEBD29
:102AA00032460221284601F0FDFB0020FEBDF0B5B4
:102AB00005460FF2001085B0FFF74EFD41F2EF43DF
:102AC00000F099F82968AB6B284691F8742002A9A8
:102AD000D3F8A04202F0010282F00102A04728468A
:102AE000FEF746FE040007D031480194009041F201
:102AF000F543FEF797FF38E0696F0FF2CC00162917
:102B00000AD0009041F2FB433246012100F075F8F3
:102B1000FFF726FD4D4849E0E96EDFF8604A0A7884
:102B2000142A04BFD5F88030102B03D0009041F256
:102B30000C5313E0091D0022002302AF11F803C05B
:102B400017F803E05B1C0C2B8EEA0C0C4CEA02021B
:102B5000F4D3D2B25AB1009041F21553324601215A
:102B600000F04BF83222FFF7FCFC20461EE00C2060
:102B700005F1D001C5F8C00002A890E81C0081E86A
:102B80001C00A96BD1F8300330B12A6892F8741098
:102B9000C80704D40A2001E06868401C68600FF28E
:102BA000400141F2335300F025F8002005B0F0BD9C
:102BB000703901083D3E2070617273652066696E50
:102BC00069736865640000006261642066696E690B
:102BD00073686564206D657373616765000000004C
:102BE0003C3D2070617273652066696E697368652B
:102BF00064000000009132460221284601F052BBD9
:102C000038B504464FF4527105F090FF04F5A875ED
:102C1000284602F0D7F80021284602F0E4F804F52F
:102C2000E075284602F0E8FE0121284602F0F5FE94
:102C3000DFF83C0AC4F89802002020706070201D64
:102C400005F0ACFF0320C4F8400131BD0089FFFF4F
:102C50000086FFFFFC190320F8190320F42D01085A
:102C60000081FFFF38B50446A06C08B100F04BFCB2
:102C7000606B08B100F084FCA06B08B100F05DFC53
:102C8000A06CDFF8F05920B92A68C02101209047D4
:102C9000A064606B20B92A687821012090476063A6
:102CA000A06B28B92A684FF4527101209047A063A5
:102CB000A16B00291CBFA06C002801D0606BC0B9BB
:102CC0000FF26C0141F29A53009100F09FF8DFF887
:102CD0007C5AA06B29688847A06C29688847606B7C
:102CE000296888470020A063A0646063DFF8340A85
:102CF00032BD782105F01AFFA56CC021284605F0E9
:102D000015FF05F1500001F039F905F1880001F0D7
:102D100035F905F1380000F04EFF05F1440000F0F0
:102D20004AFFA06BFFF76CFF002032BD80D7FFFF8A
:102D3000616C6C6F632829206F662073736C20733D
:102D400075622D636F6E7465787473206661696C4B
:102D5000656400007CB5DFF81C59044621602A68D0
:102D600041F29D76314601209047A06538B12A682E
:102D700031460120904704F18C01086088B90FF2B8
:102D800074000196009041F2F35300F03FF8DFF831
:102D9000BC19A06D0A6890470020A065DFF884097F
:102DA00076BD4860086800F1080208688A600A6811
:102DB00002F10B030A68CB6000F10D030B6102F115
:102DC0000D034B61A06DE065A06D00F10801A06DE1
:102DD0002166A16D01F10B02A16D626600F10D0289
:102DE000A266204601F10D02E266BDE8764039E7B1
:102DF00000000000616C6C6F6328256420627974A8
:102E0000657329206661696C65640000DFF8CC2277
:102E10000121204601F046BA8089FFFF426F61F32D
:102E2000000242677047426F61F341024267704798
:102E3000426F61F383024267704741638263704768
:102E40008161C261704701614261704710B5029CA7
:102E500041628261C361046210BD016670474164D2
:102E6000704770B51646DFF80C28136804460D4607
:102E70000C2101209847010000D134E00D600020B2
:102E80004E608860226812B9216070BD0246906869
:102E90000028FBD1916070BD4830E2E7C164026553
:102EA000704770B50C00064608D0204600F0B2FF0F
:102EB0000546691C02D0B5F5807F02D3DFF8DC0936
:102EC00070BDDFF8B027012013689847C6F8B4003A
:102ED00000B908E02A46214600F0CAFFD6F8B4102F
:102EE0000020485570BDDFF83C0870BD81B0016B13
:102EF00009B1086E05E0406B002814BF006E4FF06A
:102F0000FF3001B0704738B505462C6C0CB9052070
:102F100032BD04F15000FDF773F8801E05D0001F8C
:102F200002280CD8A068401D32BD14F150001DBF0E
:102F3000206D00284169002160690818F3E70FF649
:102F4000E41041F6461300900FF67C120121FFF7C2
:102F500054FEDFF8500932BD81B001460868C96AE5
:102F6000DFF83C29436FC3F3821052F8200031B1DF
:102F700091F8701052F82110814238BF084601B014
:102F8000704700000082FFFF0028DFF81C1980B5A1
:102F90001CBF0268002A02D1DFF8000902BD92F8C6
:102FA0007420D30702D408F095FA0146084602BD02
:102FB0007CB505460024002D1CBF2868002800D1E0
:102FC00088E00FF2300200F065FA41F69D13FFF73A
:102FD00012FE6868102804D02846FFF7D5FF0400C9
:102FE000F7D00FF2200141F6A713FFF703FE2046AA
:102FF00076BD00003D3E2068616E647368616B655C
:10300000000000003C3D2068616E647368616B6580
:10301000000000007CB505460FF24400FFF79CFA63
:1030200041F6D413FFF7E7FD2846FFF71BFEB0B9C2
:1030300068600120A8602846FFF7BAFF040007D0A7
:103040000FF238400194009041F6EB13FFF78DBA70
:103050000FF21C0141F6EF13FFF7CCFD002076BD07
:103060003D3E2072656E65676F746961746500002E
:103070003C3D2072656E65676F7469617465000020
:103080007CB505001CBF2868002807D0A9680FF68A
:10309000380601290FD06868102800D01AE02846A9
:1030A000FFF7B8FF040013D00FF6DC010194009184
:1030B00041F61C230AE02846FFF77AFF040007D0F8
:1030C0000FF2B8300194009041F62423FEF7AAFCD9
:1030D000204676BDDFF8C40776BD0000C838010879
:1030E0007CB504466068102814D1A16803291FBF6D
:1030F0002568686FC0F3802000280BD0E06D00F0D9
:1031000016F80646D4F8900000F011F8002ED8BF4B
:10311000002801DC002076BD0FF6840041F647232D
:103120000090FFF773FE2046BDE87640A8E708222E
:1031300005F1680105F070BB2DE9FE4F04008946DA
:1031400092461ABF20680028DFF850075CD00FF6BF
:103150007C020FF27478009241F65723424600F049
:1031600012F92046FFF7BCFF054615F5D64F18BFEC
:10317000002D06D00FF65C000195009041F67923F2
:10318000A2E0616810290FD02046FFF711FF054625
:1031900015F5D64F18BF002D06D00FF2E02001958F
:1031A000009041F684238FE0206F04F18806002808
:1031B00040F0C280616D49B1E06C884710F1010FA9
:1031C00004D12068016E2046FCF73CFF20460FF238
:1031D000A077FEF7CDFA0500DFF8D0B606D05D4542
:1031E00011D0019541F6BA2300976DE0A06F002839
:1031F00004BF616F17290DD12046FEF7B9FA05000B
:1032000008D05D4501D10020B2E0019541F6C92307
:10321000009759E0606FDFF89876DFF89856162827
:1032200056D10FF2CC7041F6D123009042460121D5
:1032300000F0AAF821684A6FD0070DD4E36E187821
:10324000002804BFD4F88000042805D00FF2BC7118
:1032500041F6DE23009160E0C2F3802030B1706B54
:10326000002804BFC2F3011000281ED10FF2C47061
:1032700041F6033300904246FEF7D6FC616900290F
:1032800007DD642201212046FEF761FC00283BD0C7
:103290006EE00FF2906041F61F330090424601212C
:1032A00000F072F8DFF8FC0562E02046FFF7B2FE9E
:1032B000054615F5D64F18BF002D25D00FF2C86072
:1032C0000195009041F63533424600F056F828E06B
:1032D000A16803290ED121684A6E002A0AD4E26847
:1032E000521CE260496E914204DA0FF2707041F6AE
:1032F000433311E0152809D10FF2947141F64D3393
:103300000091424600F03FF8384631E017280AD0D5
:103310000FF2A47041F6533300904246012100F0B1
:1033200033F8284624E06068E16E2167102803D155
:1033300000212046FCF786FEA16F48468A4588BFDB
:103340008A46216F524600F093FDA06F41F682330A
:103350004246B0EB0A00A06707BF00213160206F32
:10336000504420670FF27070009000F00CF8504647
:10337000BDE8FE8F5439010832460121204600F095
:10338000BFBF009132460221204600F08BBFFEB540
:1033900005460C461746FFF7DFFD0646BE4205F11F
:1033A000A003D86888BF3E460FF21C5758B1284684
:1033B000FDF7BCFE04001CD00FF27C51019400917B
:1033C00041F6A63312E017209E6058601868324616
:1033D000214600F04DFD2846FDF776FF040008D099
:1033E0000FF270500194009041F6B2333A46FFF765
:1033F00051BB3046FEBD2DE9FC4190460FF2E06224
:103400000F4600F047F8044641F6E7333246FEF730
:103410009BFB002C1ABF20680028DFF880042AD00C
:103420002046FFF75DFE050006D00FF2A85101957A
:10343000009141F6EF330DE0606810280DD0204672
:10344000FFF7B6FD050008D00FF23001019500919D
:1034500041F6F833FFF790FF0CE04246394620462C
:10346000FFF795FF05460FF28460009041F6034395
:10347000FFF788FF2846BDE8F68100006D626564AD
:10348000746C735F73736C5F68616E647368616B97
:10349000650000000FF23046009270477CB50400D2
:1034A0001CBF2068002800D114E60FF24C62FFF721
:1034B000F1FF41F61243FFF765FFD4F8AC0020B1ED
:1034C0002046BDE87640FDF731BE6168102910D175
:1034D000002201212046FEF73AFB050009D00FF239
:1034E00030600195009041F61D43FFF745FF2846E7
:1034F00076BD0FF23C6141F6224300913246022133
:103500002046FEF7DEBF10B5040015D004F15000D0
:1035100000F037FD04F1880000F033FD04F13800BD
:1035200000F04FFB04F1440000F04BFB2046C021AB
:10353000BDE81040FCF77DBD10BD70B504001BD088
:1035400004F5A87004F59C7501F03FFC04F5E070EB
:103550007E4E02F054FA201D05F024FB28683168E5
:103560008847E86820B13168856888472800FAD123
:1035700020464FF45271E4E070BD00008081FFFFEF
:1035800038B5040010D0E06D704D20B105F0C8F8DA
:10359000E06D29688847606E296888472046782151
:1035A000BDE83440FCF745BD31BD2DE9FC410400C8
:1035B0005CD00FF294500FF21038009041F6B043F7
:1035C00042460221204604F18C0600F06BFE306872
:1035D000DFF8E47241F29D7528B12946FCF729FD18
:1035E000306839688847A06D28B12946FCF721FD6D
:1035F000A06D39688847606C20B1FFF784FF606C6C
:1036000039688847A06B80B1FFF797FFA06CFFF780
:103610007AFF606BFFF7B4FFA06B39688847A06C36
:1036200039688847606B39688847206B20B1FFF79D
:10363000A7FF206B39688847B56A4DB1284600F06E
:10364000E9FB01462846FCF7F4FCB06A3968884774
:103650000FF2FC4041F6F14300904246FFF793FE23
:103660002046DC21BDE8FC41FCF7E3BCBDE8F3816A
:1036700095250108F819032000BF782105F056BAF6
:10368000F8B505460C4617461E46FFF7C7FB3946F8
:103690002846FFF7C8FB05F170073CB9786820F0B1
:1036A0000C0040F4805040F00800786079681020E9
:1036B000824C41F4007179600221686605F168006E
:1036C00005F034FAFF22062105F16A0008F0FAF944
:1036D000022E12D10320B870F8703870787004F19F
:1036E0001400E860A860686028607548686404F1A8
:1036F0002000686504F12C0011E00320B87001205F
:10370000F87003203870787001F0D6F8E860A8608F
:10371000686028606B4868646C6508F007FAA86503
:103720000020F2BD0081FFFF70B50446074DA06C7C
:10373000002803E02968866888473000FAD12046CF
:103740007821BDE87040FCF774BC0000FC19032030
:1037500010B50446012105F0D4F808B1012010BDD0
:103760000421204605F0CDF800B1032010BD01284A
:1037700004D0032801D104207047002070470000C6
:10378000401E052810D8DFE800F0030507090B0DDF
:1037900003207047042070470520704706207047BB
:1037A000072070470820704700207047C01E05287A
:1037B00010D8DFE800F0030507090B0D0120704762
:1037C000022070470320704704207047052070478F
:1037D000062070470020704781B00268926D42B1A8
:1037E00092F9000028B112F9013B8B42F8D1002078
:1037F00001E04FF0FF3001B0704781B00268526DB8
:103800003AB1106828B152F8043B8B42F9D100203C
:1038100001E04FF0FF3001B070472DE9F041044660
:10382000174600260020012F1D460FD191F90A10DE
:10383000491E09D0491E022908D9491F04D0891EF2
:10384000012998BF082002E0202000E080200146E6
:1038500020464FF0FF3804F00BFB20B128684646A5
:1038600040F400602860012F20460CBF0FF2E821D1
:103870000FF2F021082204F015FB20B1286846461B
:1038800040F4805028603046BDE8F08118705970CF
:1038900070471A780260587808607047008FFFFF01
:1038A000981903200094FFFF808FFFFF808DFFFF9A
:1038B0000097FFFF0089FFFFFC1903204C1903202C
:1038C0000884040808880108433A5C47505F537431
:1038D0006F72655C496F545C582D435542452D41CC
:1038E00057535F312E322E785C4669726D77617264
:1038F000655C4D6964646C6577617265735C54687E
:103900006972645F50617274795C6D626564544C75
:10391000535C6C6962726172795C73736C5F746C16
:10392000732E630073686F756C64206E65766572C4
:103930002068617070656E006D626564746C735FA1
:1039400073736C5F666C7573685F6F757470757494
:10395000000000006D626564746C735F73736C5F6C
:1039600077726974655F7265636F7264000000004E
:103970006D626564746C735F73736C5F72656164B0
:103980005F7265636F72640073736C5F73746172EE
:10399000745F72656E65676F74696174696F6E00DC
:1039A0007265636F726420636F756E746572206CEC
:1039B000696D697420726561636865643A20726537
:1039C0006E65676F74696174650000003D3E20722A
:1039D0006561640073736C5F636865636B5F6374D8
:1039E000725F72656E65676F74696174650000006F
:1039F00072656365697665642068616E6473686189
:103A00006B65206D657373616765000068616E6446
:103A10007368616B652072656365697665642028EB
:103A20006E6F742048656C6C6F5265717565737448
:103A3000290000007265667573696E672072656E95
:103A400065676F74696174696F6E2C2073656E644D
:103A5000696E6720616C65727400000072656E6546
:103A6000676F74696174696F6E20726571756573D3
:103A70007465642C20627574206E6F7420686F6E9C
:103A80006F72656420627920636C69656E740000F2
:103A900069676E6F72696E67206E6F6E2D666174F6
:103AA000616C206E6F6E2D636C6F73757265206133
:103AB0006C65727400000000626164206170706C5B
:103AC00069636174696F6E2064617461206D6573F0
:103AD00073616765000000003C3D20726561640011
:103AE0003D3E207772697465000000003C3D207700
:103AF00072697465000000003D3E2077726974654C
:103B000020636C6F7365206E6F74696679000000C6
:103B10006D626564746C735F73736C5F73656E6400
:103B20005F616C6572745F6D6573736167650000DA
:103B30003C3D20777269746520636C6F7365206EFD
:103B40006F746966790000003D3E2066726565000D
:103B50003C3D2066726565002B06010505070301E3
:103B6000000000002B06010505070302000000000D
:103B700002E0002200F8012B0A46511E002AF8D16B
:103B800070470000C01E062813D8DFE800F00408C4
:103B90000A0C0E10060090487047904870479048F5
:103BA00070479048704790487047904870479048D9
:103BB00070470020704700210022002380E80E009B
:103BC000704710B504001CBF2168002913D060683D
:103BD00008B1496A8847A06840B12168C9684900AE
:103BE000FFF7C6FF8349A0680A68904720460C216A
:103BF000BDE81040BCE710BDF8B505460C00164600
:103C000018BF002D01D17C48F2BD206A7B4F804750
:103C1000686050B15EB17A4AE16813680220984743
:103C2000A86020B96868616A88473846F2BD2C6090
:103C30000020F2BD002880B51CBF0168002900D11A
:103C400004E0406809698847002002BD6A4802BD57
:103C5000002880B51CBF0368002B00D1F6E7406840
:103C60005B699847002002BD002880B51CBF026830
:103C7000002A00D1EAE7406892699047002002BD1F
:103C800010B50400084611461A4600D161E0E36908
:103C90009847002010BD2DE9F041040090B00D467A
:103CA00090461CBF2168002901D0A06808B952487D
:103CB0003EE0CA68424511D26068096988472368B6
:103CC0002946606842465D69A8472268606869467F
:103CD0006D46936998472068D0F808802068A768E7
:103CE0003622C16838467E1807F0ECFE21685C2257
:103CF0003046C96807F0E6FE002008E03A5C2B5C1D
:103D00005A403A54315C2A5C51403154401C404581
:103D1000F4D340216846FFF72BFF216860680A69E9
:103D20009047236860683946DA685B6998470020E5
:103D300010B0BDE8F081002810B51CBF0368002B4F
:103D400001D0846804B904E040685B6998470020AA
:103D500010BD294810BD000070B5040090B00D469C
:103D60001CBF2268002A01D0A06808B922481BE0C5
:103D7000D168926946186068694690472168606812
:103D80000A699047236860683146DA685B6998473A
:103D90002368606869469A685B699847226860682A
:103DA000294693699847002010B070BD38B50500CA
:103DB0001CBF2968002901D0AC680CB90E4832BD7F
:103DC0006868096988472B6868682146DA685B6912
:103DD0009847002032BD0000248E0408548E040849
:103DE000848E0408B48E0408E48E0408148F04083A
:103DF000448F0408FC19032000AFFFFF80AEFFFFD3
:103E0000F819032008B18068C0B2704700B140685B
:103E10007047000000F10103810704D010F8011B76
:103E200089B18107FAD10268B2F10131914311F0F1
:103E3000803F04BF50F8042FF6E710F8011B11B1C2
:103E400010F8011BFBE7C01A7047B1F5807F02D361
:103E50004FF0FF3070470170012070470A78026010
:103E6000087800E00078401E8041C043C00F7047D2
:103E700062B38B0708D0521E11F8013B00F8013BDA
:103E800000F024808B07F6D1830740F0208000BF2C
:103E9000103A07D330B4B1E83810103AA0E838101F
:103EA000F9D230BC530724BFB1E80810A0E80810CD
:103EB00044BF51F8043B40F8043BD20724BF31F81B
:103EC000022B20F8022B44BF0B7803707047121F9F
:103ED00017D35B0009D151F8043B20F8023B1B0CBF
:103EE000121F20F8023BF6D20BE051F8043B00F819
:103EF000013B1B0A20F8023B1B0C121F00F8013B80
:103F0000F3D238BF121D521E24BF11F8013B00F836
:103F1000013BF8D8704703681AB95A1E0260084678
:103F20007047197811B94FF0FF3070475A1C026082
:103F30001878704710B5DFF81023044600E0083207
:103F4000506800281CBF92F90030A342F7D110BD81
:103F500070B5DFF8F44200E00834636863B19D692E
:103F600095F90060864201BF5E688E4293F9013088
:103F70009342F1D1606870BD002070BD382104F01B
:103F8000D5BD10B504000ED0606B18B121688A69E8
:103F900053699847382102E0002004F8010B0846D5
:103FA000411E0028F8D110BD38B505460C0018BFD9
:103FB000002D00D14CE0382104F0B8FDA069016962
:103FC0008847686310B9DFF8840232BD2C60002096
:103FD00032BDF8B51D460400DFF874021CBF23682B
:103FE000002B1AD01E7CB70702D45F68974214D109
:103FF000012D626025721EBF93F90120032A052A54
:1040000005D19B696268606B9C68A047F2BD25B9C9
:104010009B696268606BDC68A047F2BD38B504003C
:104020001CBF2068002813D091B1112A01D3894800
:1040300032BD037CDD0708D515462A4604F1200071
:10404000FFF716FF2563002032BDC568AA42F4D2EF
:104050007F4832BD00281CBF0168002901D17C487F
:1040600070470022C261002070470028F8B50D4655
:1040700011461CBF0468002C2DD0069E5EB30022A2
:10408000326094F901706269012F0CD1914201D024
:104090007148F2BD3160A4692A4690F90810406B5E
:1040A0006568A847F2BD062F07D13160406B2A46EC
:1040B00001B0BDE8F04009F072BE0AB96748F2BD30
:1040C0009D420AD1C069002802BFB1FBF2F002FB99
:1040D0001011002901D05E48F2BD5E48F2BD0028F3
:1040E00081B01CBF0168002900D00AB9584814E00B
:1040F0000023136091F90110032918BF052903D08B
:10410000062918BF072901D1002006E0012903D1A3
:10411000C06910B1504800E04E4801B07047FEB58C
:1041200004461D46FFF77AFFC8B92046FFF792FF05
:10413000A8B9099F089A0A9E2946009620463B4640
:10414000FFF793FF58B9306801AA39182046FFF7E6
:10415000C6FF20B931680198411800203160FEBDCA
:104160002DE9F04387B0D0F800900E9D0F9EDDF84A
:104170004080119F99F90190DDF848C0DDF84CE0CE
:10418000149CB9F1060F10D1CCF80080CDF818E0DE
:10419000059404970396029501930B460092406B99
:1041A0004246012109F0E4FE10E0B9F1080F0CD1FC
:1041B000CCF800800594CDF810E0039702960195A5
:1041C00000F051F80AF0D9F800E0224807B0BDE845
:1041D000F0832DE9F04786B0D0F800900E9E0F9F37
:1041E000DDF84080DDF844C099F901A0DDF848E031
:1041F000139C149DDFF86890BAF1060F0DD1CEF82C
:104200000080CDF814C004970395029400F02AF8BA
:1042100009F0CAFE10F1120F0FE0BAF1080F0FD12A
:10422000CEF8008005950494CDF80CC0029700F0FC
:1042300019F80AF0BCF810F10F0F02D1484600E05F
:10424000044806B0BDE8F08788860408809EFFFF1A
:10425000009FFFFF809FFFFF809DFFFF809CFFFF6F
:10426000009DFFFF019600931346406B0A464146AE
:1042700070478268521C8260426832B10268531CE7
:10428000036011704168491E41607047DFF8601596
:104290000860704738B5049C0568009468692C690B
:1042A000A04731BDF0B50400ADF5017D0F461546C0
:1042B0001E461CBF206800281FD00069E8B1DFF847
:1042C00030251168B94218DB869A87AB4FF400712C
:1042D00001A80AF09DF840F2FF12904205D20A228E
:1042E00001AB1A5400211844417001A833460090D4
:1042F0002A4639462046FFF7CDFF0DF5017DF0BD7A
:10430000F8B5ADF5027D044620680F4615461E46F9
:1043100000281CBF006900281BD0DFF8D4140A68ED
:10432000BA4216DB899810F5D24F12D0889B4142D1
:1043300001910FF2C04200904FF4007102A80AF000
:1043400085F802AB2A460093334639462046FFF7EC
:10435000A1FF0DF5037DF0BD2DE9F84FADF5067D0C
:1043600007463868002400281CBF0069002870D068
:104370008A46DFF87C140D6855456ADB90989946AB
:10438000929D9346919E009503460FF284424FF40E
:10439000007106A80AF05AF806AB5A4600934B463D
:1043A00051463846FFF776FF112101A804F0BEFB05
:1043B00091960FF278480026AE4238BFB6F5805F7E
:1043C0004BD216F00F0F19D176B106A801AB4246B9
:1043D000C4F50071204400240AF038F800F041F8D8
:1043E000112101A804F0A2FB06A80FF248423346AF
:1043F000C4F5007120440AF029F8041991980FF2CD
:104400003C42C4F50071835D06A820440AF01EF802
:104410000419919806F00F02805DA0F120015F2938
:1044200001A92CBF2E2040B28854761CC4E780A27C
:104430000AF00CF804196D1C15F00F0F06A82044A3
:10444000C4F50071F3D101AB424609F0FFFF00F063
:1044500008F80DF5077DBDE8F08F002DF9D0354641
:10446000EAE706A84B4600905A465146384611E7FF
:104470002DE9F843ADF5027D0446206889461546CE
:10448000984600281CBF0069002823D0D8490A6834
:104490004A451FDB8A9E8B9F0FF2A8324FF40071B2
:1044A00002A8334609F0D2FF019702AB00934346BE
:1044B00000F014F833460FF294324FF4007102A862
:1044C00009F0C4FF07F10C0002A9019043460091D6
:1044D00000F004F80DF5037DBDE8F0832A46494657
:1044E0002046FFE72DE9F84FADF5047D064630681C
:1044F00001244FF0000B00281FBF006900288F9F88
:10450000002F70D00291BA480168029881426ADB9C
:104510007968BD68491E002969D055F82100002836
:1045200008BF491EF7D062E034B1B96801EB8901D8
:1045300051F8040C002841D003960326F1008DF8B1
:1045400004104CB1B8689DF8042000EB890050F8C5
:10455000041CD14008062ED0E910002405EB117090
:104560000011B5EB001012D1002D10DD04ABCBF51E
:1045700000719CA203EB0B00A34609F067FF04A89F
:1045800002990090039853464246FFF783FEB868AD
:104590009DF804100FF2A4226D1C00EB890050F866
:1045A000043C04A85844CB4003F0FF03CBF5007152
:1045B00009F04CFF8344761EC0D5039EB9F1010972
:1045C000B2D13CB104A8CBF5007187A2584409F0E0
:1045D0003DFF834404A8CBF5007182A2584409F042
:1045E00035FF00F027F80DF5057DBDE8F08F4FF0A1
:1045F0001F0C894655F8290020FA0CF0C00702D498
:10460000BCF1010CF6D50CEB491190468E989A46F8
:104610000FF240225D46491C009103464FF40071A1
:1046200004A809F013FF00F005F819F10109C7E724
:104630002020200004A802990090534642463046AC
:1046400028E62DE9F04F8FB082468B46904699467A
:10465000199C242106A804F069FA06A9204604F052
:1046600024FA20B10FF20C2000F03AF82CE0189850
:1046700000260FF2142402AD18900C2106A87143F5
:10468000471897F90000F8B17968189B0091224605
:10469000102102A809F0DAFE0020E873385601283C
:1046A00004D100F014F8FFF71DFF0AE0022804D13E
:1046B00000F00DF8FFF7DCFE03E00FF2D41000F07D
:1046C0000FF8761C032ED8D30FB0BDE8F08FB96871
:1046D00002AA01914B460092424659465046704705
:1046E0004B460090424659465046D3E52DE9F04FDF
:1046F000ADF5017D8B468A9982469046994640F2F7
:10470000FF1401AD0E4616E00A2813D1771A7F1C5C
:10471000A74201A888BF27463A46FFF7A9FB002019
:104720004B46E85501A80090424659465046FFF7CF
:10473000B1FD711C761C96F900000028E4D10DF53E
:10474000017DBDE8F08F2DE9F047ADF5C16D04683E
:104750000025002C1FBF2469002CDDF82C46002CFE
:104760003CD0234EDDF828A637688F4236DB06465C
:104770000F46904699466D1C534600950FF2241241
:104780004FF400710DF5816009F060FE0DF5816355
:10479000424600934B4639463046FFF77BFD2346A1
:1047A00040F2FF3111A202A802F0CCFF02A84B4652
:1047B0000090424639463046FFF798FF04F1BC00AE
:1047C0000FF2EC0101904B460091424639463046CB
:1047D000FFF737FFD4F83041002CCCD10DF5C16D77
:1047E000BDE8F0870A000000203030000000000023
:1047F000080F0520257328292072657475726E656F
:104800006420256420282D307825303478290A004A
:1048100064756D70696E67202725732720282575BC
:10482000206279746573290A000000002020257336
:104830000A000000253034783A200000202530326C
:104840007800000025732858290000002573285996
:104850002900000076616C7565206F66202725733E
:1048600027202825642062697473292069733A0A15
:1048700000000000696E76616C696420504B206313
:104880006F6E746578740A0025732573000000004C
:1048900073686F756C64206E6F74206861707065EA
:1048A0006E0A00002573202325643A0A00000000E8
:1048B0006372742D3E000000F8B50F4C2068C0B93B
:1048C0000FF29405261D04F13C07286868B1BE422A
:1048D0000BD200F013F800281FBF90F908002A2817
:1048E000296846F8041B2D1DEFE7002131600121E6
:1048F0002160201DF2BD0000C80C052002460FF209
:10490000E42000E02030016811B19142FAD17047F3
:104910000020704780B5FFF7F1FF10B90FF23000AB
:1049200002BD406802BD90F90A00401E022807D966
:10493000C01E07D0C01E03D0801E012804D905E088
:104940000120704704207047022070470020704704
:10495000756E6B6E6F776E002CC0000030C000006B
:104960009F000000ADC000009FC0000024C00000F8
:1049700028C000006B0000000AC0000014C0000046
:1049800039000000AFC00000A3C0000087C00000D5
:104990008BC000007DC0000073C0000077C0000025
:1049A000C4000000880000002BC000002FC00000E1
:1049B0009E000000ACC000009EC0000023C00000AC
:1049C00027C000006700000009C0000013C00000FD
:1049D00033000000AEC00000A2C0000086C000008E
:1049E0008AC000007CC0000072C0000076C00000D9
:1049F000BE0000004500000008C0000012C000001A
:104A000016000000AB000000A7C0000038C0000086
:104A1000B300000036C000009100000091C000000B
:104A20009BC0000097C00000ABC00000AA000000BF
:104A3000A6C0000037C00000B200000035C0000072
:104A40009000000090C0000096C000009AC00000D6
:104A5000AAC0000034C000008F000000FFC00000AA
:104A60009D0000009DC000003D00000035000000DA
:104A700032C000002AC000000FC000002EC000009D
:104A800026C0000005C00000A1C000007BC00000DF
:104A9000C0000000840000008DC0000079C000004C
:104AA00089C0000075C000009C0000009CC0000090
:104AB0003C0000002F00000031C0000029C00000B1
:104AC0000EC000002DC0000025C0000004C0000082
:104AD000A0C000007AC00000BA0000004100000041
:104AE0008CC0000078C0000088C0000074C00000C6
:104AF0000A0000000DC0000003C00000AD0000006F
:104B0000B70000009500000093C0000099C00000AD
:104B1000AC000000B60000009400000092C000004D
:104B200098C0000093000000A9000000A5C000008C
:104B3000AF0000008D0000008FC0000095C0000095
:104B4000A9C00000A8000000A4C00000AE00000042
:104B50008C0000008EC0000094C00000A8C00000BF
:104B60008B00000007C0000011C0000033C000002F
:104B70008E00000005000000040000000CC00000D2
:104B800002C00000920000008A0000001500000032
:104B90000900000006C0000010C000003BC000007B
:104BA0003AC0000039C00000B5000000B4000000A9
:104BB0002D0000003B00000002000000010000008A
:104BC0000BC0000001C00000B9000000B8000000E8
:104BD0002E000000B1000000B00000002C0000001A
:104BE000000000002BC00000088C04080E06040022
:104BF00003000000030000000300000003000000A9
:104C0000000000002CC00000308C040810070400D5
:104C10000300000003000000030000000300000088
:104C200000000000ADC00000588C04082D060400F0
:104C30000300000003000000030000000300000068
:104C400000000000AFC000007C8C04082D060400AA
:104C50000300000003000000030000000300000048
:104C600002000000ACC00000A08C04082B06040069
:104C70000300000003000000030000000300000028
:104C800000000000AEC00000C48C04082B06040025
:104C90000300000003000000030000000300000008
:104CA000020000002FC00000E88C04080E0603007C
:104CB00003000000030000000300000003000000E8
:104CC0000000000030C00000108D04081007030031
:104CD00003000000030000000300000003000000C8
:104CE000000000009D000000388D0408100701003E
:104CF00003000000030000000300000003000000A8
:104D0000000000009C000000588D04080E06010001
:104D10000300000003000000030000000300000087
:104D2000000000009DC00000788D04082D060100E1
:104D30000300000003000000030000000300000067
:104D400000000000A1C00000948D04082D060100A1
:104D50000300000003000000030000000300000047
:104D6000020000009CC00000B08D04082B0601006A
:104D70000300000003000000030000000300000027
:104D800000000000A0C00000CC8D04082B0601002C
:104D90000300000003000000030000000300000007
:104DA0000200000000000000E88D04080000000080
:104DB00000000000000000000000000000000000F3
:104DC000000000006C2103F0B1BE40B16C2202E093
:104DD000002100F8011B11464A1E0029F8D1704736
:104DE0006C22FFF755B8002202604260B9B9DFF8C3
:104DF000742A8260DFF8702AC260DFF8702A0261CC
:104E0000DFF86C2A4261DFF86C2A8261DFF8682AD9
:104E1000C261DFF8682A0262DFF8642A16E0DFF870
:104E2000642A8260DFF8602AC260DFF8602A0261CB
:104E3000DFF85C2A4261DFF85C2A8261DFF8582AD9
:104E4000C261DFF8582A0262DFF8542A42628166A2
:104E500070472DE9F04FCCB000220B9002AC0B98BC
:104E600000F1080353F8223044F82230521C082A7B
:104E7000F5D300200CAC01EB8002557813782D049B
:104E800045EA03659378D27845EA03231A4344F848
:104E90002020401C1028EED34FF0000A0DF1080925
:104EA000D9F81010D9F81CE0D9F81440D9F8180036
:104EB0000FF6F0150CAB4FEAF12205EB8A0B82EAF4
:104EC000B11253F82A30029FD9F8048082EA716245
:104ED000D9F80CC0964480EA04020A404240964445
:104EE000DBF8002048EA070796449E44029BD9F865
:104EF0000820F444C9F80CC01E464FEA763686EA0C
:104F0000B306174086EAB35608EA03033B439E19EB
:104F10004FEAFC2383EABC13B6440CAEC9F81CE08C
:104F200083EA7C6306EB8A06181884EA010303EA25
:104F30000C0363401818DBF804307768029E1818D9
:104F40004FEA7E3383EABE033818029F83EABE53DA
:104F500006EA0E06821847EA0E0707EA08073E43EC
:104F6000F3181B184FEAF22080EAB210C9F80820A3
:104F7000C9F81830029E80EA72604EEA03070419ED
:104F800081EA0C0010404840041905F1080050F86F
:104F90002A000EAD55F82A503E4004190EEA0300CF
:104FA00030432C194FEA733585EAB30585EAB355CA
:104FB000451904EB080005EB04084FEAF02484EAE5
:104FC000B0140CAD05EB8A05C9F8040084EA7064DE
:104FD000C9F8148061188CEA0204044084EA0C04C5
:104FE0006118DBF80C40EE684FEA783585EAB805C1
:104FF000611803EA0804711885EAB85543EA0806FF
:1050000006EA0E063443029E65198E196918029647
:1050100082EA0005C9F81010029C4FEAF42787EADB
:10502000B41787EA74672C405440BC44A4440CADC8
:10503000DBF8104005EB8A052E6908EA0105A44457
:105040004FEA713484EAB104B44448EA010684EAC0
:10505000B1541E403543E644C9F81CE02C19A44461
:105060004FEAFE24C9F80CC084EABE140CAD05EB6F
:105070008A0584EA7E64A218029C6E6901EA0C0526
:10508000444004EA0E044440A218DBF81440A2187D
:105090004FEA7C3484EABC04B21841EA0C0606EA02
:1050A000080684EABC543543D318C9F818302C19C3
:1050B000A2184FEAF324C9F8082084EAB31484EA5A
:1050C00073642018029C84EA0E051D406C400CADF0
:1050D00005EB8A052018DBF818408EEA0303AE6959
:1050E0000CEA020520184FEA723484EAB204301840
:1050F0004CEA020684EAB2540E4035438044C9F8B3
:10510000148003EA08032C194FEAF825201885EAD1
:10511000B815C9F80400029C85EA786583EA0E0395
:105120002C191C44DBF81C3002EA000502431C1950
:105130000CAB03EB8A030AF1080ADB691C444FEA53
:10514000703383EAB0036118C9F8101083EAB053D2
:1051500002EA0C00284303441C19BAF1100F029410
:10516000FFF49EAE10200CA90CAB01EB800103EB09
:105170008003A1F14002D2F804B0A3F140018A6B90
:1051800014464FEAF44181EA72410CAA02EB800214
:1051900081EA9421A2F140035A6A11444FEABB42CA
:1051A00082EAFB1282EADB0251180CAA02EB8002AF
:1051B00052F8403C59180CAB43F820100FF2E4634E
:1051C00003EB80020A9202AAD2F81080D2F81C9057
:1051D000D2F818C0029FD2F808E04FEAF82A8AEA0B
:1051E000B8144FEA773585EAB70584EA786485EA2A
:1051F000B755A14454698CEA040404EA080484EA1B
:105200000C04A1440A9C2468A1445468894404EA1B
:10521000070A274307EA0E0747EA0A06D2F80CA056
:105220000CAF07EB80073544CA44A9440CADC2F863
:105230000CA005EB8005C2F81C90A5F14006A7F173
:105240004005B668ED6B00950CAD05EB8005403D63
:10525000EF6B4FEAF745009F85EA77450CAF07EB08
:105260008007403FFF6B85EA97250CAF07EB80076F
:10527000403FBF6A7D194FEAB64787EAF61787EACB
:10528000D6077D19AB440CAD4FEAFA2705EB800534
:1052900087EABA17C5F804B0556987EA7A67BC444B
:1052A00085EA080707EA0A077D40AC440A9D6D6855
:1052B000AC444FEA793585EAB905DC44E64485EA31
:1052C000B9550095029D029F45EA0905254007EA68
:1052D00009073D43009FC2F808E0ED19AC444FEACE
:1052E000F145C2F818C085EA71450CAF85EA9125F1
:1052F00007EB80070833403FFF6A7D1901950CAD2D
:1053000005EB8005403DED6800950CAD05EB800593
:10531000403DEF68009D4FEAB74787EAF5170CADAF
:1053200005EB8005403DED6887EAD507019D7F19B3
:10533000F6190CAF07EB8007BE604FEAFE2787EA3D
:10534000BE17556987EA7E677D1988EA0A0707EA6A
:105350000E0787EA08077D1953F820707B194FEA7A
:105360007C3585EABC05F3181C1985EABC55019506
:1053700009EA0C050095029F49EA0C053D40009F93
:105380003D43019F54600CAC04EB8004EF19FB1803
:105390000CAF5361A4F140054FEAFB4484EA7B441F
:1053A0002D6984EA9B2407EB800BABF14007D7F80B
:1053B00030B0FF685C444FEAB54B8BEAF51B8BEAD3
:1053C000D50B5C443C440CAF07EB8007FC60CDF888
:1053D0000080D2F8048047464FEAF72B8BEAB81BCF
:1053E0008BEA7768DDF800B0D844BB468AEA0E073E
:1053F00007EA0B07DDF828B087EA0A07B844DBF8AC
:105400000C704FEA733BB8448BEAB3074CEA030BCA
:105410000BEA090B87EAB357A04400970CEA03078D
:105420004BEA070B009FBB44029F4744D8440297B6
:105430000CAF07EB800BC2F81080ABF14007D7F838
:1054400014B04FEAF64787EA764787EA96270CAE0C
:1054500006EB8006403E766BF7194FEABB4686EABC
:10546000FB1686EADB06F7190CAE06EB8006ED1993
:105470003561CDF800A0DDF808A057464FEAF726C1
:1054800086EABA1686EA776A009EB2443E465768B4
:105490008EEA07073E4086EA0E06B2440A9E376946
:1054A0004FEA783686EAB80686EAB856009643EAA6
:1054B000080606EA0C06BA4403EA08073E43009FC2
:1054C000AA44D144C2F81C90F619B2440CAEC2F8FA
:1054D0000CA006EB8006A6F14007BE694FEAF44730
:1054E00087EA744787EA94270CAC04EB8004403CBD
:1054F000A46BE7194FEAB64484EAF61484EAD604AA
:10550000E7190CAC04EB8004BB444FEAF92787EAA7
:10551000B917C4F814B087EA7967BE44CDF800E043
:10552000D2F804E0029F8EEA070404EA090484EA40
:105530000E04DDF800E008EA0A07A6440A9C646944
:10554000A6444FEA7A3484EABA04DE44F44484EA96
:10555000BA54009448EA0A041C403C43009FC2F835
:1055600018C0E419A6440CACC2F808E004EB8004AF
:10557000A4F14007FC694FEAF54787EA754787EAD7
:1055800095270CAD05EB8005403DED6BEF194FEA1B
:10559000B44585EAF41585EAD405EF19F6190CAD82
:1055A00005EB8007BE614FEAFC2787EABC17556808
:1055B00087EA7C677D190095029F87EA090505EA5D
:1055C0000C057D40009FED190A9FBF697D19751973
:1055D0004FEA7E360AEA0E0786EABE0686EABE561D
:1055E00000964AEA0E0606EA08063E43009FEB18BC
:1055F0005361F61975190CAE556006EB8006A6F1DD
:1056000040073E6A4FEAFB4787EA7B4787EA9B27CA
:105610004FEAB64BC9198BEAF6174FEAF32B87EA24
:10562000D606314464180CA98BEAB31601EB80014D
:10563000083086EA7366CC610299314489EA0C0627
:10564000334083EA090319440A9BDB6919444FEA92
:10565000753383EAB50361180EEA0504884483EACA
:10566000B5534EEA050505EA0A052C43C2F8108039
:105670002344591840280291FFF475AD00210B987E
:1056800000F1080352F8214053F82130234400F17F
:10569000080444F82130491C0829F1D34CB0BDE876
:1056A000F08F2DE9F041140006460F4630D03068E7
:1056B00000F03F052018A042C5F14008306002D23A
:1056C0007068401C7060BDB1444515D306F12803D5
:1056D000581942464744FEF7CBFB06F128013046F5
:1056E000FFF7B7FBA4EB0804002505E03946304678
:1056F000FFF7AFFB4037403C402CF7D244B106F1F6
:105700002800224639462844BDE8F041FEF7B0BBE8
:10571000BDE8F0813EB50D46044661682068C900C9
:1057200041EA5071C0008DF803108DF807000B0C92
:105730000A0E8DF801300B0A010E8DF800208DF84D
:105740000410010C8DF80510010A8DF80230204676
:105750008DF8061022780FF24C2102F03F02382A11
:1057600034BFC2F13802C2F17802FFF79AFF082273
