:020000040800F2
:1000000028040020350D0008450D0008470D0008A4
:1000100000000000000000000000000000000000E0
:10002000000000000000000000000000490D000872
:1000300000000000000000004B0D00084D0D0008FE
:10004000FB070008000000005F0B0008130D00080C
:100050001F0D0008610D0008630D0008650D000804
:1000600000000000670D0008690D00086B0D000816
:100070006D0D00086F0D0008710D000800000000F4
:10008000730D0008750D000800000000770D0008D2
:10009000790D00087B0D00087D0D00087F0D00081C
:1000A000810D0008830D0008850D0008870D0008EC
:1000B000890D0008F8B504009A4D2078C00714D5C2
:1000C0008027BF0268680C210140042907D06868B6
:1000D0000C21014008293CD16868C00339D5286843
:1000E000074002D06068012814D1022720683840F8
:1000F00019D068680C21014007D068680C210140C4
:10010000082954D16868C00351D42868384003D006
:10011000E068012800D04FE12868F8218843216970
:10012000C900014329602078000771D5206A0028A2
:10013000686A5ED001210143696200F082FA06001C
:10014000686A384064D100F07CFA801B6528F7D3D8
:1001500030E10020A87000F074FA060028683840EA
:1001600006D000F06EFA801B95498842F6D321E153
:100170006068A870606800280CD000F062FA060081
:1001800028683840B1D100F05CFA801B8C49884265
:10019000F6D30FE100F055FA060028683840A4D0E5
:1001A00000F04FFA801B86498842F6D302E1E068EE
:1001B000002828680ED001210143296000F041FA8F
:1001C000060028683840A7D100F03BFA801B65285C
:1001D000F7D3EFE001218843286000F032FA0600EF
:1001E000286838409FD000F02CFA801B6528F7D390
:1001F000E0E001218843686200F023FA0600686AA3
:10020000384005D000F01DFA801B6528F7D3D1E0F7
:10021000207840074AD5E869F9060143E961694851
:100220000068A90D01436748016000F00AFA060062
:1002300064480068C00505D400F003FA801B6528F7
:10024000F6D3B7E0286A05218843286200F0F9F95F
:100250000600286A384006D000F0F3F9801B5849A0
:100260008842F6D3A6E0286A05218843A1680143A5
:100270002962A06801280CD100F0E3F90600286A81
:10028000384013D100F0DDF9801B4D498842F6D388
:1002900090E000F0D6F90600286A384006D000F059
:1002A000D0F9801B46498842F6D383E02078C00607
:1002B0001DD56069012837D1686B0421014369634A
:1002C000686B01210143696300F0BBF90600686BAC
:1002D000384005D100F0B5F9801B6528F7D369E0F7
:1002E000686BF8218843A169C90001436963606AAA
:1002F000002863D069680C220A40082A5CD03F06B7
:10030000AC490228286848D10140296000F099F9D9
:1003100006002868384022D000F093F9801B652839
:10032000F7D347E0001002400421C9438842686BBC
:1003300002D101406963D3E7042101436963686B1B
:1003400001218843686300F07CF90600686B38403F
:10035000CDD000F076F9801B6528F7D32AE0E86A53
:100360000F218843E16A0143E962686892490140CC
:10037000206B0843A16A014369602868790801433A
:10038000296000F05EF906002868384016D100F0B8
:1003900058F9801B6528F7D30CE00140296000F074
:1003A00050F906002868384008D000F04AF9801B50
:1003B0006528F7D30320F2BD0120F2BD0020F2BD75
:1003C0008913000000700040F3B581B07B4F80209E
:1003D0008004010A7A4C02220125ED43794B1E6804
:1003E000F307DB0F029EB3425AD2764B1B681D40C7
:1003F00033462B43734D2B602B68DD07ED0F029BBB
:100400009D421BD1019B1B68134006D06368F025F9
:10041000AB43019DAD681D436560019B1B78DB0705
:1004200000D49AE0019B5B68012B02D12068014057
:1004300003E0022B03D12168084003D18BE0206840
:100440000240FBD06068032188430343636000F0EF
:10045000F8F806000198406801280AD160680C216C
:100460000140042979D000F0ECF8801BB842F5D3A4
:1004700062E002280AD160680C21014008296CD092
:1004800000F0DFF8801BB842F5D355E060680C211E
:10049000014062D000F0D5F8801BB842F6D34BE0A3
:1004A000019B1B68134006D06368F026B343019E8E
:1004B000B6681E436660019B1B78DB073ED5019B37
:1004C0005B68012B02D12068014003E0022B03D1BD
:1004D0002168084003D13EE0206802403BD06068BC
:1004E000032188430343636000F0ABF806000198E2
:1004F000406801280AD160680C21014004291DD000
:1005000000F09FF8801BB842F5D315E002280AD10D
:1005100060680C210140082910D000F092F8801B7F
:10052000B842F5D308E060680C21014006D000F025
:1005300088F8801BB842F6D30320FEBD214800682E
:100540000540029828431F4908600868C107C90F81
:100550000298814201D00120FEBD01980078400739
:1005600006D56068184901400198C068084360607A
:10057000032000F04FF80020FEBD0000134B196867
:1005800013480C220A40082A00D0704730B50F22C9
:100590008C0C144010A52C5D9B6AC90306D51A402B
:1005A00011A1895C00F060F8604330BD200009496A
:1005B000484330BDFFFFFFFEFFFFC2FF891300006D
:1005C0000010024000200240FFF8FFFF041002402C
:1005D00000127A0000093D0002030405060708091D
:1005E0000A0B0C0D0E0F101001020304050607087C
:1005F000090A0B0C0D0E0F1080B519480168102266
:100600000A430260032000F005F800F002F8002021
:1006100002BD704710B5040000F092F8FA2189007D
:1006200000F022F800F0CCF8002221000020C043A6
:1006300000F0BBF8002010BD0A480168491C0160A9
:10064000704708480068704711B581B0FFF7F9FF9F
:100650000400FFF7F6FF001B01998842F9D313BD90
:1006600000200240200000200022030A8B420BD20F
:1006700003098B4219D243088B422ED2411A00D271
:100680000146524110467047FF2209023FD0120630
:100690008B4205D3121209028B4201D312120902B6
:1006A00003098B4219D300E0090AC3098B4201D325
:1006B000CB01C01A524183098B4201D38B01C01A6E
:1006C000524143098B4201D34B01C01A52410309E5
:1006D0008B4201D30B01C01A5241C3088B4201D394
:1006E000CB00C01A524183088B4201D38B00C01A41
:1006F000524143088B4201D34B00C01A52418842F9
:1007000000D3401A5241CFD201461046704708B577
:1007100000F072F808BD38B4012100220368001D02
:10072000002B0BD00468001D0C4202D04D466D1EFC
:1007300064192260241D1B1FF0D0FAE732BC7047F9
:1007400080B5FFF71BFF054909680906090F00BFBF
:1007500004A2515CC8400249086002BD0410024076
:100760001000002000000000010203040102030445
:100770000607080910B58207D30EFF249C40E24308
:100780008907090E9940030006D50007000F0838B5
:1007900080088000144B02E080088000134B18187A
:1007A00003681A401143016010BD80B5FFF7E2FFF6
:1007B00001BD0121C006C00E81400D480160704797
:1007C00010B5401E80214904884201D3012010BD8C
:1007D000084C606003210020C043FFF7CBFF0020DE
:1007E000A0600721216010BD1CED00E000E400E0E6
:1007F00000E100E010E000E07047FEE7F1B585B0F1
:1008000000227E4B0120904002900C68044000942E
:10081000009C844200D0EAE04868022801D01228F7
:100820000DD1D0088000059C2018046A5507ED0EF4
:100830000F26AE40B4430E69AE40264306620598CB
:100840000568500003268640F44325400E79B6071C
:10085000B60F86402E43059D2E604D68012D05D0B4
:10086000022D03D0112D01D0122D12D1059DAD689E
:100870002540CE6886402E43059DAE60059DAD881F
:10088000029EB5434F68FE06F60F96402E43059D27
:10089000AE80059DED682C408D6885402543059808
:1008A000C5609007000F6C4620730F20247BA0408A
:1008B0000290C44304940098C44390088000594DAA
:1008C0002818019004204D68ED0055D5564D2D682F
:1008D00001262E43544D2E60019D2E68049D354007
:1008E000059E9027FF05BE4201D1002018E04F4F22
:1008F000BE4201D1012013E04D4FBE4201D1022082
:100900000EE04C4FBE4201D1032009E04A4FBE42E7
:1009100006D03046494EB04201D1052000E0062005
:100920006E46367BB0402843019D28601868204001
:100930004D68ED0302D505000098284318605868FB
:1009400020404D68AD0302D505000098284358604B
:10095000986820404D68ED0202D5050000982843B4
:100960009860D868044025004868800202D52800B5
:10097000009D0543DD603AE0019D2E68029D3540F3
:10098000059E9027FF05BE4201D1002018E0274FA9
:10099000BE4201D1012013E0254FBE4201D1022009
:1009A0000EE0244FBE4201D1032009E0224FBE4297
:1009B00006D03046214EB04201D1052000E006208D
:1009C0006E46367BB040854211D101980068049D87
:1009D000054001980560186820401860586820405C
:1009E0005860986820409860D8680440DC60521CC9
:1009F000102A00D206E706B0F0BD00000004014056
:100A0000008A0140080000D00120C0B27047002ACF
:100A100001D00183704741837047828A51408182AF
:100A20007047000008000140181002400004004810
:100A300000080048000C004800100048001400485E
:100A400030B585B00100802212033E4B002801D052
:100A5000012902D1186802431A6048003DA2155AC4
:100A6000009501200190002002900320039088004F
:100A700035490C1869462068FFF7C0FE002229009E
:100A80002068FFF7C4FF05B030BD80B5012201E04A
:100A900080B50022410000BF2EA3595A80002A4B86
:100AA0001858FFF7B4FF01BD80B5410029A2515A83
:100AB0008000254A1058FFF7B0FF01BDF0B585B0A2
:100AC0000C002049002804D10A6880239B021343AC
:100AD0000B604A68012313434B600600700000BF9F
:100AE0001DA1085A00900025029503200390B00034
:100AF00016490F18002C06D1019502200290694674
:100B00003868FFF77BFE012C10D102951048019048
:100B100069463868FFF772FE10A0845D0022032149
:100B200060B2FFF742FE60B2FFF743FE05B0F0BDD2
:100B300080B5410008A2515A8000044A1058FFF7BE
:100B40005FFF02BD14100240140000201C000020B2
:100B50000000211000020001010000000500FEE776
:100B600070B592B0FFF748FD012404940594022665
:100B70000D9620040E9000250F950001109004A8FA
:100B8000FFF798FA002800D0FEE7072000900196B2
:100B90000295039501216846FFF716FC002800D056
:100BA000FEE7FFF74DFF0120FFF74AFF002100207D
:100BB000FFF784FF154E347005E00020FFF774FF47
:100BC0006420FFF741FD0020FFF7B2FF012813D199
:100BD000FFF75BFFFA208000FFF736FD0120FFF7EB
:100BE00057FF3078401C3070C0B2032804D13570F4
:100BF0000020FFF74DFFE6E730780228DDD001281E
:100C0000F6D10020FFF750FFC820DAE724000020CB
:100C10001148016801220A43026041680F4A0A40F4
:100C2000426001680E4A0A40026001680D4A0A40AB
:100C3000026041680C4A0A404260C16A0F22914337
:100C4000C162016B094A0A400263416B0122914370
:100C50004163002181607047001002400CB8FF081A
:100C6000FFFFF6FEFFFFFBFFFFFFC0FF2CFEFFFFB5
:100C700038B401210268001D002A0FD00368C31890
:100C8000446808300C4202D04D466D1E64191D6840
:100C900025601B1D241D121FECD0F8E732BC7047E5
:100CA00010B5074979441831064C7C44163404E0E9
:100CB000081D0A68891888470100A142F8D110BDB3
:100CC00008000000280000004FFAFFFF08000000A5
:100CD000200000200000000099FFFFFF200000001E
:100CE000AC000000000000200000000000F00BF845
:100CF000002801D0FFF7D4FF0020C046C046FFF710
:100D00002FFF00F002F80120704780B500F002F8D4
:100D100001BDFEE70746384600F002F8FBE7FEE7B4
:100D200080B5C046C046024A11001820ABBEFBE7A2
:100D3000260002000148804701480047110C0008C6
:100D4000550D00087047FEE77047704780B5FFF704
:100D500073FC01BDC046C046C046C046FFF7C6FF93
:100D6000FEE7FEE7FEE7FEE7FEE7FEE7FEE7FEE75B
:100D7000FEE7FEE7FEE7FEE7FEE7FEE7FEE7FEE74B
:100D8000FEE7FEE7FEE7FEE7FEE7000000000000EA
:100D900000000000010203040607080900127A009F
:0C0DA0000008004800080048000000485F
:0400000508000D558D
:00000001FF
