:020000040800F2
:10000000480F0020F948000811480008134800086C
:1000100000000000000000000000000000000000E0
:10002000000000000000000000000000154800086B
:1000300000000000000000001748000819480008F0
:10004000B7290008932B0008172C0008732E00080E
:1000500073380008354800083F480008B3480008D6
:10006000BF48000815490008174900081949000849
:100070001B4900081D4900081F49000821490008C4
:100080002349000825490008274900082949000894
:100090002B4900082D4900082F4900083149000864
:1000A0003349000835490008374900083949000834
:1000B0003B4900083D4900083F4900082548000821
:1000C000F8B5040000250026002C01D10120F2BD66
:1000D000FF204230271802203870200000F02EFE4A
:1000E0000AE01C2171436118283148700E70CD70F0
:1000F000CD600D614D61761C012061688E42F0D3A8
:1001000000260AE01C2171436118B4314D700E7055
:10011000CD70CD600D614D61761C61688E42F1D36A
:10012000216840310880216840310D8021684431C8
:100130000D80216850310D80BD20000221684031C2
:1001400008800020243420703D70F2BD00685821E2
:10015000415A802212020A43583002800020704720
:10016000FEB50500002069460880B94F28E00188E7
:10017000B84A0A4002802C00283428685021415A8D
:100180002278D20089180818F91C405A3840A0611A
:100190002169081820610021280000F00BFE2420AE
:1001A000285C00280CD06069002809D12420285C34
:1001B0008021014328684C300180002024216854AC
:1001C0002868010044310A886B465A80120400D422
:1001D0003AE16A4652881207120F6AD16A4652887B
:1001E000D206C4D52C00B43402881A806A4612881C
:1001F000120519D589892278D200891808189649DC
:10020000405A3840A0610346A288A2204000291825
:10021000286800F085FD28680188904A0A4002801D
:10022000280000F0B1FDCBE7694609880904C7D56D
:1002300001888A4A0A40028028685021415A22785F
:10024000D200891808188449405A3840A0610346F2
:1002500008D0A2882169286800F062FDA0692169A0
:10026000081820610021280000F098FD286850211E
:10027000415A081878494018E1683F2908D34A09CB
:10028000C90600D1521E920280210902114304E0E6
:100290004A08C90700D5521C9102018028680188CC
:1002A000A04A0A40C021890151409F4A0A43028066
:1002B00086E7910002914018018819801C214A4369
:1002C000A918019169460988090457D50188634A2C
:1002D0000A400280019CB4342378D9002868A67AA9
:1002E000002E0ED15023C35A591809185A4A895A58
:1002F0003E000E402DD03300A288216900F010FD91
:1003000027E09B00C35A5B040BD55023C35A5918EE
:100310000918FA1C895A3E000E4010D03300E288BA
:100320000AE05023C35A591809184B4A895A3E000B
:100330000E4004D033002289216900F0F1FC2078BE
:100340008000296808180188784A0A4078491143D2
:100350000180A0698019A06121698A1922616369FD
:10036000002B02D0E068864204D22178280000F0F9
:1003700015FD03E02178280000F016FB6846008890
:1003800000065CD5019C2834029829680818018869
:10039000304A0A4002802378D8002A681100A67AE1
:1003A000002E0FD15032128810184018F91C405AF4
:1003B0003840A06103462ED0A2882169286800F049
:1003C0009DFC28E09B00D35A5B060BD55032128867
:1003D00010184018F91C405A3840A061034610D04C
:1003E000E2880AE050321288101840181A49405A20
:1003F0003840A061034604D022892169286800F0B2
:100400007DFC20788000296808180188474A0A4046
:10041000484911430180217828685022825ACB0034
:10042000D2181018FA1C805A3840A061226912189C
:1004300022616369002B03D1280000F0BBFCBFE6FA
:10044000280000F027FBBBE60020FEBD00000000F6
:10045000FF0300000F8F0000060400008F0F000054
:1004600038B50400206844300088000402D520001C
:10047000FFF776FE20684421415A490509D52E49E7
:1004800044300180200000F0A7FC0021200000F093
:1004900063F8206840308188490401D5274981806C
:1004A0008188890401D52649818080256D01818854
:1004B00029420DD00188234A0A400280BD21090249
:1004C0000180200000F095FC1F482168443108801D
:1004D00020684030818809050FD51C49818001883A
:1004E00008220A430280018804220A43028080888D
:1004F000284202D1200000F07BFC20684421415AB0
:10050000890505D5124944300180200000F05DFCCA
:1005100020684421415AC90502D50E494430018062
:1005200031BD00008FBF0000808000008F8F000071
:10053000C080000080C00000FFFB0000FFBF000083
:10054000FFDF0000FBFF0000FFEF0000FFF70000EF
:10055000FFFD0000FFFE0000A02252008218137869
:10056000012B01D10220704701231370002904D10F
:10057000802100684C30018001E0243001700020AF
:1005800010707047F1B582B07F247F2008401C2591
:100590006843029D28180D0601D5283000E0B430CC
:1005A0000C400470C90941700092C260C370A02160
:1005B0004900029A515C012901D10220FEBD0121AE
:1005C000A0225200029B9954944AC178002905D078
:1005D00002290DD01ED3032913D026E00299096801
:1005E00003789B00C9180B881A4080239B001AE0EF
:1005F0000299096803789B00C9180B881A400A8081
:1006000013E00299096803789B00C9180B881A4007
:10061000C02307E00299096803789B00C9180B887A
:100620001A408023DB0013430B800378029909688A
:100630009A008C187A4A25887A4E2E401E4316431B
:1006400026800578C0239B01774C867A002E5FD1E7
:100650008788764E3E406F46BE804678002E1ED07C
:100660005023CB5AED005B195B188025ED006E46D8
:10067000B6885E5303789B00CB181D886D0605D5A0
:100680001D88684E2E406A4D35431D8000788000DD
:10069000081801880C40202161400A43BBE0502427
:1006A0000C5BED006419641855096E46B6886653F4
:1006B00050240C5B0578ED00641964185D4D6419D5
:1006C000009D3F2D09D36D09009EF60600D16D1ED9
:1006D000AE0280252D02354305E06D08009EF60729
:1006E00000D56D1CAD0225800478A4000C19258866
:1006F0006D0405D525884B4E2E404F4D3543258042
:1007000000788000081801884C4C0C40634081E060
:10071000AD004D192F88434E3E40494F37432F803F
:1007200050254D5B0678F600AD196F188026F6004F
:10073000BC46C7883D4D3D406746BD5350254D5B87
:100740000678F600AD196F185609BC460789374D73
:100750003D406746BD530578AD004D194678002EE3
:100760002DD12E88760405D52F882E4E3E40324F4F
:1007700037432F800578AD004D192E88760605D5B4
:100780002F88284E3E402A4F37432F800578AD00F2
:100790004D192F88234E3E40254F37432F80057833
:1007A000AD004D192E88254F37407B4013432B80D9
:1007B00000788000081801880C4022432BE02B8829
:1007C0005B0405D52B88174E1E401B4B33432B80F3
:1007D00003789B00CB181D886D0605D51D88114E2A
:1007E0002E40134D35431D8003789B00CB181D8888
:1007F0000C4E2E40104D35431D8003789B00CB18C6
:100800001D882C4014431C80007880000818018843
:100810000A4B0B401A430280C0E000008F890000A1
:10082000808000008F8F0000BF8F0000FEFF00005F
:10083000C08000000604000080C000008FBF0000E0
:1008400080810000F1B582B07F227F2008401C2308
:100850005843029B18180B0601D5283000E0B4302D
:100860000A400270C9094170A0214900029A515CF6
:10087000012901D10220FEBD0121A0225200029BCC
:10088000995402990968027892008A180092427875
:100890006B461A71794A7A4D7A4B7B4C867A002ED8
:1008A0006E4636791AD1002E0CD0009A1288520664
:1008B0003DD5009A1288754D1540754A2A43009D12
:1008C0002A8034E0009C2488640460D5009C24883D
:1008D0006E4E26403543009C258058E0002E009E39
:1008E00036882BD1760406D5009E3688674F374070
:1008F0003D43009E35800578AD004D192E88760663
:1009000005D52F88614E3E40614F37432F800578D3
:10091000AD004D192F885D4E3E405D4F37432F800F
:100920000578AD004D192E8832401A432A80007890
:100930008000081801880C4023432EE0760406D579
:10094000009E3788514E3E402E43009F3E800678E1
:10095000B6008E1900963688760607D5009E378831
:100960004A4E3E404A4F3743009E37800678B600D5
:100970008E1900963688454F37403D43009E35809E
:100980000578AD004D192E8834401C432C8000782A
:100990008000081801880A40134303800020A0212A
:1009A0004900029A5054FEBDF1B582B07F247F20E9
:1009B00008401C256843029D2818B4300261436139
:1009C0000022826142700C400470A0214900029B09
:1009D000591800910978012901D10220FEBD012199
:1009E000009C21704469C368A34201D2E41A01E06B
:1009F00023000024446119400191802109028F4C99
:100A0000857A002D02D04578002D19D1029D2D68E0
:100A10005026AE5B0778FF00F61975192C193F2B8D
:100A200006D35D09DB0600D16D1EAB02194305E05C
:100A30005D080199002900D06D1CA90221800AE0FF
:100A4000012D08D102990D685021695A0678F600E7
:100A5000891949190B5302990D68007880002818EC
:100A60000188064B0B40C021890159409B4B0B4329
:100A70000380009802700020FEBD00008FBF0000C0
:100A800080C0000080800000BF8F00008F8F0000BA
:100A9000C0800000F8B506001C007F207F230B40BB
:100AA0001C256B43F51828352A616C610022AA6168
:100AB00001226A7008402870A0204000305C0128A4
:100AC00001D10220F2BDA021490072546869EC688E
:100AD000844201D2001B01E0040000206861A87A72
:100AE00000280FD1A3B2AA882969306800F006F95E
:100AF00030685021415A2A78D2008918081878495C
:100B000044524CE068784D4900281AD1306850238F
:100B1000C35A2F78FF00DB19181840183F2C09D34F
:100B20006109E20600D1491E8902802212020A43AD
:100B3000028010E06108224000D0491C8902018037
:100B400009E0012807D130685022825A2B78DB0057
:100B5000D21810184452306829788900415A490641
:100B600001D52A8900E0EA88A3B2296900F0C6F815
:100B700069785C48002907D12978890032685118C2
:100B80000A881040584A08E0012908D129788900CC
:100B9000326851180A881040544A02430A80287863
:100BA0008000316808180188514A0A4030215140BC
:100BB0004A4A0A4302800020A02149007054F2BD35
:100BC00070B5A022520083181A78012A01D10220A0
:100BD00070BD01241C700D007F220E0605D5154046
:100BE0001C2675434519283503E01C267543451915
:100BF000B435AC700A402A70C90969700468374876
:100C0000002A07D121883B4A0A40C10851400843C5
:100C100020800FE09200A2180029118803D0344CE4
:100C20000C40102103E0344C0C408021490161400C
:100C3000084310800020187070BD000006040000FA
:100C4000F0B50A007F240B0605D522401C235A4329
:100C50008218283203E01C235A438218B43200233E
:100C600093700C401470C9095170A02149004118BB
:100C70000C78012C01D10220F0BD01240C70046815
:100C80001078800025181548164E5778002F2F88A9
:100C90000ED07F0604D52F883E40134F37432F8058
:100CA00012789200A2181488114D254030240EE0CD
:100CB0007F0404D52F883E400C4F37432F80127895
:100CC0009200A21814880C4D2540C024A4016C4049
:100CD000204310800B700020F0BD000080800000D9
:100CE000020400008F8F0000C080000080C0000060
:100CF000BF8F0000BFBF00008FBF000010B51018ED
:100D00008022D20080185B1C5A1007E00B784C78C8
:100D100024021C430480801C891C521EF6D110BD85
:100D200010188022D20080185B1C5A1004E003883F
:100D30000B80801C891C521EF9D1704710B586B0FB
:100D40006C4C20688021890201432160C020400151
:100D50000090022001900021029103210391049050
:100D600069469020C00500F0E3F8A06880210904DE
:100D70000143A160002203211F2000F0AAFA1F20D6
:100D800000F0ABFA06B010BD80B5A22149004118B1
:100D9000BA225200805800F000FB01BD80B51C2231
:100DA0004A438218C4321268BA235B00C05800F06C
:100DB00021FB01BD80B51C224A438218926BBA23E5
:100DC0005B00C05800F04BFB01BD80B5BA21490063
:100DD000405800F0B4FB01BD10B5BA2149004418D9
:100DE0000121206800F0A8FB206800F082FB10BD04
:100DF0007047704710B501003F48404A0260082222
:100E000042604022C260022202618260002282614E
:100E1000BA2252008150AC328C182060FFF750F992
:100E2000182300220021206800F09BFB5823002299
:100E30008021206800F095FB80235B000022812147
:100E4000206800F08EFB002010BD80B5882189004D
:100E50004058FFF77BF9002002BD10B51C001300BD
:100E600022008824A4000059FFF78CFB002010BD4D
:100E700080B5882292008058FFF7E4FC002002BD74
:100E800080B5882292008058FFF79AFE002002BDAC
:100E900080B5882292008058FFF7D2FE002002BD64
:100EA0008822920080584A06520E1C235A4380180A
:100EB000090601D52A3000E0B6300078704780B5C9
:100EC000882292008058FFF747FB002002BD10B532
:100ED0008824A4000059FFF7DDFD002010BD10B5E7
:100EE0008824A4000059FFF75FFD002010BD0448CE
:100EF00070470000141002401C040020005C0040F9
:100F000010070020704738B4012100220368001D3B
:100F1000002B0BD00468001D0C4202D04D466D1E04
:100F200064192260241D1B1FF0D0FAE732BC704701
:100F3000F1B585B000227E4B0120904002900C68F4
:100F400004400094009C844200D0EAE048680228F3
:100F500001D012280DD1D0088000059C2018046A09
:100F60005507ED0E0F26AE40B4430E69AE40264342
:100F7000066205980568500003268640F443254024
:100F80000E79B607B60F86402E43059D2E604D683C
:100F9000012D05D0022D03D0112D01D0122D12D11B
:100FA000059DAD682540CE6886402E43059DAE6008
:100FB000059DAD88029EB5434F68FE06F60F96402C
:100FC0002E43059DAE80059DED682C408D688540C3
:100FD00025430598C5609007000F6C4620730F20CD
:100FE000247BA0400290C44304940098C44390081A
:100FF0008000A14D2818019004204D68ED0055D5C2
:101000009E4D2D6801262E439C4D2E60019D2E681D
:10101000049D3540059E9027FF05BE4201D100206A
:1010200018E0974FBE4201D1012013E0954FBE4218
:1010300001D102200EE0944FBE4201D1032009E00D
:10104000924FBE4206D03046914EB04201D10520AB
:1010500000E006206E46367BB0402843019D2860A4
:10106000186820404D68ED0302D50500009828431C
:101070001860586820404D68AD0302D505000098FF
:1010800028435860986820404D68ED0202D505005D
:10109000009828439860D86804402500486880027A
:1010A00002D52800009D0543DD603AE0019D2E68D1
:1010B000029D3540059E9027FF05BE4201D10020CC
:1010C00018E06F4FBE4201D1012013E06D4FBE42C8
:1010D00001D102200EE06C4FBE4201D1032009E095
:1010E0006A4FBE4206D03046694EB04201D105205B
:1010F00000E006206E46367BB040854211D1019853
:101100000068049D0540019805601868204018603B
:10111000586820405860986820409860D86804401B
:10112000DC60521C102A00D206E706B0F0BD0000B9
:1011300000040140F3B584B00021564A01208840E4
:101140000190059E06400396039E864273D14E0091
:101150000320B040C64300960498006806400498F7
:101160000660C8088000049E3618376ABC464807E7
:10117000C70E0F20B84067468743376204988068DF
:10118000009E06400498866004988088019EB043C3
:10119000049EB0800498C068009E06400498C66013
:1011A00088088000344E30180090006803270F40F4
:1011B000BE006F463E726E46377A0F26BE400196DD
:1011C000064004989027FF05B84201D1002019E09D
:1011D0002B4FB84201D1012014E02A4FB84201D16F
:1011E00002200FE0284FB84201D103200AE0274F28
:1011F000B84201D1042005E0254FB84201D10520B5
:1012000000E006206F463F7AB840864213D100982E
:101210000068019EB043009E3060039EF043166854
:10122000064016605668064056609668064096600E
:10123000D6683040D060491C102900D27EE708B043
:10124000C0BD008A0140080000D00120C0B2704734
:10125000002A01D00183704741837047828A514040
:10126000818270470C4A1368034000D1704780B5F3
:10127000106000F05CFC01BD080001401810024045
:101280000004004800080048000C00480010004816
:1012900000140048000401401404014010B5820706
:1012A000D30EFF249C40E2438907090E99400300B6
:1012B00006D50007000F083880088000144B02E0B4
:1012C00080088000134B181803681A40114301600E
:1012D00010BD80B5FFF7E2FF01BD0121C006C00EC1
:1012E00081400D480160704710B5401E80214904BF
:1012F000884201D3012010BD084C6060032100200A
:10130000C043FFF7CBFF0020A0600721216010BD84
:101310001CED00E000E400E000E100E010E000E08F
:1013200010B5002801D1022010BD85239B00C318F1
:101330001C68002C01D000241C60002902D08423EA
:101340009B00C1500121FE235B00C1540270FFF7D6
:1013500051FD002010BD0022002903D085239B00F1
:10136000C15000E002221000704780B5FFF76DFD0C
:10137000002002BD10B50224852292008258002A66
:1013800004D012689047002800D10024200010BD2E
:1013900080B5852292008258DFE038B504008220B3
:1013A00080002518280000F083FDFA204000201856
:1013B00001210160418B4160017DC806C00E03D050
:1013C00002280BD005D30EE02900200000F0C8FB56
:1013D0000EE02900200000F06BFC09E0290020004D
:1013E00000F083FC04E0802001402000FFF748FD6E
:1013F000002032BD38B504001000FA225200A318B4
:10140000002921D18221490061181A68032A24D1B8
:101410008D68CA68AA420AD2AB1A8B60934200D286
:101420001A0092B20100200000F096FD15E0186A43
:101430000169080004D0187A032801D120008847E8
:10144000200000F08DFD08E0186A8269100004D0C9
:10145000187A032801D120009047002032BDF8B54A
:1014600004001000FA225200A618002936D12100EB
:10147000143100253268022A2BD18A68CB68009388
:10148000934207D2D21A8A6092B20100200000F083
:101490005FFD1EE04F683800194600F092FD0029FC
:1014A0000BD10098874208D37068874205D200228A
:1014B000200000F04DFD75600BE0306AC168080047
:1014C00004D0307A032801D120008847200000F0A2
:1014D00053FD307B01280AD1357308E0306A426938
:1014E000100004D0307A032801D12000904700205A
:1014F000F2BD38B50500402300220021FFF7ADFC06
:101500004024882040002C504023002280212800C5
:10151000FFF7A3FC281DC461FE2149006A180121C0
:101520001170D169002905D00168C9B228009269FB
:1015300052689047002032BD01740020704780B58A
:10154000FE21490041180A78032A04D18969C96932
:101550000A0000D08847002002BD52689047002052
:1015600002BD10B50C0606D54906490E1C24614380
:101570004018283003E01C2461434018B430002A8E
:1015800003D100218172838004E001218172C38034
:10159000190C0181002010BD30B593B000F068FD3A
:1015A0002020059001200C9002240E94C0214902B5
:1015B0000F9110900025119505A800F091FD0028CD
:1015C00000D0FEE7072001900294039504950121C5
:1015D00001A800F059FF002800D0FEE7CB4C002204
:1015E000CB4920001C30FFF79BFECA4920001C306D
:1015F000FFF7B1FE20001C30FFF7B7FE01210020ED
:1016000001F0C0F8002001F07BF8012001F078F82B
:10161000022001F075F8032001F072F8FA20800032
:1016200000F04EFD002001F0E7F801286ED1002007
:1016300001F0E2F80028FAD1A5610BE0002001F0EA
:101640008BF8012001F088F8022001F085F80320D2
:1016500001F082F8A06901281BD0002001F088F871
:10166000322000F02DFD022001F082F8322000F03F
:1016700027FDA0690128E1D0032001F079F832208C
:1016800000F01EFD012001F073F8322000F018FD7B
:10169000E0E7002001F0B0F80028FAD101F05CF892
:1016A000012001F059F8022001F056F8032001F062
:1016B00053F86D4611E0684600F07BF96878002821
:1016C00002D1A878002808D00422694620001C30E6
:1016D00001F0EAF9322000F0F3FC002001F08CF870
:1016E0000128E8D1002001F087F80028FAD101F0A4
:1016F00033F8012001F030F8022001F02DF803202A
:1017000001F02AF800F07AF800F0A2F900F001F8F0
:10171000FCE770B582B00EE0002001F029F801204E
:1017200001F026F8022001F023F8032001F020F850
:10173000642000F0C5FC002001F05EF80128EBD128
:10174000002001F059F80028FAD101F005F8012035
:1017500001F002F8022000F0FFFF032000F0FCFF80
:1017600000F04CF8002000F0F3FF032000F0F4FF3D
:10177000664D6C46002629E001F0C2F9280000F011
:10178000CBF82670A86801F0E7F940B20521C943FB
:1017900000F014FC6070686801F0DEF940B20621C8
:1017A00000F00CFCA070E670002000F0E1FF0320C8
:1017B00000F0DEFF6078002802D1A078002805D074
:1017C0000422694628001C3001F06EF9002001F067
:1017D00013F80128D0D1002001F00EF80028FAD12A
:1017E00000F0BAFF012000F0B7FF022000F0B4FFC4
:1017F000032000F0B1FF00F02BF973BD70B586B087
:101800006846182101F0DEF901F07AF9002827D0A6
:10181000FEE7009801F0D8F90ED8002000F09CFFF8
:10182000012000F099FF022000F092FF032000F059
:1018300093FFFA2000F044FC0098210001F0D8F951
:101840000ED2002000F088FF012000F081FF02206E
:1018500000F082FF032000F07FFFFA2000F030FC50
:10186000002000F0C9FF01283ED0684601F063F96E
:10187000009801F071F945B2002D01D568420500CC
:10188000019E300001F068F940B2002801D54142C4
:101890000800A94CA949C0B2EDB2A842B9D33000A2
:1018A00001F092F90ED8002000F052FF012000F064
:1018B00053FF022000F050FF032000F04DFFFA20FC
:1018C00000F0FEFB0198210001F092F9C8D200203F
:1018D00000F042FF012000F03FFF022000F03CFF3B
:1018E000032000F035FFB8E7002000F085FF002856
:1018F000FAD100F031FF012000F02EFF022000F0AD
:101900002BFF032000F028FF06B070BDDC01002093
:1019100060010020BC000020F0B585B0060001A8E1
:101920000021002206C006C0002569460D70002473
:1019300001222321684601F004F80622282101A88B
:1019400000F0FFFF03AF01A86946097849060AD4F1
:101950006100421853781B0212789A187A52641C5C
:10196000032C0ADAF4E76100421813781B0252785C
:101970009A187A52641C032CF5DB684600783021F3
:101980000140102902D0202902D003E06C4C02E073
:101990006C4C00E06C4C6800385E01F03DF92100B1
:1019A00001F053F9A90070506D1C032DF3DB05B055
:1019B000F0BD70B504000025644E03203056142895
:1019C00003D1F570B078401CB0700220305600286A
:1019D00008D1032030563070401CF0707570022022
:1019E00000F0C6FE02203056012808D103203056F0
:1019F0007070401CF0703570032000F0B9FE0220BA
:101A00003056022809D10320305641423170401C23
:101A1000F0707570012000F0ABFE022030560328F4
:101A200008D1305641427170401CF0703570002072
:101A300000F09EFE02203056042802D1B5703570A9
:101A400075702570307860707078A070E57070BD2A
:101A500010B53F4C3F482060200001F097F9002866
:101A600000D0FEE7A0628021490561600909A160FC
:101A70002062E062A021E161C021C901A161E060B2
:101A80007F212161606160629121890021634900A9
:101A9000A1636063200001F02DF9002800D0FEE76B
:101AA00001F094F92DE001F09EF9002829D100F011
:101AB00053FE012000F050FE022000F04DFE0320F6
:101AC00000F04AFE2448046820780A2801D004283F
:101AD00017D1A078002802D0032000F039FEA078AA
:101AE000302802DB022000F033FEA078502802DB11
:101AF000002000F02DFEA078702802DB012000F00D
:101B000027FE002000F078FE0128CCD1002000F054
:101B100073FE0028FAD100F01FFE012000F01CFE29
:101B2000022000F019FE032000F016FE10BD01286F
:101B300001D10A498861704700409CC501409C451D
:101B400000008C4100008C4200000C413407002052
:101B500094060020004002404C460008DC010020B2
:101B6000F8B504000F00FE204000261803200022D4
:101B700001257978092951D801A35B5C5B009F445A
:101B80006D834D7E4D09044D5C2B3900200000F023
:101B900011F989E0B888002840D1F88800283DD1A3
:101BA000B8784006400E694608703078032835D072
:101BB00068460078B070684601782000FFF77FF92A
:101BC000200000F0CDF968460078002802D00220FD
:101BD000307069E0357067E0344D79882970297874
:101BE00002291BDA3378022B1DD0032B16D10029D2
:101BF00006D10220307062602000FFF7C9FB50E080
:101C0000606881424DD0C1B22000FFF7C1FB297846
:101C100061602000FFF7AEFB022842D139002000AE
:101C200000F05AF940E000293BD06160307020009C
:101C3000FFF7A0FB0228F1D033E0F8880128EDD1AE
:101C40003078022804D00328E8D10122211D12E0B7
:101C5000201D42600122210008310CE03178891EEC
:101C60000129DBD8B168002900D00325201D85603B
:101C7000022221000C31200000F05AF914E078888B
:101C8000012811D1B56007E03078801E0128C5D841
:101C90007888012808D1B26039002000B2699268C2
:101CA0009047200000F05CF90020F2BD44070020BE
:101CB00038B505000C00FE2040002A1810780328D3
:101CC0000ED1A088C0B202280ADA28009269926870
:101CD0009047E088002806D1280000F041F902E092
:101CE000280000F0F9F8002032BD70B504000D00A6
:101CF000A988C9B27F207F220A408300E6186B784A
:101D0000002B2ED0012B11D0032B51D1307802287B
:101D100012D0032848D16888002819D1002917D08B
:101D2000802915D02000FFF7ABF811E030780228A9
:101D300002D0032804D037E0002939D0802917E0E9
:101D40006888002834D1002A07D02000FFF7A0F8C7
:101D500029002000B26992689047200000F000F945
:101D600026E03378022B02D0032B06D01CE0002A99
:101D70001ED02000FFF784F81AE008400001251863
:101D8000080601D5143502E0822040002D182000FD
:101D9000FFF786F8002800D00120286002222900E1
:101DA000200000F0C5F803E02900200000F094F8BE
:101DB000002070BD70B582B004000D0068888421D9
:101DC00089006218010A012908D002291ED00329BE
:101DD00029D0062955D007295BD064E06946207CCC
:101DE0001268126890476946098800290DD0E98871
:101DF00000290AD06A4612888A4200D90A00694638
:101E00000A800100200000F093F873BD516802269B
:101E1000207C0028684603D1896A88474670E2E73B
:101E2000C96A8847FAE7C0B205283CD801A1095C15
:101E30008F4400BF06121E2A36426946207C126873
:101E400052689047CFE76946207C126892689047B5
:101E5000C9E76946207C1268D2689047C3E76946A3
:101E6000207C126812699047BDE76946207C1268A1
:101E700052699047B7E76946207C1268926990479B
:101E8000B1E7207C00280ED168465168496B88472D
:101E9000A9E7207C002806D168465168096B88476D
:101EA000072141709FE72900200000F015F873BD5D
:101EB0000A7802704A7842708A78CB781B02D2186E
:101EC00042800A794B791B02D21882808A79C979BB
:101ED00009025118C180704710B504008021FEF737
:101EE000CFFF00212000FEF7CBFF10BD002800D15E
:101EF000704770B504000023002501E06D1C641CD0
:101F00002678002EFAD12D06EC0DA41C1480128820
:101F10000A7003224A70022206E0D2B28C54401C9E
:101F2000521CD2B28B54521C0478002CF5D170BDD7
:101F300010B50223FA2464000351030018331A6019
:101F40005A6013000A000021FEF7C1FF002010BDF7
:101F500080B513000A000AE080B513000A0012E001
:101F600080B50421FA225200815000230022002172
:101F7000FEF7ADFF002002BD80B50521FA22520018
:101F80008150002300220021FEF7A9FF002002BD9E
:101F9000F446002804D4494200F013F84042604758
:101FA0004042002905D45FD000F00BF8404249427E
:101FB0006047494200F005F84942604703460B4339
:101FC000E6D40022030A8B420BD203098B4219D2BA
:101FD00043088B422ED2411A00D20146524110468C
:101FE0007047FF2209023FD012068B4205D312121E
:101FF00009028B4201D31212090203098B4219D341
:1020000000E0090AC3098B4201D3CB01C01A524137
:1020100083098B4201D38B01C01A524143098B4281
:1020200001D34B01C01A524103098B4201D30B016A
:10203000C01A5241C3088B4201D3CB00C01A52418F
:1020400083088B4201D38B00C01A524143088B4254
:1020500001D34B00C01A5241884200D3401A52416A
:10206000CFD201461046704708B500F001FF08BD09
:1020700080B51948016810220A430260032000F06D
:1020800005F800F002F8002002BD704710B504000A
:1020900000F0F0FEFA218900FFF793FFFFF724F923
:1020A000002221000020C043FFF713F9002010BDDB
:1020B0000A480168491C0160704708480068704779
:1020C00011B581B0FFF7F9FF0400FFF7F6FF001B21
:1020D00001998842F9D313BD002002403C0700203B
:1020E000F8B50400AD4D2078C00718D58027BF0291
:1020F00068680C21014004290BD068680C2101405C
:10210000082944D16868C021490201407808814209
:102110003DD12868074002D06068012818D1022705
:10212000206838401DD068680C2101400BD06868D9
:102130000C210140082958D16868C021490201409A
:10214000B803814251D12868384003D0E0680128A3
:1021500000D08FE12868F82188432169C900014334
:1021600029602078000771D5206A0028686A5ED04F
:10217000012101436962FFF7A0FF0600686A384049
:1021800064D1FFF79AFF801B6528F7D370E1002028
:10219000A870FFF792FF06002868384006D0FFF7C6
:1021A0008CFF801BB5498842F6D361E16068A87056
:1021B000606800280CD0FFF780FF060028683840D0
:1021C000ADD1FFF77AFF801BAC498842F6D34FE1CF
:1021D000FFF773FF060028683840A0D0FFF76DFFB7
:1021E000801BA6498842F6D342E1E06800282868AF
:1021F0000ED0012101432960FFF75FFF0600286828
:102200003840A7D1FFF759FF801B6528F7D32FE18E
:10221000012188432860FFF750FF060028683840F6
:102220009FD0FFF74AFF801B6528F7D320E10121EB
:1022300088436862FFF741FF0600686A384005D0AE
:10224000FFF73BFF801B6528F7D311E1207840079B
:102250004AD5E869F9060143E96189480068A90D92
:10226000014387480160FFF728FF060084480068A3
:10227000C00505D4FFF721FF801B6528F6D3F7E0E2
:10228000286A052188432862FFF717FF0600286A9D
:10229000384006D0FFF711FF801B78498842F6D3FB
:1022A000E6E0286A05218843A16801432962A06805
:1022B00001280CD1FFF701FF0600286A384013D12E
:1022C000FFF7FBFE801B6D498842F6D3D0E0FFF795
:1022D000F4FE0600286A384006D0FFF7EEFE801BA9
:1022E00066498842F6D3C3E02078C0061DD56069F0
:1022F000012855D1686B042101436963686B012192
:1023000001436963FFF7D9FE0600686B384005D1C9
:10231000FFF7D3FE801B6528F7D3A9E0686BF8218F
:102320008843A169C900014369632078800618D5F4
:1023300068680C2101400C290CD068680C21014010
:10234000082948D16868C02149020140C0204002E4
:10235000814240D1686BC00303D5E069012800D0F9
:1023600088E0606A002800D186E069680C220A4093
:10237000082A00D17EE03F064249022828686AD137
:1023800001402960FFF799FE06002868384044D0D4
:10239000FFF793FE801B6528F7D369E00010024029
:1023A0000421C9438842686B02D101406963B5E7E3
:1023B000042101436963686B012188436863FFF767
:1023C0007CFE0600686B3840AFD0FFF776FE801BBE
:1023D0006528F7D34CE0E0690028686B0ED0F9035C
:1023E00001436963FFF769FE0600686BC003B8D458
:1023F000FFF763FE801B6528F7D339E09E49014053
:102400006963FFF75AFE0600686BC003A9D5FFF7A2
:1024100054FE801B6528F7D32AE0E86A0F21884321
:10242000E16A0143E9626868A8490140206B0843FA
:10243000A16A014369602868790801432960FFF7B0
:102440003CFE06002868384016D1FFF736FE801B98
:102450006528F7D30CE001402960FFF72EFE060047
:102460002868384008D0FFF728FE801B6528F7D37E
:102470000320F2BD0120F2BD0020F2BD891300004F
:1024800000700040FFFFFFFEF3B581B00C27904CB9
:1024900080208004010A8F4D02228F4B1E68F307B3
:1024A000DB0F029EB3426AD28B4B1B680126B343FB
:1024B000029E1E43884B1E601E68F307DB0F029EC0
:1024C000B3421BD1019B1B68134006D06B68F026FA
:1024D000B343019EB6681E436E60019B1B78DB0709
:1024E00000D4B9E0019B5B68012B02D12868014050
:1024F00003E0022B03D12968084009D1AAE0032B8D
:1025000003D1686BC00303D4A4E028680240FBD069
:1025100068680321884303436B60FFF7CEFD060024
:1025200001984068012809D168683840042816D00D
:10253000FFF7C3FD801BA042F6D37BE0022809D140
:102540006868384008280AD0FFF7B7FD801BA04212
:10255000F6D36FE0032809D1686838400C287BD097
:10256000FFF7ABFD801BA042F6D363E068683840FC
:1025700072D0FFF7A2FD801BA042F7D35AE0019B67
:102580001B68134006D06B68F026B343019EB66803
:102590001E436E60019B1B78DB074DD5019B5B687A
:1025A000012B02D12868014003E0022B03D12968E6
:1025B000084009D14EE0032B03D1686BC00303D45C
:1025C00048E02868024045D06868032188430343F7
:1025D0006B60FFF772FD060001984068012809D181
:1025E00068683840042827D0FFF767FD801BA042A9
:1025F000F6D31FE0022809D16868384008281BD0AC
:10260000FFF75BFD801BA042F6D313E0032809D13E
:10261000686838400C280FD0FFF74FFD801BA042A0
:10262000F6D307E06868384006D0FFF746FD801B08
:10263000A042F7D30320FEBD27480068012188434C
:1026400002990143244801600068C107C90F02983C
:10265000814201D00120FEBD01980078400706D5D7
:102660006868224901400198C068084368600320F7
:10267000FFF70CFD0020FEBDFFFFFEFFF0B51C497B
:102680000B681C481C4A0C241C40082C02D00C2C43
:102690001AD0F0BD0F259C0C2C40184E345D896A71
:1026A0000D4000BF0DA1495DC0256D022E001E40EA
:1026B00080277F02BE4203D02B40AB4200D11000E6
:1026C000FFF77FFC6043F0BD1000F0BDFF7FC2FF4D
:1026D00089130000001002400020024001020304A0
:1026E00005060708090A0B0C0D0E0F10FFF8FFFF77
:1026F0000410024000127A00006CDC02E848000876
:1027000030B585B00100802212039F4B002805D010
:10271000012903D0022901D0032902D118680243FC
:102720001A604800A0A2155A00950120019002905D
:1027300003200390880095490C1869462068FEF72D
:10274000F7FB002229002068FEF782FD05B030BDAE
:1027500080B5012202E0000080B50022410000BFE8
:1027600091A3595A8000894B1858FEF771FD01BD9D
:1027700080B541008CA2515A8000844A1058FEF75F
:102780006DFD01BDF0B585B00C007F49002804D176
:102790000A6880239B0213430B604A68012313439A
:1027A0004B600600700000BF81A1085A0090032012
:1027B0000390B00076490F180025002C06D1019532
:1027C0000220029069463868FEF7B2FB012C11D155
:1027D00002957048019069463868FEF7A9FB00BF72
:1027E00074A0845D0022032160B2FEF772FD60B226
:1027F000FEF773FD05B0F0BD80B541006CA2515AE3
:102800008000634A1058FEF71CFD02BD10B586B06B
:10281000614C200000F022FD00282ED15F4820608E
:102820001020E0610020A06060612061A0620721AB
:10283000E1620902E160206280218900A161606299
:10284000FC39616050498A688023DB0113438B6047
:102850000A688023DB0213430B60E0210902009128
:1028600002210191029003210391049069464C4892
:10287000FEF75EFB200000F017FB06B010BD11B59F
:1028800083B0002069460871434C206E00900123FC
:1028900001AA03A9200000F085FB002804D0200035
:1028A00000F060FBFFF7B2FF6846007904B010BD8E
:1028B000F0B585B080263603334F38683043386032
:1028C000012000900190002402940325039569469D
:1028D0003448FEF72DFB012201213248FEF7B8FCF7
:1028E000386806433E6006200090019403950294E8
:1028F00069462C48FEF71CFBFFF788FF05B0F0BDCA
:10290000F8B505000E001400022C02DB3000402652
:102910000643244F002201213800FEF799FC3000C5
:10292000FFF7ADFF04E02878FFF7A9FF641E6D1CD8
:10293000A4B2002CF7D1012201213800FEF788FC57
:10294000F1BDF8B505001400022C01DBC02700E042
:1029500080270F43134E002201213000FEF778FC40
:102960003800FFF78CFF05E00020FFF788FF287094
:10297000641E6D1CA4B2002CF6D10122012130008E
:10298000FEF766FCF1BD000014100240AC0100200F
:10299000D801002000001110000000200038004085
:1029A00000040048000800484000000100028000C8
:1029B000010000000500FEE770B5060000250024B8
:1029C000042303228121FEF748FA8620800036186E
:1029D0001020FEF78CFA3060002801D1012400E0BD
:1029E0000573200070BD10B504000421FEF740FA05
:1029F0008620800024182068002803D0FEF782FA81
:102A000000202060002010BD70B50A0000230024C3
:102A1000862189004158157860262E401CD0202E32
:102A200040D15378022B0FD0032B07D00A2B07D0AD
:102A30000B2B0CD15088C0B2086033E001222BE090
:102A40005088000A48602DE00122091D24E0110091
:102A5000FFF742FA022070BD5578062D04D00A2DEA
:102A600018D00B2D1BD01DE05188090A214D2229B9
:102A700006D1D4884B2C00DB4A242B000C3306E013
:102A8000212904D12B00D4880A2C00DB0924220040
:102A9000190001E001220831FFF74AFA02E05088EC
:102AA000C0B28860002070BD10B51300FE22520035
:102AB0008218D4691278032A08D1227B002A05D112
:102AC000012222730A008121FEF701FA002010BDC5
:102AD00022210180084870470021862292008058F8
:102AE00001730020704700BF0A210180034870472E
:102AF000000000006400002020010020CC01002024
:102B000038B50125114C60688047D42803D060682F
:102B10008047D5280DD10E4D2C600E48216888477E
:102B200000202968096A884710202968496A88476F
:102B30000025280032BD06490968896A0A0000D1CB
:102B4000704780B5884701BD00000000F4000020F8
:102B5000380700203F1000000122D2070118090E9B
:102B60007F3910D449421F310FD4001805D2C0015B
:102B70001043C84000D5D0437047C0011043C8403F
:102B800005D440427047002070470042F3D5100042
:102B90007047FEE7130030B414001500103902D35B
:102BA00010393CC0FCD2490700D30CC000D504C08A
:102BB000890002D30280801C002900D5027030BC3D
:102BC000704700000022E5E70CB40122120603184A
:102BD000DA4207D84B18DA4204D802000A439218A6
:102BE00002D281420CBC7047FCD088420CBC7047BA
:102BF0000CB4012212060318DA4207D84B18DA4245
:102C000004D802000A43921802D288420CBC7047D2
:102C1000FCD08142FAE7FEE79D21020008D5F44688
:102C2000524200F005F80122D2071043604700002D
:102C30000AD002D4491E9218FCD5C905100A120602
:102C4000524100D3012A4841704730B405004D403D
:102C50000122D20715404B180418240E28D01B0E51
:102C60002FD0FF2C34D0FF2B37D0E41A00020902FA
:102C70001043114343084808D10D1B1A02D2641EA9
:102C8000DB181B18DB18834200D31B1A4941F9D308
:102C90007F3426DDFE2C08DAE4054808C90719430D
:102CA00091416041284330BC7047FF20C005F9E7DF
:102CB00028001B0E03D0FF2BF5D14902F3D0D043DF
:102CC000F1E7FF2C01D14002F9D1FF20C005E9E76F
:102CD0004002F4D1FF2BF8D1F1E728004902E2D0FD
:102CE000EDE70B0200202442DCD15B129B1CD9D9FA
:102CF000D805D7E738B5040001D1012032BD022044
:102D00003C216054200000F06BFB01252068056029
:102D1000206801686268A3681343226952041A4359
:102D200063691343A2691A43E3691343226A1A438E
:102D3000636A1343A26A1A430A430260E0680128E7
:102D400004D1206801682A040A430260206B616B89
:102D50000143A06B0843C14320680161206B616B94
:102D6000014320688162A06B21680862206B00F03B
:102D70001CF8216808632068416803229143416080
:102D800021688A603C342570002032BD10B50028CF
:102D900001D1012010BD04003C340221217000F05B
:102DA0006BFB00202070607010BD10B5010000208A
:102DB00000220F239400A3400B4003D00300012006
:102DC00090401843521C082AF3D310BD10B5204C74
:102DD00020000C3000F080FB1FA000F0DDFB002085
:102DE0002060606010BD70B50126194C6068002835
:102DF00006D12068C0B200F0E7FB00F011FC66606D
:102E0000002500F020FC002809D1002200212068C4
:102E1000C0B200F04DFC2068401C20606560206856
:102E2000002812D02560656020000C3000F07EFB89
:102E300021000831642000F0F2FC002803D10C349A
:102E4000200000F0CFFD002070BD012070BD00000B
:102E500044010020704770476C4500089045000809
:102E6000D406002003000000440200000700000018
:102E70007047FEE780B5FFF701FC054909680906C0
:102E8000090F00BF04A2515CC8400249086002BD9E
:102E900004100240A8010020000000000102030409
:102EA0000102030406070809F8B5040001D1012056
:102EB000F2BD02255D21655400F06CF820680188A0
:102EC000354A0A400280E1680022344B994205D31A
:102ED0000023F0263601B14205D105E0EB02E026E1
:102EE000F600B14200D0A2620126276B002F05D167
:102EF0002A4FB94201D3256300E02663A5690095F6
:102F00006568A7682F4325693D4367692F43BC4621
:102F1000009D77023D4067463D43E7692F43256AA0
:102F20003D43A76A2F430780256B022D03D10588F7
:102F3000F7022F430780009D2D0C04273D40676A50
:102F40002F43656B3D4329430B438380E16A018234
:102F5000818B134B0B4083835E2022545D3426709B
:102F60000020F2BD10B5040001D1012010BD0220E7
:102F70005D21605420680188074A0A4002802000D1
:102F800000F009F800205E22A0545D22A0545C34B9
:102F9000207010BD70477047BFFF000001070000A0
:102FA000FFF70000F2B582B0040017001E000025F4
:102FB00069460D805D20205C01280ED10298002812
:102FC00002D0002F00D0002E00D13CE1FFF775F8B1
:102FD00001905C20205C012801D10220FEBD01206F
:102FE0005C21605405205D2160545E216554276496
:102FF00046202652442026520298A063E687A687E0
:10300000A06A80218901884209D1206801880A4A82
:103010000A4002800188802292010A430280E1680E
:103020008C4A914203D24620205A022808DB2068AD
:103030008388024E1E4008E0FFDF0000FFEF000023
:1030400020688388802676011E438680206840237E
:1030500007881F4202D1068833430380089E9142AD
:1030600059D3E08F002820D14620205A002833D1A0
:10307000A06A80218901884200D0C6E03300022284
:103080000221200000F0EDF8002805D05E20205C31
:10309000022101435E2021542068E168F0221201E0
:1030A000914200D099E08089ADE0206801898907CC
:1030B00012D5A16B0A888281891CA163E18F491E08
:1030C000E187090408D1A16A80229201914203D1CB
:1030D000018852080A4302804620205A00280DD059
:1030E00020680189C90709D5216C80890880891C5D
:1030F00021644620205A401E462160520020C043D1
:103100008642AED0002E62D0FEF7D7FF0199401A5A
:103110008642A6D25BE0E28F4F48002A04D14621C6
:10312000615A002921D1A3E721680B899B071CD58F
:10313000A36B032A06DB1A888A819B1CA363E28F98
:10314000121805E05A1CA2631A780A73E28F521E05
:10315000E287E28F002A08D1A26A80239B019A426B
:1031600003D10A885B0813430B804621625A002A68
:1031700021D021680B89DB071DD5236C022A11DBC6
:103180008A891A809B1C23644622A25A1018462260
:10319000A05280B202280EDA8888802252010243AF
:1031A0008A8008E0581C2064087B18704620205A4A
:1031B000401E462160520020C0438642ABD0002E04
:1031C00005D0FEF77AFF0199401A8642A3D201206A
:1031D0005D2160545C3425701DE0007B69460880E9
:1031E000206B022811D1330002220221200000F0BE
:1031F00038F8002805D05E20205C022101435E20C3
:1032000021542068007B694608803100200000F0CE
:10321000BFF8002801D00320FEBD01205D216054CD
:103220005E20215C20680289D20608D502220A436A
:103230005E216254064901815C34257003E05C34F0
:103240002570002901D00120FEBD0020FEBD000038
:10325000EFFF000001070000FEFF00005D30007876
:103260007047F2B5040017001D00FEF726FF0600A8
:103270002068008900990140B94234D00020C04341
:103280008542F5D0002D04D0FEF717FF801B854244
:10329000EED220688188504A0A408280616882228A
:1032A000520091420BD1A16880221202914202D0B9
:1032B0005209914203D10188344A0A400280802198
:1032C0008901A26A8A4206D10288444B13400380D6
:1032D00002881143018001205D21605400205C348C
:1032E00020700320F2BD0020F2BDF2B582B00400D0
:1032F00017001D00FEF7E1FE060020680189029A12
:103300000A40BA423ED00299C022D200914204D172
:10331000002F02D1007B694608700020C04385421F
:10332000EBD0002D04D0FEF7C8FE801B8542E4D20E
:1033300020688188284A0A4082806168822252007F
:1033400091420BD1A16880221202914202D052090F
:10335000914203D101880D4A0A40028080218901EF
:10336000A26A8A4206D102881C4B1340038002885D
:103370001143018001205D21605400205C342070E5
:103380000320FEBD0020FEBD00000000BFFF0000C6
:1033900038B505000C0023000022C0214901FFF7C9
:1033A000A4FF002810D12300002280212800FFF76D
:1033B00058FF002808D123000022C021C90028009E
:1033C000FFF793FF002806D05E20285C20210143F0
:1033D0005E352970032032BD1FFF0000FFDF0000B3
:1033E000F0B585B038480168802252040A43026073
:1033F0008021890202680A43026002681143016069
:1034000001688022D2020A43026012200190002447
:103410000294039408200090032504959027FF054B
:1034200069463800FDF784FD8020009004956946C8
:103430003800FDF77DFD0226009604956946234875
:10344000FDF776FD01960294039404200090049504
:1034500069463800FDF76CFD4020009004956946F0
:103460003800FDF765FD0120009004956946174876
:10347000FDF75EFD05B0F0BD10B51548016880226E
:1034800052040A4302600168124A0A400260902412
:10349000E40504212000FDF74DFE08212000FDF782
:1034A00049FE40212000FDF745FE80212000FDF768
:1034B00041FE064C01212000FDF73CFE02212000C8
:1034C000FDF738FE10BD0000141002400004004853
:1034D00028100240FFFFFFFEF8B507000026002479
:1034E0003D683E721CE0280000F04AF82878202849
:1034F00001D0222812D127484069006A006880471D
:103500002448406901684A685306DB0F01D0012254
:103510003A720978C900C069405C04430835761CDA
:10352000F0B2B9888842DED3FC80F1BDF8B507005F
:10353000002600243D683E721CE0280000F020F8C0
:103540002878202801D0222812D112484069006A28
:10355000406880470F48406901684A685306DB0F9E
:1035600001D001223A720978C900C069405C044365
:103570000835761CF0B2B9888842DED3FC80F1BDF4
:103580000449C8600278203A032A01D8406848619B
:1035900070470000F806002010B5084C606008482D
:1035A00000680849FEF70DFDFA21890048434821CB
:1035B000FEF707FD2061002010BD00BFF8060020C7
:1035C000A801002040420F00F0B5002801D00220E1
:1035D000F0BD294C60680168426800232372274CC3
:1035E000056925604569A56015E015880C266E43C0
:1035F0008568AD59ED06AD0F032D09D0A6688F681B
:10360000BE43A660002D03D125684E68B5432560F2
:103610000C31921C5B1C8589AB42E6D30020F0BDC7
:1036200010B5174CA06803210143A160124800693E
:1036300000F038F820681021014321602068022141
:103640000143216010BD012101200D4AD3681940BA
:1036500008D010681021884310600220D168014012
:1036600000D100207047082804DA80000549085876
:1036700080B2704700207047F806002028400240C2
:103680000040024034400240401A00B27047401AE5
:1036900080B27047002070470120704700207047BB
:1036A0000120704700B500E0401E0028FCD100BD9D
:1036B000F6B585B00024182141434B4A5268511891
:1036C000009149680291009909680191002801D090
:1036D000022087E000271DE0310000988068401933
:1036E0008088FFF7D1FF0099896849190881FFF7A1
:1036F000D1FF0099896849190A6806239A43400056
:10370000034013430B600298801C029001980C3018
:1037100001907F1CF8B200998989884261D2029891
:1037200005880C2045430098806840190168CA0646
:10373000920F032AE7D101220A4302600198007820
:10374000FFF791FF060000988068401941896A469A
:1037500091814681254A1288964209D20268062341
:103760009A43042313430360002202810224CAE720
:103770001E4A5288B24202D202680623F2E7FFF7DD
:103780008BFF0028A8D00598002809D03100684692
:103790008089059A90470600009880684019468104
:1037A00031000098806840198088FFF76DFF06009F
:1037B000FFF770FF0099896849190A6806239A4340
:1037C0004000034013430B600698002807D03000E8
:1037D00006998847009989684919088193E70E81FD
:1037E00091E7200007B0F0BDF8060020BC010020E2
:1037F00010B515480188491C018014490A88521CDB
:10380000837892B2FA24A400A24205DB5B1C00225A
:10381000DBB2402B00DB00230A80837010BD70B543
:103820000B4A13680224A3431360074B1C8802232E
:10383000002800D10EE00D880E88A51BADB2854290
:1038400001D30C800BE00FE0F806002042070020B7
:1038500010E000E0106803431360022070BD1068A0
:1038600003431360002070BD106803431360012000
:1038700070BDFEE7F5B583B00124002568460181DF
:1038800001950026008AFF2802DDFF206946088294
:10389000039800680090002703E00098083000902B
:1038A0007F1CF8B203998988884232D20098FFF7CA
:1038B00067FE6948C0680078202805D0212803D019
:1038C000222801D0232808D163484069016809787B
:1038D0000229E2D1818901918668002E01D1002060
:1038E0001FE0002002E001250C36401CC0B2019907
:1038F0008842D2DA0821715E002901D10024F3E761
:1039000004D5012DFADA0025ED43EDE7002DEAD5C7
:10391000F4E7002C03D06846008A694608816846AF
:10392000008905B0F0BDF3B583B0002001900024FC
:103930000090FF206946098AFF2901DD6946088257
:1039400003990F686946098A4840401C80B202907A
:10395000002623E00820215EA088FFF798FEA188BA
:103960000902A2798918029A51436A46128A000212
:1039700050430818010AA171000CA0802000FFF735
:103980008DFE012802D10020009988470C346D1C5F
:10399000EDB201988542DDDB0837761CF0B2039961
:1039A000898888421CD23800FFF7EAFD2A48C0689F
:1039B0000078202805D0212803D0222801D02328F0
:1039C0000AD125484069016809780229E4D1818932
:1039D0000191846821480090002C01D00025D7E790
:1039E00005B0F0BD70B5060000240125B079800651
:1039F000800E012810D1B07A002811D11848016832
:103A000002229143016014490988B18101680A4387
:103A10000260B572747206E0B4727472012070BDF7
:103A2000707A002809D131000C31FA204000FFF7EC
:103A3000F6FE002801D1757202E0707A0028EDD000
:103A400014220A213000FFF715FF01003000FFF7B4
:103A50006AFF002070BD0000F8060020A53D0008A8
:103A600010E000E080B51421274843695B681970B5
:103A70000F2243695B685A70426952689170032152
:103A800043695B68D97043695B68197143695B6816
:103A900059714269526891710721426952681172E5
:103AA0000A21426952685172012140694068C1711E
:103AB000002000F077F901BD38B5134C00F077FB1A
:103AC000002804D060690068007813281BD1606961
:103AD000016809780D00E2681278202A01D0222AB4
:103AE00004D1C900C0694018406880476069006817
:103AF0000178A942416803D140229143416031BD20
:103B000040220A43426031BDF8060020FCB5B848A7
:103B100040698068019000230021002200206D464A
:103B20002870B34C6469246865688026B543656075
:103B3000AF4D6D69AD89032D2BDB002506E0B24248
:103B400000DA32003E460C3601966D1CEEB2A84FEC
:103B50007F69BF89BE4215D20826019FBE5F002E35
:103B600000D50026B34206DA0A00190033006E467B
:103B700030702800E6E7B142E1DA0A0031006E4613
:103B80003570DFE79A4D6D696D686D786D086D1E53
:103B9000A94200DAFAE09B1A9BB26D462D786D00BF
:103BA000C0B23E4670434000914E76697669301847
:103BB000465F8F484069458B8D484069008B58436C
:103BC00080B2891A89B25918FEF7F8F980B2012E2D
:103BD00002DB7100081802E071424900081A00B2C5
:103BE0008349C9680978202901D021290ED10128EB
:103BF00002DA802149004018401B00B2002801D59C
:103C0000002004E0FF2802DDFF2000E0C0B266785B
:103C10006368FC2189011A04D20F5ED08E4AC5B2B6
:103C2000AE4222D2AD1BFF2D1FDA8C4D1D40704FCE
:103C30007F697F687F7AF619B6B2B04228DB0B4005
:103C4000FF26F6439B190B402B4363609D04AD0E8A
:103C500028D1674D6D696D68EE79804D1D40330246
:103C60000B402B4363601340636067780300FF33AE
:103C7000BB4224DA6368794D1D40802676008619A0
:103C8000B4465B4E76697668767ABE19B6B2B445AC
:103C90005DDB0B40FF26F6439B190B402B43636013
:103CA0009D04AD0E72D1524D6D696D68ED796B4E0C
:103CB0001E402B021940314361600A40626060700F
:103CC0004B494969C0B208224B681B7AD21AD040CE
:103CD00009688A7882425BD158E080221202C5B21C
:103CE000B54221D2751BFF2D1EDA5C4D1D40404FA1
:103CF0007F697F687F7AC719BE4228DB0B40FF26A9
:103D0000F6439B190B402B4363609D04AD0E3DD1E0
:103D1000374D6D696D68EE79504D1D4033020B4093
:103D20002B4363601343636066783300FF339BB2B9
:103D30008342C4DA6368494D1D40D709F619B6B20B
:103D40002B4F7F697F687F7AC719BE4208DA2848FF
:103D500040694068C079000201402943616015E074
:103D60000B40FF26F6439B190B402B4363609D04D9
:103D7000AD0E0BD11E4D6D696D68ED79374E1E404D
:103D80002B021940314361600A4397E70220F6BDD8
:103D90008870174840690068416880220A43426081
:103DA0000020F6BD38B50400114D68690068002197
:103DB0000170416840220A434260032000F0E2F9AA
:103DC000A1488188042902D0102902D003E00221F1
:103DD00004E0042102E00821818003219B4A118034
:103DE0008088201869690968C87000F049FA31BDF7
:103DF000F806002000208249CA681278202A01D0E3
:103E0000222A05D1486901680978C900C069405C67
:103E1000704738B57A4C00F0DFF9002807D06569A3
:103E200001216868407800F014FA002801D10A20C6
:103E300016E019E038B5724C00F0CEF9002807D032
:103E4000656901216868407800F003FA002801D113
:103E50000C2005E008E00000FF7FFFFFFFC0FFFF30
:103E600061690968087031BD2868C178002901D0EE
:103E7000491EC17060690068C178002901D1022122
:103E8000017031BD38B55E4C00F0A6F900286569B7
:103E90000CD1686880792968C87060690068C17849
:103EA000002901D10D212AE00F2128E001216868B5
:103EB000007800F0BAF900280CD168680079296808
:103EC000C87060690068C178002901D10A2116E034
:103ED0000B2114E001216868807800F091F9002836
:103EE0000ED16868C0782968C87060690068C178B8
:103EF000002903D10020FFF755FF31BD01210170DA
:103F000031BD38B53E4C00F067F9002815D0656921
:103F100001216868807800F073F900280DD12868C5
:103F2000C178002901D0491EC17060690068C0785D
:103F3000002806D1FFF736FF31BD0220616909680C
:103F4000087031BDF8B500F047F900282C484069E9
:103F50000DD1416889790068C170294840690068BD
:103F6000C178002901D10D2147E00E2145E0846888
:103F70000027002502E0A6800C346D1C2048406913
:103F8000E9B28289914218D266890168C9782E4ABD
:103F90009288D2B2914207D131002000FFF780FB16
:103FA0000028E8D1A780F1BDA1888919A18089B234
:103FB000B142E1D2A7800D211EE00068C17800293E
:103FC00001D0491EC1700E4840690168C9780029B6
:103FD00014D18468002508E0A0881C490988C840DD
:103FE000A080A77127810C346D1C05484069E9B297
:103FF00082899142F0D3022100680170F1BD000076
:10400000F806002038B59D4C00F0E6F8002815D0E1
:10401000656901216868007800F007F900280DD172
:104020002868C178002901D0491EC1706069006804
:10403000C178002906D10A21017031BD02206169D1
:104040000968087031BD0000BC0100204007002055
:1040500038B58A4D00F0C0F800286C690CD1606852
:1040600080792168C87068690068C178002901D129
:104070000D2115E0112113E001216068407800F066
:10408000E8F8002800D137E0606840792168C870FE
:1040900068690068C178002901D1022100E004218B
:1040A000017031BD38B5754D00F096F800286C6987
:1040B0000CD1606880792168C87068690068C1782F
:1040C000002901D10D2115E0122113E001216068C2
:1040D000407800F0BEF8002800D10DE0606840791B
:1040E0002168C87068690068C178002901D102217F
:1040F00000E00521017031BDE8680078202801D07A
:10410000222801D1206A01E06648C06880688047A3
:1041100031BD10B582B0594C00F05EF800280ED1C8
:1041200060690068C178002901D0491EC1706069CA
:104130000068C178002924D10D21017013BDFFF75B
:1041400059FE69460870684600785F21014068465C
:1041500001700078012806D0022806D0042806D075
:10416000082806D00AE0022004E0062002E00A2027
:1041700000E00C2061690968087013BD0020FFF79A
:1041800011FE13BD70B53D4949698A68002309E0F5
:1041900014681825AC43C50018262E402643166027
:1041A0000C325B1CDCB28D89AC42F1D370BD70B5B2
:1041B000324841698B680220002408E01D68EE0740
:1041C00003D5012085431D6000200C33641CE5B23B
:1041D0008E89B542F2D370BD10B528484069816818
:1041E0000022848901E00C31521CD3B2A34205D2D3
:1041F0000B685B089B07F6D5002010BD022010BDA0
:1042000030B51E4949698A68002301E00C325B1C05
:10421000DCB28D89AC4206D244420825555FAC42DF
:10422000F4DB002030BD022030BD30B513494969B0
:104230008A68002301E00C325B1CDCB28D89AC4241
:1042400005D20824145F8442F5DB002030BD022033
:1042500030BD30B5094949698A68002301E00C3254
:104260005B1CDCB28D89AC4205D20825555FA842A3
:10427000F5DA002030BD022030BD0000F806002035
:1042800030B50948416989680022002303E08A802B
:104290008A710C315B1CDCB24569AD89AC42F6D346
:1042A00030BD0000BC010020F806002010B582B02F
:1042B0000400002069460870FEF7FAFA69460C709F
:1042C000012220216846FEF71BFB200A6946087080
:1042D0000122232152E080B5FEF7EAFA01220F21E4
:1042E0008EE080B5012224216846FEF72AFB68464D
:1042F0000078802101436846017001222421FEF7E5
:10430000FFFA01BD10B582B00400002069460880A4
:104310000122302100A8401CFEF713FB01222221BC
:104320006846FEF70EFB68464078802108406946E3
:10433000487068460078DF2101400C4368460470ED
:1043400001223021401CFEF7DBFA15E010B582B0E7
:104350000400012222216846FEF7F3FA002C03D163
:1043600068460078802104E0012C05D16846007879
:104370000821014368460170012222216846FEF7A8
:10438000BFFA13BD10B582B0040001222221684695
:10439000FEF7D7FA002C06D1684600784006400E9A
:1043A0006946087007E0012C05D168460078F721BE
:1043B000014068460170DFE710B582B004000122B9
:1043C00021216846FEF7BDFA68460078C021014009
:1043D0000C436846047001222121D0E710B582B059
:1043E0000400012224216846FEF7ABFA68460078F3
:1043F000EF2101400C436846047001222421BEE7EE
:104400006846FEF79EFA6846007802BDF1B586B0B0
:1044100001A80021002206C006C0002669460E70D1
:1044200000250024012223216846FEF78AFA06228D
:10443000282101A8FEF785FA03AF01A8694609788B
:1044400049060AD46100421853781B0212789A1860
:104450007A52641C032C0ADAF4E7610042181378DC
:104460001B0252789A187A52641C032CF5DB6846BA
:1044700000783021014004D0102904D0202904D034
:1044800004E00A4D02E00A4D00E00A4D7000385E7B
:10449000FEF7C2FB290000F00FF8B100069A505059
:1044A000761C032EF2DB07B0F0BD000000000C41CB
:1044B00000008C4100008C4230B405004D400122C8
:1044C000D20715404B180418240E30D01B0E34D0E0
:1044D000FF2C36D0FF2B3CD0E41800020902104319
:1044E0001143000A090A9446C2B24A43000AC3B201
:1044F0004B43000A4843110A5B18190A12061B0CA9
:104500001A43120A091801D44918641E080A7F3C8C
:1045100023DBFE2C08DAE4050906114363469941C2
:104520006041284330BC7047FF20C005F9E72800F0
:104530001B0EFF2BF6D1D043F4E72800FF2CF1D15E
:10454000F9E74002F7D1FF2B01D14902F3D1E00591
:10455000E7E7D8054902E4D0EDE743020020641CF8
:10456000DFD15B129B1CDCD9D805DAE70000000024
:1045700004000000010000000100000040000000F5
:104580000200000002000000000200000400000021
:10459000000001000200000010000000453F00087C
:1045A00030000000033F000801000000853E0008C5
:1045B000230000000000000025000000133E00085A
:1045C00029000000353E0008020000000000000045
:1045D0002200000000000000260000000000000093
:1045E0002A00000000000000040000005140000804
:1045F000240000000540000808000000A540000855
:1046000080000000552E0008B00000001341000893
:10461000A100000013410008A2000000134100089F
:10462000A400000013410008A80000001341000886
:1046300040000000572E0008653A0008B93A00080B
:104640000D3B000800010001000100002C070020C4
:1046500020070020D4060020030000004446000884
:10466000D4480008800080009845000838460008BB
:10467000200000004C460008122008803AA0704735
:10468000042008803DA0704710B50A00174C210097
:1046900023A004E010B50A00144C210026A0FDF769
:1046A00025FC200010BD38B51A2008801048456848
:1046B0000168806808180F4C09D00822A11C00F07E
:1046C0001BF8042221001231280000F015F8200008
:1046D00032BD000010B50A00044C21001BA0DEE72B
:1046E00010B50A00014C21001BA0D8E7940500205A
:1046F000ACF7FF1F7C01002070B50023002404E00C
:1047000037362E7000016B70641C944206DA650027
:104710004D19060F0A2EF3D23036F2E770BD0000B5
:10472000484944204A6F79737469636B20696E202D
:104730004653204D6F64650053544D6963726F6535
:104740006C656374726F6E6963730000484944203E
:10475000436F6E666967000048494420496E74657E
:1047600072666163650000001201000200000040F3
:10477000830410570002010203010000040309042E
:104780001148016801220A43026041680F4A0A4049
:10479000426001680E4A0A40026001680D4A0A4000
:1047A000026041680C4A0A404260C16A0F2291438C
:1047B000C162016B094A0A400263416B01229143C5
:1047C0004163002181607047001002400CB8FF086F
:1047D000FFFFF6FEFFFFFBFFFFFFC0FF2CFEFCFF0D
:1047E00038B401210268001D002A0FD00368C318E5
:1047F000446808300C4202D04D466D1E64191D6895
:1048000025601B1D241D121FECD0F8E732BC704739
:104810007047FEE77047704780B5FDF749FCFEF72B
:10482000E7FF01BD80B50248FBF71AFE01BD00009D
:104830001C04002080B50120FCF714FD01BDFEE73B
:1048400010B5074979441831064C7C44163404E00D
:10485000081D0A68891888470100A142F8D110BDD7
:1048600008000000280000009FC6FFFF6C05000044
:10487000DC0100200000000069FFFFFFDC010000F8
:10488000C0000000000000200000000000F00BF855
:10489000002801D0FFF7D4FF0020C046C046FCF737
:1048A0007BFE00F002F80120704780B500F002F8AE
:1048B00001BDFEE70746384600F002F8FBE7FEE7D9
:1048C00080B5C046C046024A11001820ABBEFBE7C7
:1048D000260002000000A0FFA0002000000060FFF2
:1048E00020FF60000000000002030405060708091D
:1048F0000A0B0C0D0E0F10100148804701480047AD
:104900008147000809490008C046C046C046C04665
:10491000FFF7BCFFFEE7FEE7FEE7FEE7FEE7FEE788
:10492000FEE7FEE7FEE7FEE7FEE7FEE7FEE7FEE75F
:10493000FEE7FEE7FEE7FEE7FEE7FEE7FEE7FEE74F
:104940000000000000000000000000000000000067
:104950000000000000000000000000000000000057
:104960000000000000000000000000000000000047
:104970000000000000000000000000000000000037
:104980000000000000000000000000000000000027
:104990000000000000000000000000000000000017
:1049A00000100000092111010001224A000000004E
:1049B00005010902A1010901A10005091901290345
:1049C0001500250195037501810295017505810189
:1049D00005010930093109381581257F75089503CE
:1049E0008106C0093C05FF090115002501750195E7
:1049F00002B12275069501B101C00000B929000875
:104A0000E7290008092A0008000000000000000053
:104A1000D92A00080000000000000000000000008B
:104A200000000000D12A0008D12A0008D12A00087D
:104A3000E72A0008AD420008D7420008E342000818
:104A4000054300084D4300088543000800000000AE
:104A500000000000B9430008DD4300080D440008D1
:104A600009022200010100E03209040000010301F3
:104A70000200092111010001224A000705810304F7
:104A8000000A00000000000000000000000000001C
:104A90007046000801000000000000000000000057
:104AA00079460008814600089546000889460008B6
:104AB000A7460008D5460008E14600081A03000092
:104AC00000000000000000000000000000000000E6
:104AD00000000000000000000000000000000000D6
:104AE000010203040607080900127A0000080048C2
:104AF0000008004800080048000800480A00FF1F9E
:104B00000400000098450008384600080A06000224
:0C4B100000000040010000000000004810
:04000005080049099D
:00000001FF
