:020000040800F2
:10000000382A0020A5C80708A9AD0708ABAD070826
:10001000ADAD0708AFAD0708B1AD0708000000009F
:10002000000000000000000000000000657D0108E5
:10003000B3AD0708000000000D7D0108B5AD07084D
:10004000CDCD0708D1CD0708D5CD0708D9CD0708F4
:10005000DDCD0708E1CD0708DDAD0708E5CD0708D0
:10006000E9CD0708EDCD0708F1CD0708F5CD070864
:10007000F9CD07080BAE0708FDCD070801CE07082C
:1000800005CE070809CE07080DCE070811CE0708D0
:1000900015CE070819CE07081DCE0708D1AD0708F1
:1000A00021CE070825CE070829CE07082DCE070840
:1000B00031CE070835CE070839CE07083DCE0708F0
:1000C00041CE070845CE070849CE07084DCE0708A0
:1000D00051CE070855CE070859CE07085DCE070850
:1000E00061CE070865CE070869CE07086DCE070800
:1000F00071CE070875CE070879CE07087DCE0708B0
:1001000081CE070803AE070885CE070889CE070809
:100110008DCE070891CE07085925040895CE07080B
:1001200099CE070817AE07089DCE0708E7AD070868
:10013000A1CE07080000000000000000A5CE0708BF
:10014000A9CE0708ADCE0708B1CE0708C7AD07088E
:10015000B5CE0708EFAD0708F7AD0708B9CE070819
:10016000BDCE0708C1CE0708C5CE0708C9CE07080F
:10017000CDCE0708BDAD07081FAE07080000000080
:1001800000000000D1CE07080000000000000000C1
:10019000D5CE07080000000000000000D9CE0708F7
:1001A000000000000000000000000000DDCE070895
:1001B00027AE0708E1CE0708E5CE0708E9CE070815
:1001C000EDCE070847494638396164006400F700FE
:1001D00000028A027A1A028E82460252027A4E0A7D
:1001E000BA8622A64E22420E02FEC22E567212CEAF
:1001F000CECA7A6E3AFEE23E9EA222022202B62ABF
:1002000002664206462A06CEAA72762E0EA66A0E0E
:10021000928A76026A02CA96267A72666A4E46BA4E
:10022000760EDAC26A8A661AFEE27AE632029236FE
:10023000064A360ED69E2622020286520ADEA63ACA
:10024000966A1ACA3A0A765A2ADAB676AE762E46EE
:100250004646C62E0272460A4A8E4ABA9A66EEC6CA
:1002600082321E06B686225E3A06A67A1EAE925EDE
:10027000FEF282AE2602664A169E620AB26E0E72C6
:100280006E66221602BE9E6636260AB6AE86663AAE
:100290002A7A5A165E562E5A1602FEDA3ABAA65A2A
:1002A00082763EFEF65A6E460AC6BA8A8A724E6652
:1002B000563ACA7E0E766216FEEA7EB23A0A865A2E
:1002C00026EAB652EED672AA9A522A1A06322A1A8A
:1002D0000A0A069622029ACE9AC28E265A421282A2
:1002E0006E466A42064E3206EAD68616A216A68ADE
:1002F0005A9A4A16E6E6E6565656023602969696FA
:100300007A6642363636729616CEAE5AFEFEFE72C9
:100310006636967E52A69A76FEFE96564E42725AE1
:1003200056126E12B2A676B6B6B6FAD28A9E825629
:10033000C69652B68E361A1A1AAE7A4A8EAA8EFA15
:10034000CA4E8E5A0A463A262E6A2E56462AE6BAD1
:100350007AC6A26A861E028A8A8AE6AA2A9A721E29
:10036000FEE652926A2EDEA22AF6CA86AE6E0EC251
:100370007A0EC6BEB2FEEA92C696367A76729A5E59
:100380000ACE2E025A3606FEF66A7E723E2A2A2AC5
:10039000623E06B29662A2660E766A3A7E520A4AB9
:1003A0002E06D2AE72BE7A0EEA36028A560A764A15
:1003B0000AB6720EFEE67A3A2606BA2A02965E0A55
:1003C000563606B226026A563A2E1A0666420A3295
:1003D0002A1E0A0A0A623E0A4A460EBEA6222A9629
:1003E00022326E1602A602629262CAE6CA5E9E12AD
:1003F000AAAEA64A724A1A7E1ACAA266C6FAC6529D
:100400003606F2F2F2663E0A1E62063E26067AC6FC
:100410007A3E3E3E6AA26AB24A12D2AE2E36520AE4
:10042000165206DACA86AA6E0EC22E02CA2E022AF8
:10043000360AAA9E8E82520AD6B2763E9A3282D26C
:10044000828ECA8E925E0A626E1EC6BE9EBE2A0250
:100450001E9A063A763A662606E6B266628A122640
:100460002626A65A2E767E16B2DAB2EEC65A627AE0
:10047000623A920A5EC25E2656268ADE8ADAEED298
:100480001EAE1E82A6821E7E063E623A2EA62EBAA0
:100490008A228E721A4EA24E000000000000000058
:1004A000000000000000000000000000000000004C
:1004B000000000000000000000000000000000003C
:1004C000000000000000000000000000000000002C
:1004D0000021FF0B4E45545343415045322E30030B
:1004E0000100000021F904090F00AD002C000000FC
:1004F00000630064000008FF005B091C48B0A0C155
:100500008308132A5CC8B0A1C38710234A9C48B152
:10051000A2C58B18336ADCC8B1A3C78F20438A0CED
:10052000B926C9C893194B5121C009140E9430271C
:1005300012E841A526A91307318C1045654ACC9FC6
:1005400002F778A249E091271C382E5DC29184679A
:100550004D2A4081BED9438A2A280D1A4025C2015E
:10056000EA12854F3244458DCA67042845683951DF
:100570002075E91128507B408C8D9A8313DA256A07
:10058000AB523832F00429A480713C2245B830A91E
:100590004748078FD031B7210C51A2229C00651724
:1005A0002D2B02A43C91FA24902D8544892888564D
:1005B0004A9AB468D08996EEE1DC38610F54B06194
:1005C00094C26A9714E4C85C584CBA9428C7DBB745
:1005D00039500BEFFD362B280A38488DF874AAF5F0
:1005E000C1295376B4DAE109AB064E5350C1D81E87
:1005F0001907F1DFC07304FFEFEDFB2A274E599175
:100600002B27C0D7B9C11D08E25F2A5FFCD28E2913
:100610008F4915B76E1C7CF1CA8A68905A66231000
:10062000C08212EE158400030C0C8100056F51800E
:10063000C0100E72B0030C9FF0679D7FFFA18596DE
:1006400006C8ED51A081952438D0050B0ED1202984
:10065000A92DC8A08331A432020ED7A1871587D750
:10066000DDA5484B97644600019FB0C08A891C5C99
:100670004285030E0C3080029E24320216141AC1E9
:1006800000021708C5D279FC81479B224B2C11E050
:10069000562202C9C21195B8E1DC249F258280054B
:1006A000ABAC02401A2C5E22079B16041142018952
:1006B00010769486BF5977175E5DF9F8C911476CBB
:1006C00051891FAD61E01D68910CD1C0190D2090BA
:1006D0000828394C02C02A16A411061A48B1F81984
:1006E0000E14F477558E5D7E8943982C6C010104BD
:1006F0003220DA1829698AFF97C32737B8E5210124
:1007000005C48700105924076B56395C728496958E
:1007100079C9A3A047B05249253298391701A08260
:10072000469F791EEEE8C90D371CF6C823D7DD4871
:100730008127668D5AACA9CA0DCAAA0C3244F206AA
:10074000483584D281427B80FA198E1AF2779E87CF
:10075000E8E5B01601FBE978AC2706A6224329A5F7
:10076000441209485D34118ABB081D112F6FD3F65E
:10077000A9E17900EE98D580234030AA8E0226B7F1
:100780009CA19170C105C1EC2ABCF0BB0611F030F0
:100790006A35EE88E5BDD5E20BAC7A9E0C9B635AB8
:1007A00081029C6C299A44564A042099BCB0BB151E
:1007B00014F4C9CA14F0A182194C335D42CCD5623D
:1007C00079F1529981A541B51D970B41C8A2F470EA
:1007D0008A0C8C79D486D043771005419F78821893
:1007E000059488A1C3DB62C4ADC2D2314BFD566A09
:1007F000C9096535BEC1FAFF78840C5CF0A44412C7
:10080000257E5403D9659F2DD01623FC95082566B7
:10081000BC2DB9182A8841061532DF181C72838155
:10082000FB492500762CE2271094C2D32949D0A198
:10083000C54763235E760745975040082CDE714715
:10084000D373474E86197764496968541398C91160
:1008500091E0F061CEEC8545C51A5FD04047068631
:10086000BB3EB4BB1D6000440C585C30081494AC13
:10087000720725E07B0F3E15E08DB794AFE002993B
:100880004A29499DF6C8E8AC7041C51796D46F92C5
:10089000D84D48FF7A10419430430128BA41F7DA25
:1008A00044C0EE694F57F119440108239402656270
:1008B000061C289E57A8F6B152A0C2052EE0010FD3
:1008C000BE80208F1C4E7F65E31F104A408819A010
:1008D000C80F66101F25EEB08A190CE285307CE146
:1008E000214270810B14A000339841096E9014A529
:1008F0002407602C904104FFA8C0034000C20549B2
:10090000081B475A37BD269E2C1444080208B270B3
:10091000030E94200683400015BE77072CCCAE86CC
:1009200017088118C578012FC66006842801078042
:1009300020831EFE90449AA082118DF885E67810DF
:10094000844DEC00FF7AD0035154B10087D0D520FC
:100950006A58801818F28658486421D1A8C635F222
:10096000D08DA32BDDFCE6C88335B86A89F973A264
:10097000263BA047FE05818F7DE4C0EC6888C33428
:1009800096E0948448650ED3B84620DC200B3B806B
:10099000E4724A37053518510280F84219A287C718
:1009A000FD79320854E0230C6E504242B812042004
:1009B000E8236490090220B4125B5940C51192F2F9
:1009C00046E2F1A4884674C11AEC88C94C6AD289FF
:1009D0001D90C22F83D00A3E8A400E73E3831954C0
:1009E0002082768A0094A0CC823C41B0831D20A650
:1009F0009A42A44206E7F8FF052D40AF231F0C459D
:100A00002F4FD6494FB6220359E8C10EDAA9003953
:100A10004CA19D1C1844086690505046829E3BF89D
:100A20000B52805809F9ADC112FB74011D760950B3
:100A30006FE2B1061D400311502A4EFE0D04085905
:100A40009C8108604088100C92A2D802822B135A15
:100A5000CF2D68740F996041254AB18320D080065C
:100A60009628220D92C0CD8D7CD09B436B420DA267
:100A7000208522146112589D4411D0D0812816C4BB
:100A80000D84D09E440B50027952115B37C0683DF3
:100A9000F7809872A522123CF9825C41CA03D59175
:100AA000B323F953184A892080AB2EE0AF800DECB8
:100AB0005F8B603681A8800A91D1443DB5034F54C5
:100AC000D4F3B18BD58C606609D75604610D74A040
:100AD000030D5C6089359441891BA16A5F2721D889
:100AE000BF62C2B4A5D56A0746E0095444E0B55CCC
:100AF00080EC0E0E600348FFD8E0B1A51841262A0D
:100B0000C1DAC390227940134812D6C0BCFA79F6F4
:100B100023A750032696BB80E59E96B9A7352D7373
:100B2000015B040140015A3F23D80EAC308A1540C6
:100B300002122B9811617EE809CF29E76FC1154891
:100B40001992A085351CF5B81EF1432D9D4BDFE6AB
:100B50004AF7B9D3FDAB566BA0870E008C0097788F
:100B60004077BF3B0AAAED810283314C813AEA2CDF
:100B70008128410B65D042F33C8B818FB861073DE2
:100B800050EE72F7008A1BD4B7BEA5B5AA55A3E0F4
:100B90009DAE78E2132B08C01AD632020413E69EEB
:100BA0009929051F0C528632A821095F588316D453
:100BB00000121D4C41141AE6824F3F815FFCDAF7A8
:100BC000B9FA25ED2488901402FDC812FBBAC41EA0
:100BD00008D038C06CE6202A508312D490E3D5891F
:100BE00044143888A02622A0899031370827082C81
:100BF00088052B003C9477FF04BD9DF2A07A1689EE
:100C0000236006292348C541F8E0073E94619B27ED
:100C1000E9C11622C0054D181AC891904125588087
:100C2000831338B7B9D18D2EA4ADBAE84F10E0CDFB
:100C300023B8CC622310894F9C8A050879434D9ACA
:100C40003A12D8684206D3DC42A2C72C0A54D01705
:100C5000BAF605AC1AD4B0035488A2143FCAF527DB
:100C60002250CF238C205EA4684F8254901D4D6C7F
:100C7000C113ACE059044401030DBF1ABAD12DC20F
:100C800053F8400519B0E0DAD866816740338252E4
:100C90009848206FA8A728D055E8658B820254D6C3
:100CA0000C291E0DEB05F475D449E8412520B085CB
:100CB0007ACB802D1EF3F6B705C20771134C64A5DD
:100CC000F8C42332416538DF04C4D116404D829008
:100CD000042A9442D143FD990C5871B07D0FE4C2AF
:100CE000172274242E4300430D2C8ECF7EF4028AEB
:100CF0004084A7F8410D54FF10190CA2D30A47589D
:100D0000BC202A58AC28B890E8A172210230E05FDC
:100D1000C8EB3B0929D464073F8FCE0E1AFCF28240
:100D2000D4F3C76416992840C0BF593BFD1441F065
:100D300083133CD0090FC0E02954906D3D8B9E90E9
:100D4000C7DA1A326FA83041844076B277E2EC1EDF
:100D50004801CA7F2E5BAE33646E2E3748D9E77EDA
:100D6000800378A00E7398C30B68D0230814E8AEF4
:100D70006E9F48201EE081C253FD0101808104F274
:100D8000FE0240AC257D3208FC447E60051BD88005
:100D9000F0543F3B24FE907744A0605F3F12B6E4DE
:100DA0001F1208CB9B42C0A3387B272091F7392024
:100DB000E20F38A81901821AF7D137240095B7C17C
:100DC000E947D15DEF42E2058808FE1F52306FD639
:100DD0007E02F0B65F08EE2D7F79DEAFC0BB2BF848
:100DE000C31F5EF0823F584214693B311792DF9077
:100DF000032CDFF4027EBEFF0D36B10914A0601390
:100E000096E0AD95F4CDFD8508210081B042EE75E8
:100E10006F8303CC11101B64016B0156F1F62B1F7D
:100E2000FE81108001200454503F06F8056AA07F1F
:100E3000E5F509FDE77F09E108F017001238057CA8
:100E40002057CDF305749004D6B67F9FC07E0EA8C0
:100E50001053700053400511365CC49504651004AE
:100E60001B082E4790051FC8102A41057EB065114A
:100E700006616AE00711B0810512792FB810ACC67F
:100E8000137CC0677ED067ADC00775367B41D483C5
:100E90000B711B8E554F6F431011E06BBFE609C8F5
:100EA000E77F27B0070D440038311022035906218F
:100EB0000A2CF008A2117B5BE080D09226C0E331BF
:100EC000ED110144E5850301020EC31B6D3102FFE4
:100ED000947C2C621E36A2159C735E98F12391F0CF
:100EE0002371A7039580194BE109A9005A92D76293
:100EF000D4723C78A3271FFF93097036026A37101B
:100F0000A2C00A9F5020C4F38704207681371F9423
:100F1000C12568A1156D5115BA152447C002548624
:100F2000077450106F3073A5C00AD7C65A962008B0
:100F300081F709107235A02820A3983E83920AAC4D
:100F400070049F8081B5D70AC7F6175531285466BB
:100F50000992B7079372355EA28BEF0330E6C22C7D
:100F60002740076B8088D9322FBF830340B206CB5E
:100F7000788B5CD2122EE63947900A95A005283866
:100F80008C03310297B0881A102C9F80882FE709B4
:100F900014E01B3B721C3F848925710AEA48104A01
:100FA000800375C125A5D212A4D08045C78ECD98E7
:100FB0003561926365D08F46132A7F522A2EB10580
:100FC000F2B86FD0421C03B20778E00234E0650C3F
:100FD000B107391091C692270C18781F9526145026
:100FE000029B00089D559107F106FA21905DF28C55
:100FF0006B01161DC4756F830008D4F70780708DD0
:1010000011C143CE3893A6B21A95E082A3A7030E6E
:10101000D91010C0157583314245524AB810D344D7
:101020002DE831209E303C6BB02E512995DEC11F3A
:10103000FAF23E05D24F5BC9106B002BE581377B7E
:1010400060082EF00575389609F10612F0026880E6
:101050000589300312800212A04D2EE99606A103E5
:101060005C865474A00649C99784599886799888F3
:1010700099988AB9988CD998AD11100021F9040972
:101080000F000D002C060007004C0054000008FF64
:10109000001B081C48B0A041838E1429D260E8A030
:1010A000C38710234A9C28F008958B7B3C6178E825
:1010B000A848438A2043467C3362CA45197BCA2428
:1010C00021456A521281043CC9A03242A4CD9B043E
:1010D0004951C041E012A944401351A0F069C745ED
:1010E0002AA8702ABD49201301509CA282C28163A4
:1010F000CF502E9E442DDD1AB21228854B144DDDA3
:1011000073C913293F5CD3527CA441A142508F3C48
:10111000ED396B10C389272E1DA955CA0786DF0834
:10112000393444557884C09E1123F43698440AC754
:10113000A5C78FA94A9EEC3832A91127F616448517
:101140006A0A2A51A43488E6A44894A808110864BD
:101150006890E41285A040875280ECFA35EC9D97A8
:101160006F681E386547033FA5488102257A0767E7
:10117000BFA7C926CA317C788E1CB08132272E1AAF
:1011800054221C9709E8DEEDA61102044B1235FF2C
:101190001F4E6147155430445D9A3EDEF9F3E7CDAA
:1011A0000573D2008A42DC11048E28DE3B68088376
:1011B00021435807140E0800884009C6B1409D68B5
:1011C000D5B5471D690A6990C8258739C542257B71
:1011D00019C2427FFE1981C025D721C0C088432093
:1011E00000446AA331489F8382B925967D8711F018
:1011F000090BACA405620E8FA830401516BC12C6B0
:10120000231494C2A124430C828527F84515158325
:10121000EDB5B844581256E5898C2C1CC1CA1B5B2D
:10122000E1201E281C0862C12AAB00E0030E1490C6
:1012300052CB180EE881C020053CC2D20847E030EE
:101240005F83C38906169465224940955BB002C24C
:1012500052564D470A08057EF7C87289BC01C02A5C
:1012600016A411461D5491C25C0E3EAD58A7936161
:101270007132167E9F1CB105049564A1D4095AB63B
:10128000970908918C005554310C410B2C6820FFB4
:1012900090C525D835269927E3D9A9C8930B2542AF
:1012A0000A9233A6C20A2B3268E2900F128D4026B2
:1012B0007B2A42E8E2A95950B6242897A87A2969DE
:1012C000BC72924355F8B1B0452532848B96416C7F
:1012D00034110A4427EC41E6962ACAE7E2924ABE54
:1012E0002B2185AC5CBB6B58F5C525E311E046228C
:1012F0004324581A5483B9A144E1D011EABE766957
:10130000B3F13AEBA222F3D5571501C2E90AE5750C
:1013100097755A4924A5941249240E0D1CCAC81D5C
:101320001CF489BA37D6A9E4CA0EBF1BF1848FEC2E
:101330004180572DBA55DFAF7B422043299A68C2BE
:10134000F1413E3441F0C8A15450100B9E3CE21ACA
:10135000741C98E1B41941ECFAB05B4BD297036E60
:10136000321F9188C35166BC850C5C44208A2632AA
:101370008C5B501B42134D741C046D314263AFED06
:10138000A1830E62A860F7D3613DCC245097B8FFCB
:1013900039E5112C38AB699EF955524A043DF85194
:1013A000860C21A7AD36C903C960D8235A52A202C0
:1013B000DD62D46DB70A8250A2D0B4C309452B298F
:1013C000877DB245042E5AC7ED27868B42051F65DF
:1013D000AC919941680FFD78281D187DC30C1790BA
:1013E00072E81D666CBEB918822840C982A10B152F
:1013F00069859F104B35A5381F114904540491C4C9
:101400001745E870D0C08EDF3EB21A3A9450C0053E
:1014100021B0092625943C6D372577E000CA73B1C9
:101420008D4E3AA75F43A8A94F875DA8091FD75BD8
:1014300062C91A074102F76C773B3504010833880B
:10144000C1F810400930ADE20E0E5C05FB40241BD4
:10145000AAB829239C3A42096EE098A12422662367
:10146000305D297610044BF000109650C3F6844688
:10147000C0DB492108590042090831032C0CC10C7A
:101480000DBC830E77588041F8F08787084108FF2C
:10149000B0508002CC80102500020B3A48ABD249F4
:1014A0004F144100841401B106ED098C85A168A197
:1014B000DA82100410DC00081C20C40510C00733B9
:1014C000DC017D77004101B07001F20951881728D5
:1014D000400C6630831270000891E8206EF073842F
:1014E0006251418A12908025CA7090DA75CF7B23B1
:1014F000E362177B208A1B70200683F8CE9A422075
:10150000473A2AB08898ACA31D8170832C34C63228
:101510007FF323200229012AAEE68A584424D114FD
:10152000C9C51E307277E41BC4218C480824D692AA
:101530008EB8DCE40D3AD903A53D068417E2021506
:101540009430CA4D089290A84C651611C94A45BA04
:1015500012065998A11D7799852C7C2C12D6F4225D
:1015600027B3B9035154667595D00415FC0048099A
:10157000F0600D41582116CDA5C5916DA2990DA021
:10158000822B4560B72FDE800F22C8E70E5CC9FFB3
:10159000CF1E80000411D8C10E3E899D1042608488
:1015A0007F2CA6046850062B1244802C54A62A8B4C
:1015B000C04A8138220B3DD8413E6BE1087D166060
:1015C0009691E8A72832BA8352482663A9888451A5
:1015D0007870C251BA600D4A286444B34830DBD5F4
:1015E000A003441080146A60402E128403870042D6
:1015F0006F223083430CE2021C0041166EE04A95D4
:101600000A74A091C2CFD7A8F70517B4141034D02C
:10161000423A93993682D560030228C22416405676
:10162000B24E42005148A723DC00D008F86C0645B2
:101630009C4152190982913EF5A97BA09CBEA64A05
:10164000052DD0C0122E90E24B915910464494853E
:101650006808EB58C98A89B23696AC45E880B2343E
:10166000819A0870E1AE98C56C0452B183B75125D8
:101670006BC56A801BE8F085BF9E90064950E11556
:101680003B20852214A1AC8C5D00261E3BDBDAFFDB
:101690009A55007AD8D50822D031810AE101900804
:1016A000AE15B09357E2226989A4C84F6805B28687
:1016B0002F9436B05FD0424C0D2208C7D6F6BAD868
:1016C00095ED6C61BB8022D4807412F2440EC06030
:1016D000831504171242C893AD1EE1A6CBEC8175A9
:1016E0005C70C340B44087E69A900E5A38A54144D6
:1016F000E1073560F7BFD97D6C5927E1DA2208A0F0
:1017000009A22885273CF1890F3CE0058D1981D27B
:101710007040395AC58C15A590EF40D4B08624ACE2
:1017200081062FD5C2460EE20881AAC1BFB30502C9
:101730001000BC5DDB6E77019318EB2442018352ED
:101740007C02310B3E42B558B2E04FFA24135A21C5
:1017500088233AAC852FFC4F0B0E3DC80EA6200AFD
:1017600014938DC12CCE2E77C92A053588420637B1
:101770002E0B05F2831A19B0E06D8F49AE41D4905B
:101780000495D0A0C38475881B581109354CCFFF30
:10179000B23240B11AB08C6200C376B6AEAD714FB2
:1017A00064A0AC2300AE9BA5388227683582ED0C7F
:1017B00044076538F1173AAC5F8888821563EB9966
:1017C00026F8F5B15270410627883277D5A084A358
:1017D00018471497AEC4113AF5D45250600F4730F1
:1017E000081F82A0B835A4392253F00BD952410109
:1017F0000844226C628BB26D21CB072AC4EE229F73
:10180000269BA758A1894C00690FA938881B5EF751
:101810006A895041A0579E19CFC4868ADAD6D9CE9C
:10182000DDDDC0EB8E729448B0A212E01A0A293EA8
:101830001181DD3CBB9BE1E20265C5F6884C8CC0A2
:101840002C5A62316437C1ED2068610D540857B8D5
:10185000DE4600C6EDA6016F10280C78DBB14A20E9
:10186000A653948E80AE797D94559721C11D239BFC
:10187000B1FE2D103708F4339AF0989FFF75385455
:101880000441D7282E02B7574D05CB72411449FFAA
:10189000A138419EFA192E78EC7050FCF8894FACB3
:1018A000842070A1133887C41F3C5D6F2AA05CE5BB
:1018B0004ABEF8697A16F30CE865074248BAD2477F
:1018C000D18915CC0111C0C6AC1BF6037483DC753D
:1018D0000A7C284804841088AE0740080708FB0EDD
:1018E000E6308717A000B33DA8BA5284608515E0A2
:1018F000FCED381F05159EFE0765DD55ED38B182FC
:101900000D6CF0805130FDED36203B22FE30099EFB
:1019100010800041C67B4884B07753F47D142B308F
:101920006F276C8088A7BFC012A4D8C227F6447561
:10193000C58F24108D7F7CE485FB82D2BF40027D61
:10194000CC0483CDE6F988B03DF47D1F3D2402F13F
:1019500087DAFF410211401A834BD1FA89382200FD
:1019600056D0BB0D1C0FF9158CE2099BD8040A3622
:10197000010883EF416620EBBD440E108040047FD8
:10198000EFC3B74100A628454B7CF9F90488BEFF98
:10199000F45D5FFDAE5B211042E881FFD6FF852438
:1019A0007C79C19F10FFF821C275AF1F800ACE2D30
:1019B000ED17E890043FBC7FF7F337113D7000301E
:1019C00040056AA0051EB6060A580641200347A036
:1019D0007A70526E011811A570117CA0046A50062D
:1019E00065A0055AC08057C6021058090133810FFF
:1019F0004159A6F13A7CE0072A98756E10684DC1EE
:101A00003A9D478205611A28F754734310A2B00526
:101A1000EEF67CC93681E9824104303B02C105AC57
:101A2000707705C10747A013D7B1072C307F04B0EA
:101A30002EF15350A9D600BC850A4658715B306818
:101A4000CA3302A2D27B3F411C55631D3BE1267085
:101A5000F209C9157E87B71F92632BA8D66878371D
:101A6000021400866E411F13522BC0A283883102DC
:101A70002940583080654E213D5CB079314871EB8A
:101A8000011552231630333F99302380430023FF42
:101A9000200574B05F19276A5F36029620086AF73E
:101AA0000971D81652332F7E9341C2326A344007EF
:101AB0005477036FE3379FB0799638889AB107E27D
:101AC000D11617D33719B12FA08269F595640D701F
:101AD000024AE81CD7212391A87656411CBB323814
:101AE0009FD829A9500908580683D81372B81094B2
:101AF000F209D355759E4001CC013112F32B7CD4F1
:101B0000614AC08A0D10048F9003D8922DA0400A1C
:101B1000F2A772230022D4813131B268CA18119A17
:101B2000C8894FC22B53710423A8724FB81CD681A9
:101B30003F52E0025945117B008EF7128FDAF2080E
:101B4000F1A7766B2005B6410125C07CFF838B1C75
:101B5000211C01C92B1A50269F20035B05746F00BE
:101B600008A5F70754E49011110438008BF1D82B25
:101B700055C13A5D88773AC08D115109EEF330DADC
:101B8000E21321C40ACD268307B105EED322F34A1E
:101B90003121BF92092CB0066E48933579282A72FC
:101BA00035204400ED079412B1063A311DCAB3073F
:101BB0001CC08FD188940F910112F002750014A0FF
:101BC00050072800082E4007F5289510E1067EE50D
:101BD000022EF0056530625C11100021F9040964E1
:101BE0000006002C060007004D0054000008FF000E
:101BF0000D081C48B0A0C1838E38819A74B0A1C36F
:101C00008710234A1CE867872A10971E1198C8B1CD
:101C1000A347875B2CAA52B5678440470671E4004E
:101C2000F5B1A54B81592E51F8F40907290AC7725D
:101C30001EC38141A4AA1D2F837A0C3262C4916312
:101C40001A34803A76E952265D2251099D3AD18FA5
:101C50008C638AB22A3AF6680F8E4B9C488D4049B5
:101C6000B5EC43521AB22ED94ACA13A94FBACCCAFC
:101C70002DF8C6578408047268E0A4F558DB119E5D
:101C8000E60A36E008152A18302280DACB5791266A
:101C90005E9F466C2C9884C39E3D9E8A0251A3038E
:101CA00083671D65D4A82933B8A08A293BEEEC9838
:101CB000F22869D24A8861D825CBE12B85DB149ABA
:101CC000E2D8CD7B77D3DC193DB1286D00A89D19F2
:101CD0009748815A0E6AB561C4BE0CECB9A4B3FA38
:101CE00031DCB873AECC71DDE60808A5070DFF61E5
:101CF0003004018E6339B8E76CBEE33029F4CC9927
:101D0000ABAFBE7271D2A5363D7DE225D7118E2CC8
:101D1000089047DE05385D02CA10082250C00E3B0D
:101D20007CB29C52F72D975E7ACC25C509274A5183
:101D3000804366041C1104551C1C034A0E330C829C
:101D4000408008C420530C013260C41083CC209919
:101D50007DAE2915DF837B65A5D04E2511F0090BDB
:101D6000FC09F58488CB01D1C200AB00B04B125FF7
:101D70004560C77892C0588027FAE150A38DF15989
:101D8000A8954214FCE5239042A971C94A49E93259
:101D9000840563582047254D3D120C920EA410C2B5
:101DA0000CA43CD2D657486159215F6B29A2018F00
:101DB000927D72C411102811D41E14E0A8812F59ED
:101DC0001410021063E6C0491100AC62C12E0A0C67
:101DD00072894DCC5DB2879E8B35B6C45AA02497CC
:101DE000D98F476CC14B042FD5041F8DAE35FF969C
:101DF000D5271C20006316B9F1A6DB7B59A6A5C820
:101E0000A87E72D5230B844250892607F920D10879
:101E10003850505F8D17AAA59522997CE2C9575F6B
:101E200081B523292C64292AA9A6FA48682595C8D2
:101E300000C241358412CA43415C8B138E17463B66
:101E4000AD8EB26E99A14632C0FBEB5A7F92529290
:101E5000A0BCC820B00C191CD484BAA1B0D15025A4
:101E6000D75247A685F1CE2BB18E4A3125D6110F18
:101E7000F2B99642C949C6020432441249C807B5AC
:101E8000D1C4C1081FC4CB08A4504764BD13CF7B85
:101E9000A18D1A8AF5492549491BEC239E10C0C221
:101EA0001632E8C2852E91C465500D2723ACAE4191
:101EB0009510404AB3F0012335306604B1569F3285
:101EC000DFC75D46FFCA9023B01AE4E09DA09508E5
:101ED0001D01D15C181407D2282BDD0141BA58FB33
:101EE000884C3900A3831862A8A0B70A5207FF31B3
:101EF0002D86CC5DB7695B3E7B2D2D97841F51B637
:101F000026A2F8A28B0C3A1864F2C96D2B5D8140B1
:101F100041CC60279E66ECEDB90A62C8A1CA5EAEEC
:101F20008D28B84D3D1E1149BD7F7AF771248CF381
:101F300011C40D91A04BB9D2B8BF6D0007315C1030
:101F4000C27B945062C6D4C0A8E0881C8E5042A4C4
:101F5000E94CE160E7B0BC70216BEB846FA14B04EE
:101F6000A8A8A2C41A5B145C900F6C278D3BC268B2
:101F700018700321056071C12077ACB28AF0660C3D
:101F8000CF3725779CA7D3AEFE060AB428D3969AFE
:101F90003F0B32D044F69240071A24A1649413DF19
:101FA000F842B181200401082598C10C0A80003351
:101FB00050C27DED73DF2AEE908596E9C64E7FF123
:101FC000180B38700359F9EF5410D0842AF84003E5
:101FD00017F0C0127EB05D022B873B0782E0061C23
:101FE00088E0052A68860DB6EF0E77A00216FF423C
:101FF00070884118F110210801160A5080191082CA
:10200000034090C15776F62FD54D41153C0084040E
:1020100024F0858330227C49A321C21C180410F4CB
:10202000200B3728410106110333DC21784264621A
:10203000FAD477012C2CD1892580E20D40F0349917
:102040006CEA5FFB53C51637B1091E904672331414
:10205000A3D2C8E8C01E9C91772138110206718175
:1020600018485082318841013239833C92F0061D74
:10207000B44DCD4620281944409084DC0417BD5748
:102080001030267081A160A40331E0C81EDC60829C
:10209000777C220776C94B5E0201949100C10EFA4B
:1020A0003838FD6C2112BE50C5170889824D58E2A0
:1020B00090056144221538BE0632D2007C70E414CB
:1020C000B200C15F82C017A20867384110CE2C64ED
:1020D0002198A26050B6C2750453AE50029B4001D5
:1020E0000A24B0860F1D6D9AA150A4BA6479FF121C
:1020F0006DCA616FC01081406B49D05A328898898F
:102100008BC429F930C879D2009AADC4A7189B5066
:102110008336C4928C04C9822305CAD11B0C624E3B
:102120001A2528830EDAA69EB1A012A714E416E59C
:10213000098835180A91F854D7C1885084224C6216
:10214000120B28020DD410041D3842097E004104F0
:1021500034C181221A310431E0400F40C0D41E8CBA
:1021600074A47DDC50870238124068119E5C84287C
:10217000415C49B91A44410045588058C72AD6499C
:1021800008200AC738C25DEEC2050645009D8E4490
:10219000C55319C4B81DB865376239695B55E1C2CA
:1021A0002CC293076B5043435C29059B8E15130B80
:1021B000402C2616BBD8B29E5511A0B88B2EA0324B
:1021C0005218D82019A360D91E5A460A7FF50CAFC1
:1021D00099501C17DCE0862F58C2122EB8EA17B4AB
:1021E00010438318E3645F0D2B59194B5BC6FF92B4
:1021F00035A7A1688422A248010DF0C20AA31046A7
:1022000032926183DD944443BBB1937048C90B5D46
:10221000F44020053C2D0F24E082356895206AA803
:10222000AD76B76BDBB14EA2A635DD040B8CCB854A
:102230004FBCE50BC710CE4E7C333855E9820F03F7
:10224000D1C217BE4083E9D220B00E616A76B9CB05
:10225000DFC636760137152B1152300219A0220243
:1022600010F0D127F65009D41113072388842808C9
:10227000B2063ACC37B55F48C24B1BC2202AEC17D6
:10228000133728150BFAABDDD92E000D23F5850C7D
:102290008EE0340DEC8100BA3802CB64F288116C08
:1022A000D8006FB8EF1AEA9BE13740840F3B8041BA
:1022B00010B2CB8508C8E0135920316D6FBB5801AF
:1022C000A4F8C884F38B0CB8B0056625E71305A104
:1022D000C31A92F00517D0410BAC7C882A46B00790
:1022E0004D1439025CD00426823032191080FF0070
:1022F000FD4DEC58FD70C591EC401304B00B174236
:10230000568923EC40144DB13176AD9B044BD0215E
:1023100009D76D880E4CE90B330F6D0F413BB32885
:10232000943C5601F86124B2BB3483442159557D55
:1023300022372368ED49B45086327C61CB378E0852
:1023400083A6A0090890820053BE8B2FFCA0E4FF57
:102350001661037C909D1AB430123BCBA05C91E8CF
:10236000D211C842112504410BD6FDC8AA7DD16700
:102370005D6842D68423F34D6EC05DB1EA74857CFE
:10238000F043105608083ABC5564AFAE9D4156E87C
:10239000072D44EE232AD8B426263B34195C8294B8
:1023A000C4AA4430499CD36D635A7665A00217F6DF
:1023B0000D01A30DE627ED69F464137CD2A245A0BC
:1023C00007DC158D1A8CDDEB86CB2E08A2D0842677
:1023D000A2431C818C14150217589145E1404C28EA
:1023E0003C08591082103A41722B20A2E10EFF0FD7
:1023F00002157C41F18A5B7CD59CDEF7C41D9801F7
:1024000047EC40E43817C2010E10800F20E205BCF3
:102410007E6AAFDBE372833CF530532008170E0071
:10242000090F90FCE99D18050CE680883FD0C01785
:1024300023A542D121F20655A8C020BE08840DA0D4
:10244000FE740FD481EA2FE0C1250830D2ADB74425
:10245000EC3678C02846810C6424A31390F803DA84
:1024600025B076B800C5ED1EB1820D4C2177BADBE0
:102470003D19C84084E25F80824B6CE1133E2336F5
:10248000E0230277C2CFBDEEC345C60B36CFF83D81
:10249000E88200FA11F5E42102F7B817FEF0A34034
:1024A000C11F568F82201C0133301EBD448460053D
:1024B000C10FFEF4C8B0412A55790232BF58DCB2D0
:1024C0007F8823021088DADBE0F8C7B7821AAC0AEB
:1024D0008817DEC0F7B00E7E448240FCE25B21101C
:1024E000013840104E7BDA53B300302F9681FFF451
:1024F00023C273E20740085430F57CBFA065257CF9
:102500009F4A9F00FEF81DC207181C4015E54EC2E9
:102510001AF66F5D25AC18F446812CF3F710CE3611
:102520001243566A5A406A41800AFF971995E06340
:1025300003E810CF064ED8E60716085F6FA00B5BC6
:102540004000A4F48011E8102C270A72C5208E7078
:102550006E02210A09266DC3317F6A70191C624F11
:1025600002810ABCF05406E1065B701316F309926F
:10257000077804003539912B1723106783756D3761
:10258000108E00019E401D1AE209E2377ABCC21883
:10259000F7D11D766214E6F56691F066C416375ED3
:1025A00081037B7004A2B7752390283992151533E7
:1025B000387FF1095B900945310229205802A10AB0
:1025C00032C0026FA63A1100793B481C63020A7CB4
:1025D00092154B9111F9532DC42287232005746065
:1025E0001011F73847F07D2360091850749FFF20C1
:1025F00022BEC22F4CA15C817204A9C00B47F00916
:1026000034400792D77B75E22F90C7818C58747B3A
:102610000089BF122C5CD33382622C3270025A665E
:102620008298832844C21D10F60985488A62F82BD7
:102630005C428982920A95A005887687064000064A
:10264000328661B3768926189EE02CA0A0085C92A1
:102650001F927104A8268C02A103EFA1311B030A6B
:10266000A4D0842E3702D4611F3B913F04706A6569
:10267000408D03710406A216A3422A38C0023048D6
:102680001C3D081F16B30752E00234A00513E109F0
:1026900092B22FEBA80862F309DC481C6B200538C6
:1026A000711D25A04A96B006B00811CAC18F60E31B
:1026B000170450095950746F00089BF7072DB59007
:1026C000D367250E192C5CB81FF2E7723EE5125253
:1026D000D48C7F9303A6B21FC9F88104C10B2A9141
:1026E000231882927FC1024910662C7910953BF025
:1026F000844991031AD223197693109104B2B81C1D
:10270000DDB1071C608F2B0994D528012F000558D7
:10271000000A05104FD445076EA09412A1036A6009
:102720005A96F00565A0912F11100021F904090FA8
:102730000009002C060007004E0054000008FF00AE
:1027400013081C48B0A0C18309D45050A42109C269
:102750008710234A9C18710B152A471E31A3C8B154
:10276000A347883A98EDB8C8CC934047061D25C1C9
:10277000F0B1A54B82CC12312370891485443829DD
:10278000E04820AAC745162F837ECC4080193350DD
:102790001A34804A74E992C88B5450099DCA510773
:1027A00001508AB2724A448AD49E9BA48EBCA14A2C
:1027B0005622050D599770A240CAD3A54C045096D5
:1027C0009D4B10060C5F114869E09495614D4F9E3A
:1027D00036D21D9C0006AAC3BEF4EEE5CBA5D2A757
:1027E000C09F080FEEB14355821D7B9026D560D760
:1027F00017DEC892E9FA4180E052A21CA0526BD8C1
:10280000310555E78299BA3EEADA758F51661C3276
:1028100095043C33F440290818301812E252EA4477
:1028200037738058E51A864052972848CFD91487C5
:10283000751C4DA34BA7700987A723831FE1FF1CBD
:102840008460C810230848E124557E0882433B5029
:102850001178F3E8E6E91C38916FDF8E333528FCF8
:10286000389042C016654D92486A3900E3C018CAD4
:10287000F8E106336C05C780110C2070C10ECC98AE
:10288000869A7F08E6979F7F9B81A2936D9FB042B7
:10289000551914F8C78A2316ACB28A33BBD0448AC0
:1028A0002AE54982DE058011408A66497198C38F06
:1028B0001BEEA508271AE4F017019F1CE187503A88
:1028C000E070E066200C414B2F021C121D0E82B4FA
:1028D000E8400C83C450406DCCB0102287200A39E8
:1028E000A48838D886240B950895E1939BC910419C
:1028F00016471CB814022D5AB08B027190126066F4
:102900004626D2239949F5C510536DAD7984892F98
:1029100005019D9D9B6D6668562094C740092074F3
:1029200077DD7563AA86565F9C88D8D64C2C1CB17F
:10293000A80E2F7DF2286A9172C2D7A48A30FF9325
:10294000CA11D875D71491393C2226A17C2DB1C467
:10295000A169CE94E4161054B264413584C2864411
:10296000CCACCAE362AE4EEAEAABA02A95080ECC24
:10297000C8A0946ABDFAAA0828472609012BAC54BE
:10298000128441C986120548B169C8E3B4AF520B3D
:10299000EB90B852A0D11165A6F5AB06F692C8C26D
:1029A0001695042CC35804B5D14413A124BCEE41A0
:1029B0004110B0070E3721A5086AF3CEEBEAB6D76F
:1029C00092C2CC27916CD6AD5AA004486A2A95448D
:1029D00022830C911864F0C109277C50169F3C6C2F
:1029E0005A222AE820860AC0006346108AFC0AEBB5
:1029F000C5C775A7F1279524F5AAB71A7005D9118F
:102A000095C8A08BC929237B30C22DAB5B90231CBA
:102A1000340B7122C088E1B50A60E30C0C108612F9
:102A200089B1747F6EACAD9048E7106C922573C18C
:102A3000C5D35C14C4C8D42C571D4A050471FF10BB
:102A400043087E524049D884ABE088207A997DB60D
:102A5000D07B7842000B6BA775A6BD8E2F1A091785
:102A60001168A28B0CC70EB472DE7A5B2DD00D33C9
:102A7000C470C12108B86886193903A382207298EE
:102A800071878FC869EA9527997CB2852E6C67B5E6
:102A9000549A8FB3128926A280700ACAE8E24D7553
:102AA000E8A14890800E1C948EC5203DDCB1CA1D63
:102AB000949891BDF694CC9E9F7442DF3E13D39AB6
:102AC0007CBA6FC69E7C02C1F0A250E18716A97441
:102AD0002E50173528CF7CCBE766C1410984C480CE
:102AE000802A94B89E8B5C64BD0C650707B3F18A9D
:102AF000519074844F000107BD0256A28E108908C0
:102B0000A0820F6A48C21752A132E54DED7E4108FE
:102B10004216407083FD6101017C30C3F5B4673D0E
:102B2000D31D6210303CC42142108219948014FCE1
:102B30002B0110B2F0A9AC1869549F908126FFA612
:102B400040050D5A620DA7489EFD96A7B710861046
:102B5000043DD0DF0CC80304ECF5E00231C8620C80
:102B6000B070812E5E000B3198C10C08C1010EECD3
:102B7000304038F05DB820A0898BB880078000C451
:102B80001A0C1287FAD9EF7EA1706208DFD0831E7B
:102B900090EE02E4194408C23846316A318B362C73
:102BA00023106E90853DF8493B4A43D2162271119D
:102BB000404840029B0044120BF2390FDE4F0D7A61
:102BC0003C571FA790054326B28CA82C812A4B6046
:102BD000C61B30120453D8C32320C69D47388E0528
:102BE000ACD0052AA880C9663443027438881D3DDC
:102BF00089473D12AC8F2200C1D86E108151A2428C
:102C000014BE00412448C8C8118260073B7824776D
:102C100080C70208E8A27D9BF0250A50C0833218C5
:102C2000A402C3C45B2898A83701389120509C8225
:102C30000850210741A84204F8ECA33EF749FF9948
:102C40001D6CE111D1E98E6DD8C48591F0A019E316
:102C5000448104D6E0860E7AF0837AAB411492F573
:102C60004E8264210B3DC0273E6500C81894809FAA
:102C7000FDC4A6CC04BAB15C12B10CE11C67332CC4
:102C8000614E2512739D5110401126B1809A168114
:102C9000084438972332E0073E80200B37C0820C6F
:102CA0000759821B44138A7DD40436450A1D92E2DB
:102CB000920B1749022613CA83246440980F9D9AE9
:102CC000148A50D3AE7675120288C2692240D608A3
:102CD000CC8D358631CC6196CAD64AEC401732137A
:102CE00099FA7431125E4E55A15F68A9DDD289B0A0
:102CF000AD761513805D0060075B53B086A26764F4
:102D0000D5055D971A084838D60A6DF104026B9311
:102D10003EEB688C4DBAA4021FE238D54D5822090B
:102D2000E772E8C1FCFAD7C19A36B05EBD6928D017
:102D300020810E28620F1080812990E15864FF04E1
:102D4000E012B6D9E67534A691127D33085480A3FB
:102D500025C30988BC228406A43DAD72978B09C1A6
:102D6000DA7412342D42282ED1B4B6B0C00A2F889E
:102D7000CD27747BC092EAA20702F98225DE08887B
:102D80004D48E0B39B64981A98CBDEE57AB5B01B4A
:102D9000B8012A34F18999F0E61322F3C4236B9227
:102DA00089488862206BB0C478CB5B5C2D341421D9
:102DB000A8A8CC7A077B031CB0A0BDECAD69603736
:102DC000B00351E88205CD7A6DFA34970A0248F6CD
:102DD000128F200041E8F0051A588207E75D835EF4
:102DE0001182CD29F861C15C6005333201E1082F01
:102DF000400D6AB8E61474A12A19E7600F5B38C267
:102E000037231089AFECA14D0229C31796EC0209B4
:102E1000D0600D6A98480F9C16424D644E179AC0B8
:102E2000841A365789C7D5B8B044804A547C210AE1
:102E3000514460731060010B9EE9099D80E7FF24F7
:102E400096F8021D2C51DC24AC3822BA80809935CA
:102E5000C1674D782212BAC05C044451E3E62EA04B
:102E60000852B8C829D6C0072AB0C6CCBA38422AF8
:102E700058A11E0AEC41060429F11ABE506782517E
:102E8000A40753A8708C71400019085A144100AC73
:102E90001A80C08C13D8F8A69A15F34534D1B49390
:102EA000A5492C0451C317B4B00617D021099EA61A
:102EB000881BB0898A086C810558266B621C579262
:102EC0003D34AEBD354DB498174D85A7452212044B
:102ED000388226AEB6063B5BE2D7A1F5C852453133
:102EE000B7406F0E5BA58280A94FC15C1CABE1149B
:102EF000AA90B5FBD440054DC8CD17E0354810DE8B
:102F00009D0415BF64A9A8F085E674D1E523A08CC3
:102F10000BBEF0C369717C0A3074A2131E68B4BC86
:102F2000DDE787624700227CE04310B480AAA0005E
:102F30005CE0D6D645046010C27767810B42FF483B
:102F4000B9100E70800740021180B8C852A1C28724
:102F5000D6F8C6204B9DC25DECAD095F9C82250969
:102F60009802CA55BE7296EF600E885883A3D9BAEC
:102F7000839B633CE70926C81B76800C0F58FDE154
:102F80000FF7C028FE8088173483146C75FA44DE6E
:102F9000D07182A0DC063678C028B00EF10720FD83
:102FA0000528B0A52FB029769770C10A363085DA8A
:102FB00047810CDA7AC0064847C41FB2C60202E84D
:102FC000A2EE2D0904DA1FA0F6BE3B16125640846D
:102FD000E4FF608854149E0572413C457E8077BDB5
:102FE000379EB68E0DC40B46FF071A44C0C39F9090
:102FF0009FE6231200BCA77DEF8E87C407FE407BAF
:103000001458E2088D33FCEA29728040B85EEFA3C1
:10301000E03B321E80C94D98F70BCC703601A2B64A
:103020007B89082110BE777DDE6D208438028207FF
:1030300096D042F2F7B0FCE653E4F9D00FBFFF1090
:10304000A82060017F610D187636C7BC3F11550876
:103050002100D017C205974C83254319C380F9C4BA
:10306000E1D92F1137C0E000BBA405FDB60674B04E
:10307000065A703CF8C70C477071FC87676D4405B1
:1030800041700A6550065AA00565100453200309D3
:103090005809C1D680076165644605AAC0077E50FD
:1030A000827C90006E106945413499E78107E119EF
:1030B000A29060D8E408659700BEB005BAE16C1C28
:1030C000D4806AE06C814100274010A8C00A615793
:1030D000107C700436712D7B0014DE47005B431DAD
:1030E00022F3666716014528106EB0056E811CD864
:1030F0009205CDA71E487131D6A213B3A180AA4272
:103100000004C00A66987932A023D6B107477055EB
:10311000AB07215FD817D6123E908183B7910298F2
:1031200030103020039F001714C4059F10178877B4
:1031300009A81141DFC214B3611BB9532A85FFC727
:103140000C52104C05017295700418C60C96D08272
:10315000A1B15D12D333870262A3C24093D640343B
:1031600040072D7803CD321BE9338898A88992B1A6
:10317000074FE289490362B9272E4D730205588330
:1031800009E02811F31FD7822492E8745F213120CF
:10319000632F40246995208065E08A09401373C835
:1031A0001046F209E975736D4631A1A213A17804A6
:1031B000DD760ACC281041F00839F03167420ACC9C
:1031C00077736FA21919A326E7B78C11B15DE6E3F7
:1031D0002BBF1232B8E6744E781A4B51137B200580
:1031E0002E40035A40117B108E3D038F6A912BEBCA
:1031F000E7746B2005F6410125F04B47A48B0FE1E6
:10320000083B1290F0C8106C1144E1E61B6F0008F7
:10321000A427470E1911418003682190C0B20744CA
:10322000C38588A703DD2811AC80035851363F546D
:103230005277E68208B1052C2924448228B846C377
:10324000026B00873209113429289B910323321322
:103250005FE0103D19116B60131BA2857BC001FB61
:10326000388D4789101920012F500738910375A018
:1032700050BED68151F9106EA00534E0022E905751
:1032800040471601010021F904090F0009002C062E
:103290000006004E0055000008FF0013081C48B04F
:1032A000A0C1830339694882B0A1C38710234214A7
:1032B000454503A84712336ADCF8F0CD162A54407E
:1032C0007822C0B1A4C98C3708ECA022EA1181246D
:1032D0009318122C22F3A44D8ED13C8DC071E99825
:1032E0004F9F3830AC6479B3A8C648048E69500843
:1032F000EA58CF1143A9189D1AF118274558415D86
:103300008A86E39106AEA2A88A25282A82A6045EB0
:10331000B162CD81239ADB117EDE8C9D8BAA2E0CAF
:103320004DA096AA3DF6688FA76891E60A9EB2A3C3
:10333000308C681AF446302B436716C173EF7C411A
:10334000F0E8588EC489616886218AC00DC863116F
:103350000C198DE318A8D3A0B854D9A159D411D011
:1033600046395CC28280C19042947338BD8000C1EE
:10337000851DA8604428E88883A73D7E479CD0012E
:10338000BBE125DD1C42889684608FD3410C6C2301
:1033900018047CC4401D5C2F89FFC741FE91DBF3FC
:1033A0006E1F958F36C291580E14729C4663A14AC7
:1033B000156869A251A8549B811106081410812731
:1033C0004124104D4F3FF9440105E23578090509C4
:1033D0003A8583279F4C854169A885208D05164035
:1033E00053010E14442388034348C2C020052437E8
:1033F0000284F29D96836E11FAD4E269C75030219F
:10340000015B18A59F69A8C900C20D37C4779A351A
:10341000F601208821253CA2E41E0444831A6A2F69
:103420002688DA521639C51E019F5472130120F204
:10343000781A661AA8C5C910D570A8C034215CD204
:10344000D64F885904E58B2D2686954536EA84E5C6
:1034500011CC9DB44797798119A65A58A512C90D68
:1034600059446263573858D416664F7EA9D79CC713
:10347000E0B0C70858B2704460261DB127847D8231
:10348000C9C955587DCA0979A4F2F46953386CE169
:10349000E6938981AA0827A084FFA8D327966E21E6
:1034A00003413E34118A449F70C5699F9F5229EAA7
:1034B000B080865AA54B5EB1FA68567C4D4A40AD45
:1034C000B612D44613BA5600D1279BFAF467B19FBF
:1034D00016CB6D955B6552C9AA7981BA84221AE42C
:1034E000B015A59F1C01C11610DC3A500DD4EA1A84
:1034F0000A1B0EB1E0094FC7F0A1830E2AA860860F
:1035000019419CEBAD984CD5D8D6084738F9E5550C
:103510004B44AC48AC398DD02E0495648CA940F452
:10352000D61B4A281D34348327EAE540C9BF3A88B0
:103530002146C066F06130A0C1BA69635F23B0A0C4
:103540008BA3109FCB49A4CEB2B0452532683C1066
:1035500023F57AFCF10607958045088F986C46C0E4
:103560002AAFAC822366209C988B0A9BA7130B91F1
:1035700000AB48C44BC0BAF0B33F4712890C32705D
:1035800031D0B44553FBF1C7D612C4410C4B237064
:10359000C71D033F1DB00E0A98FF31824257D35812
:1035A000A39AD1387B29665849AC41B31697AD8BA5
:1035B0002E6883306FDB45BF7DEF40379430430189
:1035C000870C434915775022FAE8948CF0E44F0CAD
:1035D000765571269F6CC145AB5F9F9BEE2593B6D8
:1035E0002B832E5C4400F9C609744CB9E51F879CF7
:1035F000802340704048018398F1F91DF6D9773750
:1036000084A88F67DEEA041C81B69C12C34AC123DA
:10361000231D51892E9A9405B92EF3FA4EB9BD9601
:103620006790001F3F723003027C9811BAFC7750FC
:1036300081FC2083F436C8056E258765BB9FE89A18
:103640005E2206AB4BF4A57ADF8B8028F8700A3532
:10365000B0224F0960DBF9D067B92004411009E8B6
:103660004116805000041CE20E62F85C014678812D
:103670001084E010873061082E7081191042732F7A
:10368000044204E4F4B5896DAF7610D0450450418E
:10369000053FC0445E1C9BA0DBFF80170A0B5A301D
:1036A000013AD020212E903F0460010B3198C10CCB
:1036B0006230C227626184527C21073820431A9EFF
:1036C0002B563423402A7441112A24810E9660819E
:1036D0005C2627442216D1880572440F7AC08102E5
:1036E0003CB1005A2C41090831C51844D18525E068
:1036F00022100895833D8487023B0BE3A5CAF80599
:103700001E38B2261134DFF9882801380A648E2267
:10371000E0831F3890051078320B59B801108AC722
:1037200081408E12489DDC812179B22003D6CE7A69
:1037300030A0C2290021814D6CE20B108CA4108DA9
:103740005641230E04043D2003CB022682628A6088
:103750008E730C25A1CC16811D4460950FB2D12B20
:1037600065A0092AF0C196CD408104CA5010494E87
:10377000D28D16CC25A17A604C637A1299E8144553
:10378000590AF31756AA690F99F059242852866CE2
:10379000A20005CDA0817B06C2FF066F4EB0064495
:1037A0002842113AF0B102152408BD21040A07711C
:1037B000082CCC0094E89CA3260AA34AF52C686147
:1037C000AD9B2748EC794F4068A1206DF067D1246C
:1037D0005084492CE0A4272D021184E7880CB8C13D
:1037E0000F30D5C50607298A1E8802049128540F78
:1037F00076A08989B2734F0F9294C558A10B1E52BF
:10380000C19E7FF88304E8E007908AB4095228C279
:1038100049313155AA2E60120288826540B198085C
:10382000704117140DAB5829FAAC48FC653CEC69A3
:103830005D5141B209A4A2C012DCEC26E5486AD26F
:10384000AA62E2AE78B5EA028A200549E8A10351EE
:10385000781C587760036424E3B0D4E0DE08B8D263
:1038600015AD7D827035232A48A850CB6CFE01052A
:1038700080584353E55AAFA8A27401790DED5D3F1E
:103880003B0981965400353850343E60D8C3DA8005
:10389000024C5A1179D0DA308BFFE5B08CB46CEB66
:1038A0003D6F19D78234610325B5AB68879BD793E9
:1038B000D6F5A4593D0F7946B2060A54EF50EE8C66
:1038C000C6B3249B012AF00010B4CC66335C90048C
:1038D0008316440DC40D6F783F0B5AAA4AE0389501
:1038E00051C4FF08C08A478C6004AB64D01E8E5060
:1038F00054813412BB12C82620BED0DB82BC011515
:103900007E500378F14AA9208877BC5315302B9A52
:1039100094184F64221323A0D05D6470046C6D650D
:10392000B3095883251C09085B5A2209A768084572
:10393000030CDE20C880007B60415E0D7C60BCA66D
:10394000940A3B288B282AF1891A13E0BD9F6866E8
:10395000612AA1AF0A0984069670810B3ABC5F2DDB
:10396000ACB1219C118526D4A04EAFCA14135C883B
:10397000C4E32AC1E203A7140D938DB1576540AB90
:103980005AED014138788D409200E40D6FC2056B0D
:10399000E8AF432230822DA0C2FF2C9AE0429670FD
:1039A000B71851B4D8C557158004260B921EBC0B0E
:1039B000021048850CC60397EFECF70B2E90000D14
:1039C000D6A0068DA06207538840241EBB05F029AF
:1039D00050148638C12732B1A7635479B8C89D6C9A
:1039E00010924005C8A12D129A409B5408126434CD
:1039F000EE37094796084545C105161055135DA5D4
:103A000000A508F02C086441BC6A38059FAD296CFC
:103A1000DD81AF2EFB24C8172CB1862FBC3A971935
:103A200099F557050B813DB4AE12A8868168836D68
:103A3000804E1CE00051E1331F82C0123E3424034B
:103A40005F58C31A78408724403BDA8541859275D8
:103A500011091E633B77A860B1808320042104E034
:103A6000019D1002B8F94C514F50F4216B4842129D
:103A70002CD16E0CD884A25328CBB47347852084F4
:103A8000380166E9B7C6BF3DF02C8B1522013E45D3
:103A900012D670F1875354DE5DFF450541F8C0052D
:103AA0002B78C0039D8879CC3D600044BC800F30EA
:103AB0000EAB4454A0C9921B45ACC916C80EAEF15A
:103AC0007298CBBC131EA883CD51A0056B17A639E5
:103AD00036094225AC60830750831A4787C41FE626
:103AE00080883FD0211A35D612D44D1201AA9BC22C
:103AF000EAD440466B93C1759B5B62BED51BBB4944
:103B0000846083AA5B5DEDADA50622F6FE0240B49B
:103B1000EB59EF963B44CCFE80BBAF9D1A2F48FC7F
:103B20001F001101025008C3828FC801A86EF7ABB5
:103B3000ABDDB549BD2C20AA3D12B5453E2381A081
:103B4000FCD92D8F0C6A08A1969B008425E0CB241C
:103B5000F27D5E224208BD15285F771B0400BB8002
:103B6000E0019A594F00D7BF3E22FE96BD150221B3
:103B7000042A58E2F896483710E04B21DFFFBE23B5
:103B8000C10F44000E40852F58DFFA696641843D1D
:103B9000C102CF3F1F226F80C1FF0162A98591AF93
:103BA000810E6BD0C229781C618641FEFB0D011F7E
:103BB000482C5E863268410B65203797234C0020E5
:103BC000C2DF21B8A64E20A14930656E54100947C6
:103BD000400099603DFF3711EAF4684F974B9AA077
:103BE0007DDB17789FA706C7312BDE9500A8C00A9A
:103BF000A2707005D119206223230001DFC725D0F0
:103C000033380B2366BAE3532B4116BD02215B41C7
:103C100000412778D1601A4B01384D3133EC918047
:103C2000D2C55EBCB64F2A000123F0086AE209AC97
:103C3000F07B2B522E6A012E6D5131AD0361EF9551
:103C4000028D261011900A37862390C36B0E2777BA
:103C5000CF010A10C32C06543823C03A96C202374B
:103C600086077450106EE0559100012CF009116622
:103C7000093508199F808389832E4EA135EC720483
:103C8000A9C00A15F60574107447D04E85730468F0
:103C9000380234207737981735FFB438AE3412170E
:103CA000033427807ED05609FAD122BA810358B254
:103CB0000672B70714E08861034650E88795507E86
:103CC00065508709300297C084E8A22E9F608173F7
:103CD000E10942F22AB1D21676720409770AAA28BB
:103CE0001041800360183BB2030A802177AC8883BF
:103CF0008B838B94926EA9F81049F12760F3458F5E
:103D0000B005BD38165CC22356B20778E00234F025
:103D10005111B107A0903860F32AC70076BC031A8E
:103D2000749002D0430125D00CAAB706B2E85F8F89
:103D3000108ED1F84521F20932B081A0F10680A0A1
:103D40007899158F07210389228CB21329145209FF
:103D50009F2178FF62125BD08ADC62253553096AA5
:103D6000D6800D7104C0A817B06225DD038F141929
:103D70001116A91498B187CEF205DED8910FF1750E
:103D800042A21BEF94022EF005EA6392E027012F76
:103D9000800D8DD00875804FEF10588D3069103A26
:103DA000700ACD966E2F491501010021F904090F03
:103DB0000006002C05000600500055000008FF001A
:103DC0000D081C48B0A0C1830433C050042A09C2A6
:103DD0008710234A9C38F1089548A02E61A0C8B1ED
:103DE000A3C789235051A1F268C4C793283DDEC000
:103DF0007189CA271C231E3D5A30D0D1B1638E521F
:103E0000EAD47983C01E0AA072DC3C46C1D38E91ED
:103E100053762A3D09E11827459C341CBB44618434
:103E2000A89154966A85F826821B03369F2A6278E9
:103E3000496634501A7088DACAB6A023183044BDD7
:103E4000B9044A2CD968D18E7DE2D3B6EF4054A88C
:103E500076EC1085438386A79A34E1DD13ED93DF7A
:103E6000C77C7618E04300ED6145A24445D0B4C755
:103E7000D391C77E1B211832E4D23150A83FED40C8
:103E80000557D4A7CFA0D93A42C0A03602A0A08E31
:103E900009E552056E04C7B1979A2E3168B424041F
:103EA00038A68E268D00046B93C1753A327D2C089E
:103EB000805500C208327D68486D06080EEDFF8807
:103EC000009DA0A3274F162C28A3233AC205A67352
:103ED000E440D06B9585303A285CDAD1038191E3D8
:103EE0008794108D27370CE4090E2C5DA220827870
:103EF00035188D4C089A05DC568EE040C169A054F7
:103F000002C220A43D72D325D711035E081CE03500
:103F10004210653C42C18543ADA8E0250952C52247
:103F20005138EC41404E5A45431D6A3CA2C6C95324
:103F30000810635F1861C84108839E8CE0098639C8
:103F40000435D49337F528548D237C92C5529FE8CD
:103F5000A85B8F688DA5C8128A44321A0208DCA0BB
:103F6000DF239D799224974241899A61868142019B
:103F70004C0410B0C55207C6C7A5613F42F5632681
:103F8000044413E1237066F489065C06D5E49B6360
:103F900071921B0ED18C40C0272CC8B0D30D7B581A
:103FA000B8E59B701E1655A73FF60915A214EC91B3
:103FB00003A2895AE625A98F789209A547B0FF5236
:103FC000501B4D74C0110B99AEC881197E70D0681A
:103FD00054A1DAE5A5978E4EB5C71171EEA9C1B00F
:103FE000B9A129290B471C914A0604D1DA442815A6
:103FF0004CF449AE3788A1830A2A98614610C396CB
:104000005B6E5439CCB9C727872A3BAC06395C3282
:10401000E0A4D16EC1CA2904D5D0C4BED7B211D193
:104020000C9EE4A58D0A3A60A0830E6284CB0798AB
:10403000E6FA69985065D9C84AB2AA7E09A69C03D7
:104040005679C4161040A0E1403EE8CBEFB5B63E2D
:1040500034C3058FE4A08D19DE1E8C30C1599CFB42
:1040600063B25341EA899D185AF6D412604A452535
:10407000012CD85B092B95F83190B5235F1B4A289A
:10408000089510031608F4B0CACA6680AB0206642D
:104090006823D6CCA8E636D52378DDBC45253C5E22
:1040A000C63354C7D80CB4BD32C850890C6F1C9DA0
:1040B00034BF4B87828241401012430824A8FF324C
:1040C000B53680AB6286367774DAF54DFA419AF1EF
:1040D0002710E882A8D9676B4081B3AFB12243248F
:1040E0006D5B2AF7DC742F5DB240590051C20C01A0
:1040F0009AB1CA1DABA44EF81637C9D7228C3880A6
:10410000DDD9B3327CA2B3C58A4845F9119544A2E2
:104110008B2E98EB3250052273BE6FDDA148301014
:1041200008377030C3202ADC718736AAA07E039935
:10413000831C72817E309A95B1A48CEBF2E6CE603E
:104140003A4A41A404C4EABB265C601EC1D1C51B27
:104150008FFCD2ED19A0430F3710C2E10D8483B05C
:10416000F7052138C4200678880216404D929A142B
:104170000B58000451548C678E2ACBCD58D03B4D40
:1041800064860B6FAB56FC8CA7B4A505210803E928
:10419000010848571C040C020B31284001B000C034
:1041A00010B8F00258C0820A6330831910820311DC
:1041B00018DF582E36B948B1000291B0201FFF9485
:1041C0005086C6558B83239BDF073F28901EF480C3
:1041D000034F5321214A404542CC20852A2C400DD3
:1041E0006D48450E00C14CAA3A5B4628D7B80888EE
:1041F000C40F49F8C216EA27900D7210794B04617A
:10420000136100020E70E00678BC0110EC58022B1E
:10421000D6708A25B02310BEE8C06330C642B99B71
:10422000DC1E247584484460246A588325D6A00681
:104230008230C28D9C0B450743B1C4816401046484
:104240000097B8CC2082528A202E20D8A317BF888E
:10425000C72C38D01387A48EBC16F99A485C850AFF
:104260003470012000F1855961527E758B02133D37
:1042700099851D88C011643066299DC84CFCB532F3
:104280001220E8410460F920AA7C8D964790C12D48
:104290000121814D6C820795D4201293D68672D667
:1042A0004D8E0309C268EA58820086000B33C8426B
:1042B0003345184D2E08869A163AD3CD1867FF4B12
:1042C0002AF06113CD40010A9AB10683200D893589
:1042D000904212263189246C60693C30880E387017
:1042E0000118C6E086598844166EC0CCCCB02F3079
:1042F0001008184B5654A35701F1960145C11FFEF3
:1043000000082518E497FC924211D44353F5144158
:104310000A1B10882332E0869E064117828141479E
:1043200041405451F460078981C13DF7F008AA4427
:104330002C13B1D28548A820D095FE4102057DA955
:10434000F1A2208049D01413EAC1045817D050229A
:1043500044A1491148AB26802A18C11C2010367888
:104360004000DABA035630D227F9A4120B5821D5EF
:104370009104D4AA28B044382DB9C10E2C34AC62B3
:104380004DAC62C7BA8022244100492882006A707D
:104390008C8C7DC009C9C8EC0A3E308211084A26BF
:1043A000A08DC622D594BE4A68022B0055E94A79F1
:1043B000A00536C28F5F4448C257174B5BC6FFDA71
:1043C000D4AB6495821D16B49811008A5D9F809DC0
:1043D0008256A49F2350AA12BA402D40ADBA892F0D
:1043E000E0CBA0A19029626B4BDDC5D654AC0B90FD
:1043F000421D1CF4A008850D689558240B02B607D1
:1044000008682208239140379BB1D26658420B3886
:1044100032C802AA4B5FEACEF7AB6A984401BAF7FA
:1044200088047977915B3802043C2BDA23E8E00DAD
:1044300054E0E67AFF80024050F2215751831A146B
:104440009B0A989CA0BEF655CF634501814FD429A5
:1044500013B0DC439A485B09E37696009510C817C1
:1044600078A060F64AE00BAD7D880A044305094F49
:10447000581395A8930C121B89405D18C3364DC282
:104480006036A38B4F74F6C8276605048CFB1A10A0
:1044900008C4122E60B10402CA830747840F11803A
:1044A0004104FCA006CD44E07727F89D2E121301AD
:1044B0000C27D6A644F8200D82D0830E0397FF5216
:1044C0006DAB4425B8E06481D000CA3C98322FB56A
:1044D00040AD89F0E108D1B0E066B8A08B68AC2FA0
:1044E000029931B362C99A04295021084918492414
:1044F000022C602E107A2D0459830B2C6109403454
:10450000830774288347DC101818E0B8B332E04200
:104510005A45018368D449499DADAF1AD08B157FA8
:10452000AA6124A2B020A60BA20309D080063CD821
:10453000C42407CB1147B45514BA68241712B356D4
:104540001B510A023228336D25EC870358BBD67401
:10455000CD364258FC054BBC3809713B890E8EBDE7
:10456000D6DFD58E00D01E332A822056099F220B1B
:104570004288B7B58570006C675B300FF9820BD647
:104580004083176B612329692B2A34D33E39474274
:10459000D5EB76B72334118178CB5B081E5881BDEB
:1045A000B5FD102DD0E00B7400041DE0AB1481C7E5
:1045B000857DCB960B413623042B78A01328FFEF83
:1045C00084071E808817FCC11247A0F8431C41874E
:1045D00035687A0D31564A6404C39ACCC0A0207E57
:1045E000D005172071F294ABDC062D7F79346285FB
:1045F0006F89A8A10C65F8C21A44DD96C864C5206D
:104600003B8806D18B9E720F58011188503AA584C1
:1046100047117F06E1B9EEB19F0CE0FA006A5063E2
:10462000055DFFC01C5ACE8347B0E013294E3B4ABC
:104630003411001B98A2ED6F5F4166939102B0BFE9
:1046400040028F8040FAF48E92085821AE6D5F814F
:10465000E4076F09C36F620447C8040B5CCB788A18
:10466000C015F26E9F7C3256F082D2FF611311208A
:1046700080273E61B4CE7344078F077DE0334B0D36
:10468000C04A8015222600175CDF9140C41EF492B8
:104690005F8115BAA95E178C20F764E7FD440E1000
:1046A00000DFFFDE063608C41A76C9034BD0E1F8F6
:1046B000368A84F239C2FC40383F10018081FF24E1
:1046C000392DF52060FF13DADFFE441C2184E683D8
:1046D0005F0854F8C2177E2DF532B0E0F8AB4FBE3C
:1046E000FA23E2881E5CBB0C49607335A7056AA0FB
:1046F00009F7972447C017FB27116336124A700A3F
:1047000050A7055A50064A40053270802390770B17
:1047100018110C971923C1077E10827CC107917074
:104720000404300295B281129119ACD656F6337258
:1047300047D0599D71251B78022296240470026C83
:10474000840AAC200A2E581030C0022A92369EB13C
:104750007F99A02988032391021B5F664F3F281091
:104760002070047B601A6531027DC67B798116A1B9
:10477000822834023698172875C20A7582238E90D3
:10478000633A82039EB046CA370240711963C185FD
:104790004AB8385B900947860783250A956064E923
:1047A00013093D460000A77797D0243B3316B95133
:1047B00016A2053ED0C20227880774C06B44FFC60C
:1047C0000A0BA42496105FD1F109A7B12C5F923B8C
:1047D0005F9331F40201AC605CD6478921F520A2D9
:1047E000F5892768098CB707979889521131FB24FE
:1047F000606F730235F787021104D17021A831254B
:1048000093925569F7135DB204E6033649F21A1E16
:10481000A30549A0069438109940176E082F97F009
:1048200009B4181D9E1088A0001572228C1AB306B8
:1048300049700AC948104A9032E4533EA060688C1F
:104840003702A66119697388042075C818119F4042
:104850000198C83362F4085B106EEEC101C9D1241F
:1048600053215A78E0025F407512612A3B248F6819
:10487000F308E8A7776B50072C420125D00C1230C3
:10488000499CF7103AF008D5288F91733E9F20037A
:1048900068171D3AC0037FE07255168D1291058589
:1048A0006131919336EB520934C87818D08D14C118
:1048B0000A38508DC3C209FB88829500902A4A1895
:1048C00011471093971115FBE82A47B006F6989305
:1048D00010B1051ED229E9E22CEBA8054439116B71
:1048E000708B8B724D86E0023470854DC91512F0C5
:1048F0000250204329306512B06F11799512A90634
:10490000F34703A1E6923A11100021F9040964006B
:1049100006002C05000600500055000008FF000DA1
:10492000081C48B0A0C18305457952740CA1C38707
:1049300010234A9498850A1502143C4DDCC8B1A393
:10494000C43D3B2CEE89E6B1A4498F8F286CD982F7
:10495000C3130E1CD19208DC730CD4A49338734695
:10496000C3910314A81CC78E650C490555CEA32519
:104970008380E2A4489186633828443B667107D25D
:10498000AB0F61F8D26460D2D2A68A405D7AF46837
:104990002A503E58D31674830A150C37C734680062
:1049A0009B0366340AA9D4EA254865C71D2A11402D
:1049B000C9651A2182A6682359EC5DEC0855239A33
:1049C00082357082A1D55704029E8E2CDE8B6088C2
:1049D000E747357D6A8051C5AD2F568A37A7B58325
:1049E00080816B0441850E42506087E94FAAAF5E1B
:1049F0003A36698C0307276604BDD0DA330220A853
:104A0000F68CC89D13C3EE638D00AC029026090599
:104A10000A875CBF0EB1638F46E626273DFF3F063F
:104A200062082D0B8B3C5D7763A1872406082E94CA
:104A3000DD7363A023972F5FCEF7C47FC408FE9E6B
:104A4000ECE19D1A7A3912556C39C810C90D9EF4E3
:104A5000048A21634CC7C70531C4509627F571F00D
:104A6000C825D77578497E20E2700987147CE8490B
:104A70006A57ED71600E0EFAC45453372000802D32
:104A80000AA011C3883828178D2741B10854501D3A
:104A900076D8A34F405D12CD082C3882D427D17030
:104AA000189A4F82BDD8542A59DC60A5271F22C608
:104AB000E21E044049646C603A281728502947C018
:104AC000164879B2E1905ECAE5E69B2F698083645F
:104AD00072D5F589065EFAC822949CF4A9410E634A
:104AE0008D40C0272CC890D3162A3AF9E6A28BF63F
:104AF00029A5229CFC79C908637AD9E68B9C9099F8
:104B0000A3A0844250500D4D74B0D1278952228603
:104B10000A66A41A44538E82E52A58916AFFEA096C
:104B20000495B62919584F5DE2DDA02C1C918A121C
:104B300003BD006A13A1B02111A9388062860ECC92
:104B4000AA80AA191CBC2A2DA4781E33D6898FE00E
:104B500069AB949952F0882782F67A0404590CD4F0
:104B60004613E8A21B8A0410CD80C58694A8C0AC69
:104B70000E8EE8702A254B4CEB67B514C0B4C727DE
:104B800032D43A98224BE4FBD4A604F4BA122B5C3C
:104B9000989B6EBAA184528143EE1E82C02A9498DB
:104BA0002106B3A70A62C65CAEEEEB9350385C48B0
:104BB00000ADB6129C2F2780EE38E8B8AC405049C3
:104BC000C3020DFB30B1112354C20C3120A0CA2AFC
:104BD00077502274AA6650728CA36E7E696DC98864
:104BE0008DF0092B4FDEAA72585281FBC9B895642B
:104BF0005D090802F960F3CD118712854140EC1C74
:104C0000C2206600BDCADA18DF61A9D22532ED9D47
:104C1000D395CC19595305435A66B85B28FF2843EE
:104C20002532F821501B5FDF8C7328A20E94C10D32
:104C30001CCC70B61941AB70C71DAB60B144A64027
:104C400096F8A1DCE00A7A4424A2DD5AF0E5A0C07F
:104C5000146E2A32E8A24B240A3A6C38D8616F30BD
:104C6000901F200031C32133642CF42A330CE23B23
:104C700002C0233008D3D1ECE81F018356A249E8D3
:104C800078E74BE6B799B0D0B72E5C70C1BA2EAEBC
:104C9000BF0E71D811BF31500FA2701042F0871CA7
:104CA00082450C585C1042F9E58710C20517CC50BC
:104CB000027F8D13C245B203E7ADA9729F4C1FC19D
:104CC00056AC135CCDB46738EE0521084A320015A6
:104CD0007A5002F51D2204319881042B943EF85D30
:104CE000E07C158AE00C0851020EF8024F5233188E
:104CF000548E74B5D44540147E0802E006C288C2C2
:104D0000698F7BA138601080650010F400081CE0FA
:104D100020073880430E94801013D42021FF38D808
:104D2000411E82EE6E793B98CB8E20032E88820A3C
:104D30007C50C31A8E50AEC1B9F0856113C00169B1
:104D400068005F50410559E0C00D7A404610540993
:104D50008740D4E10E8100841B64E1113E198988EB
:104D6000E232424F44AF894FA4821AE84083BC9894
:104D7000EB8A053C5C28D41004EF0964413B1081A8
:104D800020D2E00811385204A820630FB2C0C63602
:104D90005A290B20E0022802B4132765295C32D07F
:104DA000844592F0054B0082034120C8B908584061
:104DB00003EA80204014C5231D79000E64419264EB
:104DC000CC822EB3108908702102FC91230548760D
:104DD000A48431CC2234000420242081357C8A959F
:104DE0000FABC126042085C319E40D5818C220DA80
:104DF0001741318E5192A2008161B8B00308703220
:104E00002AD7D95409B960914D34A3192840010D0E
:104E10003240900A00F2611D10401126B1FF804916
:104E2000148108393B48107A08044CEAD24A6DC410
:104E3000A4283441CE1DF0A793E9242113454985C8
:104E400077C613059B2843410847C050E8730120EB
:104E50005D0026425A04018442208EC8804A0FA871
:104E60008B1DB8740A30C0650F50E1524D68C2A561
:104E7000E61466BF9423BD4878910A17FDC31FE46A
:104E8000F94A555E7113FB142926960A52A682B47C
:104E9000A4356844013A6008C3B4D4A5017840320F
:104EA000B69A0C1BB8D4A5C7BB1A0B44D42F12A6B4
:104EB000C2A716B1443C85FA074068C120AB4CD765
:104EC000068A10D2A5DAF5AE7705A93F935A840E6B
:104ED000108278DEE99C7F3875844C90453FD1483C
:104EE00098D320C0852958C4A26C95001D04A8CA77
:104EF000744981AE4AC5AB669D1A527E92D41B3965
:104F00002A5E2747B43997F58A007B88DE7F200028
:104F1000814838960A8080EC502DA15183FF789407
:104F20009F9BCDAD6E439AD922D481B4C3B4166988
:104F30005F128D4C7C6250041881803EA18B1E58FC
:104F400044029B70270A860A8824A4D22018D0AD78
:104F500076B75B5735A84140237944C9CA22DA2382
:104F6000B160509F18EC117A9001D832D39D42DD88
:104F7000C4176A7B9029A042096AB82B683C118447
:104F8000EDE696A444288C2F7481190001886F47A0
:104F90003802A1B6803D037C8107CB846F332C613E
:104FA0005D87F4C536F855833875B18523F417133A
:104FB00059D8C2864EE0DF912EE09F41F0030FA842
:104FC000A08BE312201323C8C4A0FA16B34A44826C
:104FD0002B02A1018497094F40CC37227C90C1D588
:104FE00040208AC2684217118080EA3451185194D7
:104FF000D8A925254214D560115D5422C147A81EA9
:10500000F54491408158C212109640332440830ADF
:105010004B840F80DBC156B8C0610633F9FF7F2097
:1050200058AA1A32C11FEE9EB80816A1420A2D02D4
:105030008308546607622848295DE082D8FA580B35
:10504000459D881B5C8A0A2E40800047D0C59B7D09
:105050005109412517D210D0AD774140943C7FF5DE
:10506000D33BE8F240CA20014B2473139658037DCA
:1050700037E288AF0E5841363DB24421104A3F68AE
:10508000560D4A10C2A7F35C951D4400D407710465
:10509000202CF105179039095CEC880EBE5A643655
:1050A000EB8215904E9D2644F161EF0661DAC9F05E
:1050B000402756C0555E83FAAB0E31251D2C218149
:1050C0002F2421D125F92A2A9ACD3A69FBE2806A58
:1050D00030249385406F211CE000565801225ED099
:1050E0005602F802D80E19370DBE00083ABCF52852
:1050F0009FD68A61988CEE1A6A4208D9EE84C43B26
:10510000E1016AECFB0F3CC0C1E7C0FD90377C6158
:105110000D0F36B8A84F22864FBB05060DFFCF8076
:10512000A421A1ED8953FC01177781C62BE1D2910F
:105130001F24095A4842AA0FAE96860F4414D1C8BC
:1051400076CB27EE011B20021118C701A11A1C11F2
:10515000372841095A40347804A2031904C0060FC5
:10516000A006355640742BCC61DF80C0010B3E5148
:10517000098EB8810F869CBA2E846003AC6B7D05C6
:10518000DCCEF6078EFE0209E0E0D19A99BA497C9E
:105190006105AC671DEE714F460AE8DE8C111436CE
:1051A000497A2F4920DAFE80AC6F3DEE2BE0C10B2F
:1051B000F8BD89CB78E213944DFC46FAEEF7B7C7F9
:1051C0009D1AD38DA70420202002305DF31309041B
:1051D000E73B0F782B4097992E502E9722817A8E9D
:1051E0001C2000AA5F7DDBADA00565F2C0127490A3
:1051F0003D010C55FB8DDC3E10B90F44006050861C
:105200002F137B0D27103EF18B2F11470801F7CA92
:10521000170215BEC0FD81AB9A05B2FF04FFEDA9D0
:105220003F114750E1DE54284312D6B0063AAC4154
:105230000B6AE04261F9C3021C933F2292B6C80C8C
:10524000CB5086A89721085420032C406723C00A1E
:1052500069777F0FC164BE90477CE0070E881662B5
:10526000C061C94576F4848010E10B0B48532E656C
:1052700000E8260A8FC649B86181DF35370470021D
:1052800004810A32F06F1B58103A8028C364249FAF
:1052900060738947000702249F947711A03A9F46C4
:1052A000108EC00A5842329E307DA83715511229FF
:1052B000FCC23486C724C8036D04D0652DA62239EC
:1052C000C20299977823400151822B649225C6D35C
:1052D0003F30E61F294020021180E70569BD745C5C
:1052E00032A81A97D0134C912F61612DF31163846A
:1052F0007204E73502524007065164BA200309E6FA
:105300001F9620087AF709350132223416C6F33287
:10531000A9C00A0A460374206A7E3002D1FF5016E3
:10532000232064C965093EB71990311783F808BB7B
:10533000723532230327E07E0D17047B304C5F82E9
:10534000038362877A378A824130DD72214EE32BF4
:1053500095907365208304700957E81480F2096002
:105360003875EAD11390020A65052E90B606C87604
:10537000861CF80839B086799329D12084CC310273
:10538000BB11192364261F378B10C102142088A378
:1053900013161A7780B94183C7D013D6821852E00A
:1053A0000234C07310D120CAB88D39F008E2A77753
:1053B0006B2005C14501253066A9568908110DA04D
:1053C000A032DBF814D10030D7051E6F000893D748
:1053D000566B808F0E110473C28F2294234F534556
:1053E00089472F265137FB18322D7379ACB06A16D6
:1053F00008112CB18AD47291489204DEB8910E2122
:105400006271E12639B05382626E2439116B7017D4
:105410000E42327BC001E6986C2DF910191F200155
:105420002FD0084062072820013C400715789313CD
:1054300091016B00663C708E08691201010021F930
:1054400004090F0009002C0400060051005500005B
:1054500008FF0013081C48B0A0C18305B350E1A4A5
:10546000C110C28710234A9C489100152A9770E802
:10547000A0C8B1A3478A38A65CC431E2A02343493F
:105480003EAA5C8910080E1C911E5D8AF6F2D1A41A
:10549000043A345101B191A54F9F40F65000A50147
:1054A000540E0A1412C9D87131D2CFA72B296850D3
:1054B000441554460D894051991204AAD788307C6E
:1054C000694A20951355458970D0F474294B96AFDD
:1054D000700FA29A1B610451B38A3450504B736C05
:1054E000DCBF04A7ECD0B1C3AE060D9C7C45587C54
:1054F00064CF1E25802327A06268108EAC8739A157
:1055000082113602AB119025C7758480C190213875
:1055100040A9264A60C7665F91BA8A863B6888E9D7
:105520002117721C1D8400C120D7308E6C99EDF5B7
:1055300012054103C60C30A32B1185D20C4C23E07D
:10554000B0630F01E23F935C4A7404C3985500D2E4
:105550006CFFA170098869230C1060A9B4A72441CD
:105560001D8EA34573EC89809A9E091CE977347BD4
:10557000C4F6B4910CD1403651E0705430DFF136AE
:10558000480C8FCCF786409EE0601C52E465F4D254
:10559000852F5DA261468F6482415C65E090542254
:1055A00024CA90C50D4321E6C72AAB9493862037C1
:1055B000D4E44910D1FC47E28D156E88D48D39387A
:1055C000878375B279455352BAE9A6DA598A4450AD
:1055D0009B1EB865915134234469D76A46DD6865DE
:1055E000564415D5230EF57D22835723C894149570
:1055F00059E2C5100837DCF0C94BF2AD96080164DA
:1056000056C9A36A887162D44C2310F0C911FCFDFD
:10561000A44384FFE510E76184165A272788829205
:10562000D62787C5B91A6254D9B9577B9FECF9655B
:10563000413E345101472CEC21628A0C196A28A2A0
:10564000882259545A23245294A3905285159E7A45
:10565000B2FF70442506B5D14413A150F4094D970B
:105660009821861B2A98212C078A908AE4B17929EF
:105670004AC1239E6CD12895999D65E74C9E8CF07C
:1056800089AC47B0D2E74035DC8AEB26127DE229AF
:105690002866E860EEAFC19AB104B24826DA23B5B5
:1056A0002C10B02A9DADBA9A567B0460BB4525F8F4
:1056B000258044B7DE86124A1410C510034994A809
:1056C00060EEC26204CB6EB18DBEAB96279F5432A2
:1056D000EF5D8A2CB12E5613EB79442AAC4020C3DF
:1056E0008303D9EAEDAD0287B2E941336071080363
:1056F000ABDC61861B62A02B871914B41BAA9B1C10
:1057000046539FC58F4E95F1BAA050E0B3B51F57D1
:10571000A2B40CFD9A7C32AE02777050092D23C0E2
:10572000C71DAB5082F51D9474AD6AA16E3AD73394
:10573000A595D02BB4C679DD9BE71122CB2043255C
:105740009772FB74C029834B1010548780801931E5
:10575000B3FFC8A2D68252D9A3D84F1E6DAD0C4458
:1057600061ACF1127676CCC2BE91E8E2B653037515
:1057700001F0DC28A74CB04068723083DE66706DA3
:1057800086D677F0D65B6F4B685853837B549BC9A2
:105790002710E842A7598B2BA2A8CFF96E21832EA0
:1057A0005CE812890C7E09E434E62917BF720F20E9
:1057B000004188DE54E8A03515171C72C820D4FBC0
:1057C000463D16F3B51E65AC32F832FBD0695F4238
:1057D000E9ACBC47C0C5EF240B8FF9D3C50B1C64E3
:1057E0000FA2707081E9081C62700C585C10C2FE38
:1057F000FB5F70011658B8DF0C6650024DD08B2A43
:105800001B4B0B942CA58B0888C20F5CA804E5E405
:10581000B6BECCB52F084120590F7AC081FC1DE2DD
:10582000023198012106683000FEEF7E211421210B
:105830004A0004C4456B5D9CC8C1251E611DF2F978
:1058400002067C504212B6E0078230E272EB6B9F98
:10585000FBFF30289B1EA0E2069120040780C04475
:10586000207080032518E10C4248882A96E0894080
:10587000B8812854231F1CC03007131B010B2AC1F9
:1058800005515C440D74F842DC840744E209510080
:10589000441C8828A6102C27DEA0075310010C22D8
:1058A00070222896E08A4B64221241E1893D44E34C
:1058B0001122CA0AB5AC153B1850810F6BF8820B48
:1058C0003E1124F555906EED2B02060712891BE45C
:1058D0005115699083084629820D9A320B594CD391
:1058E0000DB2003F4F14724848E918EC7421123A87
:1058F000B80010120084160CD2C60A0A31141924FA
:105900000807100002528E720683F8A029E1E7967C
:105910002C44028F3B78A5849042AD7CA52212A82E
:10592000A082162420816634830619E0E5254FB64F
:1059300001012421099B48D9CA06E28819F8E6101A
:105940002100E10C807022209832022010852676FA
:1059500010FFCD428A893C50CA57257491CD4D34F1
:1059600003050895801A0C62B9713641004598C448
:1059700002263A0901080C216FB88120410002B7C4
:10598000A469A33DD8273F5DC92BF2D0305FAC207E
:1059900028152C81D03FFC010596E8171BD7170569
:1059A000884E1413379DE8028A6051813822034AD9
:1059B00050821FFCA00B7EF273331B84012A8C2AB9
:1059C000D27E7ACA38D53C02F02E528696BA14108E
:1059D0006538C8F0BC258522E8141360C5E902C00B
:1059E000AA539ED620079C400304D806015F2CF5DD
:1059F00001C848865C936105A3FA221304D0D3162C
:105A00000820A28CD447AA3A79E4415DFA874DD0A8
:105A1000A19214C4954DC73AD6B03AF6B1143DE7F9
:105A2000242ADA04A34CCC95AE6C5DB5F2548923DC
:105A30001CF211ACAB1401A4EA0BAA1A14052EFD3A
:105A400066560D52816E112109377DAC6C21ABD3A6
:105A500005FF4894A2449090864684A32749698C08
:105A6000C221802B017B113E6CC2A08405C41A1098
:105A70003B90D93AF7B98EAD2D593771210A6DC8CF
:105A8000420BCCD3274660484F1C210241A0821A0A
:105A9000B889DC3F48E00BAB45881FD400DDF642F7
:105AA00056AC63558300A26448D0CAE7BEB8CBEBBE
:105AB000273231024F6482563AE0032EB9D98C97CF
:105AC000BA60B910E1E71494C05E4C44405C9EA8F3
:105AD0008463D5D0E0F652540022B9C811FA8B592C
