:020000040800F2
:10000000A0330020C9F800080DF400080FF4000820
:1000100000000000000000000000000000000000E0
:100020000000000000000000000000008F690008D0
:1000300000000000000000007B7E000811F40008B2
:10004000EB7F00080F840008E7B8000863C60008CB
:10005000CFCA000849F4000839F4000819F4000870
:100060004BDE000873F000084FF20008A7F8000804
:10007000B3F80008E5F80008E7F80008E9F8000818
:10008000EBF80008EDF80008EFF80008F1F80008B8
:10009000F3F80008F5F80008F7F80008F9F8000888
:1000A000FBF80008FDF80008FFF8000853F400080A
:1000B0005FF400086DF4000801F90008000000007A
:1000C0000000000000000000000000000000000030
:1000D0000000000000000000000000000000000020
:1000E0000000000000000000000000000000000010
:1000F0000000000000000000000000000000000000
:1001000000000000000000000000038000038000E9
:10011000038000038000038000038000038000034D
:1001200080000380000100000100000000000000CA
:1001300000038000038000000000000000000000B9
:1001400000000000000000000000000000000000AF
:1001500000000000000E70000E70000E7000042001
:100160000004200004200004200000000000000023
:10017000000000000000000000000000000000007F
:10018000000000000000000000000000000000006F
:100190000000000000000000000006600006600093
:1001A0000660000660000660003FF8003FF80006A9
:1001B00060000CC0003FF8003FF8000CC0000CC00D
:1001C000000CC0000CC0000CC000000000000000CB
:1001D000000000000000000000000000000000011E
:1001E000800001800007B0000FF000187000187048
:1001F000001C00000F800007E00000F00018300035
:100200001C30001C70001FE0001BC00001800001BA
:10021000800001800001800000000000000000005C
:10022000000000000000000000000780000FC00078
:100230001CE0001860001860001CE0000FF80007C8
:10024000E0001FF000073800061800061800073805
:100250000003F00001E000000000000000000000CA
:10026000000000000000000000000000000000008E
:10027000000000000000000003F00007F0000C6028
:10028000000C00000C00000600000700000F9C009E
:100290001DFC0018F0001870000FFC0007DC0000C7
:1002A000000000000000000000000000000000004E
:1002B00000000000000000000000000000038000BB
:1002C0000380000380000100000100000100000124
:1002D000000000000000000000000000000000001E
:1002E000000000000000000000000000000000000E
:1002F00000000000000000000000000000000000FE
:10030000000000180000380000700000F00000E05D
:100310000000E00001C00001C00001C00001C000F9
:1003200001C00001C00000E00000E000007000001B
:1003300070000038000018000000000000000000FD
:10034000000000000000000000001800001C000079
:100350000E00000E000007000007000003800003ED
:1003600080000380000380000380000380000700FA
:10037000000700000F00000E00001C000018000025
:10038000000000000000000000000000000000006D
:1003900000000180000180000180001DB8001FF8EE
:1003A0000007E00003C00003C00006600006600014
:1003B000000000000000000000000000000000003D
:1003C000000000000000000000000000000000002D
:1003D000000000000000000000000000000000001D
:1003E0000180000180000180000180000180003F49
:1003F000FC003FFC000180000180000180000180C2
:10040000000180000000000000000000000000006B
:1004100000000000000000000000000000000000DC
:1004200000000000000000000000000000000000CC
:1004300000000000000000000000000000000000BC
:1004400000000000000000E00000C00001C000014A
:100450008000018000030000030000000000000095
:10046000000000000000000000000000000000008C
:100470000000000000000000000000000000001F5D
:10048000F8001FF80000000000000000000000005D
:10049000000000000000000000000000000000005C
:1004A000000000000000000000000000000000004C
:1004B000000000000000000000000000000000003C
:1004C000000000000000000000000000000000002C
:1004D00000000000000003C00003C00003C00000D3
:1004E000000000000000000000000000000000000C
:1004F0000000000000180000180000380000300064
:1005000000700000600000600000C00000C000013A
:1005100080000180000300000300000600000600C8
:10052000000E00000C00001C000018000018000065
:1005300000000000000000000000000000000000BB
:10054000000003C00007E0000C30000C3000181859
:1005500000181800181800181800181800181800AB
:100560001818000C30000C300007E00003C0000039
:10057000000000000000000000000000000000007B
:100580000000000000000000000000800007800064
:100590001F80001D8000018000018000018000019B
:1005A0008000018000018000018000018000018046
:1005B000001FF8001FF8000000000000000000000D
:1005C000000000000000000000000000000000002B
:1005D000000007C0001FF00038300030180030184D
:1005E0000000180000300000600001C0000380001F
:1005F0000600000C00001800003FF8003FF8000063
:1006000000000000000000000000000000000000EA
:100610000000000000000000000003C0000FE00028
:100620000C700000300000300000600003C00003C8
:10063000E0000070000018000018000018001838D2
:10064000001FF0000FC000000000000000000000CC
:10065000000000000000000000000000000000009A
:10066000000000E00001E00001E00003600006601F
:10067000000660000C60000C600018600030600034
:100680003FF8003FF80000600003F80003F80000A6
:10069000000000000000000000000000000000005A
:1006A000000000000000000000001FF0001FF0002C
:1006B0001800001800001800001BC0001FF0001CEC
:1006C000300000180000180000180000180030303A
:1006D000003FF0000FC0000000000000000000001C
:1006E000000000000000000000000000000000000A
:1006F000000000F80003F8000700000E00000C00E6
:10070000001800001BC0001FF0001C30001818006B
:100710001818001818000C38000FF00003E0000053
:1007200000000000000000000000000000000000C9
:10073000000000000000000000001FF8001FF8008B
:100740001818001838000030000030000070000059
:10075000600000600000E00000C00000C00001C0B8
:100760000001800001800000000000000000000087
:100770000000000000000000000000000000000079
:10078000000007E0000FF0001C38001818001818CF
:10079000000C300007E00007E0000C3000181800E3
:1007A0001818001818001C38000FF00007E00000AF
:1007B0000000000000000000000000000000000039
:1007C0000000000000000000000007C0000FF00063
:1007D0001C30001818001818001818000C38000FEA
:1007E000F80003D80000180000300000700000E09E
:1007F000001FC0001F0000000000000000000000FB
:1008000000000000000000000000000000000000E8
:10081000000000000000000000000000000003C015
:100820000003C00003C00000000000000000000042
:1008300000000000000003C00003C00003C000006F
:1008400000000000000000000000000000000000A8
:100850000000000000000000000000000000000098
:1008600000000000000000F00000F00000F00000B8
:10087000000000000000000000000000E00001C0D7
:100880000001800001800003000002000000000061
:100890000000000000000000000000000000000058
:1008A0000000000000000000001C00003C0000F000
:1008B0000003C0000F00003C0000F000003C0000FE
:1008C0000F000003C00000F000003C00001C00000E
:1008D0000000000000000000000000000000000018
:1008E0000000000000000000000000000000000008
:1008F0000000000000000000007FFC007FFC000002
:1009000000000000007FFC007FFC000000000000F1
:1009100000000000000000000000000000000000D7
:1009200000000000000000000000000000000000C7
:1009300000000000000000007000007800001E00B1
:100940000007800001E000007800001E0000780031
:1009500001E0000780001E00007800007000000029
:100960000000000000000000000000000000000087
:100970000000000000000000000000000007C000B0
:100980000FE00018700018300018300000700000F0
:10099000E00003C00003800003000000000000002E
:1009A0000007000007000000000000000000000039
:1009B0000000000000000000000000000000000037
:1009C000000003E00007F0000E38000C1800187853
:1009D0000018F80019D80019980019980019980003
:1009E00018F8001878001800000C00000E18000716
:1009F000F80003E00000000000000000000000001C
:100A0000000000000000000000000000001F800047
:100A10001FC00001C0000360000360000630000634
:100A200030000C30000FF8001FF800180C00300CDC
:100A300000FC7F00FC7F00000000000000000000C0
:100A400000000000000000000000000000000000A6
:100A500000000000007FE0007FF000183800181848
:100A6000001818001838001FF0001FF800181C00AC
:100A7000180C00180C00180C007FF8007FF0000024
:100A80000000000000000000000000000000000066
:100A90000000000000000000000000000003EC0067
:100AA0000FFC001C1C00180C00300C003000003043
:100AB0000000300000300000300000180C001C1C4A
:100AC000000FF80003F0000000000000000000002C
:100AD0000000000000000000000000000000000016
:100AE00000000000007FC0007FF0001838001818D8
:100AF00000180C00180C00180C00180C00180C0042
:100B0000180C001818001838007FF0007FE0000073
:100B100000000000000000000000000000000000D5
:100B2000000000000000000000000000007FF8004E
:100B30007FF8001818001818001998001980001F75
:100B400080001F80001980001998001818001818DC
:100B5000007FF8007FF800000000000000000000A7
:100B60000000000000000000000000000000000085
:100B700000000000003FFC003FFC000C0C000C0CCF
:100B8000000CCC000CC0000FC0000FC0000CC00057
:100B90000CC0000C00000C00003FC0003FC0000073
:100BA0000000000000000000000000000000000045
:100BB0000000000000000000000000000003EC0046
:100BC0000FFC001C1C00180C00300C003000003022
:100BD000000030FE0030FE00300C00380C001C1C01
:100BE000000FFC0003F00000000000000000000007
:100BF00000000000000000000000000000000000F5
:100C000000000000007E7E007E7E0018180018188C
:100C1000001818001818001FF8001FF80018180016
:100C20001818001818001818007E7E007E7E00003C
:100C300000000000000000000000000000000000B4
:100C4000000000000000000000000000001FF8008D
:100C50001FF8000180000180000180000180000178
:100C6000800001800001800001800001800001807F
:100C7000001FF8001FF80000000000000000000046
:100C80000000000000000000000000000000000064
:100C9000000000000007FE0007FE000030000030EA
:100CA00000003000003000003000303000303000F4
:100CB0003030003030003060003FE0000F80000036
:100CC0000000000000000000000000000000000024
:100CD000000000000000000000000000007F3E0057
:100CE0007F3E0018300018600018C0001980001BFB
:100CF00080001FC0001CE000187000183000183879
:100D0000007F1F007F1F00000000000000000000A7
:100D100000000000000000000000000000000000D3
:100D200000000000007F80007F80000C00000C00AD
:100D3000000C00000C00000C00000C00000C0C006B
:100D40000C0C000C0C000C0C007FFC007FFC000065
:100D50000000000000000000000000000000000093
:100D600000000000000000000000000000F00F0084
:100D7000F81F00381C003C3C003C3C00366C003640
:100D80006C0033CC0033CC00318C00300C00300CC4
:100D900000FE7F00FE7F0000000000000000000059
:100DA0000000000000000000000000000000000043
:100DB000000000000078FE0078FE001C18001E18DD
:100DC000001F18001B18001B980019D80018D80025
:100DD00018F8001878001838007F18007F180000F5
:100DE0000000000000000000000000000000000003
:100DF0000000000000000000000000000003C00030
:100E00000FF0001C3800181800381C00300C00309F
:100E10000C00300C00300C00381C001818001C3876
:100E2000000FF00003C00000000000000000000000
:100E300000000000000000000000000000000000B2
:100E400000000000003FF0003FF8000C1C000C0CFC
:100E5000000C0C000C0C000C18000FF8000FE00048
:100E60000C00000C00000C00003FC0003FC0000060
:100E70000000000000000000000000000000000072
:100E80000000000000000000000000000003C0009F
:100E90000FF0001C3800181800381C00300C00300F
:100EA0000C00300C00300C00381C001818001C38E6
:100EB000000FF00007C00007CC000FFC000C38004A
:100EC0000000000000000000000000000000000022
:100ED00000000000007FE0007FF0001838001818C4
:100EE000001818001838001FF0001FC00018E0009C
:100EF0001870001830001838007F1E007F0E0000A8
:100F000000000000000000000000000000000000E1
:100F10000000000000000000000000000007D800F2
:100F20000FF8001C38001818001818001E00000FD9
:100F3000C00003F0000078001818001818001C38D2
:100F4000001FF0001BE00000000000000000000097
:100F50000000000000000000000000000000000091
:100F600000000000003FFC003FFC00318C00318C91
:100F700000318C00318C0001800001800001800074
:100F80000180000180000180000FF0000FF00000E0
:100F90000000000000000000000000000000000051
:100FA000000000000000000000000000007E7E0045
:100FB0007E7E00181800181800181800181800185D
:100FC00018001818001818001818001818000C300D
:100FD000000FF00003C0000000000000000000004F
:100FE0000000000000000000000000000000000001
:100FF00000000000007F7F007F7F00180C000C18AD
:10100000000C18000C1800063000063000036000C9
:1010100003600003600001C00001C0000080000008
:1010200000000000000000000000000000000000C0
:1010300000000000000000000000000000FE3F80F3
:10104000FE3F8030060030060030860019CC0019C3
:10105000CC001B6C001B6C001E7C000E38000E3890
:10106000000C18000C180000000000000000000038
:101070000000000000000000000000000000000070
:1010800000000000007E7E007E7E001818000C30FC
:101090000006600003C00001800001800003C00062
:1010A0000660000C30001818007E7E007E7E000076
:1010B0000000000000000000000000000000000030
:1010C000000000000000000000000000007C7E0026
:1010D0007C7E001818000C300006600006600003DB
:1010E000C0000180000180000180000180000180BB
:1010F000000FF0000FF000000000000000000000F2
:1011000000000000000000000000000000000000DF
:1011100000000000001FF8001FF800181800183029
:101120000018600018C000018000030000061800CD
:101130000C18001818003018003FF8003FF80000A5
:10114000000000000000000000000000000000009F
:101150000000000000000000000001F00001F000AD
:1011600001800001800001800001800001800001F9
:10117000800001800001800001800001800001806A
:101180000001800001800001800001F00001F000FA
:10119000000000000000000000000000180000181F
:1011A00000001C00000C00000E00000600000600FD
:1011B0000003000003000001800001800000C00067
:1011C00000C00000600000600000700000300000FF
:1011D00038000018000018000000000000000000A7
:1011E000000000000000000000000F80000F8000E1
:1011F0000180000180000180000180000180000169
:1012000080000180000180000180000180000180D9
:10121000000180000180000180000F80000F80002D
:1012200000000000000000000000000000000000BE
:10123000800001C00003E0000770000630000C18B9
:1012400000180C0010040000000000000000000066
:10125000000000000000000000000000000000008E
:10126000000000000000000000000000000000007E
:10127000000000000000000000000000000000006E
:10128000000000000000000000000000000000005E
:10129000000000000000000000000000000000004E
:1012A000000000000000000000000000000000003E
:1012B000000000000000FFFF00FFFF00000000032F
:1012C000000003800000E00000600000000000005B
:1012D000000000000000000000000000000000000E
:1012E00000000000000000000000000000000000FE
:1012F00000000000000000000000000000000000EE
:1013000000000000000000000000000000000000DD
:101310000000000000000FC0001FE00000300000CF
:10132000300007F0001FF00038300030300030701F
:10133000001FFC000FBC00000000000000000000C7
:10134000000000000000000000000000000000009D
:1013500000007800007800001800001800001BE072
:10136000001FF8001C1800180C00180C00180C00C6
:10137000180C00180C001C18007FF8007BE000001F
:10138000000000000000000000000000000000005D
:10139000000000000000000000000000000000004D
:1013A00000000000000003EC000FFC001C1C0038D3
:1013B0000C00300C00300000300000380C001C1C09
:1013C000000FF80003F00000000000000000000023
:1013D000000000000000000000000000000000000D
:1013E000000000780000780000180000180007D8FE
:1013F000001FF800183800301800301800301800AE
:101400003018003018001838001FFE0007DE0000FA
:1014100000000000000000000000000000000000CC
:1014200000000000000000000000000000000000BC
:1014300000000000000007E0001FF800181800304E
:101440000C003FFC003FFC00300000300000180C96
:10145000001FFC0007F0000000000000000000007A
:10146000000000000000000000000000000000007C
:10147000000001FC0003FC000600000600003FF82D
:10148000003FF8000600000600000600000600000D
:101490000600000600000600003FF0003FF00000DC
:1014A000000000000000000000000000000000003C
:1014B000000000000000000000000000000000002C
:1014C00000000000000007DE001FFE00183800309A
:1014D0001800301800301800301800301800183884
:1014E000001FF80007D8000018000018000038009E
:1014F0000FF0000FC000000000000000000000001E
:1015000000007800007800001800001800001BE0C0
:10151000001FF0001C3800181800181800181800D8
:101520001818001818001818007E7E007E7E000033
:1015300000000000000000000000000000000000AB
:101540000000000000000000000001800001800099
:101550000000000000001F80001F800001800001CB
:101560008000018000018000018000018000018076
:10157000003FFC003FFC00000000000000000000F5
:10158000000000000000000000000000000000005B
:10159000000000C00000C0000000000000001FF0BC
:1015A000001FF0000030000030000030000030006C
:1015B000003000003000003000003000003000003B
:1015C00030000030000070001FE0001F80000000AD
:1015D000000000000000000000003C00003C000093
:1015E0000C00000C00000CF8000CF8000CC0000D02
:1015F00080000F80000F00000F80000DC0000CE085
:10160000003C7C003C7C000000000000000000006A
:1016100000000000000000000000000000000000CA
:1016200000001F80001F80000180000180000180F9
:101630000001800001800001800001800001800025
:101640000180000180000180003FFC003FFC0000A1
:10165000000000000000000000000000000000008A
:10166000000000000000000000000000000000007A
:10167000000000000000F77800FFFC0039CC0031CA
:101680008C00318C00318C00318C00318C00318C1D
:1016900000FDEF00FDEF0000000000000000000072
:1016A000000000000000000000000000000000003A
:1016B00000000000000000000000000000007BE0CF
:1016C000007FF0001C3800181800181800181800C7
:1016D0001818001818001818007E7E007E7E000082
:1016E00000000000000000000000000000000000FA
:1016F00000000000000000000000000000000000EA
:1017000000000000000003C0000FF0001C3800388B
:101710001C00300C00300C00300C00381C001C3851
:10172000000FF00003C000000000000000000000F7
:1017300000000000000000000000000000000000A9
:1017400000000000000000000000000000007BE03E
:10175000007FF8001C1800180C00180C00180C0072
:10176000180C00180C001C18001FF8001BE00018D3
:1017700000001800001800007F00007F000000003B
:101780000000000000000000000000000000000059
:1017900000000000000007DE001FFE0018380030C7
:1017A00018003018003018003018003018001838B1
:1017B000001FF80007D800001800001800001800EB
:1017C00000FE0000FE00000000000000000000001D
:1017D00000000000000000000000000000003E7853
:1017E000003EFC0007CC00070000060000060000D9
:1017F0000600000600000600003FF0003FF0000079
:1018000000000000000000000000000000000000D8
:1018100000000000000000000000000000000000C8
:1018200000000000000007F8000FF800181800186A
:1018300018001F80000FF00000F80018180018387A
:10184000001FF0001FE0000000000000000000008A
:101850000000000000000000000000000000000088
:1018600000000C00000C00000C00000C00003FF019
:10187000003FF0000C00000C00000C00000C000009
:101880000C00000C00000C1C0007FC0003F0000022
:101890000000000000000000000000000000000048
:1018A0000000000000000000000000000000000038
:1018B0000000000000007878007878001818001800
:1018C00018001818001818001818001818001838F0
:1018D000000FFE0007DE0000000000000000000016
:1018E00000000000000000000000000000000000F8
:1018F00000000000000000000000000000007C3E2E
:10190000007C3E001818001818000C30000C300045
:1019100006600006600007E00003C00003C000008E
:1019200000000000000000000000000000000000B7
:1019300000000000000000000000000000000000A7
:10194000000000000000783C00783C0031180033B3
:1019500098003398001AB0001EF0001EF0001C60C2
:10196000000C60000C60000000000000000000009F
:101970000000000000000000000000000000000067
:1019800000000000000000000000000000003E7C9D
:10199000003E7C000C300006600003C000018000A7
:1019A00003C0000660000C30003E7C003E7C00005E
:1019B0000000000000000000000000000000000027
:1019C0000000000000000000000000000000000017
:1019D0000000000000007E1F007E1F00180C000C9D
:1019E00018000C180006300006300003600003E009
:1019F0000001C00000C00001800001800003000061
:101A00003FC0003FC00000000000000000000000D8
:101A100000000000000000000000000000001FF8AF
:101A2000001FF80018300018600000C0000180009E
:101A30000300000618000C18001FF8001FF8000033
:101A40000000000000000000000000000000000096
:101A50000000000000000000000000E00001E000C5
:101A600001800001800001800001800001800001F0
:101A700080000380000700000380000180000180D7
:101A80000001800001800001800001E00000E00012
:101A90000000000000000000000000000000000046
:101AA00000000180000180000180000180000180B1
:101AB00000018000018000018000018000018000A1
:101AC0000180000180000180000180000180000190
:101AD0008000018000018000000000000000000084
:101AE0000000000000000000000007000007800068
:101AF0000180000180000180000180000180000160
:101B0000800001C00000E00001C0000180000180F1
:101B100000018000018000018000078000070000B4
:101B200000000000000000000000000000000000B5
:101B300000000000000000000000000000000000A5
:101B4000000000000E00001F18003BB80031F0003C
:101B500000E00000000000000000000000000000A5
:101B60000000000000000000000000000000000075
:101B70000000000000000000000000000000000065
:101B80000000000000000000000000000000000055
:101B9000000000000000000000000000000007003E
:101BA0000700070007000700070007000200020007
:101BB0000000000007000700000000000000000017
:101BC00000000000000000001CE01CE01CE00840D9
:101BD0000840084000000000000000000000000075
:101BE0000000000000000000000000000CC00CC05D
:101BF0000CC00CC00CC03FF03FF00CC00CC03FF05C
:101C00003FF00CC00CC00CC00CC00CC000000000A9
:101C1000000000000300030007E00FE01860180058
:101C20001F000FC000E0186018601FC01F80030075
:101C300003000300000000000000000000001C0082
:101C40002200220022001C6001E00F803C0031C015
:101C500002200220022001C000000000000000005D
:101C60000000000000000000000003E00FE00C0096
:101C70000C0006000F301FF019E018C01FF007B06D
:101C80000000000000000000000000000000000054
:101C900003800380038001000100010000000000B8
:101CA0000000000000000000000000000000000034
:101CB00000000000000000C000C001800180018021
:101CC0000300030003000300030003000180018000
:101CD000018000C000C000000000000000000C00F7
:101CE0000C000600060006000300030003000300CA
:101CF000030003000600060006000C000C000000B4
:101D00000000000000000300030003001B601FE050
:101D1000078007800FC00CC000000000000000001A
:101D200000000000000000000000000000000000B3
:101D3000000003000300030003003FF03FF0030036
:101D4000030003000300000000000000000000008A
:101D50000000000000000000000000000000000083
:101D600000000000000000000000038003000300EA
:101D70000600060004000000000000000000000053
:101D8000000000000000000000003FE03FE0000015
:101D90000000000000000000000000000000000043
:101DA0000000000000000000000000000000000033
:101DB000000000000000000000000380038003809A
:101DC0000000000000000000000000000060006053
:101DD00000C000C000C001800180030003000600B5
:101DE00006000C000C000C00180018000000000099
:101DF0000000000000000F801FC018C0306030607D
:101E00003060306030603060306018C01FC00F80BC
:101E100000000000000000000000000000000300BF
:101E20001F001F0003000300030003000300030062
:101E3000030003001FE01FE000000000000000009E
:101E40000000000000000F801FC038E0306000601C
:101E500000C00180030006000C0018003FE03FE0D6
:101E600000000000000000000000000000000F80E3
:101E70003FC030E0006000E007C007C000E0006045
:101E8000006060E07FC03F800000000000000000B4
:101E900000000000000001C003C003C006C00CC069
:101EA0000CC018C030C03FE03FE000C003E003E0DA
:101EB00000000000000000000000000000001FC043
:101EC0001FC0180018001F801FC018E000600060CD
:101ED000006030E03FC01F800000000000000000F4
:101EE00000000000000003E00FE01E0018003800B2
:101EF00037803FC038E03060306018E01FC0078096
:101F000000000000000000000000000000003FE0B2
:101F10003FE03060006000C000C000C00180018070
:101F20000180030003000300000000000000000027
:101F30000000000000000F801FC038E0306038E073
:101F40001FC01FC038E03060306038E01FC00F8015
:101F500000000000000000000000000000000F0072
:101F60001FC038C03060306038E01FE00F6000E014
:101F700000C003C03F803E000000000000000000E1
:101F800000000000000000000000000000000380CE
:101F900003800380000000000000038003800380B2
:101FA0000000000000000000000000000000000031
:101FB00000000000000001C001C001C000000000DE
:101FC000000003800300060006000400000000007B
:101FD00000000000000000000000003000F003C01E
:101FE00007001C0078001C00070003C000F0003050
:101FF00000000000000000000000000000000000E1
:102000000000000000007FF07FF0000000007FF083
:102010007FF0000000000000000000000000000051
:102020000000000000000000000030003C000F0035
:10203000038000E0007800E003800F003C003000E7
:102040000000000000000000000000000000000090
:102050000F801FC018601860006001C0038003007B
:102060000000000007000700000000000000000062
:1020700000000000000003800C8008401040104069
:1020800011C012401240124011C010000800084058
:1020900007800000000000000000000000000000B9
:1020A0001F801F80038006C006C00CC00C601FE0AC
:1020B0001FE03030787878780000000000000000E1
:1020C00000000000000000003F803FC01860186062
:1020D00018E01FC01FE01870183018303FF03FE0C4
:1020E00000000000000000000000000000000000F0
:1020F00007B00FF01C703830300030003000300076
:1021000038301C700FE007C0000000000000000025
:1021100000000000000000007F807FC030E03070D1
:102120003030303030303030307030E07FC07F8041
:10213000000000000000000000000000000000009F
:102140003FF03FF01830183019801F801F80198031
:10215000183018303FF03FF0000000000000000091
:1021600000000000000000003FF03FF01830183081
:1021700019801F801F801980180018003F003F0041
:10218000000000000000000000000000000000004F
:1021900007B01FF0187030303000300031F831F8DF
:1021A000303018301FF007C00000000000000000B1
:1021B00000000000000000003CF03CF018601860D7
:1021C00018601FE01FE01860186018603CF03CF0D9
:1021D00000000000000000000000000000000000FF
:1021E0001FE01FE0030003000300030003000300DF
:1021F000030003001FE01FE00000000000000000DB
:10220000000000000000000003F803F80060006018
:102210000060006030603060306030E03FC00F80B0
:1022200000000000000000000000000000000000AE
:102230003EF83EF818E019801B001F001D8018C0F2
:1022400018C018603E783E38000000000000000012
:1022500000000000000000003F003F000C000C00E8
:102260000C000C000C000C300C300C303FF03FF038
:10227000000000000000000000000000000000005E
:102280007878787838703CF034B037B037B0333085
:10229000333030307CF87CF8000000000000000093
:1022A000000000000000000039F03DF01C601E60DE
:1022B0001E601B601B6019E019E018E03EE03E6004
:1022C000000000000000000000000000000000000E
:1022D00007800FC01CE03870303030303030303084
:1022E00038701CE00FC007800000000000000000F4
:1022F00000000000000000003FC03FE018701830F0
:10230000183018701FE01FC0180018003F003F0071
:1023100000000000000000000000000000000000BD
:1023200007800FC01CE03870303030303030303033
:1023300038701CE00FC0078007B00FF00CE0000001
:1023400000000000000000003FC03FE0187018309F
:1023500018701FE01FC018E0186018703E383E1853
:10236000000000000000000000000000000000006D
:102370000FB01FF03870303038001F8007E0007059
:10238000303038703FE037C000000000000000002F
:1023900000000000000000003FF03FF03330333019
:1023A0003330030003000300030003000FC00FC01D
:1023B000000000000000000000000000000000001D
:1023C0003CF03CF0186018601860186018601860E5
:1023D00018601CE00FC00780000000000000000033
:1023E000000000000000000078F078F030603060FD
:1023F00018C018C00D800D800D8007000700070071
:1024000000000000000000000000000000000000CC
:102410007C7C7C7C301833983398339836D816D02F
:102420001C701C701C7018300000000000000000C0
:10243000000000000000000078F078F0306018C064
:102440000D80070007000D8018C0306078F078F02C
:10245000000000000000000000000000000000007C
:102460003CF03CF018600CC00780078003000300BC
:10247000030003000FC00FC00000000000000000B8
:1024800000000000000000001FE01FE0186018C0FE
:1024900001800300030006000C6018601FE01FE0CD
:1024A000000000000000000000000000000003C069
:1024B00003C0030003000300030003000300030044
:1024C0000300030003000300030003C003C0000077
:1024D00000000000180018000C000C000C000600A2
:1024E0000600030003000180018000C000C000C09E
:1024F00000600060000000000000000000000F000D
:102500000F000300030003000300030003000300A7
:10251000030003000300030003000F000F0000008E
:10252000000000000000020007000D8018C03060AD
:10253000202000000000000000000000000000005B
:10254000000000000000000000000000000000008B
:10255000000000000000000000000000000000007B
:10256000000000000000000000000000000000006B
:10257000FFFCFFFC000004000300008000000000DE
:10258000000000000000000000000000000000004B
:10259000000000000000000000000000000000003B
:1025A0000000000000000FC01FE000600FE01FE00F
:1025B000386030E03FF01F700000000000000000B5
:1025C0000000000000007000700030003000378014
:1025D0003FE0386030303030303038607FE0778036
:1025E00000000000000000000000000000000000EB
:1025F00000000000000007B01FF01830303030003D
:10260000300038301FF00FC0000000000000000054
:10261000000000000000007000700030003007B0C3
:102620001FF0187030303030303038701FF807B875
:10263000000000000000000000000000000000009A
:1026400000000000000007801FE018603FF03FF02E
:10265000300018301FF007C000000000000000002C
:1026600000000000000003F007F0060006001FE075
:102670001FE0060006000600060006001FE01FE03F
:10268000000000000000000000000000000000004A
:1026900000000000000007B81FF81870303030301C
:1026A000303018701FF007B0003000700FE00FC01E
:1026B00000000000000038003800180018001BC09F
:1026C0001FE01C6018601860186018603CF03CF057
:1026D00000000000000000000000000000000300F7
:1026E0000300000000001F001F00030003000300A0
:1026F000030003001FE01FE00000000000000000D6
:1027000000000000000003000300000000001FC0E4
:102710001FC000C000C000C000C000C000C000C09A
:1027200000C001C03F803F000000000000003800F2
:102730003800180018001BE01BE01B001E001E00E4
:102740001B00198039F039F0000000000000000083
:102750000000000000001F001F0003000300030032
:102760000300030003000300030003001FE01FE059
:102770000000000000000000000000000000000059
:102780000000000000007EE07FF033303330333053
:10279000333033307BB87BB800000000000000000D
:1027A00000000000000000000000000000003BC02E
:1027B0003FE01C6018601860186018603CF03CF046
:1027C0000000000000000000000000000000000009
:1027D00000000000000007801FE01860303030303B
:1027E000303018601FE0078000000000000000008B
:1027F00000000000000000000000000000007780E2
:102800007FE0386030303030303038603FE0378043
:10281000300030007C007C00000000000000000060
:1028200000000000000007B81FF81870303030308A
:10283000303018701FF007B00030003000F800F89A
:1028400000000000000000000000000000003CE06C
:102850003DF00F300E000C000C000C003FC03FC0DC
:102860000000000000000000000000000000000068
:1028700000000000000007E01FE018601E000FC00D
:1028800001E018601FE01F80000000000000000051
:1028900000000000000000000C000C000C003FE0F5
:1028A0003FE00C000C000C000C000C300FF007C0D7
:1028B0000000000000000000000000000000000018
:1028C00000000000000038E038E018601860186070
:1028D000186018E01FF00F700000000000000000FA
:1028E000000000000000000000000000000078F080
:1028F00078F0306018C018C00D800D800700070008
:1029000000000000000000000000000000000000C7
:1029100000000000000078F078F03260326037E0AC
:102920001DC01DC018C018C000000000000000003D
:1029300000000000000000000000000000003CF06B
:102940003CF00CC00780030007800CC03CF03CF05A
:102950000000000000000000000000000000000077
:1029600000000000000078F078F0306018C018C057
:102970000D800F800700060006000C007F007F001E
:1029800000000000000000000000000000001FE048
:102990001FE018C00180030006000C601FE01FE06C
:1029A000000000000000000000000000000001C066
:1029B00003C00300030003000300030007000E0030
:1029C0000700030003000300030003C001C0000070
:1029D00000000000000003000300030003000300E8
:1029E00003000300030003000300030003000300CF
:1029F00003000300030000000000000000001C00B2
:102A00001E00060006000600060006000700038000
:102A1000070006000600060006001E001C0000005D
:102A200000000000000000000000000000000000A6
:102A30000E003F3033F001E0000000000000000015
:102A40000000000000000000000000000000000086
:102A50000000000000000000000000000000000076
:102A600000000000000000000000000000000C005A
:102A70000C000C000C000C000C000C000C00000002
:102A80000C0000000000000000000000000000003A
:102A90001DC01DC0088008800880000000000000E4
:102AA00000000000000000000000000000000D8099
:102AB0000D800D800D803FC01B003FC01B001B0020
:102AC0001B001B00000000000000000004001F802D
:102AD0003180318038001E000F000380318031804A
:102AE0003F00040004000000000000000000180087
:102AF0002400240018C007801E00318002400240DC
:102B00000180000000000000000000000000000044
:102B10000F001800180018000C001D80370033004B
:102B20001D80000000000000000000000000000008
:102B30000700070002000200020000000000000081
:102B40000000000000000000000000000000030082
:102B5000030006000E000C000C000C000C000E0020
:102B60000600030003000000000000000000180041
:102B700018000C000600060006000600060006000D
:102B80000C001C00180000000000000000000600FF
:102B900006003FC03FC00F001F80198000000000EA
:102BA0000000000000000000000000000000000025
:102BB00000000400040004003F800400040004003E
:102BC0000000000000000000000000000000000005
:102BD00000000000000000000000000000000600EF
:102BE00004000C00080008000000000000000000C5
:102BF00000000000000000003F8000000000000016
:102C000000000000000000000000000000000000C4
:102C100000000000000000000000000000000C00A8
:102C20000C000000000000000000000000C000C018
:102C3000018001800300030006000C000C00180056
:102C400018003000300000000000000000000E00FE
:102C50001B003180318031803180318031801B0018
:102C60000E00000000000000000000000000060050
:102C70003E000600060006000600060006000600EC
:102C80003FC00000000000000000000000000F0036
:102C9000198031803180030006000C0018003000DC
:102CA0003F800000000000000000000000003F0026
:102CB0006180018003001F0003800180018061802A
:102CC0003F000000000000000000000000000700BE
:102CD00007000F000B001B00130033003F800300B0
:102CE0000F800000000000000000000000001F80B6
:102CF0001800180018001F00118001800180218039
:102D00001F0000000000000000000000000007801D
:102D10001C00180030003700398031803180198064
:102D20000F000000000000000000000000007F0015
:102D30004300030006000600060006000C000C001D
:102D40000C000000000000000000000000001F0058
:102D50003180318031801F0031803180318031807D
:102D60001F000000000000000000000000001E0026
:102D700033003180318033801D80018003000700E3
:102D80003C00000000000000000000000000000007
:102D9000000000000C000C000000000000000C000F
:102DA0000C00000000000000000000000000000017
:102DB0000000000003000300000000000000060007
:102DC00004000800080000000000000000000000EF
:102DD00000C0030004001800600018000400030095
:102DE00000C0000000000000000000000000000023
:102DF0000000000000007FC000007FC00000000055
:102E000000000000000000000000000000000000C2
:102E1000600018000400030000C003000400180054
:102E20006000000000000000000000000000000042
:102E30001F0031803180018007000C000C00000071
:102E40000C000000000000000000000000000E0068
:102E5000110021002100270029002900270020005F
:102E600011000E0000000000000000000000000043
:102E70003F000F000900198019801F8030C030C04A
:102E800079E00000000000000000000000000000E9
:102E90007F003180318031803F003180318031804E
:102EA0007F000000000000000000000000000000A3
:102EB0001F4030C0604060006000600060403080B3
:102EC0001F000000000000000000000000000000E3
:102ED0007F00318030C030C030C030C030C0318061
:102EE0007F00000000000000000000000000000063
:102EF0007F803080308032003E0032003080308071
:102F00007F800000000000000000000000000000C2
:102F10007FC03040304032003E0032003000300090
:102F20007C00000000000000000000000000000025
:102F30001E80318060806000600067C061803180E9
:102F40001F00000000000000000000000000000062
:102F50007BC03180318031803F8031803180318051
:102F60007BC0000000000000000000000000000026
:102F70003FC0060006000600060006000600060028
:102F80003FC0000000000000000000000000000042
:102F90001FC003000300030003006300630063001D
:102FA0003E000000000000000000000000000000E3
:102FB0007BC03180330036003C003E00330031805E
:102FC00079C00000000000000000000000000000C8
:102FD0007E0018001800180018001840184018400B
:102FE0007FC00000000000000000000000000000A2
:102FF000E0E060C071C07BC06AC06EC064C060C0E9
:10300000FBE00000000000000000000000000000E5
:1030100073C0318039803D80358037803380318086
:1030200079800000000000000000000000000000A7
:103030001F00318060C060C060C060C060C031806F
:103040001F00000000000000000000000000000061
:103050007F0031803180318031803F00300030008E
:103060007E000000000000000000000000000000E2
:103070001F00318060C060C060C060C060C031802F
:103080001F000CC01F8000000000000000000000B6
:103090007F003180318031803E00330031803180CB
:1030A0007CE00000000000000000000000000000C4
:1030B0001F803180318038001F00038031803180D3
:1030C0003F000000000000000000000000000000C1
:1030D0007F804C804C804C800C000C000C000C005D
:1030E0003F000000000000000000000000000000A1
:1030F0007BC03180318031803180318031803180BE
:103100001F000000000000000000000000000000A0
:103110007BC0318031801B001B001B000A000E00A9
:103120000E00000000000000000000000000000091
:10313000FBE060C064C06EC06EC02A803B803B80F4
:1031400031800000000000000000000000000000CE
:103150007BC031801B000E000E000E001B00318072
:103160007BC0000000000000000000000000000024
:1031700079E030C019800F00060006000600060046
:103180001F800000000000000000000000000000A0
:103190003F8021802300060004000C00188030804E
:1031A0003F800000000000000000000000000780D9
:1031B00006000600060006000600060006000600DF
:1031C000060006000780000000000000300030000C
:1031D000180018000C000C0006000300030001801A
:1031E000018000C000C000000000000000001E00C0
:1031F000060006000600060006000600060006009F
:10320000060006001E0000000000000004000A0086
:103210000A00110020802080000000000000000053
:10322000000000000000000000000000000000009E
:10323000000000000000000000000000000000008E
:1032400000000000000000000000FFE00800040093
:10325000020000000000000000000000000000006C
:10326000000000000000000000000000000000005E
:10327000000000001F00018001801F80318033802A
:103280001DC00000000000000000000000007000F1
:10329000300030003700398030C030C030C0398055
:1032A00077000000000000000000000000000000A7
:1032B000000000001E8031806080600060803180EE
:1032C0001F0000000000000000000000000003805C
:1032D000018001801D803380618061806180338046
:1032E0001DC0000000000000000000000000000001
:1032F000000000001F00318060C07FC0600030C04F
:103300001F8000000000000000000000000007E037
:103310000C000C003F800C000C000C000C000C009A
:103320003F800000000000000000000000000000DE
:10333000000000001DC033806180618061803380A7
:103340001D80018001801F0000000000000070004F
:103350003000300037003980318031803180318059
:103360007BC000000000000000000000000006001C
:10337000060000001E00060006000600060006000B
:103380003FC0000000000000000000000000060038
:10339000060000003F0003000300030003000300D9
:1033A0000300030003003E00000000000000700066
:1033B00030003000378036003C003C0036003300DF
:1033C00077C00000000000000000000000001E00A8
:1033D00006000600060006000600060006000600BD
:1033E0003FC00000000000000000000000000000DE
:1033F000000000007F8036C036C036C036C036C000
:1034000076E0000000000000000000000000000066
:1034100000000000770039803180318031803180B8
:103420007BC0000000000000000000000000000061
:10343000000000001F00318060C060C060C03180AB
:103440001F0000000000000000000000000000005D
:10345000000000007700398030C030C030C03980B3
:103460003700300030007C00000000000000000049
:10347000000000001DC03380618061806180338066
:103480001D800180018007C00000000000000000D6
:10349000000000007B801CC01800180018001800F5
:1034A0007F0000000000000000000000000000009D
:1034B000000000001F8031803C001F00038031802D
:1034C0003F000000000000000000000000001800A5
:1034D000180018007F001800180018001800188045
:1034E0000F000000000000000000000000000000CD
:1034F0000000000073803180318031803180338062
:103500001DC00000000000000000000000000000DE
:10351000000000007BC0318031801B001B000E00CA
:103520000E0000000000000000000000000000008D
:1035300000000000F1E060C064C06EC03B803B80D2
:1035400031800000000000000000000000000000CA
:10355000000000007BC01B000E000E000E001B00D0
:103560007BC0000000000000000000000000000020
:103570000000000079E030C0198019800B000F00B6
:10358000060006000C003E000000000000000000E5
:10359000000000003F80218003000E0018003080F2
:1035A0003F80000000000000000000000000060056
:1035B0000C000C000C000C000C0018000C000C009F
:1035C0000C000C00060000000000000000000600D7
:1035D00006000600060006000600060006000600BB
:1035E00006000600060000000000000000000C00BD
:1035F000060006000600060006000300060006009E
:10360000060006000C0000000000000000000000A2
:1036100000000000000018002480030000000000EB
:10362000000000000000000000000000000000009A
:10363000000000000000000000101010101000003A
:1036400010000000006C484800000000000000006E
:10365000001414287C287C285050000000103840AA
:103660004038487010100000002050200C700814E2
:10367000080000000000001820205448340000001A
:1036800000101010100000000000000000080810DA
:10369000101010101008080000202010101010103A
:1036A0001020200000107C102828000000000000DE
:1036B0000000101010FE10101000000000000000AC
:1036C000000000181030200000000000007C000006
:1036D000000000000000000000000030300000008A
:1036E0000004040808101020204000000038444462
:1036F00044444444380000000030101010101010F2
:103700007C00000000384404081020447C000000C5
:10371000003844041804044438000000000C141459
:1037200024447E040E000000003C202038040444A1
:1037300038000000001C2040784444443800000059
:10374000007C4404080808101000000000384444BD
:10375000384444443800000000384444443C0408E1
:103760007000000000000030300000303000000029
:1037700000000018180000183020000000000C1095
:10378000608060100C000000000000007C007C00E5
:10379000000000000000C02018041820C000000035
:1037A0000000182404081000300000003844444C85
:1037B00054544C40443800000030102828287C44E1
:1037C000EE00000000F8444478444444F80000004F
:1037D000003C4440404040443800000000F0484471
:1037E00044444448F000000000FC44507050404401
:1037F000FC000000007E22283828202070000000F5
:10380000003C4440404E44443800000000EE444434
:103810007C444444EE000000007C10101010101096
:103820007C000000003C08080848484830000000C0
:1038300000EE444850704844E6000000007020202C
:10384000202024247C00000000EE6C6C545444447E
:10385000EE00000000EE64645454544CEC00000090
:103860000038444444444444380000000078242490
:10387000243820207000000000384444444444446C
:10388000381C000000F8444444784844E20000003A
:1038900000344C40380404645800000000FE9210CC
:1038A000101010103800000000EE4444444444441A
:1038B0003800000000EE44442828281010000000C2
:1038C00000EE4444545454542800000000C64428D8
:1038D00010102844C600000000EE442828101010E4
:1038E00038000000007C4408101020447C000000D8
:1038F00000382020202020202020380000402020D8
:1039000020101008080800000038080808080808F7
:1039100008083800001010284400000000000000D3
:103920000000000000000000000000FE0010080081
:10393000000000000000000000000038443C444447
:103940003E00000000C0405864444444F8000000B9
:103950000000003C4440404438000000000C0434A7
:103960004C4444443E00000000000038447C404089
:103970003C000000001C207C202020207C00000057
:10398000000000364C4444443C04380000C0405819
:1039900064444444EE000000001000701010101049
:1039A0007C00000000100078080808080808700073
:1039B00000C0405C48705048DC000000003010102F
:1039C000101010107C000000000000E85454545403
:1039D000FE000000000000D864444444EE000000F3
:1039E000000000384444444438000000000000D87F
:1039F000644444447840E000000000364C444444B1
:103A00003C040E000000006C302020207C000000F0
:103A10000000003C44380444780000000000207C92
:103A2000202020221C000000000000CC4444444C14
:103A300036000000000000EE44442828100000007A
:103A4000000000EE4454545428000000000000CC54
:103A500048303048CC000000000000EE4424281814
:103A6000101078000000007C481020447C0000000A
:103A70000008101010102010101008000010101076
:103A8000101010101010000000201010101008105E
:103A9000101020000000000000245800000000006A
:103AA00003E00B780370491C401C13005A1E002BC6
:103AB000F7D17047130000D1704780B50A00190094
:103AC00001F036FB01BDF1B5002000220023AE4C11
:103AD0000C255D4365192F68002F18D0BC46009F48
:103AE0008026B600BE59B44512D16F68BC46009F0F
:103AF0008026B600BE19B668B44509D12D893E4668
:103B00008027BF00F619F688B54201D103E00122F3
:103B10005B1C022BDCD3022B05D1002A0ED102291B
:103B20000CD01220F2BD002907D10C214B43E11823
:103B3000498980225200914200D11020F2BDF2B595
:103B400001000022002080239B00C9180B688E4CC6
:103B50008F680C25454365192E689E4206D16E6814
:103B6000BE4203D12D89CE88B54202D0401C022826
:103B7000EFD3022810D100202568002D03D00120AA
:103B8000E568002D11D10C25454365192B608B6824
:103B90006B60C98829816A810C21414361184A8977
:103BA000009B002B06D0002A01D00020F2BD80220D
:103BB000520000E0521C4A81401CF2BD401E022807
:103BC00013D271490C22504309184A8900208023DE
:103BD0005B009A4201D0002A01D1488103E0521EC5
:103BE0004A81120402D1086070470220704710B564
:103BF00000210022644B0C2454431B191C6884428E
:103C000000D11960521C022AF4D310BDF8B505008A
:103C1000002600275D482818C07800282DD086206F
:103C20008000281844690123220029005748285C95
:103C300001F0D1FA002801D001271EE053482818CE
:103C4000C6708620800028188068201A8621890086
:103C50006958884211D24D48281886780BE0862092
:103C60008000285824180123220029004748285C96
:103C700001F0B1FA761E022EF1D23800F2BDF8B58D
:103C800006000C0000258B2080003718386884421D
:103C900011D03000FFF7BAFF05000CD1012322003C
:103CA00031003A48305C01F08BFA002802D0002441
:103CB000E44301253C602800F2BDF8B50500FFF79C
:103CC000A5FF06004DD1F22040002C18207F0328CC
:103CD0003FD12F482F18387801283AD180229200FE
:103CE00000212800FFF7E6FE5520A076AA20E07606
:103CF0005220287068706120A8704121E9707222FA
:103D000022706270A170E0708320800028184168E2
:103D1000217141680904090E61714168090CA171A2
:103D20004168090EE1710168217201680904090EF8
:103D300061720168090CA1720168090EE1720269E1
:103D4000521C026201232900607F01F044FA002026
:103D5000387000220021607F01F048FA002800D06E
:103D600001263000F2BD891E852292008218136858
:103D70009B1E994201D300207047064BC05C414313
:103D800050690818704700003C1B00200102000029
:103D90000502000002020000F8B504000D00022D2B
:103DA00071D3802080002018406985426BD20026A4
:103DB000F64380208000205C012804D063D30328D0
:103DC00045D030D35FE0680828180090802080003C
:103DD0002018006A0099490A41182000FFF74FFF98
:103DE000002851D10098C005C00D275C0098401CE8
:103DF0000090802080002018006A0099490A41182C
:103E00002000FFF73CFF00283ED10098C005C00D00
:103E1000205C000238430700E80701D53E0933E083
:103E20003E05360D30E0802080002018006A290A07
:103E300041182000FFF723FF002825D16800C005A6
:103E4000C00D201841780E02007806431CE0802047
:103E500080002018006AE90941182000FFF70FFFD1
:103E6000002811D1A800C005C00D2018C17809068E
:103E7000827812040A43417809021143007808430A
:103E80000601360900E001263000F2BDF1B582B02E
:103E90000C001500022C7AD380218900471878691C
:103EA000844274D201263878012804D06FD30328C5
:103EB00050D03DD36BE0600820180090386A00991C
:103EC000490A41180298FFF7DAFE002860D10298EB
:103ED0000099C905C90D42180098401C0090344053
:103EE00001940F240198002804D011782140280162
:103EF000084300E0280010703E71386A0099490AB2
:103F000041180298FFF7BBFE002841D10299009AA0
:103F1000D205D20D8A180199002901D02C0905E09B
:103F20001378F02119402B0A1C400C4314702CE02C
:103F3000386A210A41180298FFF7A1FE002827D10C
:103F400002996200D205D20D8A1815702904090E53
:103F500051701AE0386AE10941180298FFF78FFEA4
:103F6000002815D10299A200D205D20D8A18D17865
:103F70000906090F090729430D0011700904090EEC
:103F80005170290C9170290ED1703E71FEBD022036
:103F9000FEBDF1B582B00C00022C13D38421890040
:103FA00040180090406884420CD2002502980B39DA
:103FB0004018019021000298FFF7EEFE070024D080
:103FC000012F01D1022520E001260020C0438742B5
:103FD00001D1012519E0002221000298FFF756FFC8
:103FE000050012D1009800680021C943884207D01B
:103FF000401C0099086001980078064301980670FB
:104000003C00009840688442D4D32800FEBDF2B53D
:1040100082B0050001260027FF4300290DD183202F
:10402000800028580090002805D083218900691855
:104030008968884211D300960FE0FFF7ADFE022891
:1040400001D20120FEBDB8424BD0832189006918FE
:104050008968884245D302980090009C641C8320A4
:10406000800028188068844203D302240098022824
:104070002FD321002800FFF78FFE002822D13A0914
:1040800021002800FFF702FF002807D1029800282E
:1040900006D0220001462800FFF7F8FE00281AD1BA
:1040A000832080002C5028184068B84218D0401E49
:1040B00083218900691848607B48281801780E43DD
:1040C00006700DE0B8420CD001280AD00098844256
:1040D000C4D10020FEBD012801D13C0000E0012434
:1040E0002000FEBD10B5802292008218546A241D63
:1040F000480A11686D4A895C01F0A1F801E0401A94
:1041000008342168002901D1002010BD8842F6D270
:104110006168401810BDF8B50C0080218900451871
:10412000EC80AE68012E31D02868401841698E427B
:104130002CD2002E03D10178032902D1466A002E29
:1041400004D101898C4221D2406A1CE080780701A9
:1041500000E0E41B2868BC4212D33100FFF71CFECC
:1041600006000020C043864201D10120F2BD022E8C
:104170000CD328688521890040588642E9D305E0A0
:104180003100FFF7F0FDEE60002801D10220F2BD02
:1041900021094018286128682107C90D4018686165
:1041A0000020F2BDF8B50E00802189004418E78890
:1041B0007F1C380426D02069002823D039076AD113
:1041C000401C2061206839494218E168002903D168
:1041D000D08887425FD315E03B091278521E1A40FF
:1041E00059D1FFF7D9FD0500022D16D30020C04399
:1041F000854242D020688521890041588D4244D3B0
:10420000002E01D10420F2BDE168FFF700FF050098
:1042100001D10720F2BD012D01D10220F2BD002005
:10422000C043854229D02068FFF7F0FC002824D144
:104230008022920000212068FFF73CFC29002068C2
:10424000FFF791FD21688B2292008850002607E03D
:1042500020688B21890040180168491C0160761C88
:104260002068124941180A78964208D201208870C5
:104270002068FFF7CBFC0028EAD00120F2BD8B219B
:10428000890040180168891B0160E56029002068E9
:10429000FFF769FD2061E78020683907C90D4018E4
:1042A00060610020F2BD0000050200000202000073
:1042B0000200C87E00028B7E184380239B00D25CE4
:1042C000032A06D10200487D0002097D084300044C
:1042D0001043704781760A04120EC276090C0175EC
:1042E000090A41757047BAB507000420C1017C185E
:1042F00000252169002923D02068FFF7C0FC002891
:104300001ED162691178002901D104201AE0D27A05
:104310009206920EE5290DD02E290BD00F2A09D036
:1043200020218A43082A01D1012100E00021009ABE
:10433000914208D000213800FFF734FF0028D8D080
:10434000002800D02561B6BD70B504000021FFF73C
:10435000E2FE802189006618002817D10025316906
:104360003068FFF78CFC002810D171690978E529C5
:1043700003D0002901D0002502E06D1C012D08D0DA
:1043800001212000FFF70EFF0028E8D0042800D10B
:104390000720040014D131693068FFF770FC040075
:1043A0000ED1202200217069FFF784FB0B22B16936
:1043B0007069FFF775FB01203168812292008854F3
:1043C000200070BD70B50A00093284239B00C31819
:1043D00000201C68002C28D05B6800241D5D641C34
:1043E000202D09D0052D00D1E525092C02D12E263E
:1043F0001670521C1570521C0B2CEFD3DC7A0C7209
:10440000DC7F24069D7F2D0425435C7F24022C4302
:104410001D7F25430D605C7E24021D7E2C438C8015
:10442000DC7D24029B7D1C43CC80107070BD00009D
:10443000F2B584B0096801E00199491C0191019924
:1044400009782F29F8D05C29F6D0862189004058B8
:1044500000900B222021FFF72DFB002300200022DB
:10446000082104E008294BD108200B212B00019CD6
:10447000A45C521C9D00EDB20326212C03DB2F2CE3
:1044800001D05C2C07D1019FBA18049F3A60212CFF
:1044900033DA042432E02E2CE4D0884230D2802C4F
:1044A00008DB1D0003232B43DBB200BF23A52C191F
:1044B000803C2478029400BF40A500E06D1C2E785B
:1044C000002E01D0A642F9D1002E19D12500413D80
:1044D0001A2D04D21D0002232B43DBB209E0250074
:1044E000613D1A2D05D21D0001232B43DBB2203C78
:1044F000E4B2009D2C54401CB9E70024002801D1EF
:10450000062019E000980078E52802D10520009ADD
:104510001070082900D12B001E40012E02D120006E
:10452000102404430C201840042802D12000082441
:1045300004430098C472002005B0F0BD80818283DE
:104540008485868788898A8B8C8D8E8F90919293B3
:10455000949596979899AD9B8C9DAE9FA021A2A310
:10456000A4A5A6A7A8A9AAABACADAEAFB0B1B2B393
:10457000B4B5B6B7B8B9BABBBCBDBEBFC0C1C2C383
:10458000C4C5C6C7C8C9CACBCCCDCECFD0D1D2D373
:10459000D4D5D6D7D8D9DADBDCDDDEDFC0C1C2C3E3
:1045A000C4C5C6C7C8C9CACBCCCDCECFD0D1D2D353
:1045B000D4D5D6F7D8D9DADBDCDDDE9F222A2B2C46
:1045C0003A3B3C3D3E3F5B5D7C7F0000F3B581B0F4
:1045D00008782F2801D05C2801D1481C029001984E
:1045E0008021890044180020A060029800782028CB
:1045F0000AD200210198FFF78EFD00216161FEBD06
:104600002068FFF755FEA06002A90198FFF710FF90
:1046100000283CD100210198FFF77DFD04250028EA
:1046200024D121692068FFF72AFB00281ED1616987
:104630000A78002A01D1042018E0CA7A12070FD4A0
:104640000B23A26900261F007B1E002F06D00E78C8
:104650001778F61B521C491C002EF4D0002E05D0F2
:1046600000210198FFF79EFD0028DAD0A169C97AE0
:104670000D40002804D0042809D1002D07D105E001
:10468000002D04D16169C87AC006B9D40520FEBDE9
:1046900001000020C0430A68002A00D1704730B5ED
:1046A000130000E05B1C1C78212C01D33A2CF9D1BB
:1046B0003A2C0CD11578303D521C0A2D08D29A4262
:1046C00006D1002D04D100205B1C0B6030BD002002
:1046D00030BD38B50400FF20400025180020A87127
:1046E000C0438B229200A0502000FFF7C8FA002898
:1046F00001D0032032BD68780002297808430E49B2
:10470000884201D0022032BD36340C48A178090419
:10471000627812020A4321781143814208D0A17FB6
:104720000904627F12020A43217F1143814201D1B1
:10473000002032BD012032BD55AA00004641540080
:10474000F0B589B006000800170000213160FFF7BE
:104750009FFF050001D50B20C1E19748A900401833
:104760004468002C01D10C20B9E134600426F22009
:1047700040002018007F00280CD0F22040002018B4
:10478000407F00F001FDC10704D4002F01D030426A
:1047900017D1A3E10020F221490061180877F22027
:1047A000400020184577F22040002018407F00F09C
:1047B000F6FCC10701D5032091E1002F03D0304260
:1047C00001D00A208BE10020019000212000FFF79A
:1047D00080FF0500012D2CD1002001016118DF228E
:1047E000520089180A79002A0AD0CA7A12068B7AEE
:1047F0001B0413434A7A12021A43097A114300E058
:10480000002104AA8300D150401C0428E5D30026CF
:1048100004A8B10040580190002804D001462000AF
:10482000FFF757FF00E00220050002D0761C042E9F
:10483000EED3032D01D1012051E1002D3ED1207B8B
:104840000002E17A084380218900884236D1E07D68
:104850000002A17D084300902700213700280AD1DB
:10486000B8790006797909040143387900020843D0
:10487000F978014300910098832189006118C8608C
:10488000207CF22149006118C877012801D0022854
:1048900014D1009941430091617BF220400020181F
:1048A0008177002920D0481E014207D1A07C060252
:1048B000607C0643B04820184680300779D1207DBF
:1048C0000002E27C10430AD1B87800067A7812041C
:1048D00002433878030213432020205C1843E27B14
:1048E0001202A37B1A43039263D0009BD2183309B0
:1048F000D218029290425CD3801A00F0A0FC0028EB
:1049000057D0012101259D4A904200D302259C4A9F
:10491000904200D30325801C83229200A21890604D
:10492000019883229200A21810610198039A8018BE
:1049300083229200A21850610198029A8018832263
:104940009200A218D061032D11D1002E31D1B87B75
:104950000006797B09040143387B02020A43F87A96
:1049600010438321890061188968890014E0002EB2
:104970001FD08320800020184069009A801883226D
:104980009200A2189268022D01D1510004E0530058
:104990009B185B081140591883229200A21890615D
:1049A000832080002018C068764A8918490A884206
:1049B00004D20D2093E000BF781B00200020C043EC
:1049C00083218900611848608321890060506E4806
:1049D000261880203070032D72D1387C0002F97BBC
:1049E000084301286CD10199491C2000FFF747F9C1
:1049F000002865D13070F22040002018C07E0002EF
:104A0000F22149006118897E08436049884257D1E4
:104A1000E0780006A17809040143607800020843A9
:104A2000217801435A4881424AD1F220400020189F
:104A3000C0780006F2214900611889780904014311
:104A4000F22040002018407800020843F22149007B
:104A5000615C01434F48814232D1F220400020186E
:104A6000C0790006F22149006118897909040143DF
:104A7000F22040002018407900020843F22149004A
:104A80006118097901438320800020184160F220D9
:104A900040002018C07A0006F22149006118897A86
:104AA00009040143F22040002018407A0002084324
:104AB000F22149006118097A0143832080002150C6
:104AC000F220400020180577AE480088401CAD4910
:104AD0000880294960522000FFF789F8002009B0BA
:104AE000F0BD80B5002814D08021890040180168ED
:104AF00000290ED08022920089180A78002A08D056
:104B0000CA888088824204D1487800F03DFBC00703
:104B100001D5092002BD002002BDF3B581B0170008
:104B200000916846FFF7B4FD002801D50B20FEBDBB
:104B3000944980000C1865680026002D05D02800D7
:104B4000FFF755F8802189006E540198002801D1A3
:104B5000666009E0802189004654019860600198F0
:104B6000002801D0012F01D00020FEBD002202A9A3
:104B700001A8FFF7E5FDFEBD06020000F60F0000EC
:104B8000F6FF0000FF0100000502000055AA00002A
:104B90005252614172724161F2B5FFB08FB00700AD
:104BA00001D10920EAE00020802189007850D40654
:104BB000E40EFE2222408EA905A880239B00C01887
:104BC000FFF7BEFD05006CD102A88B908E9905A859
:104BD000FFF7FCFC05008A9E0CD1002E01D10625B2
:104BE00008E0FE202040010000D0012105A8FEF7CA
:104BF0006AFF050004201C210C427BD0002D71D0DF
:104C0000042D0CD1BA480168002904D0C0680028DE
:104C100001D0122002E005A8FFF796FB0500200056
:104C2000082404438A9E002D3AD120073FD500F086
:104C3000EBFA0090B07300980004000EF073009837
:104C4000000C30740098000E70740020F072307701
:104C50007077B077F07731008598FFF729FB0190E6
:104C600000213000FFF736FB012085998122920058
:104C700088540198002815D085988B2189004158C7
:104C800000910199FFF785F9050009D185980199EF
:104C9000491E8322920081500099FEF7F0FF050023
:104CA000002D6AD1200702D52000202404438598D6
:104CB0008B21890040582C397918C86180208000E8
:104CC00038180662FE202040010000D0012105A80E
:104CD000FEF735FF8021890079188862002816D1F7
:104CE00002254AE0F17A112211420ED104429CD0F1
:104CF000082542E0002DD3D1F17ACA0601D504255A
:104D00003BE0A007CED5C807CCD5072535E08020ED
:104D10008000381884710020802189007918C871BA
:104D2000859C31002000FFF7C3FA802189007918A3
:104D30000861F07F0006B17F09040143707F000223
:104D40000843317F0143802080003818C160002073
:104D5000802189007918886080218900791888610C
:104D60008021890079184862802080003C50801D95
:104D7000205A802189007918888028007FB010B0DF
:104D8000F0BD0000781B0020F9B583B0160000913B
:104D90000020049908600398FFF7A3FE00280AD1B9
:104DA0000398802189004418E079002803D1A07974
:104DB000C00701D4072099E0E068A168401AB0421A
:104DC0001ED806001CE0A561A068C005C00D8021AA
:104DD0008900091A35008E4200D90D002A00039976
:104DE00009180098FEF75CFE009840190090A06832
:104DF0004019A06004980068401904990860761B67
:104E0000002E72D0A168C805DED120684A0A394B4D
:104E1000C35C5B1E1340DBB2002B019314D100294D
:104E200001D1206909E0626A002A03D00398FFF7E4
:104E300059F902E06169FEF7AFFF02280AD30021A9
:104E4000C94388424ED0606161692068FEF78BFFDC
:104E5000050001D1022046E001982D18770A24D0E0
:104E600020684F494018029040780199C91988423A
:104E700001D20199471A3B002A0000990298007854
:104E800000F09EF900282DD1A07940060BD5A0692D
:104E9000401BB84207D2802292000399009B400237
:104EA0001818FEF7FDFD7D029EE7A269AA428AD08E
:104EB000A07940060CD5012303992068384FC05DC6
:104EC00000F089F900280DD1A079BF210140A1711E
:104ED00001232A0003992068314FC05D00F070F96A
:104EE0000028E4D00120E07100E0002005B0F0BD12
:104EF0003C1B00200202000070B50500FFF7F1FD29
:104F000000284BD1802189006C18A17920263142DC
:104F100044D048060FD50123A26929002068204DFE
:104F2000405D00F058F9002801D0012070BDA07943
:104F3000BF210140A171E1692068FEF7A0FE0028B1
:104F40002CD1256AE87A0643EE72E0682877E0689B
:104F50000004000E6877E068000CA877E068000E97
:104F6000E87721692800FFF7B5F900F04DF9A87539
:104F70000104090EE975010C2976000E68760020FF
:104F8000A874E874A079DF210140A1710120216893
:104F90008122920088542068FEF78FFE70BD0000C9
:104FA0000102000010B50400FFF7A6FF00280ED193
:104FB0002000FFF796FD002809D1802080002418EA
:104FC000A06AFEF7FBFD002801D10021216010BD81
:104FD000F2B584B0070001D109203FE0002204A906
:104FE0006846FFF7ADFB0400802080003E180025D6
:104FF000002C2FD10098306001A8B06104993800CE
:10500000FFF7E4FA040021D17169002906D0C87ABB
:10501000C0061DD50098FFF74BF9B06000984349D2
:10502000405AB08000213800FFF775F804000DD118
:10503000B068002801D1F5610FE000213800FEF7CB
:105040007EFDF061002808D1122405E0042C01D176
:10505000052401E0002C00D03560200005B0F0BD33
:1050600010B50400FFF73DFD00280CD18021890018
:105070006418E169002904D00800FEF79FFD0028AC
:1050800001D10021216010BDFEB504000E00FFF724
:1050900028FD002822D1002E04D100212000FFF796
:1050A0003AF8FEBD8420800027186846B8600021C9
:1050B0002000FFF718F90025042801D13D6001E028
:1050C00000280BD131002000FFF77CF900212000DF
:1050D000FFF768F8042801D13D600020FEBD71B5DE
:1050E000FFB08CB00E0003AC00228BA980208000A2
:1050F0002018FFF725FB050014D16846862189009A
:1051000060508B9903A8FFF761FA05000AD18898CF
:10511000002806D0002E05D0310003A8FFF752F971
:1051200000E0062528007FB00DB070BD060200002B
:105130001206130A1A43130C1A4300BF094205D082
:10514000830705D00270401C491EF9D1704700004A
:10515000130030B414001500103902D310393CC0CC
:10516000FCD2490700D30CC000D504C0890002D38B
:105170000280801C002900D5027030BC70470000FE
:105180000022DBE70022E3E780B501001D4A50184A
:10519000007A8900511849684968884702BD10B5EE
:1051A00001000020174A53181C78002C07D1012059
:1051B0001870187A8900511849680968884710BD25
:1051C00038B504000F4D2819007AA4002C19646822
:1051D000A468A04732BD38B504000A4D2819007AEA
:1051E000A4002C196468E468A04732BD10B504001F
:1051F000044B1819007AA4001B195B681B699847B7
:1052000010BD00006C1B002000207047F4460028F1
:1052100004D4494200F013F840426047404200295C
:1052200005D45FD000F00BF8404249426047494244
:1052300000F005F84942604703460B43E6D40022DC
:10524000030A8B420BD203098B4219D243088B42CB
:105250002ED2411A00D20146524110467047FF2219
:1052600009023FD012068B4205D3121209028B426B
:1052700001D31212090203098B4219D300E0090A73
:10528000C3098B4201D3CB01C01A524183098B421F
:1052900001D38B01C01A524143098B4201D34B0108
:1052A000C01A524103098B4201D30B01C01A52416B
:1052B000C3088B4201D3CB00C01A524183088B42F2
:1052C00001D38B00C01A524143088B4201D34B00DB
:1052D000C01A5241884200D3401A5241CFD20146EF
:1052E0001046704708B500F001F808BD7047026825
:1052F000531C036011707047E0225200801802684E
:10530000914203D34368D218914202D380680028A7
:10531000F5D170471948016800290ED18021490252
:105320008160090941600021C943C1600161042114
:105330004161134A1160134901600120704730B484
:105340000300072408000830204201D1002404E0B3
:10535000082508000830281A04400819111B986114
:10536000D96001220A434260282240184260034863
:105370000069D86130BC704700000000541B002059
:10538000001A00206859883CF0B587B00700072450
:1053900008000830204201D1029106E008250800EB
:1053A0000830281A204008180290100008302042C7
:1053B00005D0082110000830081A04401219140002
:1053C0000298C018039005460298201AC01A01904E
:1053D0000326334302984360A54201D301F0D2FA79
:1053E0002079C00701D401F0CDFA0198102801D22C
:1053F00001F0C8FAB869844208D1F86801994018E8
:10540000F860BD610121014369606EE17869844201
:1054100009D1B86801994018B8607D610121014344
:105420006960285061E160680640012E00D0BBE051
:10543000072188430590C00820283ED2A16800912A
:10544000E6680490B44201D101F09CFA00988442CD
:1054500001D101F097FA6068072188430499C900D7
:10546000884201D001F08EFA0498C0003918009AE1
:1054700008002830824208D010463A69904200D293
:105480008AE0C068A04200D086E00098864206D13B
:1054900038680121049A9140884338607EE02831C1
:1054A0008E4205D03869864276D3B068A04273D167
:1054B0000098C6600098B06070E0A0690090E6684F
:1054C000A6420CD0A0683969884225D3C168A142A0
:1054D00022D1B168A1421FD1C660B0601EE0210098
:1054E00014310E68002E07D1210010310E68002EF5
:1054F00014D001E001000E68300014300268002A68
:10550000F8D1300010300268002AF3D138698142A6
:1055100002D30020086001E001F034FA009800286E
:105520003CD0E06980003818982149004018016893
:105530008C4209D10660002E14D178680121E269FD
:1055400091408843786029E000983969884207D300
:105550000069A042009801D1066103E0466101E0C4
:1055600001F010FA002E19D03869864214D3009940
:10557000B1612169002906D0814202D331618E6177
:1055800001E001F0FFF96069002807D0396988421D
:1055900002D37061866101E001F0F4F905982418E6
:1055A0000198059940180190606801218843606066
:1055B000019801436960019828500198C00820288B
:1055C00022D20090C0003C182834260001981028F0
:1055D00001D201F0D7F9386800990200CA40D1071A
:1055E00005D40121009A91400143396007E0A06889
:1055F0003969884201D3060001E001F0C3F9A560D2
:10560000F560AE60EC6070E00198000A01D1002204
:1056100025E080214902884201D31F221FE0FF219B
:10562000C9434118090C082211408840314A8218A8
:10563000120C04231A4090402F4BC3181B0C022459
:1056400023400E24611A891AC91A9840C00B081801
:105650004100019AC01DC240D007C00F0A18900037
:105660003818982149004118EA61002068612861D2
:105670007B681C00D440E40705D401209040184307
:1056800078600D601DE009681F2A01D1002302E047
:10569000192352089B1A019A9A4000E019004B689E
:1056A0000724A343019CA34210D0D30F9B00CC1826
:1056B000103452002368002BF0D13869844212D391
:1056C0002560A961ED600398A8600EE08A683B69D7
:1056D000994208D39A4206D3D560039B8B60AA6097
:1056E000E960A86101E001F04DF90298083007B0C7
:1056F000F0BD000000F0FFFF00C0FFFFF2B586B074
:10570000040091480068002801D1FFF703FE8E488D
:105710008168069840182F30491E884306998142B7
:1057200000D3D9E1D821490061188968002909D03E
:10573000D8225200A2581018824200D3CCE18142F4
:1057400000D2C9E101F024F9002800D1C4E107002A
:10575000006800900020C043874200D1BCE1D820FF
:105760004000205800994018D82149006050611825
:105770004968814200D20100D820400020184160D1
:10578000A069002838D12069002801D0874200D2C2
:105790002761D8204000201807610098D8214900CF
:1057A000611848610020D82149006118C861664825
:1057B000006860620020C043206200202100283180
:1057C000C9600A0008321160D2609260801C1031FA
:1057D0002028F5D3C248844203D1009A283A3900E0
:1057E00028E0201F00680721884321180839009805
:1057F0003818421A283A1DE0E0204000201800E046
:10580000806800281AD00168426889188F42F7D151
:10581000017B090712D4A169026891420ED3436843
:10582000D21891420AD2009959184160E068009953
:105830004218A1692000FFF782FD3AE12069874202
:1058400000D22761E020400020180099791800E07C
:105850008068002810D002688A42F9D1017B0907CC
:105860000AD407604168009BC9184160069B390053
:105870002000FFF789FD30E1A0690290054629006C
:105880002000FFF739FD01684068081805900146BF
:105890002F3908000830400701D1002005E0082218
:1058A00008000830101A4007400F0918280010306F
:1058B000814201D2019500E00191019808300490E5
:1058C000019E1836002003900099283938000830CE
:1058D000400701D1002205E0082238000830101AE4
:1058E0004207520FB818891AA061E16001220A43E9
:1058F000426028224018426013480069E061049821
:10590000400701D001F03EF81B200199486004983F
:10591000E02149006118102201F064F8D82040000D
:10592000201807610098D8214900611848610020BB
:10593000D82149006118C8610498D821490061182C
:105940008861059803E000BF541B00200E00311D44
:1059500007227260039A521C03920A1D8242F5D3F9
:105960000398022801DA01F00DF80198A84200D14D
:105970009FE0401B29184A6801239A434A6001228C
:1059800002436A600860C108202921D20091C90041
:10599000661828363700102801D200F0F3FF20687F
:1059A00000990200CA40D10705D40121009A914014
:1059B0000143216007E0B0682169884201D30700F4
:1059C00001E000F0DFFFB560FD60AF60EE6070E009
:1059D000010A01D1002226E01A04914201D31F22BC
:1059E00021E0FF22D2438A18120C08231A400092A9
:1059F00091403C4A8A18120C04231A4091403A4BB9
:105A0000CB181B0C022633400E26009FF61BB21A41
:105A1000D21A9940C90B51184A00C91D0300CB4046
:105A2000D907C90F52189100611898235B00C91853
:105A3000EA6100236B612B6163681E00D640F607A4
:105A400005D401209040184360600D601CE0096897
:105A50001F2A01D1002302E0192352089B1A0200D9
:105A60009A4000E019004B680726B343834210D0E8
:105A7000D30F9B00CE18103652003368002BF1D1A3
:105A80002069864213D33560A961ED600298A86051
:105A90000FE088682269914209D3904207D3C5601C
:105AA000029A8A60A860E9600020A86101E000F025
:105AB00069FFE068069981420ED2411AE160A0694F
:105AC000069A8218A26101230B43536006990322B0
:105AD0000A434260083000E0002007B0F0BD00003B
