:020000040800F2
:10000000201E002089350F0869310F086B310F0859
:100010006D310F086F310F0871310F0800000000BB
:10002000000000000000000000000000E9E80908EE
:1000300073310F080000000091E8090875310F08BE
:10004000E1350F08E5350F08E9350F08ED350F08E4
:10005000F1350F08F5350F08F9350F08FD350F0894
:1000600001360F0805360F0809360F080D360F0840
:1000700011360F0815360F0819360F08A5310F086D
:100080001D360F0821360F0825360F0829360F08B0
:100090002D360F0831360F0835360F0885310F0819
:1000A00039360F083D360F0841360F0845360F0820
:1000B00049360F084D360F0851360F0855360F08D0
:1000C00059360F085D360F0861360F0865360F0880
:1000D00069360F086D360F0871360F0875360F0830
:1000E0008D310F0879360F087D360F0881360F08DD
:1000F00085360F0889360F088D360F0891360F08A0
:1001000095360F08A3310F0899360F089D360F0852
:10011000A1360F08A5360F08E3130A08A9360F0801
:10012000AD360F08B9310F08B1360F089F310F08EF
:10013000B5360F08B9360F08BD360F08C1360F089F
:10014000C5360F08C9360F08CD360F087F310F08A6
:10015000D1360F08A1310F08D5360F08D9360F0850
:10016000DD360F08E1360F08E5360F08E9360F08CF
:10017000ED360F0879310F08BD310F08000000007F
:10018000F1360F08F5360F084B65726E656C204C22
:100190006F67000050726F636573732056696577EF
:1001A000657200004350552055736167650000007B
:1001B00043616E63656C000000000000486964657F
:1001C000000000004D756C7469656469740000007E
:1001D00050726F636573732076696577657200008E
:1001E0004C6973747669657700000000AB4ACB52A6
:1001F000EB5249422842083A083AE831293A283A6B
:10020000694AC731083A2842C731694A694A86298A
:100210004942AA4A694AC639E6394842684AE7313A
:1002200049420C532D5B2C5BA63165298631694A06
:10023000894A484A0842863107420742894A484269
:10024000AA52083A4942EB520C5B69426A4AAA52E6
:10025000694A4942E839AA4A8A4A69424942A6316A
:10026000283AE73129428A4A8A4A4942C7318629CF
:100270006629C739083AA731A731E7390842494A00
:10028000E7396529A631083AE73948428A4A69427E
:10029000E839694A4942C7390742A5312842EB5239
:1002A0004D63EC524A4287290C5B0C5B694A8529F5
:1002B000E73908428A4A294269424942083AC7391D
:1002C0008A528A42AB4AE7316529442924214529CB
:1002D00049426942E731283A8A42E7316942AA4AEB
:1002E000EB4A2D5B4D5BAB4A293AE8314521E839B1
:1002F0008A4AAB526A4A283A493A0C53EC52CB4AE2
:100300008629E831A729493AEB52EB52CB52283AD9
:10031000CB52AB52083A694A083A8A4AEB524C5BD4
:100320006942283A083A073A694A2842EB522C5B5C
:100330008A4A284286316529083A8A4A0C534D5B1D
:100340008A4269426942EB52E839C731E839EB52D7
:100350002D5BCB52493AA72986294942AB4AAB4A81
:10036000AB4A6A428621283A08326942CB524D6331
:10037000CB52694AEC5ACB52CB52083AC731662964
:10038000083A4D63CC520D530D5B2D5B0D53493A2A
:100390006A42EC52EC520D53EB4AEB4A8621862915
:1003A000083A08420842AA5AAB52EB5A4942AA4AB2
:1003B000EC5A6942493AA629EB524D5B4D5B6D639D
:1003C000CB4A8A4A8629A729293ACB52AB4A4A42C4
:1003D000C731C731694AC739AA5A484AA539853150
:1003E000A631E739A63186298A42EC520C538A425B
:1003F000493A8529A629283AAB4A8E6B6D638A4A09
:10040000A6316631E7398A4AE839A731A73186290A
:10041000452986318A4A0C5B2942A7316942083A4C
:10042000AB520C5B083A29424942C731083A6A4A42
:10043000083A49424942A7318B4A0D5BAB4A083A18
:100440002942C739A631AA52AA52C7310C5B0B5BAD
:100450004942283AC731CA52083AA629E8398A4A95
:10046000083AA72965298A524952A639083A8A4A80
:10047000EB5AAA52CA528A4A6942A729A729E839DF
:100480008A4A8A4A083A8A4A4942694A4942A6310E
:100490002942E739C739E7390742CA52AA52694A9D
:1004A000283A493A293A083AE7392842A63908420F
:1004B000284AC739694ACB5AC639C6310B5B2C6307
:1004C000CB528A4A494208328A42AA4AAA4A694217
:1004D000C7298A420832C729C731A731C731C73176
:1004E000694249428629C7314942EC5A8A4AE7396A
:1004F0002842C739A6312842EC62AA52494AE73954
:10050000083A494ACB526D63EB5AEB52E739E73967
:1005100049428A4AEB5A0C5B2C630B5BE739494230
:100520008A4A8B4A6B4AC8318A4ACB52CB522842FC
:10053000EB5A2C63EB5A083A083AE839E7398A5201
:10054000AA52083A083AEB52AA52AA52E73986311F
:1005500086318629A629A6290732E7310832493A89
:10056000E731493ACB4AEC524942083A083AC73196
:10057000A7318A4ACB524D638A4A6A4AA731A731CA
:100580008631C739E839AB526A4A8A42083A494249
:10059000694249420C5B6E6BEB5A2C5B8A42CA4A39
:1005A0006942AA4A4942283A0C5BAA52AA4AC73170
:1005B000694A694A29428A4ACB52AA4A4942EB52BD
:1005C000E8316521A729A629C731E839EC5A2D63FE
:1005D000AB5249428A4A083A083ACB52083AA7290C
:1005E000A7296521A62965216521C731CB522C6336
:1005F0002C5B4D63EB52C73186294521A731494217
:10060000EC5A0C5B8A4A293A6A42293A293A493A11
:100610008B4AAB4AC729E831A73108424942083A18
:10062000E73949424D634D63C731A731E731AA4AE3
:100630008A4AE831E731E8310C536D638A426A42F5
:100640006A426A42C7318A4A293A8A4A083A86295E
:10065000283A2C630C5B4C6B8D734C6BA952AA52DD
:100660004C638A4AC631EB52AA4A08326A42E831E0
:1006700086296942CB4A49422D5B0C5BAA4A494A0A
:100680000B5B6A4A2842A6318629A6296521C73113
:10069000CB524D6B4D638A4AE731AA4A4942083A28
:1006A000CB52083A083A69424942083AC73186298A
:1006B000E8394942C731E8394A42AB4A093A862902
:1006C000EB5A694A2C634C6B2842283A8A4A283AEA
:1006D000A629A6296942AA4AE731083AE831A7299A
:1006E000C73166292842EC5A8A52E8498629C7311F
:1006F0002842A631C739E7396521A629293A083A9F
:10070000E839E739083A4942AA524942C7318629AD
:100710004942C7316529A6316529A631C6318529E7
:100720006629251945218629C731CB5249426529B9
:1007300048424842C731284208428629694A49420C
:100740008A4AAA4AC73125218629A731A6316629B6
:10075000083AC731A631A631083A28428A4AE73911
:100760004942E83986298A4A284228424942E739DB
:100770008A4A0C5BAA528A4AAA528A522842C7392C
:10078000AA522C63694ACB52AA4AAA524942083A51
:10079000AB52AA52083A083A28420C5B2942C731A8
:1007A000293A4A42EC52083A29422942284249420F
:1007B000AA524942083AE7314942083A2842694A6E
:1007C000E739283A4942694AAA52AA528A52AA5299
:1007D000CB5A8A4AEB52CB52283A283A6942CB523A
:1007E0006A420832E731083A6A420C5B8A4AE839C1
:1007F000C731E8396A4AEC5A0C5B2942E8390842A9
:100800008A4A4D6B8A526A4AAA4A6942E731CB52F8
:10081000CB52694229426942C731283AE731A629B9
:1008200069426942CB52AA4A083A283AE731E7318D
:10083000E7318629083AAB52083A4942283A283A21
:10084000C731E831AB4AAB4AAB4AAB52AB52AB52C1
:100850006A426A42CB524942C7318629E839694225
:100860000C5BAB52EB5A283ACB524D63EB52694AC0
:1008700049422942E839083ACB526A4A8A4A8A4AA6
:10088000CB52083A6A42293A6A426A428629862944
:10089000A7298629E83149426A4AEB5AEC5A694A43
:1008A0004D634D632942C731C73129424942AB529A
:1008B000E831A729293A0C53AA4AAB4AE731C73194
:1008C000C731A7296A42CB52AB52CB5269426A4A1E
:1008D0000C5B2C638A4AEB5AEB5AEB5A4C634D6320
:1008E0002C636942283ACB528A4A8629E8314A4227
:1008F000AA4A0C5BEB528A42E831C731A631083A6A
:10090000494AE739E739E739CB528A4A083ACB52A4
:100910002C63EC5A0842E731A731E839283AE7312D
:1009200029428629C731083AC731A731AB526A4AF2
:100930002942083A083AC731083AE8398629294253
:1009400028428A4AAA5228428629E8394A424A421B
:100950002942CB52AA4A083A8A4A283A6629A7313C
:10096000283A083ACB522942A6312529E839662986
:100970008629C631A631E739083A8629A7314521AB
:100980006529652986296529A731A631E839A73166
:10099000C729A629083AE73149422842E739C73131
:1009A000083AA731083A6A4AE7394942894AA631E2
:1009B00069428A4A2842C731083AE73949426942BE
:1009C0004942E8396629E739C739C73929422842F7
:1009D0008A52494AAA52AA52AA528A4A6A4AE73114
:1009E000283A4942694A694AAA4A8A4A8A4AC73120
:1009F000083A8A4A8A4A2842E839C731494A0C5B90
:100A0000694AEB5A694A694A283AC7312842E839A3
:100A10008A4A4942A731E831293A6A4ACB4A083A18
:100A20006A42CB520C5B293A8629A73149428A4A4D
:100A3000694A083A49426942EB520C53EB52CB5295
:100A40004942EB52E739C731694A284249428A4A4A
:100A500049428A4AEB520C5B2C63EB5A69428A4A40
:100A60000C5BCB52E831A729283A8A4A694269428D
:100A7000CB520C5B29426A426A42E729AB4ACB4A15
:100A80006A42CB52694269428A4AEB52AA4AE7312A
:100A9000283A2842A7316529C7314942083A083A1D
:100AA0008A4A894AAA4A4942A629E7396942CB5269
:100AB000694A4942083AE739E83969420832C73198
:100AC000EC52AB4A6942CB52AB4A49426A4A6A4A43
:100AD000C7314942E83986292942E8394942AB52AF
:100AE000CB52EB5A2942083A8A4ACB528A4AAA4A3E
:100AF000E7318629C731CB524D63EC5A0C5BCB52A0
:100B00008A4A49426A4AAA4A6A4AE839A631083AF0
:100B1000083A4942EB520C5B4D5BEB52E731083A25
:100B2000284229428631A739694AAB52CB52AA4A98
:100B3000C73149420C5BEB52083A4942493AA7296E
:100B4000083ACB522D5B0C5BAB526A4A283A8A4A70
:100B5000083A083AC631C7314942083A8A4ACB5264
:100B6000CB526942A629083A283A083A6A4AAB5257
:100B7000CB52283AE739A6296521A6294942E73907
:100B8000A6310842CB520C5BCB52C731694A0C5B91
:100B9000CB5228426629083AC731083A2942C73160
:100BA000083A6942083A283A4942AB52AA4AC73140
:100BB000E839A731AB52AB526A4A083AE839EC5AE5
:100BC0008A4A8A4A083AA731C731AB52AB52294206
:100BD0006A4AAB528629083AE7394521083ACB528E
:100BE0008A4A8A4AAB52E839A63186318B4A8A4A08
:100BF00086294942694AC731AA4A4942C7318629EA
:100C0000E739694A694AA631A631A63149426A4A9A
:100C10008A42283ACB524942CB52CB5AEB5A29420C
:100C200049424942083A6A4A69420842694A073ACF
:100C3000E73928426A4A083A283AE739C731083A78
:100C4000A73166212942EB520C5BCB52EB52EB529F
:100C50004942083A494228428A4A083AA629E739CD
:100C600028426942CB52694ACB528A4A283A083A0A
:100C7000C731C731694AAA52E7396529694AAA5278
:100C80004942694ACB526A4A4942E7394942C73127
:100C9000083A283ACB52AB4AAB4A493A0D53AB4AD1
:100CA000083AEC520C5BCB52083AE839E839E7399C
:100CB000283AAA4A4D632C5B8A4AAA4ACB52AA4ACE
:100CC000AA4A8A4A8629C731694A083AA631A73111
:100CD000E7398A4A694A49426A4AEC5A0C5BCB5264
:100CE0008A4ACB52083ACB52083AE731694A49421C
:100CF000083A8A4A4942A731E731283A4942CB5259
:100D00008A4AC731E731C731083AEB520C5BE83900
:100D100028420C5BAA4A283ACB52694A4942CB5234
:100D20008A4AA629C731A6314942EB52AB52494201
:100D300049422C630C5B8A4A8A4A8629283A283A17
:100D40006A42CB52E839293A49426621C731E73134
:100D5000A731C731A731083ACB520C5BAB522942BD
:100D600029426A4AC731E8394942083A293AAA4A27
:100D7000494208328A4A6942EC5ACB52083A6A4AD6
:100D8000AB52EC5A0C5BAA52A629E739AA520C5B6B
:100D9000EB5ACA524842E739083AC7296942694AB8
:100DA000A6312942494AAA52EB5A0C5B6A4AC7311A
:100DB000C731CB52CB52E8394942EC52EC52E831C0
:100DC00049422D636A4A6942AB52CB52EB5A4842C0
:100DD0006529C7314942083AE831A629E831283A5D
:100DE0006942E731C73149422942CB524A4AE83980
:100DF000283A6521C731E7392842CB52EC5A8A4A52
:100E0000083AAA52AA52CB52A631C7318A4A49425D
:100E10002842A63129424942494249428629E839B5
:100E20000C5B4D638A4A2942CB528A4AC731294218
:100E3000AA4AE8396A4A294208428A52694A6A4AF1
:100E4000A7318629A62949420C5B8B52C839E9395A
:100E50006A4AE8398629E8396629C731EB52EB52EC
:100E6000083AE839C731A731294208422942CB5212
:100E7000083AE731694A283AE7396A4ACB52AB5215
:100E8000083A8A4A8A4AA731694A8A4A8A4A4942BA
:100E900069424942AA4A2842083A694A6A4A6A4A61
:100EA0002942AB5A8A52CB5A083A083A283A283A89
:100EB000283A083AC731A62949422842E73149422F
:100EC000A731E73129428A4ACB52EB5A28428A4A53
:100ED000694AA731A631694AC731283A083AA6318A
:100EE000C73186298A4A4942A631A629A6294942FC
:100EF000EB5A494249428A4A8A4A083AE739C73195
:100F0000E7316A4AAA522842E73929422C63694AE2
:100F1000C731283AAB4A083AAB4A093A8B42EC52FD
:100F20004942E8318A4ACB526A4A4942694A6A4A86
:100F3000293A083A083A494249420C5B4942C731CA
:100F4000A629C7314942083A2842083A294249426B
:100F50008A4A49426529A6318629C731E839E839E4
:100F6000E839AB4A8A4ACB52283A28428A4A49424F
:100F70004942E839CB5ACB52CB5AEB5A8A52694A8A
:100F8000494A28420C63AB5A6A4A694AEB528A4A78
:100F9000CB522C5B283A6942AA4A083A2842AA5204
:100FA000083AE739AA4ACB52AA4A49424942494239
:100FB000083AAA4A49428A4A283A8629CB526A4ABA
:100FC000083AAB52494266294521C731083A49429D
:100FD000AB52C731C7316A4A6A4A8A4A6A4A2942C9
:100FE000CB52C73129426A4AA73145218629083A9E
:100FF000E8316942AB52E8398A4A6942A629494236
:10100000AA4A6942283A8629894AEB5ACB52CB52DE
:101010004942A6298629A6318631294AAA52284260
:10102000283A694269428A420C53CB52083A8A4AAA
:10103000AB52283A2842A7312842AA4A6A42293AA2
:101040004942E839083A49424D632C632842C73186
:101050004942CA52CB52AB4AAB4A8A42AB4ACB4A0C
:10106000493A8621CB4A4942E8396A4A083A662910
:101070006629C7316A4A694ACA52EC5A694AA73195
:10108000083A8A4A4942083A8629AB528A4AE731E5
:1010900086298629AB528A4A8A4AE839283AAB52CD
:1010A00069424942083AC7312942E839083AEB52C5
:1010B0008A4AE8394942E83908426A4A694A083A9C
:1010C000E7316A42E831293AAB5229420942EC5AE7
:1010D000AB526A4AE8390842284229428A4A083A09
:1010E000A731E739862986312942A73109426A4A60
:1010F000694A2842483A894AC731C73149426A4A4F
:10110000E7396529862965292842694AAB5249424F
:10111000E7394942083A8529A631E739A731A7318D
:1011200049424942083A494249426942C731494223
:101130000842494A8A4AE7314521A631C731A629E2
:10114000A6316A4A694A494A6A52294A8631C739E8
:10115000294A294A294A694A284229428A4A8A4A06
:10116000EB5A694A2942C7318629C7318A4A6942FE
:10117000EB528A4A25218629CB52CB52AB52EB52F5
:101180004942E839083A8629083AC7392842694A63
:10119000CB524942A629E731AB4A49426A428B4ABF
:1011A0004D5BCB52A6298629C731083A49426A4A83
:1011B0000C5B8A4AE839083AC6314942283A294242
:1011C0004942083A2C63AB52E831EC52EB52694287
:1011D0004942083AE739694A4D638A4AE839C731D2
:1011E000083AAB4ACB52E731694A0C5B4942284284
:1011F0002842E7394942CB52CA522842694ACB5A5F
:10120000CB5A8A4ACB5A0C630C63CB52E739083A63
:10121000EC5A8A4AA6298629862929424942E83970
:10122000C731083ACB528A4ACB528A4A8A4A0C5B67
:10123000083A65218621A629C73149428A4ACB52FC
:101240006A4A4942C731E83986292942AB528A4A5B
:10125000AB528A4AAB526A4AEB528A4A083A083A77
:10126000C731E8396A4ACB52083A083A6942EC5227
:10127000E8318629A731CB528A4A6A4A4942083A5C
:10128000283A65216629283A0C5BCB52C7314521A3
:10129000C7318A4AEB52EB5A6A4A8A52CB52EC5A0D
:1012A0002942E73969420C538A4AE731073AEB5A37
:1012B0008A4AC73169424D634942A631A731AB4AD8
:1012C000AA4ACB522D630C5BEC5AE839A63148424E
:1012D0002C630C5BAA4A6942AB4ACB52293AC72914
:1012E0008621E831AB4A6A4AE8398629A731AB52F0
:1012F000AB52CB52083A8629A631E739C731862945
:10130000293A6942E7316521C731294249428A4A6F
:10131000694269426A424942C731A731AB52083A31
:101320002942283A4521E839C731C7314D63EC5A83
:101330008629A7312942083A863186292842E83988
:10134000EC5AEB52293AAB4AE831083A4942294271
:1013500049422942E8392942083A4942C731241909
:101360006A4AEC5AE839C731A6296A4266298629B1
:101370008629C631E7314942AB528A4AE839862983
:10138000452124218629083A083AE739083A083ADB
:101390002421452944290321E3204529862986293A
:1013A00045210421E318652149424942283ACB529C
:1013B000CB52AB526942E739E739894AEB5AAA5214
:1013C0008631084249420832E731A6298629694216
:1013D000CB52AA4A8A4A69428629A631CB52284270
:1013E0002842E73986296629E73149422C5B8A4A37
:1013F000283A083A283A4942283AC731283A6A42F4
:101400000C5BC7314521C7310C5BEC5A8629E839A2
:101410008A4AAA528629A631073A4842694A4A426C
:101420008A42CB52AA4A6942CA522842694A494270
:101430008B4AEC5AEB5A8A4A2842694A2942AB52F3
:101440002D632842CB528A4A49420C53EB528A42BE
:10145000AA52C7318A4A2C5B2C5B6E636E632D5B8C
:10146000C8318A426A42694ACB52CB524942284229
:10147000A631494AE739694A8A428A42CB4A283A20
:10148000AA4ACA4A083AE7318A4A8A4AA731C73182
:101490004942A62969428A4A6942083A6A4AE839B1
:1014A00049426942C731A731A7294942CB52CB52A1
:1014B000494249422C5BEB528A4AAB52AB52EC5A3E
:1014C000494A662908424D63EB52CB528A4A8A4AFE
:1014D0004942293ACB52293A6942293A2C5BCB52EC
:1014E000083A8B4A4D632D63AB4A0C5BEC5A083AC1
:1014F000E8396A4ACB52EB528A4A283AEC5A0C5BDA
:10150000283A083A0C5BCB52AA4A283A6529283A6D
:101510000C5B0C5B8A4A49420832283A493AC73187
:10152000A63108428A52CB5A694AA629283A083A73
:10153000C63149426D634D63694A083A69426A4A55
:101540008A4A6D636A4AC7318631083A0C630C5B7C
:10155000694A4942294229426A4A4942C831293ADC
:101560008B4A6A4AC731E839A731E839283ACB5261
:10157000AB52CB52494A2842EB5A083AE739AB52B0
:10158000A72966212419A631CB524942C7314942C5
:10159000CB52CB52AB528A4A083A8A4ACB526A4A59
:1015A000CB52E839083A4D63AB52EC5ACB52083A69
:1015B000A731CB526A4AC731C731294286298A4AA4
:1015C0008A4A8629C7314942E7392842C7318629E4
:1015D000083A45210942E8394942AB52A629083A5E
:1015E000083AE739294229426A42EC52C739083A97
:1015F0008629E731283A0732C731A731452904192E
:101600008629C731C731083A2842494286294529E7
:1016100065318531C6398952E741A631AA520C5B42
:10162000E839A631083AE7310832E731083A494249
:10163000083AA631E731073A083A48422742284299
:101640002842E841C731E731283A6942493A283A05
:10165000AA4ACB520832C731494249422842E739A7
:1016600028422942EB5AAA4A283A493A283A8A4A51
:10167000CB52E73129428A4AAA4AAA4A8629C73167
:10168000293A083A494229422942083A283AA629E1
:10169000083A2842083A85296529A6312842E731C7
:1016A00045218629083A8A4A2C63AA4AAA528A4ABC
:1016B0006A4AC731E83908428A52EB5A494AE8393E
:1016C000E839494228428A4AAB4A6A426A42493A60
:1016D0008629073A6A428A4A8A4A6A426A424942E3
:1016E0008621293A4942283AAA52C7314942CB5267
:1016F000694A8A52AA52A631E73148424942083A19
:101700006529C731A6318631A6314529A7318629F9
:101710006629A62949422C5B8E6BEB522521E839BC
:10172000CB52EC520C5B6E63AA4A6942E731A63198
:10173000A6318A4AEB528A4A8629083AA7310842DA
:101740006A4A29424942494249428A4A293A6A42F6
:101750008A4ACB52CB52283ACB528A4A6942E83164
:10176000293A4942494249428A4ACB52C731A731B4
:101770008A4ACB52EC5AAB5249422942CB52694277
:10178000A7318A4A4D634D63283A452149424D634A
:10179000AA4AAA4A8A4A083A6629E739862986293E
:1017A00049420C5B2C5B8A4AE731C7316942694286
:1017B000694249424942494AE739CB5AAB52083A51
:1017C0006A4AAA4AC7318A4AAB52CB528A4A6A4A03
:1017D000A6316629A731083AE8396A4A4942AB4A34
:1017E000EC5A6A4A86296621AB52EC526A4A29426F
:1017F0004A4A6A4AC7392842AA5228428A4A283A9B
:101800006621652169422C5B8A4A083A8629083A92
:1018100049428A42E83186294942083A083A8A4AC6
:10182000E73166292942294249420C5B8A4A6629E6
:101830002942AB52E839E839EC5AAB52C731C731CB
:10184000862986294942083A894A073A894A894AB3
:101850006529E739083AAB522942E839A631694A85
:10186000494249426A4A86290832493AAB4A2942E2
:101870002842C73185314421452945296631C73180
:10188000E839C731A731452145296529A631E7390E
:10189000083A6942AA520B5BEB5A8A4A8A4A6A4260
:1018A000293A283AAA4ACB52652965294521452972
:1018B000C739C739C7312842E739A6312842CB5A40
:1018C000494AAA52AA52AA52AA52CB52083AE73916
:1018D0002842E839E739E7398A4AC731C739694ABE
:1018E000AA52694AAA5249428A4A6942E839862973
:1018F000A631083A28424942283AEC52283A083A96
:101900004521083A8A4AAA4AE8396629EC528A4AA5
:10191000E731E7318A4ACB52694ACA52AA52283A79
:10192000E7316942083AE73948422842E739294213
:1019300086294521C731694A4942284269422942DC
:10194000C731CB520C5B694A6942083AA729A629DC
:10195000083A083AC731862965298629C731293AC4
:10196000293A87294942283ACB524942E73149422C
:10197000CB52083A6A4ACB52AA52EB5A694A494AB0
:10198000494A8A52CB52CB5A29424942694A8A4A29
:101990008A4A8A4AE7314942EC5AEB5AE8398A4A7C
:1019A000EC5A8A4A4942CB528A4AC731083A4942DC
:1019B0002942283AE731C7314942283A4521A63120
:1019C0008A4A0C63083A283A4942083A083AAB4A2C
:1019D000EC524942083AC7318A4A083AA729E83105
:1019E000CB52AA4AA729662186296629C7314942CE
:1019F000EC5AAB526A4A6A4A4942083AE8396629BF
:101A00006A4A2D63CB52293A6521083A4942494234
:101A1000283A283A49424942494AEC62083A29425E
:101A20000C5BEB520832A729A629EB52EB52EB5282
:101A3000EB52CB52CB526D63EB5A6A4A2C5BAB4AEA
:101A4000CB528A4A4942CB5AAB528A4AA731083A0A
:101A5000E8396A4A4D63EC5A6A4AE839C731294283
:101A600029424942083A083AAB4AAB4AC73149428F
:101A7000AA4A4942CB528A4A2942083A494286290F
:101A8000283A283A494249422942083A6A4AEB5AD6
:101A9000083A083AC731083ACB52C731C731E73163
:101AA000A6312942AB52A7312942283AC731A73182
:101AB000CB52AB52E8318A4A6942083A083A083AAE
:101AC000C729CB4ACB52AA4AAA4A4842EB52083A03
:101AD000694AEB5AAB5249428629E7394942AA5230
:101AE000694A2942A731E839AB52AB4A293A8629DB
:101AF00086316531C639484A07428952494A6942A6
:101B00002842494A0942863145294529C639484271
:101B10004A3A6A42AB4A8A42AB4A083AE831E7316C
:101B2000C731E731E7392842A731E7396629A631BD
:101B3000E7316942694AAA52EB5A8A4A083A28426E
:101B400086296529A631C7318629862986298629CD
:101B5000C7318629E73949420C5B494AAA52694A8A
:101B60002842A631E739A731083AA63186296629E5
:101B7000694ACB520C5BAA4AA629E731E731E73123
:101B8000283A493ACB52283AC729083ACB4AEC526C
:101B90004942E8314942694249424942083AE831FA
:101BA000E839CB52AA52C731C7318A4AE839862967
:101BB000C73149428A4ACB52A62949426942694201
:101BC000E731494228422942862929428A4A8A4ADB
:101BD000EB5A0B5BAA52083A28428A4A49428A4A7F
:101BE000AB4AA729CB4A8A4A8A4A6A426A42AB4A26
:101BF00069428A42EC52CB4A6A42083AA729A7298D
:101C0000AB522D63CB52CB52C731E839283A083A50
:101C100049422842652965292842083A8A4A6A4A7F
:101C2000283AAB52083AC7316521083AAA526A4AA3
:101C30008A4ACB52694A8A4A0C5BEB5A083AE7391E
:101C4000E739CB52CB52EB528A4AA7298A4ACB4A70
:101C5000083A8629C731A629C731283A8A4A0C5B37
:101C60000C5BEB526A4A083A083A8A4A2D632C5BAD
:101C7000EB522842E83929422842E739E839083A44
:101C8000EB52EB52E7398629083AAA4A694A8A4A4E
:101C90008A4A283A2942CB528A4A4942083AEC52A7
:101CA0000C53293A8629083ACB52CB524942283A5A
:101CB0002942083ACB526D63AA4AE831293AE83101
:101CC000A729E8310C5B694A694A28424942CB524C
:101CD0002C5B0C5BEC5A2942083A083ACB52CB52A7
:101CE000C731E839C7314942AA4A284229428A4ABB
:101CF000E7316A4A49422942AA4A2942C73186291C
:101D00006942293A6A424942EC52AB528A4A284215
:101D1000A6316529A631694A2942A629C731A731CA
:101D2000083A0C5B8A4A8A4A8A4A083AA7316A4AC0
:101D30008A4A2942E731E831C731083ACB52694231
:101D4000E731E831A731C731283A283AC731283A74
:101D5000694AE839E7394521083AAA4AC739C731FB
:101D6000C731A629C7318A4A6A4AE8418731863194
:101D7000C739E7394842CA52483ACA4A69422842F2
:101D8000C739084229422942CB522842C63148422B
:101D90004942083AC731C731C73145212521652954
:101DA000C731C73125214521E7396A4A8A52AA52EB
:101DB000C731A631E739E7392842AA52A631A731FF
:101DC000083A45218629C731A6318629694A494200
:101DD000A6314942AA4A4942CB528A4A4942E73986
:101DE000083AE839694A8A4A083A86292842494223
:101DF0002842694A694A283AE731E731AA4ACB5270
:101E00008A4AE731083AE731C7318A4A293A4942D2
:101E1000E839A729E83949424942A72986292942B0
:101E2000C731E731AB524942083A4942083A494280
:101E3000EB5AEB5AE7312942AA4A8A4AAA4A493A56
:101E4000A629A731083AAA4A49428A4A0C5B2C5B68
:101E500049424942694ACB52CB52AA4A8A4AE7319F
:101E60004942083A293A4942C731083A4942AA52F6
:101E7000293AE831C731C72986298629E831083A45
:101E800049426A42E831083AA731C731C731862949
:101E900028424942083A8A4A6942E7392942AA5205
:101EA000694269428A4A4942C73128422842694AFE
:101EB0006942CB52EB5AAA4A8A4A083A083A0B5B63
:101EC000083A6529083AE731A629083A0832083A5B
:101ED0006629C731E839083A4942CB52EB522D63A3
:101EE0008A4A083AC7316A4AEC5ACB52EB52AB5293
:101EF0002942C731A631A7316A4AEB5A4942CB522F
:101F0000AB52E8398629083A0C5BAA52AA52694AB0
:101F1000EB52694A28428A4A083AC731C731293AFE
:101F2000C731C731E731AA52CB522942E839E831EB
:101F30008629A7294942CB4A0832A729083A8A4A62
:101F4000083A4942CB52083A2842083A8A4AEC5A9F
:101F50004942083AC731E7318A4A0C5BEC5A694278
:101F6000C7312942AB52AB52C73166298A4AAA52BD
:101F7000E8396A4AC731A731C73186292942AB52AD
:101F800069426A42AB4A6A4AAA4A49422942C73967
:101F9000A731083AC731A631A7314942EB5A694205
:101FA000083A083A2942CB528A4A083A6A4A0C63EC
:101FB000083A29428A4A4942AA520C63CB52E7396D
:101FC0002942C7392942E839083AE731E731694AF5
:101FD0002942C73165298629EB526942A631494217
:101FE000694249424942083AC739252929420842EB
:101FF000494A2842073A8A4A483A693A6942C739FF
:10200000663124294529A731AA52EB52A629E7397E
:10201000A6316529A631452925218629E8390842B6
:1020200029424942E739E739AA5229420842083A87
:10203000083AA6318629862945218629A7314942B1
:10204000CB52083A8A4A0C5BAB522942AA52AA5296
:10205000E731C731694A28428A4A8A4A8629494271
:10206000CB52EB5249428A4AE739E739AA52CB5A56
:102070006A4AE739C7318629283A2942694A6942BA
:10208000283A083A66296521C731494249424942FE
:10209000E7312942E8314942A731E731283AAB52CA
:1020A0006A4A8629083A6A4AAB52A7314942CB525A
:1020B000CB524942E739694AEB5A4942E731E731A5
:1020C00049428A4A694A28424942AA5249426A4ACE
:1020D000A631652945218629083AC731083AE739EA
:1020E0002842CB526629E8396A4ACB52AA4A8A4A20
:1020F000293A6629C7390842083A2942EC5AEC5A6B
:10210000C731C7316A4A2942283AE839E7312842BB
:10211000AA52694A2842EC5A4942C731E73169421A
:102120008A4A49428A4A49426A4ACB52CB52AB5206
:10213000EB52AA52E839A731C7318629C731694223
:10214000E73186298629A629E7312D63AB4A293A4A
:10215000083AAB52EC5A2D636D630C5BCB52CB52F9
:10216000A62986292942AB526A4A69426A4AC7317E
:102170008629AB52AA4A6942EB5ACB52EB5ACB5250
:10218000694AE739083ACB524D63AA528A4AE7397D
:102190002942C731A6292942EC5ACB52C7316621C0
:1021A000652186296A426A4A8A4AA7318629A73167
:1021B0006A426942C731293AC7316A422D5B0C5BDA
:1021C0006A42EC528A4AE731AA520C5B2C63AB524A
:1021D000A62966296629AB528A4A8A4A4942E839C1
:1021E000694ACB52AA526A4AA631E7316942C731DD
:1021F0008629C7316A4A8A4ACB528A4A4D634D635F
:1022000029422942083A494269424942E839A631FD
:1022100008424942083AC73149420C5BEB5A4942ED
:10222000E7392942CB52694245218629CB52AB522C
:10223000E8398A52EB52AB52CB52AB52C731083A13
:102240008A4AAB4ACB5249424942C731083A4942CD
:1022500029424942A7318A4ACB526942A631E7391D
:10226000C731083AA731862986314529CB4A8A4A9F
:102270006942E731083A083A083A083A083AC73159
:102280002842694AE73965294942694AC7314521E7
:10229000A631A639A63124212421C739EC5A294276
:1022A000C7316529C73149428A4A4942083AE73964
:1022B0008A4A083AC73169428629A7312942083A31
:1022C000A731A63149428A4A694A28426942694A85
:1022D0008A4A283A6529A629C731A629A629C731DD
:1022E0004942CB526942C731C731A631C731083A9A
:1022F00049422842A631C731E731E7396529C7315C
:102300006A4A083AC731AA4A2942083AA7312942FB
:102310004942CB528A4A45298629494228424942A4
:102320002942283A69428A4AE731E8396A4A294209
:10233000083A2942C731E8396942C731083A494267
:10234000CB526A4ACB528A4AC731AA52494286299D
:10235000083ACB524942C731862966298A4ACB526C
:1023600028428A4A0842494A8A52294286318629A5
:10237000A731494AEC5AAB526A4AEB5AAA52CB529D
:10238000AB526A4A083A2942C7314942EB526A4A7B
:10239000A731C73129424942C7314942AB52083AB5
:1023A0002842E739A6314942083A49426A4A494235
:1023B000083AC731A6294942A631AA528A4A284278
:1023C000283A8A4AEB5A8A4AE7318A4A283AE83157
:1023D00049424942CB524942EB52CB524942A73182
:1023E000A7318A4ACB5249426629E7314942E83946
:1023F000E8398A4A4D5B2C5B2C5B294249422942D1
:102400008629E739694AE8394942A63186294521B2
:102410008629C73149428A4AAB528A4AA629283AB4
:10242000AB4ACB520C5B2942A629662929426A4A4B
:102430000C5BCB524942083A8A4ACB52AA4AAB4A71
:10244000CB526E6BCB526A4A4D630C5B694A294290
:102450000C5B6A4ACB52AB52A73186294942AB5238
:10246000694A2842694A4942E7398A4A2942C731BA
:102470002942083A8A4A6A4A4942E8392942494285
:102480006A4AE8396A4AC731A7318629C7314942C1
:10249000AA5249422842283A29428A4AC731A629E3
:1024A000EC5A0C5B28428629C7318A4ACB524942F2
:1024B000083AE839083A6942E72985212832CA4AA8
:1024C000E729AA42293AE831E7318629AB528A4AFC
:1024D000E739A6318A4AEB5A083AC73124218629BE
:1024E000862945214521E839E8398A52283AE731D9
:1024F000283AE7314942A731452925296631A629DD
:10250000073AAA4A2C5BC631694A694AA639284A61
:102510002C6BCA5A8A528A52A731083A8A4A2942EF
:1025200025216629E7392942CB52284249426629AA
:10253000E8392842E839694AA731083A4942A631C0
:102540006521A631494249426629452165298629E6
:102550008A4A8A4A694A69422419E7314942A629C6
:10256000E731083A083AC7318A4AEB5AA631A7310F
:10257000862986294942283AA62966292521A63195
:102580008A4AE739C731EB5A2842A73145218629C3
:102590002942494A4942C7316A4AAB52AB52AB520F
:1025A000AA4A4942E83929426A4A8A4A283A083AF4
:1025B000AA52EB5A49424942C7318629EB5AAA52DC
:1025C000C731E73966298629A631AA52694AC73137
:1025D000AB52AA4A8A4AEC526A4AA731E739894A79
:1025E00028420842AA52C731C7318A52C739294AFC
:1025F000294AAB528A4AAB4AC7316A4ACB52083A97
:10260000AB52EC5AAB52CB524942CB522D63EC5AEF
:1026100029426A4A2942083A49420C5BCB52494254
:1026200069428629A629A631C73145214942284257
:1026300024194521AA4A4D63694AAB524D63CB52D6
:102640008A4A694A083AC731A6298A4A6942293A18
:102650008A4AA7318A4AE731294286290419C731B3
:102660006A4A2942C7312419C731CB52AB526A4A50
:10267000AB522D5B0C5BEC524942293A2C5B8A4AE7
:10268000C739CB52EC5AC731A731452186298A4A2E
:102690000C5B0C5B8A4AAA4AC7310419A731AB52BA
:1026A000CB52CB52AB4AE731452169428E6BCB52BC
:1026B0002942AB4A8A4A4942CB524942A7318A4A07
:1026C000EC5A2D63EC5A083AE831A731E8398A4AC6
:1026D0008A4A083A083A6629083A6A4A8A4A69429E
:1026E000A731A631A631C731A731A631A631EB5AA1
:1026F000CB52083A29426A4AC7318629C7316A4A09
:10270000CB522942083AA7316521A6294942083A05
:10271000E839C731083AA631A63145212419A63136
:10272000AA4ACB524942694A49422942E739694A91
:10273000E739A6316529452144214421694A083AEF
:1027400024212521242186296A4A8A4A4942083AB5
:102750008629C731AB52AA524521E318E7312C63D1
:1027600069426629C7316A4AC739C839A63965310D
:1027700025296631494AE839E839EC5AAA524C5BB6
:102780000832493A283A073A242125296531863109
:1027900028426942AA522C5B0C5B4942083AA7299D
:1027A000E7318A4AE739283A083A2942AB52694266
:1027B000083AA731452186298A4A283A283AAA5256
:1027C000083A2842083A8629E7396942C731C731B1
:1027D000C731A63149424942083A69424D636942CC
:1027E000CB52283A4521C731694ACB524D6B0C5B1D
:1027F0008A4AC731283AE731C731C7318A4A494244
:102800002421C731083A862986292942EC5ACB521D
:1028100086292521E839083A6A4A6A4AA631083ADF
:102820004942EC5AA73166298A4A294286294942F7
:10283000694A083A6529A7312842083AE7394942E6
:10284000C7314942CB52C731694ACB52083AE739BE
:102850002942AA4A49426A4AAA4AAA4AC731083AB8
:102860002842694AEB5A2D63E839C7310C5B2D6366
:10287000AB52E83929422942083A66296529C7310D
:10288000083AA6312942A731C731A731A731083A02
:102890006A4A4D63EC5AE839CB528A4A8629452167
:1028A0002842694AAB52283A4942AA4A6629452138
:1028B000AA52CB520C5BEB526942A731AA4AC731EC
:1028C0008A4AEB5A083A6942AB4A083A2519E83174
:1028D000AB4A2942242125214521A7316A4A8A4A47
:1028E000CB52E7314942CB520C5B0C5BEC5AAB52FA
:1028F0004942C731C731493AA6296621A73166291D
:10290000C731A73129424942862928420C5B0C5B1A
:10291000AB52083AE73986290419C731CB526942CC
:10292000C73149422942A629694249426942A73131
:10293000452186298629083A4942C7314942AB5286
:1029400049426A4AA729E831C731A7292942A73154
:10295000C731AB526A4A49428A4A6A4A283AE83938
:1029600049422D630C5BC731CB52CB524D638A4A2F
:102970002942E8398A4A6A4A49428A4AE839862914
:102980008629A7314942CB52EC5A2D63083AA63129
:10299000083A4521652149428A4A4942694AEB5A27
:1029A000A6316629083A28424942694A4942A63175
:1029B000A631083AAA522C63695208426952C739B3
:1029C0006A52CB5AAB5A294A294AE7394942E8396F
:1029D000A631C731C73186298629083AEB52283AF1
:1029E0008629AB522D63AB52E8396629C749AB62E1
:1029F0006A520942C731E839283A8A4A283A0832E5
:102A0000C6292419652185296529084209426629B4
:102A1000283A283AC73129424942E831252165211F
:102A2000C7314942C7314521862165218629C731F1
:102A3000083A29428A4AA731E8394942E739C73179
:102A40004942083A2842E731083AEB5ACB52CB5276
:102A5000CB52E739A731083AE7392842CB528A4AA4
:102A6000C731A731283A083A28422842083A083A9A
:102A7000C731E73149428A4AC7318A4A49426942E5
:102A8000C731083ACB524942E739AA528A4ACB5257
:102A9000083AC731EB528A4A6629A7312942283AB7
:102AA000283A4942283AC7318A4A0C5B6A4A083AAE
:102AB0000842C73128426529694AEB5AC7318A4A18
:102AC000AB52C731A731083A29428A4A0C5BCB5234
:102AD0008A4ACB524942E839C731083AA731A63170
:102AE0004942C731083A494A6A4AAA4A0C53293A24
:102AF000C731E83929428A522D638A4A4942AB528A
:102B0000EC52083AC731C7310C5BEC5AE839C7318F
:102B1000AB528A4AEB52283A494229424942494239
:102B20008A4A8A4A8629C731AA522D63283A8A4A94
:102B30002C63AB52284228422842E739E839A629BB
:102B400049422842C7318A4AEB524942E831083AA1
:102B50004942C731E83969422C5B0C5BAB52083AF9
:102B6000083A29420C5B8A4A49424942E839E83925
:102B700045214521A7316621C73129426A4ACB52F6
:102B80000C5B2942694249426A4A2D636A4AC7314D
:102B9000083AE8392842E731E831AB4ACB528A4A51
:102BA000A73186296621083AEB526A4A8A4A2942A5
:102BB000EC5A0C5BAB52EC5AE839C73949424942EE
:102BC000A6312421083A2C5B6A422D5BAB4ACB52DA
:102BD0002D63AB52494229426A4AAB526A4AA63136
:102BE0006942AA4A8A4A49426A4A6A4A083AA6296E
:102BF000E7398A4A083AA731C7314942A7316629DD
:102C000069428A4A6A4A2942CB5AAB52A7314942A1
:102C10006942E731CB52AA4A8A4A6942083ACB5202
:102C20002942C731C731452169428A4A283ACB52E5
:102C30008A4ACB522C63AA52C631073A49424942CA
:102C4000AA52CB524942083AA6318629A731A73168
:102C5000694A8A4AA631C739083A283A493A0832B5
:102C60008A4ACB526A4A2942C7316A4A8739C739E8
:102C70004A4ACC52CC528A4AC729C62965214529DD
:102C8000A631A631073AE731C6298A4A0C5BE831FA
:102C900029426A4A2942A73166292521A7312842BB
:102CA0008631A631C7318629283A8A42E731C731B1
:102CB000E73949428A4A083A083A083AC731C731DF
:102CC0002942C731652186296529E7314942283AD9
:102CD000E731A731C73149422842A631083A083ABC
:102CE000083AC731694A2842A631C739A631E731C7
:102CF0008A4AAA4AE731C731A631C731E731083AD3
:102D0000283AA6296942CB52283A083A4942083A59
:102D1000E831293A083A283A49426A42283A083AB8
:102D2000E839083A083A8A4A2942C731C731662940
:102D30000842CB5A4D63694A694A0C5B083A283A03
:102D40002942A631E731AB528A4AC731E739E73920
:102D5000AA4A083A65298629E7394942EB5A2842A6
:102D60002942083AA7298621E831C731694A6A4AC7
:102D7000083ACB4ACB4A493A4942CB520C5B8A4A81
:102D800049424942AB524942C7318A4A2D630D5BE1
:102D90006A4A49424942A731E8398A4A0C5BCB5218
:102DA00086298629083A8A4A694A494228428A4A33
:102DB000CB52CB5249428629C731EB52EB52083AEB
:102DC000E731C73149422842C73186298A4A2D5BFB
:102DD000294286294942AA4AAA4A8A4A8A4A66292F
:102DE000A731C731294249424521A6298629283AD7
:102DF00049428A4A0C5B6A4AAB4A4D638E632D5B3B
:102E0000EC52CB528A4A083AAA52AB5249426A4A19
:102E10008A4AAB522842083AAB4A083AE731A7310E
:102E2000662965298A4AEB528A4AEC522942E839D6
:102E300049428A4A083A8631A7314942CB5249422F
:102E4000C7316529E831C8310832EC52AB4A0C5B16
:102E50004942A73186294942E839C7314942AB5234
:102E6000AB528A4AA731A631E7392842C7312842F6
:102E7000CB52CB52A731083A86296629083AAB5281
:102E80008A4A8B526629083A4942C739C7318A4A69
:102E9000A629E731AB524942283AA631083A8A4A74
:102EA000E839283A8A4AE739694A6942283A694240
:102EB000E731C731073AA6316521283A283AE73188
:102EC000E731E731C729083A083A0842E839C731FB
:102ED0004942A629AA522C63E839A631E731283A9B
:102EE000283AE739A7314529872949426A42C72943
:102EF000C829E831C731C731A631A631C639E74103
:102F0000A639484A694A4842C629283A293A8621B8
:102F1000462125214521041905216629294A8A527D
:102F2000083A662949426942493A8A42283A694A36
:102F30006A4AA731862965294942AB528A4A4942E1
:102F4000A6318629C731C731C731083A86292521DC
:102F50004521A63169428A4A8A4A8629E739C7311A
:102F6000A631E739084208424529A7314942CB52E8
:102F700049424942A629083AAA52083AA631E739F5
:102F8000C7314521083A283A8A4A293AC731A72940
:102F9000C73169426A4249428A4A4942E7318A4A0C
:102FA000E8394942AB5269422942C731E731083A10
:102FB0000842E739AA52EB5AC731C731E839C7315D
:102FC00029426942C731083AE731A731E739083A5F
:102FD000C7318629073A694ACB52AA528A4A4942DE
:102FE000C7318A4AAB4A8A4A293AA629AB4AEC52E7
:102FF000EB528A4A6A42C729A629E8316A42E73178
:10300000E8316A428A4AAB4AE8396A4AEC5AAB521A
:103010008629A7312942E839E831C731E731E7315C
:10302000E7394942AB52EB5AAA5269428A4A8A4A64
:10303000AA524942A7314942494249422942283AC3
:10304000E731E739EB5AEB524942C7318A4AAB4A7A
:10305000A7312942AB526A4A4942083AE839494203
:103060000C5BEC5A083AA731A731C7318A4AAB52F8
:103070002C5B8A4A6A4AEC5AEC5ACB52AB4AE8318A
:10308000E8316A42AB4A694A4942284249422C63C4
:103090002842E739C731283A8A4AA729862966296A
:1030A000C739AB520C5BCB5249428A4AE731E83907
:1030B00066298629A731C8396A4A8A52894A083A54
:1030C000652928424942A7314942C731083A283A7E
:1030D000A63128426A4A8A4AE839083A6942AA4A25
:1030E0006942E731A63186294942694A694A49421B
:1030F000E839C731A629C731083A6A4ACB52EB52A0
:103100004942AB5208426A4A4942C731A731E731C6
:10311000C731CB52AA4A6942C731E8396942083AF5
:10312000C731C7312942494A4942E7318521C72978
:10313000E73149428A4AE739E739694AC6312842C4
:10314000083AE7392842AA52694ACB5A8A52083AC1
:10315000083A493A4942C731C739A631A621073250
:10316000283A4942C7316629083AA731493AE83135
:10317000241944216521E739AA522842694AEB5AA9
:103180000842C739E839E739283AA6298629C731DC
:10319000A631A631C7318631694AC739E839284294
:1031A000084265292842494A083AA6316529A731CB
:1031B000C7318631E8394521284249426A4AC73138
:1031C0006529C731EB52EB52283A6942A73165298C
:1031D0002842083AE73929422942E8394942494216
:1031E000083A694A073AC73186298629083A494286
:1031F000A6298629A631083AAA524942A631A63103
:103200000842E739C73149424942A7318629862910
:10321000C731E73969426942E839C731083AAB52E8
:10322000283A083AAA52283AAA4A8A4A4942AB524C
:10323000EC5A29426942CB52CB528A4AEB52283A85
:103240004942CB4A6942A629A6318A4A2C5BCB5215
:10325000493AE7318A4A8A4AAA52083AA631083AD4
:10326000E731283AAA4AAB52CB52283AA729494219
:10327000EC528A4A69422942293A8629E83186294C
:10328000C7316A42AB4A0C5BE731E8392842E8397A
:10329000C731C731083AAB4A8A4A8A4AAA4A4942E0
:1032A000AA4AAB4AAB528A4AE839A73129428A4A2C
:1032B0002942E731694AEC5A29426529E731EB5244
:1032C0000C53493ACB522C5B2942E839E83966293C
:1032D000083ACB522C5BEB526A4AC731083AEC5A97
:1032E0000C5BEC5AA629C7310C5BEC5A6E6B2D6354
:1032F000AB52A73129426A4A083AC731C731A731D0
:1033000066298629E739C739863166318631084210
:103310006629E84108428A4A8A4A083AAA4A083A8B
:103320006A4AEC5A4942C731A62986298629AB52F6
:103330008A4A4942EC5AEC5A4D630C5B29424521BA
:10334000A631CB526A4AE839E83145216629E73986
:1033500028424942AA524942C739C7398629A7316A
:10336000E7312842EB52083A86296529083AC731E5
:103370004942083A4942AA526A4A8A4AAA4A694ACA
:10338000C731083A694A694AC7314942083AA62909
:10339000AA520C5B49428A4AC731AB4ACB526942B6
:1033A000C731E831AB52AB5229428629E831494254
:1033B0006942CB52694AA7316942AA52A7318A4A67
:1033C0006A4A8A4A6A4A083A083A2942C731A73102
:1033D000CB52CA4AE731A629E739C631CA4AEB4A75
:1033E00069422842C73186310842A63186296521C3
:1033F00044216529E7392842894AE739C731694AB2
:10340000AB522942C731E839862965298529894A7D
:10341000CA52894A2C63AA52EB5A694A8629A631B4
:103420002842E739C731C73186296529C731494262
:103430008A4A2842EB5A49428629E7392842694A92
:10344000A7316529283AAA4AAA4AC731A631A73125
:1034500028420842694A29428629A731E839E839D1
:10346000C731073AA629652128422842E73949424F
:10347000694AE739AB52083A8629073AAA4ACB5239
:10348000AA4AAA4AE73108320832C731AA52AA52D8
:103490006942083AC731283A2942C7318629C731DB
:1034A000083AE731C731083A2942CB52CB52EB52A6
:1034B0000C5BEC52293A6942AA4ACB528942073244
:1034C000483A493A0832A629283AAA4AEB5AEB5216
:1034D000E731083A8A4A2842283A86292842AB52DC
:1034E000694A2842494229424942EC5AC731283A9E
:1034F0008A4AE839A6296A4A4D63083AA729494207
:10350000CB52EC526942A73149428A4A083A083AFA
:103510008A4A0C5B2D5B2D63EC5AEC52AA4A083A9E
:10352000A731E831283AE8398A5249428A4ACB52CF
:103530008A4A2942AA4A49426A4A2942083A8A4A98
:10354000AA4AE731293A49424942E8398629A7314E
:10355000294249426A4A8A4A6A4ACB52EC5A6A4A22
:10356000083AA731083ACB524D630C5BEB52AB5291
:10357000862986294942C731C731083A6529083A60
:10358000E739A631C73928428A52E83966294529E0
:10359000494A0D63EC5A8A4A6942CB526A4A8A4ABE
:1035A000CB52E731C7316942694A8629E739AA52C5
:1035B0004D63AB4A8A4A4942083A083A862945216E
:1035C000A629A731E8398A4A083A49426942E739C7
:1035D000A631A631694AE83908422942E8398A4ABF
:1035E000EC5A6A4A283AC731E73186298629C73119
:1035F000694A083A694A8A4A283AA631E739A62927
:103600006529E739CB52E731083AAA5249426A4A5A
:103610008A4A083A45214521E8318A4A4942083A0E
:10362000E831C731E8316A4AC731E8390C5BEC5AF6
:10363000CB5229428629083A0C5B6A428629083A0D
:10364000A631A629C731CB4A8A4A8629E739283AC2
:10365000283A283A07326942E739E731AA42283A3C
:10366000862944216529E739AB5AC7398629652956
:103670002842CA526529652945218629E839C7317A
:10368000083AC731A731662986298A52E739484A5C
:1036900028422842AA52CA52EB520C5B083A083A16
:1036A000AA4AAA4AA62986298629E73149428A4A8E
:1036B000CB52694A8A4AEB5A862945216529A631A7
:1036C00049424942E839E731C7318629A6312942C2
:1036D000E739A631694A083AC7316629C731AB5282
:1036E000694A8A4A694AE73149428A4A6629E83979
:1036F000284228422C63CB52083A083A493A493AC0
:10370000283A6942A62986214521A629EB52694A11
:10371000E7394942A731AB52AA4A4942E8394942FE
:103720000C5B0C5B8A4AEB5ACB52AA526942284284
:10373000C7314942A729862986218A42AA4A494295
:10374000CA4A8A42C731283A49428A4A2842083A34
:10375000C729083A6942A629A631083A283A4942B7
:1037600029422942294249426521C73129428629F5
:10377000E8394942083ACB52AB4A49428A4AEB52AD
:103780000C5B6A42A729E8394942AA52CB52CB5274
:103790002942CB528A4A4942C731A7296A42C731D6
:1037A000083AC731083AE839A7316A4A0C5B6A4AD5
:1037B0008629C73149426A4A283A49422942083A89
:1037C000293AA729E83165214521C731AB520C5B65
:1037D0002942283A6A4AC7316942EC5A2D63EC5AA9
:1037E000A731083A2942AB526A4A083A4942E731BE
:1037F0006629AA4ACB52C73145216629083ACB52DD
:10380000EC5A694A8A4A8A4A0C5BCB528A4A283A5D
:10381000EC52EC528A428A4AAB4A29428629083A3B
:103820004942A731E8392942283AAA4ACB524942AB
:103830004942A6294521E4182521A731E839AB5290
:10384000083A652149424942C731E839083AE7391F
:103850004942083A862965290C5B2D63AB522D63DA
:1038600069424942E839CB52CB52EB52C7318A4ABE
:103870008A4A6942AA528A4AE731AA528A4AC73119
:103880008A4A694A86298629CB52CB528A4AEB5A00
:10389000694AC731C731E8314942293AE831C7316D
:1038A000AB4AE7318629A629083AEB526942E83942
:1038B000E7318629AB526942E831A729AB52EC5A6D
:1038C0008A4A2942AB528A4A283AC731CB52694ABE
:1038D000C63144218629083AE73949428942C62936
:1038E000A6294942CB52694A29424521C731083AA3
:1038F000284228422842694A2842C73186290419A9
:10390000083A083A04194529083A8A4A2842862979
:10391000073A8529A631A629E739C7316629A73193
:10392000283AE7318621A629283A6942283A69428D
:10393000293A083A86296529A6318A4A8A4A2942BB
:10394000E8398A4A4942C7318629E73949428629F6
:103950008629E731E8398629083ACB522942083AC4
:10396000083AE839A731083A86292842C731452163
:10397000E8398629A6318629694A083A6629C73175
:10398000083AA73145292429284A8A52A63186298E
:103990004521C7316529E8396A4AAB522D63AB52DC
:1039A000AA4AEC5A6942694AE7314521241965213E
:1039B00065214521C731283A283AA6298629862932
:1039C0008A4AAA4A2C5BAA4AC731A629041965214A
:1039D000E7318A42A629083AAA52CB5269424942A3
:1039E0008A4A083A6629A731EB524942E8394942E6
:1039F000E839A731CB526A4A4942294249428A4AA8
:103A0000294286294942CB52C73928428A4ACB5299
:103A1000AB52E839E8398629E8398A4A8A4A293A8C
:103A20008A4ACB52CB52AB52C731A7318629652186
:103A3000083A8A4A2D63EC5A4942E8398A4A4D636A
:103A40002942083A8629C7312942CB528A4A083A84
:103A500029428A4A8A4AC731C731A731AB52AB5291
:103A600049428A4A6629452166294521241945216A
:103A7000083A8A4A8A4A4942AA522C63AB524942BE
:103A800069428A4A0C5B6942EB524D5B8A42AA4A00
:103A9000CB4A6A42C729A7296629083A083A283A30
:103AA000E839E731AB526A4AAA4A0C5B694266219F
:103AB000251945218629083A8A4A2942AB52CB5218
:103AC0004942E839A7318629862965298629CB52BA
:103AD000AA52A631083ACB52E839C731494AAB520B
:103AE0004942AB526A4A083A083A69420C5B083AC2
:103AF000494269428A4A083AC731CB52AA52C73171
:103B0000EB5A083A083AEB528A4A6A4AC731C73137
:103B10006A4AC731AA4A0C5BE8316621E839C731E5
:103B2000293A293A0C5B8A4AAA4A49426521041972
:103B30006629E8398A4A083AAB4AEC5AEC5A6A4A8A
:103B40000842A731083ACB52AA52083AE739083A54
:103B5000A629083A4942C7310842C731E731283A15
:103B6000CB4ACB52283AC73166296629E8394942FF
:103B700028422842694AAA52694A083A4521242122
:103B80008629E739083AC731284249428A52C7395B
:103B90002842A631652986294521E7398A4AA6297E
:103BA0008629A629C731AA4A283AC731C7312842EF
:103BB00065216521A631E7398629E7390C5BEB5A87
:103BC000083A8629652965294521A631694A083AB6
:103BD0008629E739E731E7316521E7398A4A8A4A98
:103BE00086292521083A0C5B694A694249428A4A7A
:103BF000EC5A694A6529083AAA4ACB528A4AC83916
:103C000086312842AA5A8A52C7396952073A8A4AE3
:103C10002C630C5B8A4ACB520C5BCB526A4AA731AD
:103C20006629862965214521A631083A8A4A8A4AA9
:103C3000AA4A6942694A69422C5B2C5BAA4A283A23
:103C4000C631E731C731A6296521A631C7314942BE
:103C500086298629083AEB5AA629C731E731C731A8
:103C6000CB520C5B694A4942AB520C5BEC5AAB52EB
:103C7000EC5ACB5229424942CB52AB52862986316B
:103C8000662949428A4ACB52494A8629E839C731CE
:103C90000842C7318629C7316A4A2942E731C7310C
:103CA0006621083A6A4A4942083A862949428A4ABC
:103CB0008A4A4942AB52EC5A2942283ACB52AB527B
:103CC000E73129420C5B4D63CB522D5BAB52083A76
:103CD0008A4A2942A731083A86298629E839083ACA
:103CE000C731862966298629083A0C5B6A4AEC5A4C
:103CF0002C5B083A083AAA4A2C63EC5A4942083A23
:103D0000083A29428A4AEB52AA4A493AEB524942B6
:103D1000293AE73165216942CB524D63CB52083ACB
:103D2000C731AB52AB52CB52CB52C729652166216A
:103D3000283A8A4AE839EC5A49426629A731A7311C
:103D400065216629E83949426942CB520C5B083A41
:103D5000A631083A0C5BAA52A631E7398A4AA73144
:103D6000C731E839A6298629E7312842073A65296B
:103D7000C731AB5249424521AA4A4942A731283AA4
:103D80002942C7318A4A2C63AA5249424521284216
:103D9000E73986296942083AC731E8312519862969
:103DA000E7318A4AAB4ACB52A73186298A4A49422F
:103DB0000C5BEC5A8A4ACB52AB522942A73186316E
:103DC000A731E839C731E839C7316529E739A63164
:103DD00045216A4AAB52CB528A52A731E839083A98
:103DE000083A083A862966214521AB4A8631A63130
:103DF000E739A631C7310842083A86292842C7392F
:103E0000E7392842CA52083AC731083AE7398629C1
:103E1000A631694A0C5BCB5A6A4A8A4A0C5B6942F2
:103E2000083AE739A631284286294521A631C73903
:103E3000C731E739AA522D63083A8629A631C7311E
:103E4000083A4942862924218629C731E739694A37
:103E5000C731862965298629A63124218529083A72
:103E6000694AE739294229422942C731E731E7390E
:103E70008A4A6A4AE7394942083A283AAB4AEB5239
:103E8000CB4ACB52CA4AAA4A6521A629C731C731B3
:103E9000283A6942283A083A8A4A4942A7314521D4
:103EA000083A083A083A8A4ACB52CB522942494248
:103EB000694A083AE739E731083A8A4AEC5AEB523C
:103EC000EB5A8A4A8629A631083A4942AA52EB5A45
:103ED000283A8629E839083AE7318A4ACB52694AB2
:103EE000CB526A4A694ACB52AB524942AA4ACB5298
:103EF000EB5249426629A629E739E8398629284242
:103F0000C731A731294249422842E7392842862948
:103F1000E839AB52EC5AEC5A8A4A6629A731AB52BF
:103F20006A4AAB524942C7314942AB526A4A494296
:103F3000083AE8398A4ACB526942C731862966294C
:103F400086292942CB526A4A4942283AE731A629B2
:103F50006A4AAA4AAB520C5BAB520C5BEC5AAB52AE
:103F6000A731E839EB52EC5AEC5AEC5A083ACB52EA
:103F7000CB52083A283A49428A4A6942694A494238
:103F800086298A4A4942283AE831E831C731662110
:103F9000A73165214942EB52AB526A4A4942CB52A2
:103FA000AA4ACB5229428A4A083A8629083AAA4A9A
:103FB0000C5B8A4A2942AB52083A08426A4AE73106
:103FC000662929428A4A494229424942083AC73168
:103FD000694AEB5A8A4A49428A4A083A2842E731F2
:103FE0008A4A8A4A8629283A0C5B4942C731A6295F
:103FF000E7396A4AE839E839694229424942283AA8
:104000006629083A4942C731694AE739C731494206
:10401000E731A731C731A731AB52AB52C7318A4A1A
:10402000EC5A8A4A4942A731083A0C5B8A4A29422B
:10403000AA4AAB528A4A4942083A8629A731494AD4
:10404000CB5AEC5AE8398629C7318629694A284271
:10405000C7312942C7314A4A0942A7318A4A283A18
:104060004942C73125192519E8316A4A24216529B1
:10407000A731662946218629A731E8392842E73940
:10408000C73108422842083AE739083A294228420B
:10409000E73949420C63EB5A8A4A6A4A4942E8398D
:1040A000AB528A5265294529A631C7394529452988
:1040B000A73108426A4AAA522842083AA63165291D
:1040C000C731C731C7316629494229428629A631FD
:1040D000083AE7394521A631A631C731A631452135
:1040E000A629083A2842C731A6294942EB5A284254
:1040F00049422842C731A6314942293AE831C72905
:10410000C729283A283AA629A629E731894AA629A3
:10411000C731694AA6314521A731A7316629E73160
:10412000283A28428A4AAB52E7392842E739E83927
:104130002842083ACA528A4AC7318629083A8A4A26
:10414000EC5ACB5249428A4A69424942083A2942CA
:104150008A4AC731862965294942AA528A4AE739DB
:10416000A6318629C731E839AA4ACB52083A083A1B
:104170006942083A2942E731294229424942EB5231
:10418000083AA7316A4A694A294228428A4A083AC3
:104190004942AA4A8A4A6A424942C73129420C5BCB
:1041A0000C5B4942083A8A4ACB526A422942AB52D6
:1041B000AB5249428A4AC731E8396A4A283AA7319C
:1041C0008A4AAB52293AE839294286296521A7292A
:1041D0002942EB52EC5AAA4A0C5BEC5A2942E839C4
:1041E000E7318A4A0C5BAB524942E7314942EC5A0B
:1041F000AB52CB52AA4A69424942083A283A69422C
:10420000C731083A283A8629C731A7316629E839E3
:10421000E739C7392C638A4AE839E839E7318A4AED
:104220006A4A4942A731A731E7316A42EC52EC525F
:104230006942083A6942083A494249426A4AA73102
:104240002942CB52A731283A4942A73186296A4AE6
:104250008A4A8A4A083A4942C731A629C731AB522D
:104260006A4A8629E731694AAA52AA4ACA522842AA
:104270002942083A49424942083A49426942294298
:10428000E7318A4A494266292942E839E731C7318C
:1042900065292842CB52AA522842083A49428A4A02
:1042A000083AE739862925216A4A8A4A29428A4AF0
:1042B0006A4A6A4A283A86296629E8312942494ADF
:1042C000494A6A4AA7318A4A8A4AC731E739A63138
:1042D00028426A4AE839083A66296629C7314942BC
:1042E000694AC73129428A4AAB526A42E739E739FB
:1042F000AB526A4A2942C73129422942E739494A21
:10430000A631073A2842E7398629083A4A42E8396D
:104310008631A731E739C7396629462966294521FB
:10432000A73108426529A6316A4AAA52C7392942EB
:104330006A4AE739C7396529A73128422842E7394F
:1043400086296529A631C731494249428629A631C5
:10435000E7394942083A6A4A69426A4A083AA73143
:10436000E739E739E73165296529283A4942E731D4
:104370008629C731083A083A2842083AA631452921
:1043800045294529A731A631694ACB52CB5228424B
:10439000C6314942C731C7318A4A8A4A083A494236
:1043A000C731083AE731C731A6318A4AAA4A694A71
:1043B000694A49422842694AAA52E739E8394942DA
:1043C00029428A4A494228426942083AA62965296F
:1043D000C7318A4A8A4A69428A4A083AE739A63185
:1043E0006529083AAB522942083A2942083A083A64
:1043F0008A4AAB52EC5A8A4A0C5B2D63EB52494213
:104400008A4A4942293A6942284249428629A731C3
:104410008629A73186298629293A6A4AAB52494218
:10442000283A8629E83129424942293AA7312942C6
:104430006A4AC7312942C731CB520C5BCB52494241
:104440004942CB52CB52AA4A8A4AC731083AE83984
:104450006A4A6942E8396629C731083AC731083AD9
:10446000283A49424942083AA629C731C731083A91
:10447000C731A629A629A629A6296521A629083279
:10448000E731E7318A4A4942293A293AEC5A0C5B2A
:10449000AB5249428A4A694A083A083AE839A73190
:1044A000A7318629083A4942CB520C5BCB528A4A43
:1044B000C731C731283AE7398A4A8A4A083A8629F1
:1044C0008A4A8A4AC731083AA731862929428A4A44
:1044D000083AC7314942AA4AA6316942283AE73127
:1044E000A629C731CB52083AC731083A083AC73132
:1044F0008629A629E8398629E8394942E831E83988
:104500004942083AA731E7318A4A2842E731694AE5
:104510008A4A4942AA528A4AA63128428A4AC7315F
:1045200086298A4AA631E7318A4A29424942283AED
:10453000E839083AA62986298A4AAB52083A8A4AB3
:1045400049422942C7316A42494249424942E73910
:10455000494229424942E839A7314942A631A631A8
:104560008629A631AA52AB526A4A0842494A863184
:10457000083A6A428A4A293AC731C7318631E84146
:1045800065298629A6316529C7318629A731C83111
:1045900086314521242124218631A731083AA731CB
:1045A00086294942083A083A49422942A7314942F4
:1045B000CB522842242165298629C7318A4A49429B
:1045C000A631E739AA4AC731A6298629283A083AE6
:1045D0004942694A494A494A294229428629C731FA
:1045E0006942A629A6314842284249428A4A083AE5
:1045F000083ACB52CB52694AC7318631E739084273
:104600008A528631E7398A52494A6A4A2842E7394A
:10461000C731083AA6318A4A8A4AEC5AC731C731AB
:10462000083AC731C731083AAA524942E8398629BF
:10463000862986296521A631EB5A0C5B084246295A
:10464000E8398A522942C7316942083AC731083AE3
:10465000E8396A4A8A4A8A4A29426629C731E839CA
:104660008A4ACB520C5B2D63AB5249422942AB5272
:10467000AB52AA4A8A4A293A69420C5B4D634942C5
:10468000CB522D5B083A6942A631C73149428A4A6A
:10469000E839494229424942AB52EC5A8A4AA73189
:1046A000C731083A8A4A4942E831293A083AC731BB
:1046B000C7316A4AEC5A29422942494249420832E2
:1046C0008A4269426A424942083A083ACB52494A08
:1046D000294249422942A73125214521283A8A4ABF
:1046E00029428A4A29424942AA4AEC5A2942862941
:1046F000283AA7298A4AEB5269426942CB4ACB4AF7
:104700008A42283A0C530D5BCB4ACB52EC52AB4A4F
:104710002842E739CB52694A8A4A2D636A4A49429C
:10472000CB5249422942CB522C5B4942A7318629C0
:10473000652169424942083AAA4ACB52A731A731BA
:10474000083A4942E839C731AB52CB524D63AB52BC
:10475000E83149420C5B894A283A2C5BAA4A8629EF
:10476000283A29424942E739C73169428A4A694AA7
:104770006A42494249424A426A4A6629A7316A4A1C
:104780008A4A294269428A4A083AC731A6312842F0
:10479000E739083A694A28428629083A2842C73147
:1047A000E739E8392842EC5ACB52E731E839A731EA
:1047B0004942083AC73149422D5B6A42AB52AB527B
:1047C0006A4A6942E831293A293A293AA729A731A0
:1047D000A731C739C7316521CB52CB52852965290D
:1047E000A631E739A631A631242145298A5249420A
:1047F0006529C731C73186292521452124218631E4
:10480000A6312421E739073AC7314942862986294A
:10481000A6316629652966296A4AAB52CB524942BC
:10482000C731AA4A4942A629E731A629A629C73194
:10483000A7318629283A6942CB52083AE739C7316D
:10484000A631E739AA52E7314521083AAA528A4AE5
:1048500029428A52E841C739A729A731E839862970
:104860008A4AAA526942CA4AAA4A4942E731C7312A
:10487000283A8A4A69422842E7394942AB4ACB5230
:10488000CB524942293A6A42A7296521A629283AEA
:104890000C5B2C5B283A2942E839C731494249422E
:1048A000AA4ACB52AB52AB52694AA631A631C731A4
:1048B000694A083A894AC731C7318A4ACB52CB5232
:1048C0004942694A8A4A29428A4A0C538A4ACB5247
:1048D000694AA731C73165294521C731AB52EB5A27
:1048E0008A4A4942083A2942EC5ACB52CB524942B1
:1048F000083AAB52CB522942862969426A4AE831CA
:10490000083A283AA6294521C7318A4AEB5A4D630D
:10491000CB52CB52EB526A4A083A2942A631083AA6
:104920008A4A28422842083A65216521A629862913
:104930004942EC5A8A4A8A4ACB528A4AC731C72925
:104940008A426A42452145214942494AAA520C639A
:10495000A7318629C7314942283AE839E839083A67
:10496000C731C7316942EC5A0C5BEC5A083A083A35
:1049700029426A4A8A4AAA4A6A42CB520C5B694275
:10498000083AE731083A08320832E831C731A62937
:10499000083AAB528A4A083AC731083AE8392942FC
:1049A0000C5BAB52AB524942A7314621E839C731C3
:1049B0004942EB52CB52083286296621E8390C5B1A
:1049C0000C5BE839A731083AAA4A8A4A8A4A6942FE
:1049D000A731494249428529283A4842283A694A3A
:1049E000083A29420C5BEC5A8A4AAA526942083AB0
:1049F000E831083A2942AB5249424521A731E8390A
:104A0000E8392842CB520C5B65294521294269428D
:104A10004942CB52083AC731E839E839C731083A38
:104A2000083A86318A4AAA52A6318629083A49426A
:104A30006A4AA7316942AA4A283AA729A62986299B
:104A4000A62986296521862965212519093AC731B4
:104A5000C731862966298629083AC629083A8A4A2A
:104A6000EB528A4A28428629A631A739494AAB52D5
:104A70006A4A4521E4186529083AAB52284248425F
:104A8000EB5AE739073A8A4A452186298529C731F1
:104A9000CB52EC5A8A4AA7318A4A4942C731452942
:104AA0004521E8398A4A6A4ACB52694A28426A4A09
:104AB00086292421AA4A8A4AAB520C5B6A426621A3
:104AC000083AC731652986296629494A8A52C83970
:104AD000A731E73908428A4A4942A731C731694AB2
:104AE0008A4AAA52493A493AA62986296529E739C4
:104AF000452186298629C731EB5AAB4AA7294A4264
:104B0000CC526A42C731293A083AC7314942A629EC
:104B1000083A49426A4AA629E83945218A4A8A4A16
:104B20006A4A0C5B8A4A8629252104214529E839ED
:104B30004D63CB522C5BC7314521862949420C5B22
:104B40008A4A4942AB4A8A4A293A2942083AAB5230
:104B5000AB52AB5245290421C7316A4A8A4A2842DE
:104B6000A629652124192521C731C7314942662963
:104B70002521A73149424942A629294245214942D6
:104B8000494265216529083ACB522D63083AA62986
:104B9000C731083A4942CB52E731A629073A283AA9
:104BA000AA52AA526942894AC63124196629EC5A86
:104BB000E8390842083A294229420842C7316629A1
:104BC00045218629A7316A4AAB522942083A29422F
:104BD000E7394942083A8A4A2C5B2D5BAB4ACB52F3
:104BE0000C5B2942EC5A6A4A6942C73165218A4AFC
:104BF0002D63CB52862925210521E8396A42C73128
:104C0000AA52E7310319E418041945216629452100
:104C1000CB52AB5245218629083AAB520C5B2D632F
:104C2000AB52AB528A4A2521A731EC5A2D638A4AEE
:104C3000283AAB5249428629E731294249428A4AF9
:104C40006A4A083A283ACB52E83949424942C731C0
:104C5000A731863145290842EB5AE739C7312C6321
:104C60008629083A0C5B8B4AE839E8392942E73152
:104C7000E731A729A729083AC731E8398A4A083A0B
:104C8000E83986296A4A294286318A4A0C5BCB5226
:104C9000AA4A8A42083AC731083A6A4A8A4AAB5253
:104CA000083AE739C7316529A629AA4A8A4A28421B
:104CB0008629A629EC5A294265292421E318442192
:104CC00028424942AA52EB5A283AAB4A6942CB528F
:104CD000CB5A8A52CB528A4A083AAA4A0C5B8A4A71
:104CE000AA4A69420832C7298A4AAB52A6318629A4
:104CF000083A083AC731AA52083A083A4942083AEB
:104D0000E739E739E739EB52AA522842A63165293B
:104D1000E731C731E73986292942C7316529494238
:104D20008A52083A49422842A731662986298629AB
:104D3000A631652944218629E731E831C731862922
:104D4000283AAA4AA6318A4ACB5265296629862979
:104D500045210419C7316942E731694A2842E739D8
:104D60002842694A283A45196521C731AA526A4A38
:104D700029426521A731E73149428A4AC83187294A
:104D8000C731E831283AA731C731CB52EB528A4AB2
:104D90006A42AB4A4521862966296629E839494293
:104DA000083A66298629A731CB522D630C5B6A4AE3
:104DB0008629283A083A8A4A6A4ACB524942A73198
:104DC000A7294521E83149428629C731862925216D
:104DD0008629A731AA52CB5AAA52083AA731E739F5
:104DE0008A4A8A4A2C5B6A4A4942A7312521283AD5
:104DF000AA4A6629C731083A083A86294942083A38
:104E000065218629694A4D63083A8629E839CB52DB
:104E1000083AC731A629A629E731A731C731C731DA
:104E2000C7314942894A083A073A894ACB52AA4AC5
:104E3000C7312521C7316A4A0C5B2D63C731083A57
:104E40006942283A8A4A4D63EC5A0C5B4942652113
:104E500049422842EB5AEC5AA7318629E831293ACF
:104E6000C731C731294249428629C731494249429F
:104E70002942AA4ACB52EB526A4A2942E839A73161
:104E80006529C731AA4A8A4AEC5A4D63E8398A4AE9
:104E90002942C731C731083AAB520C5BAB528A4A40
:104EA0006942A73125216A4A6E6B0C5B69428629EB
:104EB000A7312521452149426D630C5BCB52294224
:104EC0002942C731083A6A4AC731C731083AA7317F
:104ED0000C5B4942EB5ACB52AA524942E739E739B7
:104EE000AA4AAB52662987296629083ACB52494219
:104EF0000C5B8A42494245218A4A4D63EB52AB52D0
:104F00008A4AE839862946292942E839E839662952
:104F1000C731083AAA4AA731A731A731E83966292B
:104F200066298A4AAA52CB526D63CB52083A452170
:104F30004521083A083A083AA631A731CB52CB525C
:104F40000C5B083AE739694A083A293A083A494273
:104F5000494208428629AA52CB524942A72904193C
:104F6000862145218621083A8A4A4942083A452144
:104F70006529C731C731083A28428629C7316629D1
:104F80002521E839083A083A6A4ACB52AB52A62999
:104F9000C731A629A631452145214521C731E73929
:104FA000AA52694AA63186298629A631652145215A
:104FB000C731AA52E731C631E73145212521C73132
:104FC000A631A629C731083A494229426A4A8A4A83
:104FD0000C5B28426529C731E731283A494228420B
:104FE0002842083A6942C731E73149424942E7312C
:104FF000C7312842CB5249428629A731AB4A0C5BC4
:10500000C731C73186298629083A694A283A293A98
:10501000C731294286294942EC5AE839E839293A08
:10502000493A4942C731E83149428A4A8A4AEC5AE8
:105030002942083A4942CB52EC5A8A4AE731C731F1
:10504000AB4A4942A729C731083A0C5BAB52083A30
:10505000CB52CB52CB5AEC5A8A4AC7314942694AA1
:1050600069428A4A6942C7316521083A6A4AEB5265
:10507000CB5249420C5BEB5AEB5ACB520C5BAA5217
:105080008A4AAB52EB528A4A083A49426A4A8A4AE9
:1050900049426A4AE731083ACB520C5B6A4AC73147
:1050A000C731A731A631083A6942EB5A8A4A8A4A7F
:1050B000EC5A4942AB52CB52C731E839C731E731DC
:1050C0002942E839AB528A4A6A4AE8398629294294
:1050D000CB52083A49422842AA4A293A4942083A58
:1050E000C731A7318629862949422C5BEC5A2942CF
:1050F000283AE7312842283A8A4A8A4AE839A731C9
:10510000083AAA52EC5A49426A4ACB52083ACB5260
:10511000AA4A8A4AC731A731E839E7316629862980
:10512000A731A731083ACB520C5B8A4AC731E8391C
:105130000C5B6A4ACB52EC5A494249426942E8390F
:1051400049422942083A8629A7318A4A6A4A8A4A44
:105150002942A7312842C739084228428A4AC73122
:10516000694ACB528629462129422942A631083A6A
:10517000CB52293AE831083ACB526A4A29426A4A64
:10518000E839C7312942AB528A4A66296629662125
:1051900086210832083AA731AB52CB52E839452173
:1051A000294269424942694A283A86294521A62965
:1051B0008A4A283A25216529A631AA526A4AE7393E
:1051C000A6316521694A083A452186218A4AE83193
:1051D000E839E83949426A4A6629452125212521CD
:1051E0008629C7318A4AEC5A2942C739652928429B
:1051F0008A4A0C5BE839C731C731A63104196629E0
:10520000C731A731E839293A083AE8394942A73184
:105210004521283ACB52283A25218629083AC73118
:10522000452165296529C731E839CB52CB528A4AD5
:1052300086294842CA52AA4AA6316529A731AA4AF4
:10524000C731A7314521A629083A8629083AA6314F
:105250002842694A4942CB52493AE731A6292942B4
:105260006A4AA7316629083AEB52E739C731494201
:10527000AA52083AE739A63128426A42C731294280
:10528000AB52EC5A29426942CB52E8394942494271
:1052900045210419A6292942AB524942C731293A6E
:1052A000C731E831083A8A4AC731C731E731C731D7
:1052B00049422942C73149426942AB52083A283A29
:1052C000EC5A2C5BAB52AB4A293A6A4AAB52CB52EE
:1052D0008A4A694AC7312842C7312842CB52CB5249
:1052E0004942C731E7316942083AAB528A4A4942DA
:1052F0004942083AE8394942283A29426A4A494229
:105300008A4A2942E83928426A4A2942494249429E
:10531000CB52CB52083A4942AA526A4AE839662926
:105320002942EC5AAB52AB5249426942293A4942AE
:105330006A42E831283A293A293ACB52E831E83929
:105340002942083A6942A73125218629E83949428C
:10535000AA52AA528A4A083AAB4AAB4ACB526A428C
:10536000C731494286294942EC5AAB526A4A8A4AB5
:105370006629C731A631A6298A4A8A4A083A093AD3
:105380006A4A083A6A42E839083AC731A731A62979
:10539000C731A6294942A7316629C7318629E73195
:1053A0008A4A4D636A4AE8398A4A69428A4A4942C6
:1053B00049426A4A8A4A083AC731E731A731AB52B3
:1053C000AB5229428A4ACB52CB52294249424942E6
:1053D00049426A4A694A083AC7318629083AA631D9
:1053E0008A4A083A86294A42AB52083A49426942F7
:1053F000E831083A2D5B6942C731C731A731C7315F
:1054000049428A4A083AE8396629A7318A4A494214
:105410008A4ACB4AE83949424942E839E8392942BF
:105420002C5B6A4A2942284265218629C731694294
:10543000E73986294521E839AA528A4A8629083A55
:10544000C7316529E739C731A62969428A4A293A0D
:105450000C638A4A494266296629283A2942294228
:10546000AA5249422942E839A631A631C731A631AC
:10547000E8392842E7398629452186296629A7295E
:1054800029424A42E839A729C731A73149428A4A05
:10549000C731083A49424942083AE739083A65298A
:1054A0006529A6314942EB524942694A083A283AED
:1054B00065294521E731E731A629083A8629E839E7
:1054C0008A4ACB526A4AA631E739A7316529C731E2
:1054D000C731E7392842AA4ACB4AC7316521C731CB
:1054E000C731C7310842083A694A083A8629C731A4
:1054F000E739C731C731294249428A4A2842A73190
:10550000A63129428A4A6942CB52083AE839083A18
:10551000083A293AE831C7318A4A0C5B083AC73160
:10552000E731293AAB4AEB52AB4A293A293A293AB0
:1055300069422942A731E83966296629E839C73125
:10554000A731A731E831E839C731C7316942AB52D9
:105550008A4A8A4A494249428A4AAA4A6A4A6A4A5D
:10556000E831E839083A0C5B4942083A4942083ABE
:105570008A4A69426A4A6A4A8A4AC7314521662983
:10558000694A8A4A2942AA52CB52083A2942E83942
:105590002942E83928424942283AA731C8312A42EB
:1055A000C831A7314A424942C731A629A629E83164
:1055B00049428A4AAA4A6A42AB4AAB4AA729862983
:1055C000E7318629A6296521E731283AE7312942C2
:1055D000283A49426A4AA731A629E839E83186299A
:1055E000083A0C5B6A4AE839C731A629C731083A3C
:1055F000E839AA522842C7312842E8398629E839D1
:10560000294287318629E839E839C731E839083A2B
:1056100029426A4A0C5B29428A4ACB524942EC5AD7
:105620000C5B8A4A4942E839A73129428A4A4942F1
:10563000294229426942083A8629C731A629083AEF
:10564000A731C7316A4A283A6A4A4942E731A73145
:105650008A4AAB52CB522842E731A631E739E739C3
:10566000AA4AC731C7314942A7316942EB522942A0
:10567000083A8A4A8A4A083A6629A7316A4A0C5B7C
:10568000AB52083AE731E73186296A4A294286292E
:105690000832083AC731CB524942862929428A4A00
:1056A0006A42AA4A083AA6312842CB52A731652954
:1056B00086294521083A4942083AC731A73149426B
:1056C000C731E7398A4A894A4942493A0832083A91
:1056D000083A662966298629AA4A8A4AC739A6311C
:1056E000083A083AC7318631A73145296A4A8629DE
:1056F00086292421A7312842E739694AE7396629F2
:10570000E8392942083A45214521A7318A4AAB5256
:10571000E7316521A7316529C731083A2842652953
:10572000E8398A4A2842694A8629A631E739294256
:105730008A4A694AA6316521C631CA524942A63110
:10574000284249428A4A083A862929428A4AAA5264
:10575000E73986296629A731E7398629A62925212F
:105760006529E839AA5228428629A6312842E7311C
:10577000E739283A2842AA522942E8398A4A494256
:10578000083A29428A4A083AC731862929422942D9
:1057900029422D630C5BCB528A4A8A4A8A4A8A4A3A
:1057A000AB4A49426A42293A8A4AE7318621862928
:1057B000E731C731C731C731A731A6298A4AEB5231
:1057C0004942C731A73129422942083A8629A729E7
:1057D000E831CB52EC526A424942083A2942C73179
:1057E000E839CB52C7316A4AEB52C7314942083ACD
:1057F000AB524942083AE839C731C731E739694AFB
:10580000CB52CB52CB52AA526A4A6A4A2D634942C2
:105810008629A7318A4A694AE8398729C831CC5A8A
:105820006A4A8629A7316A4A8A4A083A6A4AEC5281
:10583000EB52AB4AAA4A6A42A729A729E83186292E
:1058400045214521A7316A4AEC5A0C5B083AC73119
:10585000A729C73149426942083A6A4AA7318A4AA8
:105860008A4A8A4AAB52A731C7312942C7318629B1
:10587000A731083A083A4942E73986294942C731EF
:105880008629872929420C5B8A4AAA4A2C5B2D6308
:10589000CB526A4A2942AA4AEC5A6A4AA73149427B
:1058A000083A283AAB528A4A283AC73149426A4AEA
:1058B00029426A4A6942E73186298629A6296A4A25
:1058C000083A49428A4AC7316629A7318629A6295A
:1058D000083AC731E731AA52AA4A49428A4A083AE5
:1058E000083A662949424942C7318A4AE839E839C3
:1058F000AA4ACB52083AC731E8316A4ACB52CB5256
:1059000028428629083AC73149428A52083A494210
:10591000E731A629E731283AE839A6298A4A8A4A8E
:105920006629E731083A694A8A4A4942A629C731B5
:105930004521C7318A4A4942E839083A083A29429A
:10594000083A694249426942E73186214521862960
:1059500086294529A73149424942083AE83986292A
:10596000E731083A283A083A0842C739A631C73120
:10597000C731C731A6318A4A4942AA528A4AE73911
:105980000842E8398631A73149428629E839083A80
:10599000E731E731E731A631C731E73986294521BB
:1059A000E739494286296529A6318629C731494206
:1059B0006A4AAB522942A631083A694A6942C7315C
:1059C0004521452966298629E731CA52AA4A8A4AC9
:1059D0006942E73145210419C731083A8A4A694AC0
:1059E000A6314942083A2942A63166298A4A8A4A9A
:1059F000AA4AEB52E731083A083AA631E739284279
:105A0000CB524942A6316521662966296629A7310C
:105A10008629862969428A4A4942283A49424942A6
:105A20002942C73166296629652125196621083A68
:105A3000283A49420C5B2D63AB52083A6A4AEC5A49
:105A4000EC5AAB52283ACB52EC5AEC5A083AE839A5
:105A5000E831494249428621A729083A0C5B6A4A43
:105A600029426A4AC731083AAB528A4AE839294280
:105A70008A4AA731E839E739A7318A4AAA4A083A57
:105A8000083AC731E731A631452186294942083A0B
:105A9000283A6A4A862966296521E8394A42E8395E
:105AA000E8398A4A2942A7316A4A2C5B0C5BAB4A27
:105AB000E831E839083A083A6942E831CB52AA4A53
:105AC0006A4A083AAB52EC5A083A083AE83949426D
:105AD000293A083A8A4A8A4ACB52E839E839083AD8
